:020000040800F2
:1000000098EE002059030008351300088D020008FF
:10001000DD1200089D0A0008A11D00080000000074
:10002000000000000000000000000000A102000825
:10003000FD0C000800000000F5020008C5160008CD
:1000400073030008730300087303000873030008B8
:100050007303000873030008070D0008AB0D0008C8
:10006000BB0D0008CB0D0008090E0008F50A0008BA
:1000700073030008050B0008150B00087303000844
:10008000730300087D0B00087303000800000000E4
:100090000000000000000000000000001F0E00082B
:1000A0007303000873030008730300087303000858
:1000B0007303000873030008730300086510000849
:1000C0005510000873030008730300087303000849
:1000D00073030008A11B0008D51B000800000000E6
:1000E0001F0D0008730300087303000800000000E0
:1000F0000000000000000000000000007303000882
:100100000000000073030008730300087303000875
:1001100000000000000000000000000000000000DF
:1001200073030008730300087303000873030008D7
:100130007303000800000000000000000000000041
:100140000000000000000000000000007303000831
:1001500073030008730300087303000873030008A7
:100160008510000875100008000000000000000065
:10017000000000000000000000000000000000007F
:1001800000000000730300080000000000000000F1
:10019000730300087303000800F002F800F067F82A
:1001A0000AA090E8000C82448344AAF10107DA45D2
:1001B00001D100F05CF8AFF2090EBAE80F0013F0BD
:1001C000010F18BFFB1A43F00103184778A600007F
:1001D00098A600000A444FF0000C10F8013B13F001
:1001E000070408BF10F8014B1D1108BF10F8015B90
:1001F000641E05D010F8016B641E01F8016BF9D183
:1002000013F0080F1EBF10F8014BAD1C0C1B09D1D9
:100210006D1E58BF01F801CBFAD505E014F8016B4B
:1002200001F8016B6D1EF9D59142D6D370470000DD
:100230000023002400250026103A28BF78C1FBD8EF
:10024000520728BF30C148BF0B607047642900F0D7
:10025000FF80782900F03881732900F0CF830020D7
:1002600070471FB50AF083F91FBD10B510BD00F02F
:10027000E7FB1146FFF7F5FF05F04AFB00F005FC30
:1002800003B4FFF7F2FF03BC02F017FE1EF0040FE9
:100290000CBFEFF30880EFF3098006F0B9BC000053
:1002A0002A4B19680868B0E8F04F80F30988BFF35B
:1002B0006F8F4FF0000080F311887047000000003E
:1002C00006480068006880F3088862B661B6BFF32C
:1002D0004F8FBFF36F8F00DF00BF00BF08ED00E05E
:1002E000DFF80C00016841F470010160704700BF45
:1002F00088ED00E0EFF30980BFF36F8F134B1A68AE
:100300001EF0100F08BF20ED108A20E9F04F10609A
:1003100008B44FF0500080F31188BFF34F8FBFF344
:100320006F8F09F053F84FF0000080F3118808BC7C
:1003300019680868B0E8F04F1EF0100F08BFB0EC65
:10034000108A80F30988BFF36F8F70472C0200205A
:10035000EFF30580704700000948804709480047CF
:10036000FEE7FEE7FEE7FEE7FEE7FEE7FEE7FEE765
:10037000FEE7FEE704480549054A064B70470000C2
:10038000E51600089901000898E8002098EE002082
:1003900098EA002098EA0020704710B54C1084EAD3
:1003A000530404D54042C1F1000138BF491E1B422D
:1003B00004D55242C3F1000338BF5B1E00F018FAA7
:1003C00014F0804F04D04042C1F1000138BF491EF3
:1003D00014F0004F04D05242C3F1000338BF5B1E3B
:1003E00010BD00000FB4044910B503AA029800F034
:1003F00009FB10BC5DF814FB1C00002070B50C4616
:100400000546012A05D02878800600D5EA69002330
:1004100002E0012305E05B1C934202D2E05C00286D
:10042000F9D1A869E618C01AA861286A1844286298
:100430002846AFF3008004E0D5E9012114F8010B50
:100440009047B442F8D32846AFF3008070BD000057
:100450002DE9F0410646002410687529314616A59D
:1004600010D0AFF30080002802DA404213A507E065
:1004700031688A0701D512A502E0490704D511A504
:10048000012401E0AFF3008000210A2206F12407D5
:1004900009E0B0FBF2FCB0FBF2F302FB1C003030D1
:1004A00078541846491C0028F3D123462A46304682
:1004B000BDE8F04100F01EBA000000002D00000071
:1004C0002B0000002000000070B504460D462146B8
:1004D0001068AFF300802188090502D50F4A7A44DD
:1004E00002E00E4A7A440E32002104F1240305E0B2
:1004F00000F00F060009965D5E54491C0028F7D1F4
:1005000020780023000704D5702D02D009B1022302
:1005100011322046BDE8704000F0ECB9C2A10000E5
:100520002DE9F05F894604464FF0000ADFF824B158
:10053000FB44C0F820A02046E168884700287DD011
:10054000252806D0D4E901219047206A401C20626A
:10055000F1E700255F462046E168884720280646E7
:1005600007DB312E05D2B81910F8200C08B105436D
:10057000F1E7A80701D525F00405C4F81CA0002761
:10058000C4F818A02A2E09D0304602F08FFC38B3E8
:1005900004EB8708303EC8F8186019E059F8041BCE
:1005A000204604EB87029161E1688847012F0646E7
:1005B00018D1E069002820DA25F020051DE0D8F8E0
:1005C000180000EB800006EB40003038C8F8180037
:1005D0002046E1688847064602F068FC0028EED114
:1005E000012F0AD02E2E08D12046E16888477F1CB3
:1005F0000646022F45F02005C4DBA069002803DA77
:10060000404245F00105A061E80701D025F0100542
:10061000A6B1A6F14100192802D8203645F400659C
:100620004A463146204625604D46FFF70FFE60B131
:10063000012807D0ED1D25F0070000E007E000F1DC
:10064000080978E705F1040975E730467AE7206A7A
:10065000BDE8F09F98A10000032A40F2308010F01E
:10066000030C00F0158011F8013BBCF1020F62444D
:1006700098BF11F801CB00F8013B38BF11F8013BDE
:10068000A2F1040298BF00F801CB38BF00F8013B8B
:1006900011F0030300F02580083AC0F0088051F8FB
:1006A000043B083A51F804CBA0E80810F5E7121D06
:1006B0005CBF51F8043B40F8043BAFF30080D20725
:1006C00024BF11F8013B11F801CB48BF11F8012BF1
:1006D00024BF00F8013B00F801CB48BF00F8012B14
:1006E000704710B5203AC0F00B80B1E81850203A9E
:1006F000A0E81850B1E81850A0E81850BFF4F5AFC2
:100700005FEA027C24BFB1E81850A0E8185044BF4B
:1007100018C918C0BDE810405FEA827C24BF51F8B8
:10072000043B40F8043B08BF7047D20728BF31F8AC
:10073000023B48BF11F8012B28BF20F8023B48BFFD
:1007400000F8012B704702F0FF0343EA032242EA5C
:10075000024200F002B84FF000020429C0F01280FB
:1007600010F0030C00F01B80CCF1040CBCF1020F64
:1007700018BF00F8012BA8BF20F8022BA1EB0C0139
:1007800000F00DB85FEAC17C24BF00F8012B00F82F
:10079000012B48BF00F8012B70474FF0000200B555
:1007A000134694469646203922BFA0E80C50A0E894
:1007B0000C50B1F12001BFF4F7AF090728BFA0E842
:1007C0000C5048BF0CC05DF804EB890028BF40F80E
:1007D000042B08BF704748BF20F8022B11F0804F50
:1007E00018BF00F8012B704770477047704770477B
:1007F00053EA020C00F069802DE9F04B4FF000063F
:10080000002B1FBFB3FA83F503FA05F424FA05F6AB
:100810005E4012BF1643B2FA82F502FA05F4C5F142
:1008200020051EBF22FA05FC44EA0C04203556EAD6
:10083000044C4FEA144418BF641C4FF000084FF0FA
:100840000009904271EB030C39D3002919BFB1FAAA
:1008500081F701FA07F6B0FA80F700FA07F6C7F158
:1008600020071EBF20FA07FC46EA0C062037B6FB1D
:10087000F4FCA7EB0507103F07F01F0BCBF1200698
:100880000CFA0BFB2CFA06F644BFB3460026202FC9
:10089000A4BF5E464FF0000B5BEA060C08BF4FF0AA
:1008A000010B19EB0B09ABFB027C48EB0608C01BE4
:1008B00006FB02CC0BFB03CC71EB0C01C1E70B4632
:1008C000024641464846BDE8F08B13B54FF00000A4
:1008D0004FF00001AFF30080BDE81C40704710B539
:1008E00000F0A2F8006810BD10B5044600F09CF8B6
:1008F000046010BD2DE9F0470D4699469246044626
:1009000000F124080168880604D5E06921F010018F
:10091000216000E00120A84201DD471B00E0002724
:10092000A1697A1902EB0900081AA0612078C006B3
:1009300002D42046AFF30080002608E0D4E901216C
:100940001AF806009047206A401C761C20624E452B
:10095000F4DB2078C0060AD52046AFF3008006E01D
:10096000D4E9012130209047206A401C2062381EC3
:10097000A7F10107F4DC07E0D4E9012118F805002C
:100980009047206A401C2062281EA5F10105F3DC77
:100990002046AFF300802078000602D50220BDE893
:1009A000F0870120FBE7000001694A1C026108781A
:1009B000704700B58FB0CDE901310021059105499F
:1009C0007944CDE9031011466846FFF7A9FD0FB041
:1009D00000BD0000E5FFFFFF10B5436913B1AFF3A1
:1009E000008001E0FFF70AFD012010BD127800F140
:1009F00024010A7000224A700122EDE711684FF0CD
:100A0000FF32E9E7074B70B50D467B44FFF7D1FF96
:100A10000446284600F00CF810B14FF0FF3070BDCE
:100A2000204670BDB33A00000048704738E8002007
:100A3000007B00F0800070470048704738E80020D5
:100A40007546FFF7F9FFAE4605006946534620F0AC
:100A50000700854618B020B5FFF78CFCBDE82040A4
:100A60004FF000064FF000074FF000084FF0000B6A
:100A700021F00701AC46ACE8C009ACE8C009ACE81D
:100A8000C009ACE8C0098D46704710B50446AFF305
:100A900000802046BDE81040FFF7F2BB0021084669
:100AA00004F0F2FF0021012004F0EEFF00210220FB
:100AB00004F0EAFF0021032004F0E6FF04F044FD07
:100AC0000121022004F09EFD0121042004F09AFD82
:100AD000C02102A007F084FF00BFFEE72E2E5C4875
:100AE000415244574152455C7372635C6E76696350
:100AF0002E63000010B5024803F027FE10BD000071
:100B0000C800002010B5024803F01FFE10BD000011
:100B10002C01002008B5002000900022102113486D
:100B200000F0A0F84FF0C051104800F045F84FF029
:100B3000C0510E4800F026F8002201210C4800F0B8
:100B40000FFD0021094800F051F869460948006886
:100B500008F0BAFF009838B14FF08050064908609D
:100B6000BFF34F8FBFF36F8F08BD00005860024086
:100B7000003800401402002004ED00E010B507F03A
:100B80009FFF10BD0246094B9A4201D2084801E07E
:100B90000648103801F000531BB1064B0B40C360F0
:100BA00002E0044B0B408360704700001064024079
:100BB000006002407D0F7D0F0246094B9A4201D230
:100BC000084801E00648103801F000531BB1064BFD
:100BD0000B40C36002E0044B0B4083607047000091
:100BE00010640240006002407D0F7D0F21B1026859
:100BF00042F00102026003E0026822F0010202609A
:100C00007047014600200A6802F001020AB1012083
:100C100000E0002070470146486880B2704700003D
:100C200030B503460A46002000240B4DAB4201D2EA
:100C30000A4901E00849103902F000550DB14C682D
:100C400000E00C68064D2C4004EA02050DB10120BD
:100C500000E0002030BD000010640240006002404F
:100C60007D0F7D0F10B501F080034BB122B14369B8
:100C700043F08003436103E0436923F08003436151
:100C800080290BD02AB1036801F01E0423430360BE
:100C900004E0036801F01E04A343036010BD0000DC
:100CA00010B500220268134B1A40CC680B6823432E
:100CB0004C6923438C692343CC6923430C6A234347
:100CC0004C6A23438C6A23434C6B23438C6B234332
:100CD0001A430260426922F00702D1E90B34234330
:100CE0001A4342610B6943604B6883608B68C36041
:100CF00010BD00003F801CF041607047704710B588
:100D000008F09EF810BD10B5012000F0C5F8FFF7FF
:100D1000F6FF10BD7047704770477047704710B5B9
:100D20004FF4806000F0BEF8012804D1800200F08A
:100D3000B3F8FFF7EFFF4FF4006000F0B3F80128BD
:100D400004D1C00200F0A8F8FFF7E5FF4FF480508F
:100D500000F0A8F8012804D1000300F09DF8FFF787
:100D6000DBFF4FF4005000F09DF8012804D1400350
:100D700000F092F8FFF7D1FF4FF4804000F092F8B6
:100D8000012804D1800300F087F8FFF7C7FF4FF474
:100D9000004000F087F8012804D1C00300F07CF87F
:100DA00000F001F810BD7047704710B5022000F048
:100DB00073F8FFF7F9FF10BD704710B5042000F07D
:100DC0006BF8FFF7F9FF10BD704710B5082000F071
:100DD00063F8FFF7F9FF10BD08B5002000906946E1
:100DE0000748006808F070FE009838B14FF0805056
:100DF00004490860BFF34F8FBFF36F8F08BD000039
:100E00000404002004ED00E010B5102000F044F8C8
:100E1000FFF7E2FF10BD704770477047704710B58D
:100E2000202000F03FF8012804D1202000F034F801
:100E3000FFF7F1FF402000F035F8012804D14020F1
:100E400000F02AF8FFF7E8FF802000F02BF80128D7
:100E500004D1802000F020F8FFF7DFFF4FF480700E
:100E600000F020F8012804D1000200F015F8FFF787
:100E7000D5FF4FF4007000F015F8012804D14002AE
:100E800000F00AF800F001F810BD70470149086051
:100E900070470000143C01400149086070470000A1
:100EA000143C014001460020034A12680A400AB17E
:100EB000012000E000207047143C0140002123493C
:100EC0008279002A3AD00A46126803689A430B4690
:100ED0001A600A1D126803689A430B1D1A60027992
:100EE00011440A6803681A430A60184A08321268F3
:100EF00003689A43154B08331A601A1D1268036879
:100F00009A43124B0C331A604279102A0ED11A1FE1
:100F1000126803681A430D4B08331A601A1D1268D1
:100F200003681A43094B0C331A600DE007494279F4
:100F300011440A6803681A430A6005E00279114403
:100F40000A6803689A430A6070470000003C014049
:100F5000F0B50A4600210023002400BF3DE0012532
:100F600005FA01F3156805EA03049C4234D10568CB
:100F70004F000326BE40B543056015794E00B540CD
:100F80000668354305601579012D02D01579022DCB
:100F900016D185684F000326BE40B543856055795C
:100FA0004E00B540866835438560456801268E4011
:100FB000B5434560456896798E40B6B23543456085
:100FC000C5684F000326BE40B543C560D5794E00C5
:100FD000B540C6683543C560491C1029BFD3F0BD74
:100FE000F0B5002300244D07ED0E02FA05F3CE10F4
:100FF00000F1200555F826504E07F70E0F26BE408B
:10100000B543CF1000F1200646F82750CE1000F16E
:10101000200555F8265045EA0304CE1000F12005BE
:1010200045F82640F0BD0246002013690B400BB185
:10103000012000E000207047418370470183704722
:101040004FF6FF7101600021017141718171C17121
:101050007047000010B5024803F0D0FB10BD00003F
:10106000C800002010B5024803F012FC10BD0000BB
:10107000C800002010B5024803F0C0FB10BD0000FE
:101080002C01002010B5024803F002FC10BD000046
:101090002C01002021B1028842F48062028004E029
:1010A00002884FF6FF331A4002807047002221F079
:1010B0007F42D3438382704721B1828842F4006229
:1010C000828004E082884FF2FF731A40828070476A
:1010D00021B1828842F48052828004E082884EF6F8
:1010E000FF731A408280704710B50446134884424B
:1010F00009D10121480500F09FF900214FF40010AB
:1011000000F09AF918E00E48844209D101218805BF
:1011100000F092F900214FF4800000F08DF90BE00F
:101120000848844208D10121C80500F085F9002152
:101130004FF4000000F080F910BD000000540040A2
:1011400000580040005C00400CB50246002000231F
:101150000193009300920B0F019321F07F41019BBB
:101160001BB1009B1433009303E0090C009B183360
:101170000093009B1B680B400BB1012000E0002096
:101180000CBD1AB183880B43838002E083888B43B4
:10119000838070472DE9FF4704460D460026B1467F
:1011A0000427DFF8CC80A6884FF6C070064068465A
:1011B00000F062F9DDF808802E48B8FBF0F01FFA65
:1011C00080F946EA0906A68020884FF6FE7108409D
:1011D000208000262849286888420CD828684000CA
:1011E000B8FBF0F087B2042F00DA04273E4309F180
:1011F0000100208427E0E8884BF6FF71884206D181
:10120000286800EB4000B8FBF0F087B209E02868DE
:1012100000EBC00101EB0010B8FBF0F087B247F41F
:101220008047C7F30B0008B947F0010747F40040B7
:1012300006434FF4967009FB00F04FF47A7190FB6F
:10124000F1F0401C2084A683208840F0010020801B
:1012500026884FF6F5300640A8886989084306437A
:101260002680A889298908432081BDE8FF870000DE
:1012700000127A0040420F00A08601000146088A51
:10128000C0B2704712B141F0010101E001F0FE016E
:1012900001827047018270474CF6CC4001490860DA
:1012A00070470000003000404AF6AA20014908605B
:1012B000704700000030004001494860704700005E
:1012C0000030004001498860704700000030004055
:1012D00001490860704700000030004000210846C6
:1012E00004F0D2FB0021012004F0CEFB00210220FB
:1012F00004F0CAFB0021032004F0C6FB04F024F92B
:101300000121022004F07EF90121042004F07AF981
:10131000AC2102A007F064FB00BFFEE72E2E5C4864
:10132000415244574152455C7372635C6E76696307
:101330002E6300007047000070B5002100230F22CB
:10134000C4781CB3174C246804F4E064C4F5E0646A
:10135000C4F30721C1F10404E3B20A4144789C407C
:10136000E1B28478144021430C07210E0E4C05781D
:101370006155047804F01F050124AC4005786D1117
:10138000AD0005F1E025C5F8004109E0047804F05E
:101390001F050124AC40054D0678761145F826401E
:1013A00070BD00000CED00E000E400E080E100E032
:1013B00002490143024A1160704700000000FA052B
:1013C0000CED00E0024A0A400243024B1A607047EB
:1013D00080FFFF1F08ED00E029B1064A12680243B2
:1013E000044B1A6004E0034A12688243014B1A60FE
:1013F000704700003038024029B1064A12680243A3
:10140000044B1A6004E0034A12688243014B1A60DD
:10141000704700003438024029B1064A126802437E
:10142000044B1A6004E0034A12688243014B1A60BD
:10143000704700004038024029B1064A1268024352
:10144000044B1A6004E0034A12688243014B1A609D
:10145000704700002038024029B1064A1268024352
:10146000044B1A6004E0034A12688243014B1A607D
:101470007047000024380240F0B50021002200240B
:10148000022500260223324F3F6807F00C0121B1EC
:10149000042905D0082937D105E02E4F076036E032
:1014A0002D4F076033E02A4F3F1F3F68C7F3805638
:1014B000274F3F1F3F6807F03F036EB1264FB7FB32
:1014C000F3F7DFF88CC0ACF1040CDCF800C0CCF30F
:1014D000881C07FB0CF40CE01E4FB7FBF3F7DFF89A
:1014E00070C0ACF1040CDCF800C0CCF3881C07FB26
:1014F0000CF4174F3F1F3F68C7F301477F1C7D0067
:10150000B4FBF5F7076002E0124F076000BF00BFB1
:101510000F4F3F6807F0F0010909104F7A5C076828
:10152000D74047600A4F3F6807F4E051890A0B4FE4
:101530007A5C4768D7408760054F3F6807F4604191
:10154000490B064F7A5C4768D740C760F0BD000082
:10155000083802400024F40000127A001C02002027
:101560001AB183880B43838002E083888B43838096
:101570007047000030B500228B071C0F0F2303FAC1
:1015800004F20B4B8C1053F824309343084C8D100D
:1015900044F8253023468C1053F824308C07240F50
:1015A00000FA04F42343024C8D1044F8253030BD7A
:1015B000083801400CB500200190009033480068C5
:1015C00040F480303149086000BF3048006800F4C2
:1015D000003000900198401C0190009818B90198C3
:1015E000B0F5A04FF1D12948006800F4003010B1E7
:1015F0000120009001E0002000900098012844D1D3
:1016000022484030006840F0805020494031086056
:101610001F48006840F440401D4908601B480830DE
:1016200000681A49083108600846006808600846E2
:10163000006840F4805008601648091F0860081FC1
:10164000006840F08070091F086000BF0F48006804
:1016500000F000700028F9D040F202700E490860D6
:101660000A480830006820F0030008490831086083
:101670000846006840F00200086000BF03480830D8
:10168000006800F00C000828F8D10CBD00380240BA
:101690000070004008304004003C0240042808D19B
:1016A0004FF0E021096941F004014FF0E02211619F
:1016B00007E04FF0E021096921F004014FF0E0223A
:1016C0001161704710B508F0A5FA012802D007F0A3
:1016D000DBFF04E002480068401C0149086010BDBF
:1016E000D401002010B51548006840F4700013497B
:1016F00008601348006840F00100114908600020AC
:101700000F49083108600E4800680E4908400C492E
:1017100008600D48091D0860081F006820F480203B
:10172000091F0860002006490C310860FFF742FFDE
:101730004FF0006001498039086010BD88ED00E07D
:1017400000380240FFFFF6FE1030002421B102886D
:1017500042F08002028004E002884FF67F731A4054
:101760000280704721B1028842F00102028004E049
:1017700002884FF6FE731A400280704710B5044687
:101780005548844208D101210846FFF765FE002133
:101790000120FFF761FE9DE0B4F1804F08D10121E7
:1017A0000846FFF749FE00210120FFF745FE91E0C2
:1017B0004A48844208D101210220FFF73DFE002162
:1017C0000220FFF739FE85E04548844208D1012117
:1017D0000420FFF731FE00210420FFF72DFE79E001
:1017E0004048844208D101210820FFF725FE00214E
:1017F0000820FFF721FE6DE03B48844208D101211B
:101800001020FFF719FE00211020FFF715FE61E000
:101810003648844208D101212020FFF70DFE002127
:101820002020FFF709FE55E03148844208D101210C
:101830000220FFF711FE00210220FFF70DFE49E014
:101840002C48844209D101210804FFF705FE00213C
:101850004FF48030FFF700FE3CE02748844209D176
:1018600001214804FFF7F8FD00214FF40030FFF795
:10187000F3FD2FE02148844209D101218804FFF7BC
:10188000EBFD00214FF48020FFF7E6FD22E01C482D
:10189000844208D101214020FFF7CEFD00214020E5
:1018A000FFF7CAFD16E01748844208D101218020C5
:1018B000FFF7C2FD00218020FFF7BEFD0AE01248BD
:1018C000844207D101218015FFF7B6FD0021A01544
:1018D000FFF7B2FD10BD0000000001400004004011
:1018E00000080040000C00400010004000140040C0
:1018F0000004014000400140004401400048014014
:1019000000180040001C00400020004070B500247A
:1019100000220023058C4FF6FE7635400584028CAC
:101920008388048B4FF68F752C40B51E2C400D8894
:101930002C43751E2A408D892A434D882A43104D19
:10194000A84202D00F4DA84213D14FF6F7752A4096
:10195000CD892A434FF6FB752A408D882A434FF6DE
:10196000FF652B404FF6FF552B400D8A2B434D8AC8
:101970002B43838004838D684563028470BD00001F
:1019800000000140000401400A460021018B4FF68F
:10199000F7731940114301837047000070B50024AC
:1019A00000220023058C4FF6EF7635400584028C2B
:1019B0008388048B48F6FF752C404FF6FF452C407A
:1019C0000D884FF6FF7606EA05252C434FF6DF75A6
:1019D0002A408D8906EA05152A434D8806EA051531
:1019E0002A43154DA84202D0144DA8421DD14FF6EE
:1019F0007F752A40CD894FF6FF7606EA05152A4302
:101A00004FF6BF752A408D8806EA05152A434FF622
:101A1000FF352B404FF2FF752B400D8A06EA8505F6
:101A20002B434D8A06EA85052B43838004838D680A
:101A30008563028470BD0000000001400004014085
:101A40000A460021018B4FF2FF7319404FF6FF73D6
:101A500003EA0223194301837047000070B5002494
:101A600000220023058C4FF6FF6635400584028C6A
:101A70008388848B4FF68F752C404FF6FC752C4075
:101A80000D882C434FF6FF552A408D894FF6FF767F
:101A900006EA05252A434D8806EA05252A43154D01
:101AA000A84202D0144DA8421DD14FF2FF752A4022
:101AB000CD894FF6FF7606EA05252A434FF6FF3516
:101AC0002A408D8806EA05252A434EF6FF752B40ED
:101AD0004DF6FF752B400D8A06EA05152B434D8AFE
:101AE00006EA05152B43838084838D68C5630284D1
:101AF00070BD000000000140000401400A460021C2
:101B0000818B4FF6F773194011438183704741630E
:101B1000704781637047C1637047000000220288EC
:101B2000184B98420ED0184B98420BD0B0F1804F12
:101B300008D0164B984205D0154B984202D0154B51
:101B4000984204D14FF68F731A404B881A43124BB8
:101B5000984207D0114B984204D04FF6FF431A40E9
:101B60000B891A4302804B68C3620B880385054BBF
:101B7000984202D0044B984201D18B7A038601230C
:101B800083827047000001400004014000040040CF
:101B900000080040000C004000100040001400400D
:101BA0001CB50020009040F22551084800F034F8A0
:101BB00058B1064800F0EAF8C0B2019000236A4626
:101BC00001A90348006807F031FF1CBD0010014067
:101BD0000002002010B507F08BF810BD01F4007270
:101BE000B2F5007F00D100BFCA430280704721B127
:101BF000828942F40052828104E082894DF6FF73AB
:101C00001A40828170471AB1838A0B43838202E0B3
:101C1000838A8B438382704770B502460024002379
:101C20000025002040F66A16B14200D100BFC1F382
:101C3000421501F01F03012606FA03F3012D02D11C
:101C40009689334006E0022D02D1168A334001E026
:101C5000968A33400C12012606FA04F416883440A2
:101C600013B10CB1012000E0002070BDF0B50346B7
:101C7000002400260025002040F66A17B94200D152
:101C800000BF1846C1F3421401F01F06012707FAEE
:101C900006F5012C01D10C3004E0022C01D11030EA
:101CA00000E014301AB107682F43076002E00768AC
:101CB000AF430760F0BD00002DE9FF4705460E4623
:101CC0000024A14600BFA046B08900B100BF2C8A05
:101CD00024F44054F08804432C82AC8941F20C6017
:101CE0008443B08831890843718908430443AC8137
:101CF000AC8A24F44074B0890443AC826846FFF790
:101D0000BBFB2048854202D01F48854202D1DDF846
:101D10000C9001E0DDF80890A88900F4004040B183
:101D200009EBC90000EB091031684900B0FBF1F77D
:101D300007E009EBC90000EB091031688900B0FB2E
:101D4000F1F76420B7FBF0F004012009642101FBE6
:101D50001078A88900F4004040B1322000EBC800A0
:101D6000B0FBF1F000F00700044308E0322000EB84
:101D700008106421B0FBF1F000F00F0004432C8147
:101D8000BDE8FF870010014000140140014688882B
:101D9000C0F308007047C1F308028280704700005A
:101DA0000021084603F070FE0021012003F06CFEC4
:101DB0000021022003F068FE0021032003F064FEEE
:101DC00003F0C2FB0121022003F01CFC01210420CE
:101DD00003F018FCD42102A006F002FE00BFFEE7CB
:101DE0002E2E5C48415244574152455C7372635CED
:101DF0006E7669632E6300004100080218BF04205C
:101E00000A0E18BF40F001004FF07F4232EA010194
:101E100008BF40F00200012808BF052070470000FD
:101E200010B54FF00E402DED028BB0EE408A18EE4B
:101E3000104A00EB4400B0F1506F4AD84FF0FC401C
:101E4000B0EB440F22D2B0EEC80AF7EE000A30EE33
:101E5000C00AF6EE000A60EE208A18EE900A06F03C
:101E6000C1FB01EE100A14F0004F1DBFDFED2D0A7B
:101E70009FED2D0AB1EE411ADFED2C0A08BF9FED50
:101E80002C0AF8EE001A21EE218A05E0DFED290A7E
:101E900068EE088AB0EE600A9FED271ADFED271A78
:101EA00030EE080A48EE811A9FED251A08EEA11AB5
:101EB000DFED241A48EE811A9FED231A08EEA11ACD
:101EC00068EE281ABDEC028B01EE810A30EE200A82
:101ED00010BD4FF0E440B0EB440F0CD918EE100ADF
:101EE000FFF78AFF042808BF00F02EFFB0EE480A73
:101EF000BDEC028B10BD4FF07F40B0EB440F07D21A
:101F0000B0EE480ABDEC028BBDE8104000F006BF01
:101F10000120FEF7E9FCBDEC028BBDE8104000F0AB
:101F200003BF00000000C9BF22AAFDB90000C93FDD
:101F300022AAFD390000000024FE1C3DC78AD83CBF
:101F40001E67383D1B93993DAFAA2A3E70B54FF0EE
:101F500068422DED048BF0EE408A18EE900AB0EE48
:101F6000608A18EE101A02EB4003B3F1654F3CBFD4
:101F700002EB4102B2F1654F7DD200BFC0F3C753FF
:101F8000C1F3C7529A1A1B2A09DD10F0004F14BF83
:101F90009FED830A9FED830ABDEC048B70BD12F1A7
:101FA0001A0F36DA11F0004F09D010F0004F0CBFB5
:101FB0009FED7D0A9FED7D0ABDEC048B70BD88EE20
:101FC000889A19EE100AFFF717FF042808BF00F0DF
:101FD000BBFE18EE900AFFF70FFF054618EE100A39
:101FE000FFF70AFF044619EE100AFFF705FF042D5C
:101FF00018BF052D08D1042C18BF052C04D10028CA
:1020000004BF0220FEF770FCB0EE490ABDEC048B61
:1020100070BD4200B2EB410F3AD910F0004F19BF2A
:10202000DFED630A9FED630ADFED630A9FED630A4C
:10203000B0EE481A0A46B1EE688A80F00041F0EE30
:10204000418A10460A1A5200B2F1807F34D24840C9
:1020500010F0004FDFED5A1A9FED5A2A1DBFBEEE59
:10206000001A70EEE10A30EE420AB6EE001A08BF1E
:1020700070EEA10A00E040E008BF30EE020AB0EEC8
:10208000682A01EE482A08EE818AC2EE081A15E095
:1020900011F0004F04BF9FED4C0AF0EE400AD1D082
:1020A00010F0004F19BFDFED490A9FED490ADFED3F
:1020B000490A9FED490AC5E7C8EE881A21EEA11A20
:1020C0009FED462ADFED462A41EE022A9FED452A82
:1020D00001EE222ADFED442A41EE022A9FED432A37
:1020E000BDEC048B01EE222A21EE811A01EE020AD8
:1020F00030EE210A30EE200A70BD4FF07F42B2EB85
:10210000400F28BFB2EB410F09D2F0EE480AB0EE03
:10211000680ABDEC048BBDE8704000F002BE40EAE6
:1021200001035B0008BF41F0FF410BD0B2EB400F51
:1021300008BFB2EB410F08D120F0804008EE900AB2
:1021400021F0804108EE101A18E7B2EB400F12BFE1
:102150005FEA410340F0FF4001F000413FF40EAF61
:10216000B2EB410F12BF5FEA400200F0004041F0C5
:10217000FF413FF403AF4A0092EA40033FF5FEAE51
:10218000002AACBF9FED1A0A9FED1A0A68EE808AFA
:1021900028EE008A18EE900A18EE101AEEE60000FB
:1021A000DB0FC9BFDB0FC93FDB0F4940DB0F49C065
:1021B0000000C9BF22AAFDB90000C93F22AAFD390B
:1021C0000060ED3EC30ACE3700000000000049C0A9
:1021D00022AA7DBA0000494022AA7D3A2DAD65BDF4
:1021E0008FB8D53D0FB511BE61C84C3EA8AAAABE96
:1021F0000000804F0000802F10EE101A08B5444AEE
:102200006846B2EB410F28D94FF0E640B0EB410FE2
:1022100094BF00204FF0FF3000900098002861DB51
:1022200060EE000A10F0010F45D010F0020FDFED54
:10223000391A9FED391A00EEE11ADFED381A40EE37
:10224000811A21EEA01AF0EE400A40EE010A08BF02
:10225000F1EE600AB0EE600A08BD314B21F0004299
:1022600093423CD911F0004FDFED2E0A20EE201AE8
:10227000DFED2D0A19BF31EE601A71EE200A31EE42
:10228000201A71EE600ABDEEE01A11EE100A9FED01
:10229000271A00F0030000EEC10A9FED251A0090F6
:1022A00000EEC10A9FED231A00EEC10A9FED221A2B
:1022B00000EEC10AB1E79FED211A9FED210A10F04F
:1022C000020F00EE810A9FED1F1A00EE801AB7EE92
:1022D000000A00EE810A18BFB1EE400A08BD00F006
:1022E0003BFD9AE710EE100A4000B0F17F4F3CBF73
:1022F000B7EE000A08BD07D14FF00100FEF7F4FA6F
:10230000BDE8084000F010BDBDE8084000F006BD83
:10231000B61F927E336D4C39DA82083CA0AA2ABEE1
:10232000490E494683F9223F0000004B0000C93F97
:1023300000A0FD390020A2331A61342CB93AB2BA98
:10234000CA9F2A3DDDFFFFBE2DED020B019820F054
:10235000004001909DED000B02B0704710B510EEEB
:10236000100A2DED068BB7EE001A10EE901AB0EEA3
:10237000418A0022A0F5000CDFEDFE9A4FF00073B9
:10238000BCF1FE4F4FF07F4403EB410C80F0B48171
:10239000BCF1804FC0F02082F74901449FEDF73A2D
:1023A000B1F5005F40F2D48200F58021CB0C03F040
:1023B0000F0101EE901AC3F307137F3BA0EBC3504C
:1023C000B8EEE12A00EE100A1A44DFEDED2AF0EE35
:1023D000411A42EE221AF0EE613A70EE232A30EEF4
:1023E000632A12EE900A00F500606FF30B0001EE15
:1023F000900A73EEE13A33EE804AC1EE223A22EEC1
:10240000230A10EE100A00F500606FF30B0000EED7
:10241000100A00EE612A00EE442A62EE232A70EED2
:10242000221A21EEA12ADFEDD73A02EE233A23EE5B
:10243000023A20EE012A22EE811A03EE211A32EE30
:10244000010A10EE100A00F500606FF30B0000EEB9
:10245000100A72EE401A31EE812A9FEDCB1A60EE1F
:10246000011A9FEDCA1A20EE011A9FEDC90A02EE69
:10247000001A31EE810A10EE100A00F500606FF3C9
:102480000B0000EE100AC34871EEC01A31EE812A2B
:10249000784400EBC10090ED003AD0ED011A100134
:1024A00001EE100AF8EEC12A32EE211A31EE001ABE
:1024B00031EE031A31EE221A11EE100A00F5006017
:1024C0006FF30B0009EE100A39EE621A31EE431A6F
:1024D00031EE400A30EE610A32EE40AA10EE900A68
:1024E000002100F500606FF30B0008EE900A08462B
:1024F00070EEE8AA4FF0000029EE280A00F00C0167
:10250000F0EEC00A10EE900AB0F18B4F0DDD10EE28
:10251000900AB4EB400F08D310EE100A4FF08B4234
:1025200062F31E0008EE900A13E069EE2A0A38EE04
:10253000AA1A4AEE010A30EE201A11EE100A00F52E
:1025400000606FF30B0008EE900A30EE680A70EE40
:10255000209A0C204FF0000038EEA90AB5EEC00A10
:10256000F1EE10FA34BFFEEE000AF6EE000A30EE8D
:10257000800ABDEEC00A10EE100A011100EE101A1A
:10258000F8EEC00A00EE100AB8EEC00A38EEC00A33
:1025900030EE290ADFED801A9FED801A00EE211A35
:1025A000DFED7F1A7F4900F00F0040EE011A21EEA7
:1025B000800A794401EB800191ED001A7A4979444F
:1025C00001EB8001D1ED001A784901EE801A7944BF
:1025D00001EB8000764990ED000A31EE001AB0EE72
:1025E000E00A10EE100A884215DA10EE100AB4EB79
:1025F000400F10D39FED6F0A30EE800ADFED6E0AB8
:1026000020EE200A68EE010ABDEC068BBCEEC00A83
:1026100020EE200A10BD10EE100A6849884243DA05
:1026200010EE100AB4EB400F3ED3BDEEE00A68EEA8
:10263000010A10EE100A00EBD0725110C90501F129
:102640007E5100EE101AA0EB6200C00560EE200A79
:1026500000F17E5000EE100A60EE808A18EE900ABB
:10266000B4EB400F0FD10220FEF73EF900F064FBFF
:1026700010EE101A18EE100ABDEC068B61F31E0066
:1026800000EE100A10BD18EE900A400011D018EEAE
:10269000900AFFF7B1FB042808BF00F055FBB0EE2D
:1026A000680ABDEC068B10BDF5EEC00AF1EE10FA1B
:1026B0000FD20220FEF718F900F046FB10EE101AB8
:1026C00018EE100ABDEC068B61F31E0000EE100A36
:1026D00010BD0220FEF708F900F02EFB10EE101AD4
:1026E000B0EE480A10EE100ABDEC068B61F31E0036
:1026F00000EE100A10BD00BFBCF1804F6CD300BFCC
:1027000000F1FF43B3F1FE4F24D200BFB0EEC00A88
:1027100010EE100AC1F3C7537F2B0DDB972BBFF6CA
:102720003BAEC3F196034FF0010C0CFA03F3A3F197
:10273000010C1CEA010F08D00120FEF7D5F8BDEC12
:10274000068BBDE8104000F0EFBA0B4218BFBFEE99
:10275000008A21E643001CBF4FF08073B3EB400FAB
:1027600034D96FF01A02DFED161A20EE210A10EEAE
:10277000100A27E000000000001080C0ABAAAA3EAB
:102780000000803D7EE24C3E00B03842D49AB8BB97
:102790003BAA38424C820000FC596337C9FF753AA6
:1027A0001872313DEA8100001E8200008E81000017
:1027B0000000FC420000FE420000004B00004043CD
:1027C0000000004D10F0004FA0D1E5E5A0F500039A
:1027D000B3F1FE4F21D2DFE503EB4103B3F1007FFC
:1027E00011D3F5EEC00AF1EE10FA05D1430018BF7F
:1027F000B4EB400F76D883E701F0004141F0FC5183
:1028000000EE901A7CE7B3F1807F06D210EE903A8A
:10281000A3F5000300EE903A72E720F000426FF05B
:10282000FF4C604C02EB0C03A34210D321F0004399
:102830009C44A4450BD3B0F17E5F18BF5FEA410C06
:1028400050D0B2F1FF4F98BFB3F1FF4F05D9BDECA7
:10285000068BBDE8104000F064BAB0F1FF4F0FD016
:10286000C1F3C7527F2A09DB972A11DAC2F1960217
:10287000012303FA02F2531E0B4205D0002208E0A6
:1028800011F0004F55D128E00A4218BF012200D1B3
:10289000022210F5000F13D028B3B0F1004F26D05C
:1028A00010F1814F4FD04FF0FE42B2EB400F94BF7A
:1028B00001200020012202EBE171884239D10CE0B5
:1028C00011F0004F02D0012A38D032E0012A02BFB5
:1028D0009FED350ABDEC068B10BD9FED340ABDECB3
:1028E000068B10BD2FE011F0004F0CD121E0B1F1AB
:1028F000FF4F1ED011F5000F05D011F0004F15D07D
:102900000AB1012A08D00220FDF7EEFFBDEC068BCC
:10291000BDE8104000F0F8B90220FDF7E5FF00F037
:10292000F3F9BDEC068BB1EE400A10BD0AB1012AE5
:1029300004D0B0EE690ABDEC068B10BDBDEC068B71
:102940009FED1B0A10BDBDEC068BB7EE000A10BD53
:1029500030EE410AB5EE001A9FED172A00EE413A1B
:10296000B6EE001A60EE001A00EE431A61EEC11ACC
:102970009FED101A20EE011A20EE020A9FED0F2A99
:1029800001EE820A71EE001A11EE900A00F5006065
:102990006FF30B0009EE100A31EE491A31EE00AA6E
:1029A0009CE50000FFFF3F00000080FF0000807FEB
:1029B0000000008000B0B841D49A38BB3BAAB841AF
:1029C00000B510EE101A2DED028B81B0524A684608
:1029D000B2EB410F2ED94FF0E640B0EB410F94BF60
:1029E00000204FF0FF3000900098B0EE408A0028A1
:1029F0006ADB10F0010F4BD068EE080A9FED471A12
:102A00009FED470A00EE810A9FED461A10F0020F73
:102A100000EE801AB7EE000A00EE810A02BF01B094
:102A2000BDEC028B00BD00BF01B0B1EE400ABDECB1
:102A3000028B00BD3C4B21F00042934241D911F082
:102A4000004FDFED3A0A20EE201ADFED390A19BFF8
:102A500031EE601A71EE200A31EE201A71EE600A32
:102A6000BDEEE01A11EE100A9FED321A00F00300DD
:102A700000EEC10A9FED301A009000EEC10A9FEDF2
:102A80002F1A00EEC10A9FED2E1A00EEC10AABE725
:102A900028EE080A9FED2B1ADFED2B0A10F0020F2B
:102AA00040EE410A9FED291A00EE201A61EE000A5D
:102AB000B0EE480A08EE200AB6D101B0BDEC028B98
:102AC00000BD00F049F98FE718EE100A4000B0F1A0
:102AD0007F4F0DD218EE100AFFF78EF9042808BFB9
:102AE00000F032F9B0EE480A01B0BDEC028B00BD37
:102AF00009D10120FDF7F8FE01B0BDEC028B5DF8B5
:102B000004EB00F011B901B0B0EE480ABDEC028B45
:102B10005DF804EB00F002B9B61F927EB93AB2BA82
:102B2000CA9F2A3DDDFFFFBE490E494683F9223F79
:102B30000000004B0000C93F00A0FD390020A23377
:102B40001A61342C336D4C39DA82083CA0AA2ABEB3
:102B500010B52DED028BB1EEC08A18EE100A20F0F0
:102B60000040C0F1FF40C00F0AD010EE100A20F064
:102B70000040C0F1FF40C00F04BF0120FDF7B4FECC
:102B8000B0EE480ABDEC028B10BD000000B510EE9F
:102B9000101A2DED028B81B04D4A6846B2EB410F01
:102BA0003CD94FF0E640B0EB410F94BF00204FF00E
:102BB000FF3000900098B0EE408A00285FDB28EEDE
:102BC000080ADFED440A9FED441A00EE201ADFEDFB
:102BD000430A40EE010A9FED421A00EE201ADFED93
:102BE000410A10F0010F40EE010A9FED3F1A00EE7E
:102BF000201A61EE000AB0EE480A08EE200A02BF71
:102C000001B0BDEC028B00BDBFEE001A01B0C1EEF9
:102C1000000ABDEC028BB0EE600A00BD334B21F020
:102C20000042934228D911F0004FDFED310A20EE27
:102C3000201ADFED300A19BF31EE601A71EE200A5A
:102C400031EE201A71EE600ABDEEE01A11EE100AA4
:102C50009FED291A00F0030000EEC10A9FED271A2C
:102C6000009000EEC10A9FED261A00EEC10A9FED0A
:102C7000251A00EEC10A9DE700F06EF89AE718EEFB
:102C8000100A4000B0F17F4F0DD218EE100AFFF786
:102C9000B3F8042808BF00F057F8B0EE480A01B0B6
:102CA000BDEC028B00BD09D10120FDF71DFE01B076
:102CB000BDEC028B5DF804EB00F036B801B0B0EE6D
:102CC000480ABDEC028B5DF804EB00F027B8000069
:102CD000B61F927EBBE9223C0C6D063B8A76CE3C49
:102CE000ACB5593D35A1083E29AAAA3E490E494630
:102CF00083F9223F0000004B0000C93F00A0FD39CE
:102D00000020A2331A61342CDFED030AB7EE001A5B
:102D100081EE200A704700000000000030EE000A3B
:102D2000704730EE200A7047DFED020A80EEA00AFD
:102D300070470000000000009FED020A20EE000A2C
:102D400070470000000000709FED020A20EE000AAC
:102D500070470000000000102DE9F0014FF07F42A5
:102D6000B2EB410F9FBF4FF0FF310160BDE8F001B2
:102D700070474FF0004242EA0123C1F3C752783A4C
:102D8000551112F01F0C434CCCF120067C44C1F3CA
:102D9000C752A2F178024FEA621204EB820254F8A1
:102DA000254008BFD2E9015612D0556804FA0CF448
:102DB00025FA06F73C43976805FA0CF527FA06F85A
:102DC000D26807FA0CFCF24045EA08054CEA020614
:102DD000A4FB034CA5FB0352A6FB03631D449D42C9
:102DE00034BF012600261319334416B1934202D989
:102DF00003E0934201D2012200E00022624402F18A
:102E0000200C9206DC0C42EA443200EE102A5B03EE
:102E1000DFED210AF8EEC01A00EE103A4FEA9C1CD2
:102E200011F0004FB8EE400AC0F800C020EE201AA2
:102E300000EE105ADFED190AB8EE400A20EE200A23
:102E400071EE810A70EE800A10EE902A02F500629F
:102E50006FF30B0200EE902A70EEE11A31EEC11A08
:102E6000DFED101A30EE411A9FED0D0A20EE800AB8
:102E700001EE210A9FED0C1A00EE810A04BFBDE8A5
:102E8000F0017047CCF180510160BDE8F001B1EE76
:102E9000400A7047907A0000000000360000802C45
:102EA00022AAFD29DB0FC92F0000C92F30380A28BC
:102EB00001D2012070470020704700BF704700001A
:102EC00070B52DED028B04460D461646307B30B1B1
:102ED0004FF47A7029490880BDEC028B70BD95F8DB
:102EE000540090BB01F0FCFA78BB01F0F1FA00F05D
:102EF000010050B394ED000A20EE000AD4ED010A5F
:102F000094ED011A00EE810AD4ED020A94ED021A42
:102F100000EE810AB0EE408A95ED140ADFED180A42
:102F200080EE201AF0EE418AF0EE480AB0EE680A10
:102F300001F0A4F840B1012005F0F6FA9FED110A66
:102F40000A21232005F016FB00BF0C48008800284A
:102F500004DD0A480088401E0849088007480088A8
:102F600048B9284601F0E0F828B1002005F0DCFA65
:102F7000002005F0F5FA00BFAEE70000D402002003
:102F8000000075440000000070B506460D460024A0
:102F900011E005EB8401D1ED000AB0EE600AC4EB4C
:102FA000C40106EB810002F0F7FB05EB840080ED25
:102FB000000A601CC4B2032CEBDB70BDB5EEC00A86
:102FC000F1EE10FA02D2B1EE401A01E0B0EE401A72
:102FD000B4EEE01AF1EE10FA04D29FED0C1AB0EE46
:102FE000410A12E0B5EEC00AF1EE10FA04DD30EE4F
:102FF000601AB0EE410A08E0B5EEC00AF1EE10FA30
:1030000003D230EE201AB0EE410A704700000000F3
:103010000C46154600BF502080F31188BFF34F8F38
:10302000BFF36F8F00BF2946204605F0D9FC2A4622
:1030300021460FA0FDF7D6F90021084602F024FD35
:103040000021012002F020FD0021022002F01CFDE1
:103050000021032002F018FD02F076FA012102207F
:1030600002F0D0FA0121042002F0CCFA00BFFEE702
:10307000417373657274206661696C6564202573A1
:103080003A25640A0000000010B5044600231A46E1
:1030900021460448006806F03FFB012800D110BD1E
:1030A0000020FCE7C402002010B5044600231A46A5
:1030B00021460448006806F01DFC012800D110BD1F
:1030C0000020FCE7C402002070B52DED048B0446FF
:1030D0000D461646D5ED010A94ED011A70EEC10AAF
:1030E000B0EE600A224802F0BDFF86ED010AD5ED80
:1030F000020A94ED021A70EEC10AB0EE600A1D4891
:1031000002F0B0FF86ED020A95ED030AD4ED030A42
:1031100030EE600AB0EE408A9FED170AB4EEC08A26
:10312000F1EE10FA06DD9FED150A38EE400AB0EE1A
:10313000408A12E018EE100A07F078F941EC190BFA
:103140009FED0F0B53EC102B07F000F805D29FED0D
:103150000B0A38EE000AB0EE408AB0EE480A0A4880
:1031600002F080FF86ED030ABDEC048B70BD000009
:103170005898002094980020000034430000B44385
:1031800000000000008066C0D098002010B52DED32
:10319000028BB0EE408AF0EE608AB0EE682A3948C1
:1031A000D0ED021A90ED011AD0ED000A9FED360A1B
:1031B000364802F0EBFEB0EE682A3248D0ED051A30
:1031C00090ED041AD0ED030A9FED2F0A304802F06B
:1031D000DDFEB0EE682A2B48D0ED081A90ED071AF4
:1031E000D0ED060A9FED280A2A4802F0CFFEB3EE82
:1031F0000E0A264802F030FFB3EE0E0A244802F011
:103200002BFF9FED250A234802F026FFB0EE482A47
:103210001C48D0ED0B1A90ED0A1AD0ED090A9FED6B
:103220001A0A1E4802F0B2FEB0EE482A1548D0ED48
:103230000E1A90ED0D1AD0ED0C0A9FED130A1848E6
:1032400002F0A4FEB0EE482A0E48D0ED111A90ED1F
:10325000101AD0ED0F0A9FED0C0A124802F096FEEC
:103260009FED110A0D4802F0F7FE9FED0F0A0C4882
:1032700002F0F2FE9FED0D0A0A4802F0EDFEBDECF1
:10328000028B10BD24000020000000005898002090
:1032900094980020D0980020000034430C9900201E
:1032A00048990020849900200000FA430000484219
:1032B00010B5024802F0BCFE10BD0000949800203A
:1032C00010B5024802F0B4FE10BD0000589800206E
:1032D00010B52DED048B0446207810287ED1A178FE
:1032E000090209B2E27841EA020006F004FF41EC6B
:1032F000190B9FEDC50B53EC102B06F063FF41EC4F
:10330000180B06F08DFEC24948612179090209B205
:10331000627941EA020006F0EEFE41EC190B9FEDE6
:10332000BA0B53EC102B06F04DFF41EC180B06F0D6
:1033300077FEB7498861A179090209B2E27941EAC9
:10334000020006F0D8FE41EC190B9FEDAF0B53ECD9
:10335000102B06F037FF41EC180B06F061FEAC496C
:10336000C861217A090209B2627A41EA020006F0D4
:10337000C2FE41EC190B9FEDA40B53EC102B06F091
:1033800021FF41EC180B06F04BFEA2494861A17ADF
:10339000090209B2E27A41EA020006F0ACFE41EC11
:1033A000190B9FED990B53EC102B06F00BFF41EC22
:1033B000180B06F035FE97498861217B090209B296
:1033C000627B41EA020006F096FE41EC190B9FED8C
:1033D0008E0B53EC102B06F0F5FE00E048E041ECBC
:1033E000180B06F01DFE8B49C861A17B090209B2CA
:1033F000E27B41EA020006F07EFE41EC190B9FEDF4
:10340000820B53EC102B06F0DDFE41EC180B06F09E
:1034100007FE81494861217C090209B2627C41EAC8
:10342000020006F068FE41EC190B9FED770B53ECA0
:10343000102B06F0C7FE41EC180B06F0F1FD7649A3
:103440008861A17C090209B2E27C41EA020006F02F
:1034500052FE41EC190B9FED6C0B53EC102B06F058
:10346000B1FE41EC180B06F0DBFD6B49C861C8E00A
:1034700020781128FBD1A178090209B2E27841EA4B
:10348000020006F038FE41EC190B9FED5F0B53EC88
:10349000102B06F097FE41EC180B06F0C1FD5F49BA
:1034A00048612179090209B2627941EA020006F015
:1034B00022FE41EC190B9FED540B53EC102B06F040
:1034C00081FE41EC180B06F0ABFD54498861A179EF
:1034D000090209B2E27941EA020006F00CFE41EC71
:1034E000190B9FED490B53EC102B06F06BFE41ECD2
:1034F000180B06F095FD4949C861217A090209B205
:10350000627A41EA020006F0F6FD41EC190B9FEDEC
:103510003E0B53EC102B06F055FE41EC180B06F059
:103520007FFD3F494861A17A090209B2E27A41EA86
:10353000020006F0E0FD41EC190B9FED330B53EC5C
:10354000102B06F03FFE41EC180B06F069FD3449E4
:103550008861217B090209B2627B41EA020006F020
:10356000CAFD41EC190B9FED280B53EC102B06F014
:1035700029FE41EC180B06F053FD2949C861A17BD7
:10358000090209B2E27B41EA020006F0B4FD41EC17
:10359000190B9FED1D0B53EC102B06F013FE41ECA5
:1035A000180B06F03DFD1F494861217C090209B254
:1035B000627C41EA020006F09EFD41EC190B9FED92
:1035C000120B53EC102B06F0FDFD41EC180B06F02E
:1035D00027FD14498861A17C090209B2E27C41EA15
:1035E000020006F088FD41EC190B9FED070B53EC30
:1035F000102B06F0E7FD41EC180B06F011FD094910
:10360000C861BDEC048B10BD9A9999999999B93FFD
:103610000C99002048990020849900205898002097
:1036200094980020D098002070B52DED028B0446B0
:103630000D461646D5ED010A94ED001A70EEC10A4A
:10364000B0EE600A154802F00DFDB0EE408A02F0BF
:10365000CFFC3080D5ED020A94ED011A70EEC10A5C
:10366000B0EE600A0E4802F0FDFCB0EE408A02F0B7
:10367000BFFC7080D5ED030A94ED021A70EEC10A0A
:10368000B0EE600A074802F0EDFCB0EE408A02F0AE
:10369000AFFCB080BDEC028B70BD00000C99002027
:1036A000489900208499002010B5094802F0C0FC18
:1036B000084802F0BDFC084802F0BAFC074802F0D6
:1036C000B7FC074802F0B4FC064802F0B1FC10BD9C
:1036D0005898002094980020D09800200C99002041
:1036E00048990020849900202DE9F14F82B0674865
:1036F0008069C1174FF4FA33C41A61F10005A4FBC5
:10370000041005FB040004FB05026048B0F910003A
:10371000C317A1FB008A02FB00A001FB03095B4861
:10372000B0F90E00C117A0FB042301FB043100FB1C
:103730000510400440EAD230510411EB080840EB78
:1037400009095248B0F90C0018F1000849EBC0090A
:10375000A4FB041005FB040004FB05024B48B0F970
:103760000A004FEAE07CA1FB003A02FB00A001FB4B
:103770000C004FEA132141EA00614FEA202243483E
:10378000B0F908004FEAE073A446A0FB0CBE03FBAF
:1037900004E300FB05304FEA003040EA1B504FEADB
:1037A0000B33CC1842EB0005221C45F5004037498D
:1037B000C9880023A2FB01AC00FB01C002FB03008F
:1037C0004410C517002184EA01006940084301D173
:1037D000BDE8FE8F0298C0F58010C7170646F807AF
:1037E00040EA5600F107B1EB080160EB090040F632
:1037F00035430022A1FB03CA00FB03A001FB020129
:1038000022462B466046CDE900C1FCF7C6FD0646C0
:103810000F461E48B0F91600C217710B41EAC74C9B
:103820007B13A0FB0C1A02FB0CA200FB0322700B03
:1038300040EAC7404FEA673CA1FB003A02FB00A008
:1038400001FB0C01580E40EAC1144D160F48B0F9A7
:103850001400C117A0FB062301FB063100FB071172
:10386000D00C40EA41384FEAE149311947EB0500F5
:1038700011EB080140EB0900090A41EA0061034825
:10388000B0F9120000010E183046A1E708E8002048
:1038900030B50146CC100F4D2D88A4EB45040D4DDD
:1038A000B5F902506C43E2120A4C2488C4EB21148F
:1038B00064432413074DB5F904506C43A313D41883
:1038C000044DAC612C46A46904EB840480342012BE
:1038D00030BD000008E8002038B504461F480078D5
:1038E00008B1012038BD1E48046076201D490870CB
:1038F000322000F0B7FB1C4BD0221A480178184840
:10390000006800F068FE18480078582805D116486D
:10391000017816A0FCF766FD01E00020E2E71848F8
:103920001823882200900F4801780D48006800F0A5
:1039300039FE9323F4220B4801780948006800F00F
:10394000CAFE1423F522074801780548006800F0F4
:10395000C2FE01200149087000BFC3E72D0400200A
:1039600028040020240400202C040020424D503262
:1039700038302049442049533A20307825580A00ED
:1039800008E8002010B52DED028B044694ED000AE6
:10399000B5EEC00AF1EE10FA18DD94ED000ADFED85
:1039A0000D0A80EE801AB0EE418ADFED0B0AB0EE10
:1039B000480AFEF7D3FCF7EE000A30EE600ADFEDAE
:1039C000070A20EE200ABDEC028B10BD9FED040A11
:1039D000F9E70000CDEC7D44B1DC423E002A2D47E2
:1039E0000000000010B50446002011E0414901EB41
:1039F000800191ED000A04EB8001D1ED000A30EE68
:103A0000200A3C4901EB800181ED000A411CC8B24B
:103A10000328EBDB94ED020A3748D0ED000AB4EE40
:103A2000E00AF1EE10FA03D294ED020A80ED000AEA
:103A300094ED020A3148D0ED000AB4EEE00AF1EE4E
:103A400010FA03DD94ED020A80ED000A2C4800888C
:103A5000401C80B22A490880B0F5AF7F48DB0020C7
:103A60000880264890ED000A2348D0ED000A30EE89
:103A7000600A244880ED000AB7EE080A1E4880ED6F
:103A8000000AB6EE000A1D4880ED000A1D4890EDC0
:103A9000000ADFED1D0AB4EEE00AF1EE10FA1AD2C8
:103AA00000200FE0134901EB800191ED000ADFEDEA
:103AB000170A80EE201A164901EB800181ED001AE9
:103AC000411CC8B20328EDDB0120124908701249DD
:103AD000032001F01DFE002008E09FED100A0549BB
:103AE00001EB800181ED000A411CC8B20328F4DB20
:103AF00010BD00006C9B00203C0300204003002010
:103B000038030020240300208FC2753C0000AF431F
:103B10002C0300202803002034A600080000000029
:103B200010B500F047F9002009498882094800785B
:103B3000C0F3800058B10748007820F00800083032
:103B4000044908700846007820F00400087010BD91
:103B5000C4B50020DD03002070B52DED028B0446B6
:103B60000D4600F08FF98548007885F854008448A8
:103B7000007800F0010000287ED081480078C0F372
:103B8000C00020B12946204600F008FCCBE07C486C
:103B90000078C0F3800000286FD09FED7A0A84ED92
:103BA000120A0121422001557748007868B90120A6
:103BB000754908709FED730A744880ED000A9FED07
:103BC000740A0121002004F0D5FC7248808A00EEBE
:103BD000100AB8EE400ADFED700A30EE600ADFED41
:103BE0006E0A80EE208AB5EEC08AF1EE10FA06DD8C
:103BF0009FED6A0A28EE000AB0EE408A05E09FEDCC
:103C0000680A28EE000AB0EE408AB0EEC80AF1EE6B
:103C1000040AB4EEE00AF1EE10FA38DD0120614941
:103C2000087002214220015584ED0F8ABBEE040A80
:103C3000B4EEC08AF1EE10FA23D295ED140A5A4878
:103C4000D0ED000AB4EEE00AF1EE10FA03DD95EDD6
:103C5000140A80ED000A544890ED000ADFED530A83
:103C6000B4EEE00AF1EE10FA3CDD4548007820F0B1
:103C700004004349087001E04AE034E000F0B2FA81
:103C800030E09FED400A484880ED000A2AE04548B0
:103C9000007801280FD100204249087001214220FC
:103CA000015595ED0C0A3948D0ED000A30EE200A96
:103CB00084ED0B0A16E03B48007898B994ED0B0AA6
:103CC000D5ED0C0A30EE600A304880ED000AB2EE05
:103CD000041AFAEE040A90ED000A00F0BDF82B4831
:103CE00080ED000A1FE00021422001559FED250ACA
:103CF00084ED120A9FED230A84ED0F0A9FED210A3D
:103D000084ED0B0A002020490870264908700AE05B
:103D10000021422001551F48808A00EE100AB8EEAB
:103D2000400A84ED120A1B48006860601948406828
:103D3000A0601848806800EE100AB1EE400A84EDD9
:103D4000030A002084F8400000214120015543204F
:103D50000155442001550A480078C0F3401038B19D
:103D60000120134908702946204604F033F802E088
:103D700000200F490870BDEC028B70BDD0030020FD
:103D8000DD03002000000000E4030020E803002021
:103D90000000A042C4B5002000FEFF460000C8425B
:103DA00000007042E5030020F803002000007A4381
:103DB000DC0300209FED080A10EE100A0749086096
:103DC0009FED050A10EE100A48609FED030A10EE01
:103DD000100A88607047000000000000C4B5002091
:103DE00010B50C48007800B110BD00222021012040
:103DF00005F075FC084908600846006820B91322E0
:103E000006A10FA0FFF704F901200249087000BFC6
:103E1000EAE70000C8020020C40200202E2E5C4306
:103E20004F4D4D554E49434154455C7372635C633D
:103E30006F6D6D756E69636174652E6300000000BF
:103E400061746B705F73746162696C697A65725FCB
:103E50007175657565000000F0EE401AF4EEE01A29
:103E6000F1EE10FA02D2B0EE600A7047F4EEC11A19
:103E7000F1EE10FA02DDB0EE410AF6E7B0EE610AAB
:103E8000F3E7000010B586B000F052FB04464D4841
:103E90008069201AB0F5FA7F03D200204A490870E1
:103EA0000DE048488069201AB0F57A7F02D2FFF70A
:103EB00081FF04E0012044490870FFF731FE4248C9
:103EC000007800287BD118223E496846FCF709FC9F
:103ED000BDF814003D49898A401A00EE100AF8EE38
:103EE000C00A3A48808A00EE100AB8EE400A384804
:103EF00090ED001A00EE810ABCEEC00A10EE100A26
:103F000032498882DDED010A0846406800EE100A59
:103F100070EEC00A0846406800EE100A2C4890ED8A
:103F2000001A00EE810A10EE100A4860DDED000A6A
:103F30000846006800EE100A70EEC00A08460068E5
:103F400000EE100A224890ED001A00EE810A10EEF1
:103F5000100A0860DDED020A0846806800EE100ACB
:103F600070EEC00A0846806800EE100A184890ED0E
:103F7000001A00EE810A10EE100A88609DED030A17
:103F8000144880ED240A9DED040A80ED250A0846B8
:103F9000808A41F28831884203DA00200B49888206
:103FA0000CE00A48808A4EF66021884202DB08460F
:103FB00002E004E00548808A0449888200BF06B018
:103FC00010BD0000A8B50020D0030020C4B500201B
:103FD000EC0300202400002070B504460420FDF707
:103FE0005DFB0C48046025464FF47A704543012080
:103FF000094908804FF0E020006940F002004FF0CE
:10400000E021086108464561006940F0010008614F
:1040100070BD0000140000201800002070B5034699
:1040200000224FF0E02675690D4E366803FB06F45A
:104030004FF0E026B16910E04FF0E026B069884209
:104040000BD0884202D20E1A324402E02E1A0E44DD
:1040500032440146A24200D300E0EDE700BF70BD4C
:104060001400002030B50446002504E04FF47A70B7
:10407000FFF7D4FF6D1CA542F8D330BD10B52DED70
:10408000068BB0EE408AF0EE608A18EE900A06F0D9
:10409000CDF941EC1A0BB0EE4A0AF0EE6A0AFEF7CF
:1040A00053F9B0EE409AF0EE609A9FED1C0B53EC82
:1040B000102B51EC190B06F049F829D2B7EE000A83
:1040C00038EE000A10EE101A084606F0AFF941EC7F
:1040D0001A0BB0EE4A0AF0EE6A0AFEF735F9B0EEB6
:1040E000409AF0EE609A9FED0D0B53EC102B51ECC3
:1040F000190B06F02BF80BD20A480088401C80B23E
:1041000008490880322806DB0120BDEC068B10BD73
:104110000020044908800020F7E70000000000A00C
:104120009999A93FD602002010B52DED088B0446C1
:1041300094ED010A10EE101A084606F077F941ECEA
:104140001B0BB0EE4B0AF0EE6B0AFEF7FDF8B0EE7B
:1041500040AAF0EE60AA51EC1A0B05F061FF08EEE0
:10416000100A94ED020A10EE101A084606F05EF9E5
:1041700041EC1B0BB0EE4B0AF0EE6B0AFEF7E4F8D5
:10418000B0EE40AAF0EE60AA51EC1A0B05F048FF21
:1041900008EE900AB4EEE88AF1EE10FA02DBB0EE17
:1041A000480A01E0B0EE680AB0EE409A9FED0B0AB3
:1041B000B4EEC09AF1EE10FA0BDD09480088401CFD
:1041C00080B207490880642806DB0120BDEC088B1B
:1041D00010BD0020024908800020F7E7000070426F
:1041E000D802002001200149087070478503002093
:1041F00001200149087070478403002010B524484D
:10420000007800B110BD01218803FDF7F5F800200A
:10421000204988700120C870052048700620087069
:104220000846FDF789F80C201A49487007200870E5
:104230000846FDF781F80C201649487008200870E0
:104240000846FDF779F80C201249487009200870DB
:104250000846FDF771F80C200E4948700A200870D6
:104260000846FDF769F80C200A49487017200870C5
:104270000846FDF761F80A200649487028200870B2
:104280000846FDF759F801200149087000BFB9E759
:10429000C0000020C100002010B52DED028B2C487D
:1042A000008800283CDD2A480088401E28490880F4
:1042B000FFF79EFF274890ED080A2748D0ED000A37
:1042C00030EE600ADFED250A80EE201AB0EE418A5A
:1042D000204890ED080A204880ED000A204890ED23
:1042E000000A78EE400A90ED000A9FED1E1A00EEDB
:1042F000810A80ED000A02211B4880F8421018480C
:1043000090ED000A194880ED100A154890ED000A5A
:10431000FFEE000A20EE200A134880ED0F0A14E099
:1043200013480088002810DD11480088401E1049FD
:104330000880FFF757FF01210B4880F842100D4815
:1043400090ED000A084880ED0B0ABDEC028B10BD11
:1043500052030020D0B400205C0300206F12833B86
:10436000600300203333B33E84B4002014B5002032
:1043700054030020580300200FB410B50446162241
:1043800003A90548FCF7ADF900F0D2F802498861AD
:1043900010BC5DF814FB0000A8B5002070B52DED31
:1043A000028B05460C4602214220415594ED100A2D
:1043B0003948D0ED000A70EE600A90ED000A9FEDDA
:1043C000371A00EE810A80ED000A90ED000ADFED59
:1043D000340A30EEC00A85ED0F0A00F073F8DFED05
:1043E000310AB4EEE00AF1EE10FA18D22E48007845
:1043F000401C2D490870084600780A2812DD00206C
:1044000008702A48007820F00800284908700846FB
:10441000007820F004000870FFF7E4FE02E00020BE
:104420002149087094ED148A214890ED000AB4EEF9
:10443000C80AF1EE10FA01DD80ED008A1D4890ED0A
:10444000000AB4EEC80AF1EE10FA01D280ED008A3B
:10445000174890ED000ADFED180AB4EEE00AF1EE1D
:1044600010FA16D2134890ED000ADFED140AB4EEEC
:10447000E00AF1EE10FA0CDD0C48007820F008009C
:104480000A4908700846007820F004000870FFF719
:10449000A9FEBDEC028B70BDF4030020CDCCCC3D59
:1044A00000008CC200409C46F0030020DD03002089
:1044B000D4030020D80300200000A0C20000A043C5
:1044C00070470000014890ED000A7047E4020020A8
:1044D0000248007800F0030070470000DD03002070
:1044E00002480078C0F3800070470000DD03002020
:1044F00002480078C0F3C00070470000DD030020D0
:10450000014800787047000028030020024600217F
:1045100007E0064850F82100904201D10846704754
:10452000491C0629F5D34FF0FF30F8E79802002028
:1045300010B505F06FFB012802D005F07BFB10BD24
:1045400001480068FBE70000D401002038B50446AC
:10455000002000906946206A05F0B6FA009838B14C
:104560004FF0805003490860BFF34F8FBFF36F8F48
:1045700038BD000004ED00E010B5044640F2012013
:104580002168096808802168002208684FF4C0612A
:10459000FCF7F7FD10BD10B50446204600F067FAA1
:1045A000012010BD2DE9F04188B006460F461446A3
:1045B0001D46DDF8388001202346002239468DE86B
:1045C000210103A800F0B3F803A9304600F0FCFA7B
:1045D00008B0BDE8F081F8B505460E4617461C4602
:1045E00001233A46314628460094FFF7DBFFF8BD29
:1045F0002DE9F04188B006460F4614461D46DDF809
:10460000388000202346024639468DE8210103A860
:1046100000F08DF803A9304600F0D6FA08B0BDE8E6
:10462000F0812DE9F84305460E4617461C46DDF895
:1046300020806B463A4631462846FFF7CCFFB8F15A
:10464000000F05D00120A0409DF80010084305E0B0
:104650000120A0409DF8001021EA0000C0B20090A7
:104660009DF800303A463146284600F034F8BDE85F
:10467000F8832DE9F84F8046894692461C46DDE9CD
:104680000A566B46524649464046FFF7A4FFB0F132
:10469000000B1DD00120A840401E611B491C884012
:1046A000C7B2601B401C06FA00F0C6B23E409DF83F
:1046B0000000B84300909DF80000304300909DF842
:1046C000003052464946404600F005F8834600BF98
:1046D0005846BDE8F88F7FB582B004460D461646B1
:1046E00005A801233246294600902046FFF780FFA7
:1046F00006B070BD10B504462168086C0021FCF7B7
:1047000075FA2268916C106CFCF756FA21680868FB
:104710000021FCF7D1FC216808680021FCF7D8FCD7
:1047200021680022086C1421FCF79CFA10BDF0B53A
:1047300005AC70CC017184710273C38105600027E0
:10474000C771066102274771F0BD10B504462268A3
:10475000916C106CFCF764FA40B12046FFF7CAFF79
:104760002046FFF7F3FE2046FFF706FF2268D16CD4
:10477000106CFCF755FA60B12268D16C106CFCF734
:104780001BFA0121E1722046FFF7E0FE2046FFF709
:10479000F3FE10BD38B504462168886B0121FCF793
:1047A0001BFE2068C06BA062206800681030E062C9
:1047B000002121636163A163E1634FF4806121649F
:1047C00000216164A164E1644FF40031216500219E
:1047D0006165A165E1652166206890F844008DF867
:1047E000000006208DF8010000208DF80200012055
:1047F0008DF803006846FCF79FFD38BD10B50446F0
:10480000216808681E49FCF79FFCB8B1617A481E10
:104810006072002905DD40F20110216809680880F6
:1048200007E00121E1722046FFF790FE2046FFF7E6
:10483000A3FE216808681249FCF738FC2168086863
:104840001049FCF781FC20B1216808680D49FCF78C
:104850002DFC216808680C49FCF776FC20B1216822
:1048600008680949FCF722FC216808680749FCF739
:104870006BFC20B1216808680449FCF717FC10BDE7
:1048800000040010000100100008001000020010D9
:1048900070B5044620680068858A05F00100F8B10B
:1048A0000020A061A07A20B1608A4FF6FF71884293
:1048B00008D0227A5206110E226810680022FCF7F6
:1048C000E1FCD3E0216808680121FCF7E3FB227AD0
:1048D0005206110E226810680122FCF7D3FCC5E0D5
:1048E00005F00200002851D0A07A20B1608A4FF66E
:1048F000FF71884224D020680068068B608A4FF6DA
:10490000FF71884215D0207C58B1628A110A226852
:104910001068FCF7BFFCA17C22681068FCF7BAFCA9
:1049200004E0A17C22681068FCF7B4FC4FF6FF712C
:1049300061822168012208689102FCF722FC95E05F
:104940006068012805D1216808680021FCF7A2FBF6
:1049500004E0216808680121FCF7BAFB2168002205
:1049600008684FF4C061FCF70CFC21680122086C58
:104970001421FCF777F9216808680121FCF79CFBFA
:10498000BFF35F8F20680068068B6FE005F00400BE
:1049900088B320680068068B06F0040078B1A07A1E
:1049A000012805D140F2011021680968088019E04A
:1049B0002046FFF7CBFD2046FFF7DEFD12E0216821
:1049C0000868FCF75BFCA269511CA161616988540D
:1049D0006168A069884205D12046FFF7B7FD2046EF
:1049E000FFF7CAFD00BF20680068008800F48070EF
:1049F0000028F8D13AE0FFE705F04000A0B12168B7
:104A00000868FCF73BFCA269511CA16161698854EC
:104A10006168A069884229D12168002208684FF4A2
:104A20008061FCF7AEFB21E005F08000F0B1A07AD8
:104A3000012807D12168002208684FF48061FCF743
:104A4000A0FB13E0A3695A1CA2616269D15C2268D1
:104A50001068FCF71FFC6168A069884206D12168D4
:104A6000002208684FF48061FCF78BFB70BD10B525
:104A70000446204600F001F810BD30B587B004466A
:104A80002168486A0121FCF7A7FC216848690121D7
:104A9000FCF7A2FC216848680121FCF7BDFC6846D0
:104AA000FCF7CEFA01208DF8040002208DF80500F5
:104AB00001208DF806002068C0690090216888698F
:104AC0006946FCF745FA2068C06A00902168886A48
:104AD0006946FCF73DFA2568AD8DABB22568AD8B14
:104AE000AAB22568A96AA86900F0D8F802208DF852
:104AF00004002068C0690090216888696946FCF755
:104B000027FA2068C06A00902168886A6946FCF725
:104B10001FFA236893F834201B8C99B22368986994
:104B2000FCF75EFA236893F834201B8E99B2236851
:104B3000986AFCF755FA21680868FCF7D5FA002056
:104B4000ADF810004BF6FF70ADF812003020ADF854
:104B500014004FF48060ADF816000001ADF81800A5
:104B60002068006903902168086803A9FCF712FB1C
:104B70002168012208681102FCF703FB2068007A13
:104B80008DF8080007208DF8090000208DF80A0034
:104B900001208DF80B0002A8FCF7CEFB2068007BFB
:104BA0008DF8080002A8FCF7C7FB2046FFF7F2FDCE
:104BB00003220021012004F092FD2062012004F074
:104BC0007DFD606207B030BD70B504460D4600261D
:104BD00000235A1E1946606A04F09EFD14222946DD
:104BE000201DFBF77EFD204600F02AF800234FF43D
:104BF0007A721946206A04F08FFD012803D1E07A09
:104C000038B9012605E02046FFF774FD204600F084
:104C10003EF800231A461946606A04F06BFE3046DF
:104C200070BD08B500210091009102E00099491C77
:104C3000009100EB80014900009A9142F6D808BD2E
:104C400010B50446A07A01280ED16168A16361699C
:104C500021632168086C04F12801FCF721F8216820
:104C6000086C0121FBF7C2FF2168002208684FF49D
:104C70008061FCF786FA2168012208685102FCF77E
:104C800080FA40F2011021680968088010BD10B553
:104C900004462046FFF7F1FE10BD00002DE9F0416B
:104CA00007460C4615461E4631462046FCF7C6F917
:104CB00021E029463846FCF7C1F9DFF8B88000BF8B
:104CC00029463846FCF7AFF920B9B8F10000A8F141
:104CD0000108F5D16420FFF7A4FF29463846FCF708
:104CE000ABF96420FFF79DFF29463846FCF7A6F98B
:104CF0006420FFF796FF31462046FCF794F9002820
:104D0000D7D029463846FCF799F96420FFF789FF88
:104D100031462046FCF790F96420FFF782FF3146C8
:104D20002046FCF789F96420FFF77BFF31462046D7
:104D3000FCF784F929463846FCF780F9DFF834801F
:104D400000BF29463846FCF76EF920B9B8F10000DB
:104D5000A8F10108F5D1DFF81C8000BF31462046DC
:104D6000FCF761F920B9B8F10000A8F10108F5D10C
:104D7000BDE8F081A08601005948D0ED004A64EEFC
:104D8000A44AB0EE640A5748D0ED004A64EEA44A43
:104D9000F0EE640A5448D0ED004A64EEA44AB0EE46
:104DA000641A5248D0ED004A4D4890ED005A64EE26
:104DB000854AF0EE641A4D48D0ED004A494890ED1E
:104DC000005A64EE854AB0EE642A4848D0ED004AA5
:104DD000454890ED005A64EE854AF0EE642A40485A
:104DE000D0ED004A3F4890ED005A64EE854AB0EE9F
:104DF000643A3B48D0ED004A3B4890ED005A64EEDF
:104E0000854AF0EE643A3748D0ED004A364890EDD6
:104E1000005A64EE854AB0EE644AF7EE004AB0EEFE
:104E2000005A45EE604AB0EE005A45EE414A30481D
:104E3000C0ED004AF1EE624A73EE244AB0EE005A29
:104E400064EE854AC0ED014AF1EE424A73EEE44A4F
:104E5000B0EE005A64EE854AC0ED024AF1EE624AB5
:104E600073EE644AB0EE005A64EE854AC0ED034A20
:104E7000F7EE004AB0EE005A45EE404AB0EE005A56
:104E800045EE414AC0ED044AF1EE614A74EE244A0F
:104E9000B0EE005A64EE854AC0ED054AF1EE424A92
:104EA00073EEA44AB0EE005A64EE854AC0ED064A9D
:104EB000F1EE614A74EE644AB0EE005A64EE854A3F
:104EC000C0ED074AF7EE004AB0EE005A45EE404A00
:104ED000B0EE005A45EE604AC0ED084A7047000047
:104EE000180300201C0300202003002014030020CE
:104EF000489B002010B52DED088B04463A4890EDF4
:104F0000000AD4ED000A20EE200AD0ED010A94ED4B
:104F1000011A00EE810AD0ED020A94ED021A00EEA9
:104F2000810AB0EE408A90ED030AD4ED000A20EE2B
:104F3000200AD0ED040A94ED011A00EE810AD0EDAA
:104F4000050A94ED021A00EE810AF0EE408A90ED17
:104F5000060AD4ED000A20EE200AD0ED070A94EDEF
:104F6000011A00EE810AD0ED080A94ED021A00EE53
:104F7000810AB0EE40AA90ED001AF0EE410A90EDE1
:104F8000031AB0EE410AFCF7E1FFF0EE40AAB0EEE2
:104F90006A0AFDF731F9B0EE409AB0EE6A0AFDF701
:104FA0000FFDF0EE409A28EE090A08EEA90AB0EECD
:104FB00040BA28EE890A08EE690AF0EE40BA84ED9C
:104FC00000BAB1EE6B0A84ED010A0848D0ED020A7E
:104FD0009FED071AB0EE4A0A00EEC10A84ED020AFC
:104FE000BDEC088B10BD0000489B00202C03002066
:104FF00000007544D0ED011AF1EE611AC0ED011AFE
:105000002149D1ED001A90ED002A61EE821A91ED4E
:10501000032AD0ED012A42EE221A91ED062AD0EDA4
:10502000022A42EE221AB0EE610AD1ED011A90ED89
:10503000002A61EE821A91ED042AD0ED012A42EE97
:10504000221A91ED072AD0ED022A42EE221AF0EE42
:10505000610AD1ED021A90ED002A61EE821A91EDFB
:10506000052AD0ED012A42EE221A91ED082AD0ED50
:10507000022A42EE221AB0EE611A80ED000AC0ED5B
:10508000010A80ED021A7047489B002011B52DEDF2
:10509000080B2DED0A8B87B00446F0EE438AB6EE7E
:1050A000000A28EE800AB0EE409A00200490059095
:1050B000069011A807C801AB07C39DED140ADFEDE8
:1050C000DE0A20EE200A8DED140A9DED150ADFEDB3
:1050D000DA0A20EE200A8DED150A9DED160ADFEDA5
:1050E000D60A20EE200A8DED160A9DED110AB5EEC6
:1050F000C00AF1EE10FA0DD19DED120AB5EEC00A0C
:10510000F1EE10FA06D19DED130AB5EEC00AF1EEEC
:1051100010FA7DD0DDED110A60EEA00A9DED121AA5
:10512000DDED121A41EE210A9DED131ADDED131A81
:1051300041EE210AB0EE600A00F0E8F9B0EE408AD4
:10514000DDED110AB0EE480A20EE800A8DED110A5D
:10515000DDED120AB0EE480A20EE800A8DED120A4B
:10516000DDED130AB0EE480A20EE800A8DED130A39
:105170009DED120AB148D0ED080A20EE200ADDEDBF
:10518000130A90ED071AF0EE40BA40EEC1BA9DED59
:10519000130AD0ED060A20EE200ADDED110A90ED8B
:1051A000081AB0EE40CA00EEC1CA9DED110AD0ED5A
:1051B000070A20EE200ADDED120A90ED061AF0EE45
:1051C00040CA40EEC1CA9E4890ED000A60EE2B0A2C
:1051D0009C4890ED000A00EEA80A80ED000A98486D
:1051E00090ED000A60EE0C0A974890ED000A00EE80
:1051F000A80A80ED000A924890ED000A60EE2C0AA1
:10520000924890ED000A00EEA80A80ED000A00E046
:1052100029E0DDED140A8B4890ED000A8C4890EDF2
:10522000001A01EE2B0A30EE800A8DED140ADDED36
:10523000150A854890ED000A854890ED001A01EEA8
:105240000C0A30EE800A8DED150ADDED160A7F4856
:1052500090ED000A7E4890ED001A01EE2C0A30EE27
:10526000800A8DED160A7B48D0ED009A7A4890EDC1
:1052700000AA7A48D0ED00AA794890ED00BA9DEDD9
:10528000140AF1EE4A0A20EE200ADDED150A0AEEB4
:10529000E00ADDED160A0BEE600A6E48D0ED000A5A
:1052A00040EE090AC0ED000A9DED140A20EE290A1D
:1052B000DDED160A0AEEA00ADDED150A0BEE600A16
:1052C0006548D0ED000A40EE090AC0ED000A9DEDE8
:1052D000150A20EE290ADDED160A0AEE600ADDED58
:1052E000140A0BEE200A5D48D0ED000A40EE090AD0
:1052F000C0ED000A9DED160A20EE290ADDED150A23
:105300000AEE200ADDED140A0AEEE00A5448D0ED58
:10531000000A40EE090AC0ED000A4E48D0ED000A2E
:1053200060EEA00A4C4890ED001AD0ED001A41EE54
:10533000210A4A4890ED001AD0ED001A41EE210AE8
:10534000474890ED001AD0ED001A41EE210AB0EE68
:10535000600A00F0DBF8B0EE408A3E4890ED000AAB
:1053600020EE080A80ED000A3B4890ED000A20EE8E
:10537000080A80ED000A394890ED000A20EE080A7C
:1053800080ED000A364890ED000A20EE080A80ED14
:10539000000AFFF7F1FC2948D0ED060AB0EE600ADA
:1053A000FCF73EFDB1EE400ADFED2E0A20EE200AAA
:1053B00084ED020A214890ED081AF0EE410A90EDC2
:1053C000071AB0EE410AFCF7C1FDDFED260A20EE18
:1053D000200A84ED010A194890ED001AF0EE410A06
:1053E00090ED031AB0EE410AFCF7B0FDDFED1D0AA7
:1053F00020EE200A84ED030A1B480078B8B99DED21
:10540000010A0E48D0ED060A20EE200ADDED020A60
:1054100090ED071A00EE810ADDED030A90ED081AFF
:1054200000EE810A8DED060A04A8FEF7DBFA07B04C
:10543000BDEC0A8B09B010BD35FA8E3C489B0020AC
:1054400004030020080300200C03002010030020A8
:105450000003002014030020180300201C03002078
:1054600020030020E12E65422803002020EE812A3F
:1054700022EE002AF0EE421A0D4901EB800191ED77
:10548000002A32EE212A0A4901EB800181ED002A2F
:1054900007490C3901EB800191ED002A01EE212A28
:1054A00003490C3901EB800181ED002A70470000AF
:1054B000BC03002020EE801A61EE001AB0EE002A34
:1054C00081EE821A104901EB8001D1ED001A01EE44
:1054D000801A0D490C3101EB8001D1ED001A31EE3B
:1054E000211A09490C3101EB800181ED001A0649AE
:1054F00001EB800191ED001A00EE801A024901EBE8
:10550000800181ED001A7047B0030020F0EE400AE0
:10551000F6EE001A60EEA11AB0EE611AB0EE600A63
:1055200010EE100A0749A1EB600000EE100A21EE10
:10553000002AF7EE081A42EE401A61EE801AB0EE29
:10554000610A7047DF59375F10B5002405E000217C
:10555000204600F057F8601CC4B2052CF7DB10BDE4
:1055600070B506460C4615460121304600F04AF853
:105570002046FEF777FD0021304600F043F828462C
:10558000FEF770FD70BD00001CB51A48007800B130
:105590001CBD01210846FBF71FFF01210220FBF77C
:1055A0001BFF01210420FBF717FFC0200090012002
:1055B0008DF8040000208DF8060001208DF805000C
:1055C00069460D48FBF7C4FC4FF4805000906946D3
:1055D0000A48FBF7BDFC4FF4C040009069460848FC
:1055E000FBF7B6FCFFF7B0FF01200249087000BFCF
:1055F000CEE70000900100200000024000040240BD
:105600000008024070B504460D46052C00DD70BD53
:1056100004EB4400114901EB80008068012801D1AE
:1056200085F0010565B104EB44020C4B03EB8202EB
:10563000918804EB440253F82200FBF7FFFC0BE0D7
:1056400004EB4402054B03EB8202918804EB440215
:1056500053F82200FBF7F0FC00BFD8E794010020CC
:1056600038B52248007800B138BDFFF78DFF00241F
:1056700013E04FF0FF301E4941F82400002509E0F7
:105680004FF0FF3004EB44011A4A02EBC10141F82C
:1056900025006D1C062DF3D3641C052CE9DB0024CA
:1056A0000CE01548234600224FF47A71009013A0B5
:1056B00004F04AFC144941F82400641C052CF0DB7A
:1056C00003220021012004F00AF81049086008466E
:1056D000006830B100231A4619460C48006804F0EF
:1056E00009F901200149087000BFBDE7B0020020A0
:1056F0008C7E0020A07E0020817E00086C65647393
:10570000657154696D657200187F0020B402002035
:1057100070B504460E463046FEF7F8FE0546002DED
:1057200000DA70BD00235A1E19461148006803F0C4
:10573000F3FF002004EB44010E4A02EBC10141F8E3
:105740002500204603F08EFB00231A461946084820
:10575000006804F0CFF8084850F82400A84204D1AB
:10576000064951F8240002F08BFB00BFD9E7000086
:10577000B4020020A07E00208C7E0020187F002034
:105780000146B1F5803F02DB4FF6FF7102E00029D0
:1057900000DA002188B27047B0EE401A90ED052A79
:1057A000D0ED002AF0EE411A42EE621A90ED062A80
:1057B000D0ED012A42EE621AF0EE610A10EE901A64
:1057C000C1F3C752FF2A01D0012200E000220AB92A
:1057D000F0EE410AD0ED051A90ED032A61EE821A2F
:1057E00090ED022A40EE821A90ED062AD0ED042AAE
:1057F000B0EE610A02EE220AD0ED051AC0ED061ADB
:10580000C0ED050A704710B52DED028B0446F0EE91
:10581000408AB0EE608A24B1B5EEC08AF1EE10FA8B
:1058200002D8BDEC028B10BDF0EE480AB0EE680A5B
:10583000204600F003F800BFF3E7000010B52DED9F
:10584000068B0446B0EE409AF0EE609A89EE290A83
:10585000B0EE40AA9FED2B0AC0EE0A0AF0EE60AA55
:10586000B0EE6A0AFDF792F9B0EE408A9FED260A83
:10587000FCF7C2FCF0EE000A60EE200AB7EE000A68
:1058800000EE880A08EE080AF0EE408A28EE080AC0
:10589000C0EE280AC4ED020A94ED020AF0EE000AF6
:1058A00020EE200A84ED030A94ED020A84ED040A36
:1058B000B7EE000A18EE080AF0EE000A20EE200A01
:1058C000C0EE280AC4ED000A9FED0F0AFCF794FC15
:1058D000F0EE000A60EE200AB7EE000A00EEC80AF9
:1058E00008EE080AC0EE280AC4ED010A9FED070A77
:1058F00084ED050A9FED050A84ED060ABDEC068BD2
:1059000010BD0000DB0F4940DB0F493F00000000E5
:105910001CB503F071F80748022100234FF496727A
:10592000CDE9001004A1074804F044F903F00EFD8E
:1059300000BFFEE70C00002053544152545F544115
:10594000534B00006D87000800B58BB00121032088
:10595000FBF742FD01210520FBF75EFD4648FBF702
:105960000DFF4FF08040FBF709FF0222072143485B
:10597000FBF736FB022206214048FBF731FB0122F0
:105980000A213E48FBF72CFB012205213C48FBF78E
:1059900027FB4FF49860099002208DF8280003201F
:1059A0008DF8290000208DF82A0001208DF82B00A9
:1059B00009A93248FBF7CCFA2020099009A9304800
:1059C000FBF7C6FAFF2007900020ADF81800ADF8ED
:1059D0001A00ADF820008DF8220006A92648FCF731
:1059E0009DF806A94FF08040FCF798F86020ADF8CC
:1059F00004000120ADF8060000200390ADF810006F
:105A00004FF48070ADF8140001A91B48FBF7C6FFE6
:105A100001A91948FBF77AFF01A94FF08040FCF774
:105A20001DF801A94FF08040FBF770FF08211248D4
:105A3000FCF706F808211048FBF7A6FF0821C80666
:105A4000FCF75CF80821C806FBF79EFF01210A4815
:105A5000FBF77CFE01218807FBF778FE0121064851
:105A6000FBF780FE01218807FBF77CFE012005493A
:105A700008700BB000BD00000008004000040240A8
:105A800000000240D00100202DE9F0412DED048BF3
:105A900006460C463A48007800286DD0254600EEB0
:105AA000104AF8EE400A9FED371A80EE810ADFEDCA
:105AB000360A20EE200AB0EE408A9FED340A28EE26
:105AC000000A20EE080ADFED320A00EE880AB0EE86
:105AD000409A9FED300AF0EE409A89EE290AF0EEE6
