:020000040800F2
:1000000098BA002049030008510300087D02000847
:10001000C9090008B9070008990B00080000000092
:100020000000000000000000000000009102000835
:100030005D03000800000000E5020008090B00084D
:1000400063030008630300086303000863030008F8
:10005000630300086303000815080008C5080008CA
:10006000DD080008F50800083909000863030008E6
:1000700063030008630300086303000863030008C8
:100080006303000863030008630300080000000026
:1000900000000000000000000000000055090008FA
:1000A0006303000863030008630300086303000898
:1000B0006303000863030008630300086303000888
:1000C0006303000863030008630300086303000878
:1000D0006303000863030008910B000800000000A0
:1000E00035080008630300086303000800000000EF
:1000F0000000000000000000000000006303000892
:1001000000000000630300086303000863030008A5
:1001100000000000000000000000000000000000DF
:100120006303000863030008630300086303000817
:100130006303000800000000000000000000000051
:100140000000000000000000000000006303000841
:1001500063030008630300086303000863030008E7
:1001600063030008630300080000000000000000B3
:10017000000000000000000000000000000000007F
:100180000000000063030008000000000000000001
:10019000630300086303000800F002F800F05EF853
:1001A0000AA090E8000C82448344AAF10107DA45D2
:1001B00001D100F053F8AFF2090EBAE80F0013F0C6
:1001C000010F18BFFB1A43F001031847FC9200000F
:1001D0001C9300000A444FF0000C10F8013B13F090
:1001E000070408BF10F8014B1D1108BF10F8015B90
:1001F000641E05D010F8016B641E01F8016BF9D183
:1002000013F0080F1EBF10F8014BAD1C0C1B09D1D9
:100210006D1E58BF01F801CBFAD505E014F8016B4B
:1002200001F8016B6D1EF9D59142D6D370470000DD
:100230000023002400250026103A28BF78C1FBD8EF
:10024000520728BF30C148BF0B607047002070477D
:100250001FB509F020F81FBD10B510BD00F07EFAE3
:100260001146FFF7F5FF04F03DFA00F09CFA03B4E5
:10027000FFF7F2FF03BC01F015FD00001EF0040FB4
:100280000CBFEFF30880EFF3098005F071BC0000AC
:100290002A4B19680868B0E8F04F80F30988BFF36B
:1002A0006F8F4FF0000080F311887047000000004E
:1002B00006480068006880F3088862B661B6BFF33C
:1002C0004F8FBFF36F8F00DF00BF00BF08ED00E06E
:1002D000DFF80C00016841F470010160704700BF55
:1002E00088ED00E0EFF30980BFF36F8F134B1A68BE
:1002F0001EF0100F08BF20ED108A20E9F04F1060AB
:1003000008B44FF0500080F31188BFF34F8FBFF354
:100310006F8F07F0E5FE4FF0000080F3118808BCF6
:1003200019680868B0E8F04F1EF0100F08BFB0EC75
:10033000108A80F30988BFF36F8F70471C0100207B
:10034000EFF30580704700000948804709480047DF
:10035000FEE7FEE7FEE7FEE7FEE7FEE7FEE7FEE775
:10036000FEE7FEE704480549054A064B70470000D2
:10037000290B00089901000898B4002098BA0020C1
:1003800098B6002098B60020704710B54C1084EA4B
:10039000530404D54042C1F1000138BF491E1B423D
:1003A00004D55242C3F1000338BF5B1E00F0FCF8D5
:1003B00014F0804F04D04042C1F1000138BF491E03
:1003C00014F0004F04D05242C3F1000338BF5B1E4B
:1003D00010BD00000FB4044910B503AA029800F044
:1003E0007DF910BC5DF814FB140000202DE9F041EC
:1003F0000E460446002020622046E168884730B35C
:10040000252805D0D4E901219047206A401CF2E755
:10041000E168204600278847050018D0A5F1410073
:10042000192802D820354FF4006732462946204665
:100430002760FFF70BFF40B1012804D0F61D26F01E
:1004400007060836D8E7361DD6E72846DAE7206AD9
:10045000BDE8F081032A40F2308010F0030C00F078
:10046000158011F8013BBCF1020F624498BF11F8EE
:1004700001CB00F8013B38BF11F8013BA2F10402A7
:1004800098BF00F801CB38BF00F8013B11F003031F
:1004900000F02580083AC0F0088051F8043B083A83
:1004A00051F804CBA0E80810F5E7121D5CBF51F825
:1004B000043B40F8043BAFF30080D20724BF11F89F
:1004C000013B11F801CB48BF11F8012B24BF00F804
:1004D000013B00F801CB48BF00F8012B704710B575
:1004E000203AC0F00B80B1E81850203AA0E818502C
:1004F000B1E81850A0E81850BFF4F5AF5FEA027CED
:1005000024BFB1E81850A0E8185044BF18C918C05B
:10051000BDE810405FEA827C24BF51F8043B40F8FC
:10052000043B08BF7047D20728BF31F8023B48BFE1
:1005300011F8012B28BF20F8023B48BF00F8012B1F
:10054000704702F0FF0343EA032242EA024200F04E
:10055000D9B84FF0000200B51346944696462039AC
:1005600022BFA0E80C50A0E80C50B1F12001BFF46C
:10057000F7AF090728BFA0E80C5048BF0CC05DF8D2
:1005800004EB890028BF40F8042B08BF704748BF20
:1005900020F8022B11F0804F18BF00F8012B704794
:1005A000704770477047704753EA020C00F069804B
:1005B0002DE9F04B4FF00006002B1FBFB3FA83F577
:1005C00003FA05F424FA05F65E4012BF1643B2FAA8
:1005D00082F502FA05F4C5F120051EBF22FA05FCDA
:1005E00044EA0C04203556EA044C4FEA144418BF80
:1005F000641C4FF000084FF00009904271EB030CAF
:1006000039D3002919BFB1FA81F701FA07F6B0FA18
:1006100080F700FA07F6C7F120071EBF20FA07FC93
:1006200046EA0C062037B6FBF4FCA7EB0507103FA3
:1006300007F01F0BCBF120060CFA0BFB2CFA06F689
:1006400044BFB3460026202FA4BF5E464FF0000BE8
:100650005BEA060C08BF4FF0010B19EB0B09ABFB73
:10066000027C48EB0608C01B06FB02CC0BFB03CC4C
:1006700071EB0C01C1E70B46024641464846BDE816
:10068000F08B13B54FF000004FF00001AFF3008086
:10069000BDE81C40704710B500F054F8006810BD6C
:1006A00010B5044600F04EF8046010BD01694A1C04
:1006B00002610878704700B58FB0CDE901310021A3
:1006C000059105497944CDE9031011466846FFF7C5
:1006D0008DFE0FB000BD0000E5FFFFFF074B70B5BA
:1006E0000D467B44FFF7E7FF0446284600F02EF84E
:1006F00010B14FF0FF3070BD204670BD932B00004D
:100700004FF000020429C0F0128010F0030C3FF4F7
:1007100022AFCCF1040CBCF1020F18BF00F8012B82
:10072000A8BF20F8022BA1EB0C01FFF714BF5FEA72
:10073000C17C24BF00F8012B00F8012B48BF00F852
:10074000012B70470048704734B40020007B00F054
:10075000800070470048704734B400207546FFF7AA
:10076000F9FFAE4605006946534620F0070085466E
:1007700018B020B5FFF7F6FDBDE820404FF00006A9
:100780004FF000074FF000084FF0000B21F0070179
:10079000AC46ACE8C009ACE8C009ACE8C009ACE8BC
:1007A000C0098D46704710B50446AFF3008020465F
:1007B000BDE81040FFF75BBD0021084604F02AF9B0
:1007C0000021012004F026F90021022004F022F982
:1007D0000021032004F01EF903F068FD012102202E
:1007E00003F0FCFD0121042003F0F8FD892102A0A3
:1007F00006F0F8FF00BFFEE72E2E5C48415244573A
:100800004152455C7372635C6E7669632E630000CF
:100810007047000010B5012002490860FFF7F8FF9B
:1008200010BD0000143C014070477047704770478E
:100830007047000010B52148006800F4806028B1BE
:100840004FF480601D490860FFF7EEFF1B48006809
:1008500000F4006028B14FF4006018490860FFF709
:10086000E4FF1648006800F4805028B14FF480502F
:1008700012490860FFF7DAFF1048006800F40050E2
:1008800028B14FF400500D490860FFF7D0FF0B4826
:10089000006800F4804028B14FF4804007490860A8
:1008A000FFF7C6FF0548006800F4004028B14FF488
:1008B00000400249086000F003F810BD143C0140FC
:1008C0007047704710B5022002490860FFF7F9FF32
:1008D00010BD0000143C01407047000010B504201A
:1008E00002490860FFF7F8FF10BD0000143C01400A
:1008F0007047000010B5082002490860FFF7F8FFB4
:1009000010BD0000143C014008B50020009069466D
:100910000748006807F06CFF009838B14FF080502E
:1009200004490860BFF34F8FBFF36F8F08BD00000D
:10093000A002002004ED00E010B51020024908607C
:10094000FFF7E2FF10BD0000143C01407047704704
:100950007047704710B51A48006800F0200020B1B9
:10096000202017490860FFF7F1FF1548006800F0E4
:10097000400020B1402012490860FFF7E8FF10480E
:10098000006800F0800020B180200D490860FFF76A
:10099000DFFF0B48006800F4807028B14FF48070CE
:1009A00007490860FFF7D5FF0548006800F40070AC
:1009B00028B14FF400700249086000F003F810BD40
:1009C000143C0140704700000021084604F022F862
:1009D0000021012004F01EF80021022004F01AF882
:1009E0000021032004F016F803F060FC012102202E
:1009F00003F0F4FC0121042003F0F0FC752102A0B7
:100A000006F0F0FE00BFFEE72E2E5C484152445730
:100A10004152455C7372635C6E7669632E630000BD
:100A20000CB50020019000903348006840F48030FD
:100A30003149086000BF3048006800F40030009081
:100A40000198401C0190009818B90198B0F5A04F8A
:100A5000F1D12948006800F4003010B10120009065
:100A600001E0002000900098012844D12248403045
:100A7000006840F080502049403108601F480068FD
:100A800040F440401D4908601B48083000681A497E
:100A9000083108600846006808600846006840F4AD
:100AA000805008601648091F0860081F006840F061
:100AB0008070091F086000BF0F48006800F00070D8
:100AC0000028F9D040F202700E4908600A48083048
:100AD000006820F0030008490831086008460068F3
:100AE00040F00200086000BF03480830006800F0D2
:100AF0000C000828F8D10CBD0038024000700040FE
:100B000008304004003C024010B507F017FF0128F0
:100B100002D007F04DFC04E002480068401C014987
:100B2000086010BD0001002010B51548006840F4B1
:100B30007000134908601348006840F00100114933
:100B4000086000200F49083108600E4800680E490F
:100B500008400C4908600D48091D0860081F00681E
:100B600020F48020091F0860002006490C3108602D
:100B7000FFF756FF4FF0006001498039086010BD53
:100B800088ED00E000380240FFFFF6FE1030002440
:100B900010B506F09FFF10BD0021084603F03AFF94
:100BA0000021012003F036FF0021022003F032FF74
:100BB0000021032003F02EFF03F078FB0121022027
:100BC00003F00CFC0121042003F008FC9D2102A08D
:100BD00006F008FE00BFFEE72E2E5C484152445747
:100BE0004152455C7372635C6E7669632E630000EC
:100BF0004100080218BF04200A0E18BF40F001008F
:100C00004FF07F4232EA010108BF40F002000128A4
:100C100008BF05207047000010B54FF00E402DEDC5
:100C2000028BB0EE408A18EE104A00EB4400B0F19F
:100C3000506F4AD84FF0FC40B0EB440F22D2B0EED8
:100C4000C80AF7EE000A30EEC00AF6EE000A60EEBF
:100C5000208A18EE900A06F0C7FB01EE100A14F085
:100C6000004F1DBFDFED2D0A9FED2D0AB1EE411A99
:100C7000DFED2C0A08BF9FED2C0AF8EE001A21EEDA
:100C8000218A05E0DFED290A68EE088AB0EE600AE5
:100C90009FED271ADFED271A30EE080A48EE811A79
:100CA0009FED251A08EEA11ADFED241A48EE811AED
:100CB0009FED231A08EEA11A68EE281ABDEC028BEC
:100CC00001EE810A30EE200A10BD4FF0E440B0EB97
:100CD000440F0CD918EE100AFFF78AFF042808BF4A
:100CE00000F02EFFB0EE480ABDEC028B10BD4FF0B5
:100CF0007F40B0EB440F07D2B0EE480ABDEC028B48
:100D0000BDE8104000F006BF0120FFF7C9FCBDECB4
:100D1000028BBDE8104000F003BF00000000C9BF17
:100D200022AAFDB90000C93F22AAFD390000000037
:100D300024FE1C3DC78AD83C1E67383D1B93993D55
:100D4000AFAA2A3E70B54FF068422DED048BF0EE4D
:100D5000408A18EE900AB0EE608A18EE101A02EB84
:100D60004003B3F1654F3CBF02EB4102B2F1654F66
:100D70007DD200BFC0F3C753C1F3C7529A1A1B2AD2
:100D800009DD10F0004F14BF9FED830A9FED830A29
:100D9000BDEC048B70BD12F11A0F36DA11F0004F62
:100DA00009D010F0004F0CBF9FED7D0A9FED7D0A2A
:100DB000BDEC048B70BD88EE889A19EE100AFFF71F
:100DC00017FF042808BF00F0BBFE18EE900AFFF7DB
:100DD0000FFF054618EE100AFFF70AFF044619EE4A
:100DE000100AFFF705FF042D18BF052D08D1042CAC
:100DF00018BF052C04D1002804BF0220FFF750FCC7
:100E0000B0EE490ABDEC048B70BD4200B2EB410F5D
:100E10003AD910F0004F19BFDFED630A9FED630A66
:100E2000DFED630A9FED630AB0EE481A0A46B1EEA1
:100E3000688A80F00041F0EE418A10460A1A52009A
:100E4000B2F1807F34D2484010F0004FDFED5A1AE3
:100E50009FED5A2A1DBFBEEE001A70EEE10A30EE79
:100E6000420AB6EE001A08BF70EEA10A00E040E0A8
:100E700008BF30EE020AB0EE682A01EE482A08EEFA
:100E8000818AC2EE081A15E011F0004F04BF9FEDF1
:100E90004C0AF0EE400AD1D010F0004F19BFDFED40
:100EA000490A9FED490ADFED490A9FED490AC5E766
:100EB000C8EE881A21EEA11A9FED462ADFED462AD8
:100EC00041EE022A9FED452A01EE222ADFED442A57
:100ED00041EE022A9FED432ABDEC048B01EE222A4B
:100EE00021EE811A01EE020A30EE210A30EE200ACC
:100EF00070BD4FF07F42B2EB400F28BFB2EB410F05
:100F000009D2F0EE480AB0EE680ABDEC048BBDE8E9
:100F1000704000F002BE40EA01035B0008BF41F0F0
:100F2000FF410BD0B2EB400F08BFB2EB410F08D12D
:100F300020F0804008EE900A21F0804108EE101A5F
:100F400018E7B2EB400F12BF5FEA410340F0FF40E9
:100F500001F000413FF40EAFB2EB410F12BF5FEA68
:100F6000400200F0004041F0FF413FF403AF4A006F
:100F700092EA40033FF5FEAE002AACBF9FED1A0A8D
:100F80009FED1A0A68EE808A28EE008A18EE900A11
:100F900018EE101AEEE60000DB0FC9BFDB0FC93FE9
:100FA000DB0F4940DB0F49C00000C9BF22AAFDB9D1
:100FB0000000C93F22AAFD390060ED3EC30ACE37CA
:100FC00000000000000049C022AA7DBA000049408C
:100FD00022AA7D3A2DAD65BD8FB8D53D0FB511BEA6
:100FE00061C84C3EA8AAAABE0000804F0000802F16
:100FF00010EE101A08B5444A6846B2EB410F28D9E2
:101000004FF0E640B0EB410F94BF00204FF0FF30AF
:1010100000900098002861DB60EE000A10F0010FDC
:1010200045D010F0020FDFED391A9FED391A00EEAE
:10103000E11ADFED381A40EE811A21EEA01AF0EE27
:10104000400A40EE010A08BFF1EE600AB0EE600A05
:1010500008BD314B21F0004293423CD911F0004FC2
:10106000DFED2E0A20EE201ADFED2D0A19BF31EE3A
:10107000601A71EE200A31EE201A71EE600ABDEEA0
:10108000E01A11EE100A9FED271A00F0030000EE9F
:10109000C10A9FED251A009000EEC10A9FED231AA8
:1010A00000EEC10A9FED221A00EEC10AB1E79FEDE2
:1010B000211A9FED210A10F0020F00EE810A9FED28
:1010C0001F1A00EE801AB7EE000A00EE810A18BF60
:1010D000B1EE400A08BD00F03BFD9AE710EE100AA1
:1010E0004000B0F17F4F3CBFB7EE000A08BD07D10A
:1010F0004FF00100FFF7D4FABDE8084000F010BD42
:10110000BDE8084000F006BDB61F927E336D4C3935
:10111000DA82083CA0AA2ABE490E494683F9223F3A
:101120000000004B0000C93F00A0FD390020A233A1
:101130001A61342CB93AB2BACA9F2A3DDDFFFFBE0C
:101140002DED020B019820F0004001909DED000B69
:1011500002B0704710B510EE100A2DED068BB7EEF9
:10116000001A10EE901AB0EE418A0022A0F5000C91
:10117000DFEDFE9A4FF00073BCF1FE4F4FF07F445D
:1011800003EB410C80F0B481BCF1804FC0F02082B1
:10119000F74901449FEDF73AB1F5005F40F2D48280
:1011A00000F58021CB0C03F00F0101EE901AC3F380
:1011B00007137F3BA0EBC350B8EEE12A00EE100A04
:1011C0001A44DFEDED2AF0EE411A42EE221AF0EE5B
:1011D000613A70EE232A30EE632A12EE900A00F58F
:1011E00000606FF30B0001EE900A73EEE13A33EE0C
:1011F000804AC1EE223A22EE230A10EE100A00F5D0
:1012000000606FF30B0000EE100A00EE612A00EEA2
:10121000442A62EE232A70EE221A21EEA12ADFED83
:10122000D73A02EE233A23EE023A20EE012A22EECA
:10123000811A03EE211A32EE010A10EE100A00F5AF
:1012400000606FF30B0000EE100A72EE401A31EEF0
:10125000812A9FEDCB1A60EE011A9FEDCA1A20EE8B
:10126000011A9FEDC90A02EE001A31EE810A10EE52
:10127000100A00F500606FF30B0000EE100AC3487F
:1012800071EEC01A31EE812A784400EBC10090ED76
:10129000003AD0ED011A100101EE100AF8EEC12A51
:1012A00032EE211A31EE001A31EE031A31EE221A13
:1012B00011EE100A00F500606FF30B0009EE100A42
:1012C00039EE621A31EE431A31EE400A30EE610A0D
:1012D00032EE40AA10EE900A002100F500606FF394
:1012E0000B0008EE900A084670EEE8AA4FF00000E6
:1012F00029EE280A00F00C01F0EEC00A10EE900A68
:10130000B0F18B4F0DDD10EE900AB4EB400F08D317
:1013100010EE100A4FF08B4262F31E0008EE900AA6
:1013200013E069EE2A0A38EEAA1A4AEE010A30EEF4
:10133000201A11EE100A00F500606FF30B0008EEA2
:10134000900A30EE680A70EE209A0C204FF00000F0
:1013500038EEA90AB5EEC00AF1EE10FA34BFFEEE7F
:10136000000AF6EE000A30EE800ABDEEC00A10EE6A
:10137000100A011100EE101AF8EEC00A00EE100A71
:10138000B8EEC00A38EEC00A30EE290ADFED801A46
:101390009FED801A00EE211ADFED7F1A7F4900F0E1
:1013A0000F0040EE011A21EE800A794401EB800122
:1013B00091ED001A7A49794401EB8001D1ED001AD0
:1013C000784901EE801A794401EB8000764990ED6E
:1013D000000A31EE001AB0EEE00A10EE100A884260
:1013E00015DA10EE100AB4EB400F10D39FED6F0A20
:1013F00030EE800ADFED6E0A20EE200A68EE010A68
:10140000BDEC068BBCEEC00A20EE200A10BD10EE2B
:10141000100A6849884243DA10EE100AB4EB400F14
:101420003ED3BDEEE00A68EE010A10EE100A00EBB2
:10143000D0725110C90501F17E5100EE101AA0EBD7
:101440006200C00560EE200A00F17E5000EE100A36
:1014500060EE808A18EE900AB4EB400F0FD10220A4
:10146000FFF71EF900F064FB10EE101A18EE100AD8
:10147000BDEC068B61F31E0000EE100A10BD18EEE5
:10148000900A400011D018EE900AFFF7B1FB042833
:1014900008BF00F055FBB0EE680ABDEC068B10BD2E
:1014A000F5EEC00AF1EE10FA0FD20220FFF7F8F8BD
:1014B00000F046FB10EE101A18EE100ABDEC068B79
:1014C00061F31E0000EE100A10BD0220FFF7E8F8DD
:1014D00000F02EFB10EE101AB0EE480A10EE100AC3
:1014E000BDEC068B61F31E0000EE100A10BD00BFBC
:1014F000BCF1804F6CD300BF00F1FF43B3F1FE4F4E
:1015000024D200BFB0EEC00A10EE100AC1F3C753D8
:101510007F2B0DDB972BBFF63BAEC3F196034FF04D
:10152000010C0CFA03F3A3F1010C1CEA010F08D023
:101530000120FFF7B5F8BDEC068BBDE8104000F0C8
:10154000EFBA0B4218BFBFEE008A21E643001CBF72
:101550004FF08073B3EB400F34D96FF01A02DFED18
:10156000161A20EE210A10EE100A27E000000000F3
:10157000001080C0ABAAAA3E0000803D7EE24C3E37
:1015800000B03842D49AB8BB3BAA3842D880000099
:10159000FC596337C9FF753A1872313D76800000F7
:1015A000AA8000001A8000000000FC420000FE42F9
:1015B0000000004B000040430000004D10F0004FC1
:1015C000A0D1E5E5A0F50003B3F1FE4F21D2DFE5A0
:1015D00003EB4103B3F1007F11D3F5EEC00AF1EE46
:1015E00010FA05D1430018BFB4EB400F76D883E75B
:1015F00001F0004141F0FC5100EE901A7CE7B3F19C
:10160000807F06D210EE903AA3F5000300EE903AE8
:1016100072E720F000426FF0FF4C604C02EB0C03CD
:10162000A34210D321F000439C44A4450BD3B0F156
:101630007E5F18BF5FEA410C50D0B2F1FF4F98BFF8
:10164000B3F1FF4F05D9BDEC068BBDE8104000F0AB
:1016500064BAB0F1FF4F0FD0C1F3C7527F2A09DB44
:10166000972A11DAC2F19602012303FA02F2531EFD
:101670000B4205D0002208E011F0004F55D128E0C0
:101680000A4218BF012200D1022210F5000F13D028
:1016900028B3B0F1004F26D010F1814F4FD04FF05A
:1016A000FE42B2EB400F94BF01200020012202EB6A
:1016B000E171884239D10CE011F0004F02D0012ACB
:1016C00038D032E0012A02BF9FED350ABDEC068B0F
:1016D00010BD9FED340ABDEC068B10BD2FE011F05C
:1016E000004F0CD121E0B1F1FF4F1ED011F5000FDA
:1016F00005D011F0004F15D00AB1012A08D0022000
:10170000FEF7CEFFBDEC068BBDE8104000F0F8B947
:101710000220FEF7C5FF00F0F3F9BDEC068BB1EE39
:10172000400A10BD0AB1012A04D0B0EE690ABDEC2E
:10173000068B10BDBDEC068B9FED1B0A10BDBDECEA
:10174000068BB7EE000A10BD30EE410AB5EE001A66
:101750009FED172A00EE413AB6EE001A60EE001A2D
:1017600000EE431A61EEC11A9FED101A20EE011A25
:1017700020EE020A9FED0F2A01EE820A71EE001A96
:1017800011EE900A00F500606FF30B0009EE100AED
:1017900031EE491A31EE00AA9CE50000FFFF3F0040
:1017A000000080FF0000807F0000008000B0B84192
:1017B000D49A38BB3BAAB84100B510EE101A2DEDF3
:1017C000028B81B0524A6846B2EB410F2ED94FF0DE
:1017D000E640B0EB410F94BF00204FF0FF30009087
:1017E0000098B0EE408A00286ADB10F0010F4BD061
:1017F00068EE080A9FED471A9FED470A00EE810A3E
:101800009FED461A10F0020F00EE801AB7EE000AA4
:1018100000EE810A02BF01B0BDEC028B00BD00BF2B
:1018200001B0B1EE400ABDEC028B00BD3C4B21F093
:101830000042934241D911F0004FDFED3A0A20EE09
:10184000201ADFED390A19BF31EE601A71EE200A55
:1018500031EE201A71EE600ABDEEE01A11EE100AA8
:101860009FED321A00F0030000EEC10A9FED301A1E
:10187000009000EEC10A9FED2F1A00EEC10A9FED05
:101880002E1A00EEC10AABE728EE080A9FED2B1ACC
:10189000DFED2B0A10F0020F40EE410A9FED291AEE
:1018A00000EE201A61EE000AB0EE480A08EE200AA7
:1018B000B6D101B0BDEC028B00BD00F049F98FE755
:1018C00018EE100A4000B0F17F4F0DD218EE100A4A
:1018D000FFF78EF9042808BF00F032F9B0EE480A8D
:1018E00001B0BDEC028B00BD09D10120FEF7D8FE8E
:1018F00001B0BDEC028B5DF804EB00F011B901B052
:10190000B0EE480ABDEC028B5DF804EB00F002B9C2
:10191000B61F927EB93AB2BACA9F2A3DDDFFFFBE1A
:10192000490E494683F9223F0000004B0000C93FA1
:1019300000A0FD390020A2331A61342C336D4C39DC
:10194000DA82083CA0AA2ABE10B52DED028BB1EEBA
:10195000C08A18EE100A20F00040C0F1FF40C00F0E
:101960000AD010EE100A20F00040C0F1FF40C00F76
:1019700004BF0120FEF794FEB0EE480ABDEC028BD6
:1019800010BD000000B510EE101A2DED028B81B0D5
:101990004D4A6846B2EB410F3CD94FF0E640B0EB00
:1019A000410F94BF00204FF0FF3000900098B0EE40
:1019B000408A00285FDB28EE080ADFED440A9FED2D
:1019C000441A00EE201ADFED430A40EE010A9FEDB3
:1019D000421A00EE201ADFED410A10F0010F40EE2E
:1019E000010A9FED3F1A00EE201A61EE000AB0EEE8
:1019F000480A08EE200A02BF01B0BDEC028B00BD10
:101A0000BFEE001A01B0C1EE000ABDEC028BB0EED1
:101A1000600A00BD334B21F00042934228D911F0F7
:101A2000004FDFED310A20EE201ADFED300A19BF3A
:101A300031EE601A71EE200A31EE201A71EE600A62
:101A4000BDEEE01A11EE100A9FED291A00F0030016
:101A500000EEC10A9FED271A009000EEC10A9FED2B
:101A6000261A00EEC10A9FED251A00EEC10A9DE775
:101A700000F06EF89AE718EE100A4000B0F17F4FC0
:101A80000DD218EE100AFFF7B3F8042808BF00F0D3
:101A900057F8B0EE480A01B0BDEC028B00BD09D189
:101AA0000120FEF7FDFD01B0BDEC028B5DF804EBFB
:101AB00000F036B801B0B0EE480ABDEC028B5DF81C
:101AC00004EB00F027B80000B61F927EBBE9223C71
:101AD0000C6D063B8A76CE3CACB5593D35A1083E2F
:101AE00029AAAA3E490E494683F9223F0000004B2D
:101AF0000000C93F00A0FD390020A2331A61342C38
:101B0000DFED030AB7EE001A81EE200A70470000ED
:101B10000000000030EE000A704730EE200A7047E7
:101B2000DFED020A80EEA00A70470000000000000E
:101B30009FED020A20EE000A7047000000000070CE
:101B40009FED020A20EE000A70470000000000101E
:101B50002DE9F0014FF07F42B2EB410F9FBF4FF0F4
:101B6000FF310160BDE8F00170474FF0004242EAEA
:101B70000123C1F3C752783A551112F01F0C434CA0
:101B8000CCF120067C44C1F3C752A2F178024FEA9F
:101B9000621204EB820254F8254008BFD2E90156D4
:101BA00012D0556804FA0CF425FA06F73C439768FE
:101BB00005FA0CF527FA06F8D26807FA0CFCF24091
:101BC00045EA08054CEA0206A4FB034CA5FB0352B8
:101BD000A6FB03631D449D4234BF01260026131952
:101BE000334416B1934202D903E0934201D2012259
:101BF00000E00022624402F1200C9206DC0C42EA72
:101C0000443200EE102A5B03DFED210AF8EEC01A21
:101C100000EE103A4FEA9C1C11F0004FB8EE400A5B
:101C2000C0F800C020EE201A00EE105ADFED190AAD
:101C3000B8EE400A20EE200A71EE810A70EE800AAA
:101C400010EE902A02F500626FF30B0200EE902A6C
:101C500070EEE11A31EEC11ADFED101A30EE411AC2
:101C60009FED0D0A20EE800A01EE210A9FED0C1A6D
:101C700000EE810A04BFBDE8F0017047CCF180514D
:101C80000160BDE8F001B1EE400A70471C79000028
:101C9000000000360000802C22AAFD29DB0FC92F8E
:101CA0000000C92F00BF704770B52DED028B0446B0
:101CB0000D461646307B30B14FF47A7029490880C2
:101CC000BDEC028B70BD95F8540090BB01F0E4FAB6
:101CD00078BB01F0D9FA00F0010050B394ED000A8E
:101CE00020EE000AD4ED010A94ED011A00EE810AFB
:101CF000D4ED020A94ED021A00EE810AB0EE408A99
:101D000095ED140ADFED180A80EE201AF0EE418AF4
:101D1000F0EE480AB0EE680A01F08CF840B10120FC
:101D200005F004FB9FED110A0A21232005F024FB96
:101D300000BF0C480088002804DD0A480088401EC7
:101D4000084908800748008848B9284601F0C8F8C3
:101D500028B1002005F0EAFA002005F003FB00BFDF
:101D6000AEE700006C020020000075440000000097
:101D700070B506460D46002411E005EB8401D1ED57
:101D8000000AB0EE600AC4EBC40106EB810002F069
:101D9000EDFB05EB840080ED000A601CC4B2032C4F
:101DA000EBDB70BDB5EEC00AF1EE10FA02D2B1EE77
:101DB000401A01E0B0EE401AB4EEE01AF1EE10FA6B
:101DC00004D29FED0C1AB0EE410A12E0B5EEC00A43
:101DD000F1EE10FA04DD30EE601AB0EE410A08E0D0
:101DE000B5EEC00AF1EE10FA03D230EE201AB0EED2
:101DF000410A7047000000000C46154600BF502005
:101E000080F31188BFF34F8FBFF36F8F00BF294658
:101E1000204605F0E7FC0021084602F0FBFD00210A
:101E2000012002F0F7FD0021022002F0F3FD002165
:101E3000032002F0EFFD02F039FA0121022002F046
:101E4000CDFA0121042002F0C9FA00BFFEE700002C
:101E500010B5044600231A4621460248006806F0E1
:101E6000EFFA10BDA801002010B5044600231A4661
:101E700021460248006806F0D1FB10BDA8010020F1
:101E800070B52DED048B04460D461646D5ED010ABE
:101E900094ED011A70EEC10AB0EE600A224803F018
:101EA00095F886ED010AD5ED020A94ED021A70EE5E
:101EB000C10AB0EE600A1D4803F088F886ED020AF8
:101EC00095ED030AD4ED030A30EE600AB0EE408AC5
:101ED0009FED170AB4EEC08AF1EE10FA06DD9FED11
:101EE000150A38EE400AB0EE408A12E018EE100AE9
:101EF00007F030F941EC190B9FED0F0B53EC102B51
:101F000006F0B8FF05D29FED0B0A38EE000AB0EEDE
:101F1000408AB0EE480A0A4803F058F886ED030AF2
:101F2000BDEC048B70BD0000A4960020E09600205C
:101F3000000034430000B44300000000008066C08D
:101F40001C97002000B5F0EE402AB0EE603AB0EEEB
:101F5000432A3848D0ED021A90ED011AD0ED000A5C
:101F60009FED350A354802F0C5FFB0EE432A3148EF
:101F7000D0ED051A90ED041AD0ED030A9FED2E0A5C
:101F80002F4802F0B7FFB0EE432A2A48D0ED081AD6
:101F900090ED071AD0ED060A9FED270A294802F0B6
:101FA000A9FFB3EE0E0A254803F00AF8B3EE0E0AB5
:101FB000234803F005F89FED240A224803F000F8B7
:101FC000B0EE622A1B48D0ED0B1A90ED0A1AD0ED44
:101FD000090A9FED190A1D4802F08CFFB0EE622A33
:101FE0001448D0ED0E1A90ED0D1AD0ED0C0A9FEDAD
:101FF000120A174802F07EFFB0EE622A0D48D0EDBB
:10200000111A90ED101AD0ED0F0A9FED0B0A11482E
:1020100002F070FF9FED100A0C4802F0D1FF9FED17
:102020000E0A0B4802F0CCFF9FED0C0A094802F0A3
:10203000C7FF00BD1C00002000000000A496002087
:10204000E09600201C9700200000344358970020A1
:1020500094970020D09700200000FA4300004842E7
:1020600000B5024802F098FF00BD0000E096002095
:1020700000B5024802F090FF00BD0000A4960020C9
:1020800010B52DED048B0446207810287ED1A17860
:10209000090209B2E27841EA020006F0C0FE41EC12
:1020A000190B9FEDC50B53EC102B06F01FFF41ECF5
:1020B000180B06F049FEC24948612179090209B2AC
:1020C000627941EA020006F0AAFE41EC190B9FED8D
:1020D000BA0B53EC102B06F009FF41EC180B06F07D
:1020E00033FEB7498861A179090209B2E27941EA70
:1020F000020006F094FE41EC190B9FEDAF0B53EC80
:10210000102B06F0F3FE41EC180B06F01DFEAC4957
:10211000C861217A090209B2627A41EA020006F036
:102120007EFE41EC190B9FEDA40B53EC102B06F037
:10213000DDFE41EC180B06F007FEA2494861A17ACA
:10214000090209B2E27A41EA020006F068FE41ECB7
:10215000190B9FED990B53EC102B06F0C7FE41ECC9
:10216000180B06F0F1FD97498861217B090209B23D
:10217000627B41EA020006F052FE41EC190B9FED32
:102180008E0B53EC102B06F0B1FE00E048E041EC62
:10219000180B06F0D9FD8B49C861A17B090209B271
:1021A000E27B41EA020006F03AFE41EC190B9FED9A
:1021B000820B53EC102B06F099FE41EC180B06F045
:1021C000C3FD81494861217C090209B2627C41EA70
:1021D000020006F024FE41EC190B9FED770B53EC47
:1021E000102B06F083FE41EC180B06F0ADFD76498E
:1021F0008861A17C090209B2E27C41EA020006F092
:102200000EFE41EC190B9FED6C0B53EC102B06F0FE
:102210006DFE41EC180B06F097FD6B49C861C8E0F4
:1022200020781128FBD1A178090209B2E27841EAAD
:10223000020006F0F4FD41EC190B9FED5F0B53EC2F
:10224000102B06F053FE41EC180B06F07DFD5F49A4
:1022500048612179090209B2627941EA020006F077
:10226000DEFD41EC190B9FED540B53EC102B06F0E7
:102270003DFE41EC180B06F067FD54498861A179D9
:10228000090209B2E27941EA020006F0C8FD41EC18
:10229000190B9FED490B53EC102B06F027FE41EC78
:1022A000180B06F051FD4949C861217A090209B2AB
:1022B000627A41EA020006F0B2FD41EC190B9FED93
:1022C0003E0B53EC102B06F011FE41EC180B06F000
:1022D0003BFD3F494861A17A090209B2E27A41EA2D
:1022E000020006F09CFD41EC190B9FED330B53EC03
:1022F000102B06F0FBFD41EC180B06F025FD3449D0
:102300008861217B090209B2627B41EA020006F082
:1023100086FD41EC190B9FED280B53EC102B06F0BA
:10232000E5FD41EC180B06F00FFD2949C861A17BC2
:10233000090209B2E27B41EA020006F070FD41ECBD
:10234000190B9FED1D0B53EC102B06F0CFFD41EC4C
:10235000180B06F0F9FC1F494861217C090209B2FB
:10236000627C41EA020006F05AFD41EC190B9FED38
:10237000120B53EC102B06F0B9FD41EC180B06F0D4
:10238000E3FC14498861A17C090209B2E27C41EABC
:10239000020006F044FD41EC190B9FED070B53ECD6
:1023A000102B06F0A3FD41EC180B06F0CDFC0949FB
:1023B000C861BDEC048B10BD9A9999999999B93F60
:1023C0005897002094970020D0970020A4960020D2
:1023D000E09600201C97002070B52DED028B04467E
:1023E0000D461646D5ED010A94ED001A70EEC10AAD
:1023F000B0EE600A154802F0E9FDB0EE408A02F046
:10240000ABFD3080D5ED020A94ED011A70EEC10AE1
:10241000B0EE600A0E4802F0D9FDB0EE408A02F03C
:102420009BFD7080D5ED030A94ED021A70EEC10A8F
:10243000B0EE600A074802F0C9FDB0EE408A02F033
:102440008BFDB080BDEC028B70BD00005897002062
:1024500094970020D097002000B5094802F09CFD19
:10246000084802F099FD084802F096FD074802F07E
:1024700093FD074802F090FD064802F08DFD00BD77
:10248000A4960020E09600201C970020589700207A
:1024900094970020D09700202DE9F14F82B0674833
:1024A0008069C1174FF4FA33C41A61F10005A4FB27
:1024B000041005FB040004FB05026048B0F910009D
:1024C000C317A1FB008A02FB00A001FB03095B48C4
:1024D000B0F90E00C117A0FB042301FB043100FB7F
:1024E0000510400440EAD230510411EB080840EBDB
:1024F00009095248B0F90C0018F1000849EBC0096D
:10250000A4FB041005FB040004FB05024B48B0F9D2
:102510000A004FEAE07CA1FB003A02FB00A001FBAD
:102520000C004FEA132141EA00614FEA20224348A0
:10253000B0F908004FEAE073A446A0FB0CBE03FB11
:1025400004E300FB05304FEA003040EA1B504FEA3D
:102550000B33CC1842EB0005221C45F500403749EF
:10256000C9880023A2FB01AC00FB01C002FB0300F1
:102570004410C517002184EA01006940084301D1D5
:10258000BDE8FE8F0298C0F58010C7170646F80711
:1025900040EA5600F107B1EB080160EB090040F694
:1025A00035430022A1FB03CA00FB03A001FB02018B
:1025B00022462B466046CDE900C1FDF7E6FE064601
:1025C0000F461E48B0F91600C217710B41EAC74CFE
:1025D0007B13A0FB0C1A02FB0CA200FB0322700B66
:1025E00040EAC7404FEA673CA1FB003A02FB00A06B
:1025F00001FB0C01580E40EAC1144D160F48B0F90A
:102600001400C117A0FB062301FB063100FB0711D4
:10261000D00C40EA41384FEAE149311947EB050057
:1026200011EB080140EB0900090A41EA0061034887
:10263000B0F9120000010E183046A1E718B40020CE
:1026400030B50146CC100F4D2D88A4EB45040D4D3F
:10265000B5F902506C43E2120A4C2488C4EB2114F1
:1026600064432413074DB5F904506C43A313D418E5
:10267000044DAC612C46A46904EB84048034201220
:1026800030BD000018B4002038B504461C4800785E
:1026900008B1012038BD1B48046076201A49087033
:1026A000322000F0BBFB194BD022174801781548A7
:1026B000006800F07DFF15480078582801D0002000
:1026C000E8E713481823882200900F4801780D4846
:1026D000006800F054FF9323F4220B480178094866
:1026E000006800F0E5FF1423F5220748017805484B
:1026F000006800F0DDFF01200149087000BFC9E754
:10270000C9020020C4020020C0020020C80200202C
:1027100018B4002010B52DED028B044694ED000A8C
:10272000B5EEC00AF1EE10FA18DD94ED000ADFED07
:102730000D0A80EE801AB0EE418ADFED0B0AB0EE92
:10274000480AFEF707FDF7EE000A30EE600ADFEDFB
:10275000070A20EE200ABDEC028B10BD9FED040A93
:10276000F9E70000CDEC7D44B1DC423E002A2D4764
:102770000000000010B50446002011E0414901EBC3
:10278000800191ED000A04EB8001D1ED000A30EEEA
:10279000200A3C4901EB800181ED000A411CC8B2CE
:1027A0000328EBDB94ED020A3748D0ED000AB4EEC3
:1027B000E00AF1EE10FA03D294ED020A80ED000A6D
:1027C00094ED020A3148D0ED000AB4EEE00AF1EED1
:1027D00010FA03DD94ED020A80ED000A2C4800880F
:1027E000401C80B22A490880B0F5AF7F48DB00204A
:1027F0000880264890ED000A2348D0ED000A30EE0C
:10280000600A244880ED000AB7EE080A1E4880EDF1
:10281000000AB6EE000A1D4880ED000A1D4890ED42
:10282000000ADFED1D0AB4EEE00AF1EE10FA1AD24A
:1028300000200FE0134901EB800191ED000ADFED6C
:10284000170A80EE201A164901EB800181ED001A6B
:10285000411CC8B20328EDDB01201249087012495F
:10286000032001F03FFE002008E09FED100A05491B
:1028700001EB800181ED000A411CC8B20328F4DBA2
:1028800010BD0000089B0020840200208802002068
:1028900080020020F80100208FC2753C0000AF4389
:1028A00000020020FC010020BC9200080000000093
:1028B00010B500F047F900200949888209480078DE
:1028C000C0F3800058B10748007820F008000830B5
:1028D000044908700846007820F00400087010BD14
:1028E00090990020D101002070B52DED028B044697
:1028F0000D4600F0A1F98548007885F85400844819
:10290000007800F0010000287ED081480078C0F3F4
:10291000C00020B12946204600F020FCCBE07C48D6
:102920000078C0F3800000286FD09FED7A0A84ED14
:10293000120A0121422001557748007868B9012028
:10294000754908709FED730A744880ED000A9FED89
:10295000740A0121002004F00FFD7248808A00EE05
:10296000100AB8EE400ADFED700A30EE600ADFEDC3
:102970006E0A80EE208AB5EEC08AF1EE10FA06DD0E
:102980009FED6A0A28EE000AB0EE408A05E09FED4E
:10299000680A28EE000AB0EE408AB0EEC80AF1EEEE
:1029A000040AB4EEE00AF1EE10FA38DD01206149C4
:1029B000087002214220015584ED0F8ABBEE040A03
:1029C000B4EEC08AF1EE10FA23D295ED140A5A48FB
:1029D000D0ED000AB4EEE00AF1EE10FA03DD95ED59
:1029E000140A80ED000A544890ED000ADFED530A06
:1029F000B4EEE00AF1EE10FA3CDD4548007820F034
:102A000004004349087001E04AE034E000F0C6FAEF
:102A100030E09FED400A484880ED000A2AE0454832
:102A2000007801280FD1002042490870012142207E
:102A3000015595ED0C0A3948D0ED000A30EE200A18
:102A400084ED0B0A16E03B48007898B994ED0B0A28
:102A5000D5ED0C0A30EE600A304880ED000AB2EE87
:102A6000041AFAEE040A90ED000A00F0CFF82B48A1
:102A700080ED000A1FE00021422001559FED250A4C
:102A800084ED120A9FED230A84ED0F0A9FED210ABF
:102A900084ED0B0A002020490870264908700AE0DE
:102AA0000021422001551F48808A00EE100AB8EE2E
:102AB000400A84ED120A1B480068606019484068AB
:102AC000A0601848806800EE100AB1EE400A84ED5C
:102AD000030A002084F840000021412001554320D2
:102AE0000155442001550A480078C0F3401038B120
:102AF0000120134908702946204604F05BF802E0E3
:102B000000200F490870BDEC028B70BDC40100208D
:102B1000D101002000000000740200207802002093
:102B20000000A0429099002000FEFF460000C8422D
:102B300000007042750200209802002000007A43D5
:102B4000D00100209FED080A10EE100A0749086026
:102B50009FED050A10EE100A48609FED030A10EE83
:102B6000100A886070470000000000009099002063
:102B700010B51348007800B110BD002230210120AB
:102B800005F041FC0F49086000220121084605F0CC
:102B90003AFC0D49086000222021012005F033FC99
:102BA0000A4908600846006820B9262208A111A039
:102BB000FFF722F901200249087000BFDCE700009E
:102BC000B4010020AC010020B0010020A8010020C9
:102BD0002E2E5C434F4D4D554E49434154455C7339
:102BE00072635C636F6D6D756E69636174652E638E
:102BF0000000000061746B705F73746162696C69DE
:102C00007A65725F7175657565000000F0EE401AB7
:102C1000F4EEE01AF1EE10FA02D2B0EE600A70475C
:102C2000F4EEC11AF1EE10FA02DDB0EE410AF6E759
:102C3000B0EE610AF3E7000010B586B000F054FB77
:102C400004464D488069201AB0F5FA7F03D200206F
:102C50004A4908700DE048488069201AB0F57A7F2B
:102C600002D2FFF76FFF04E0012044490870FFF72C
:102C70001FFE4248007800287BD118223E49684652
:102C8000FDF72DFCBDF814003D49898A401A00EE7D
:102C9000100AF8EEC00A3A48808A00EE100AB8EE30
:102CA000400A384890ED001A00EE810ABCEEC00AD6
:102CB00010EE100A32498882DDED010A08464068AC
:102CC00000EE100A70EEC00A0846406800EE100AD6
:102CD0002C4890ED001A00EE810A10EE100A4860B0
:102CE000DDED000A0846006800EE100A70EEC00A2A
:102CF0000846006800EE100A224890ED001A00EE27
:102D0000810A10EE100A0860DDED020A08468068AC
:102D100000EE100A70EEC00A0846806800EE100A45
:102D2000184890ED001A00EE810A10EE100A886033
:102D30009DED030A144880ED240A9DED040A80ED00
:102D4000250A0846808A41F28831884203DA002049
:102D50000B4988820CE00A48808A4EF6602188423E
:102D600002DB084602E004E00548808A04498882C4
:102D700000BF06B010BD000074990020C4010020FF
:102D8000909900208C0200201C0000204FF0E022CF
:102D9000126942F004024FF0E0231A610B4A1060FE
:102DA00001464FF47A7251430122094B1A804FF0C9
:102DB000E022126942F002024FF0E0231A611A4643
:102DC0005161126942F001021A6170470C00002043
:102DD0001000002070B5034600224FF0E026756910
:102DE0000D4E366803FB06F44FF0E026B16910E0A3
:102DF0004FF0E026B06988420BD0884202D20E1A0A
:102E0000324402E02E1A0E4432440146A24200D35C
:102E100000E0EDE700BF70BD0C00002030B50446B7
:102E2000002504E04FF47A70FFF7D4FF6D1CA54233
:102E3000F8D330BD10B52DED068BB0EE408AF0EE24
:102E4000608A18EE900A06F085F941EC1A0BB0EE94
:102E50004A0AF0EE6A0AFEF773F9B0EE409AF0EE15
:102E6000609A9FED1C0B53EC102B51EC190B06F0E4
:102E700001F829D2B7EE000A38EE000A10EE101A57
:102E8000084606F067F941EC1A0BB0EE4A0AF0EE7C
:102E90006A0AFEF755F9B0EE409AF0EE609A9FED9F
:102EA0000D0B53EC102B51EC190B05F0E3FF0BD27B
:102EB0000A480088401C80B208490880322806DB96
:102EC0000120BDEC068B10BD0020044908800020C5
:102ED000F7E70000000000A09999A93F7C020020BC
:102EE00010B52DED088B044694ED010A10EE101A72
:102EF000084606F02FF941EC1B0BB0EE4B0AF0EE42
:102F00006B0AFEF71DF9B0EE40AAF0EE60AA51EC94
:102F10001A0B05F019FF08EE100A94ED020A10EEE4
:102F2000101A084606F016F941EC1B0BB0EE4B0ADE
:102F3000F0EE6B0AFEF704F9B0EE40AAF0EE60AADC
:102F400051EC1A0B05F000FF08EE900AB4EEE88A87
:102F5000F1EE10FA02DBB0EE480A01E0B0EE680ACA
:102F6000B0EE409A9FED0B0AB4EEC09AF1EE10FA63
:102F70000BDD09480088401C80B20749088064289E
:102F800006DB0120BDEC088B10BD00200249088043
:102F90000020F7E7000070427E0200200120014976
:102FA0000870704715020020012001490870704721
:102FB000140200202648007800B1704725480068B8
:102FC00040F480402349086050212348017040208C
:102FD00022490860C021214880F8071380204FF063
:102FE000E021C1F80001C0211B48801C01704FF492
:102FF00080701A490860C021184880F809134FF4FE
:1030000000704FF0E021C1F80001C021134880F8A2
:103010000A134FF480604FF0E021C1F80001C02195
:103020000E4880F817134FF400004FF0E021C1F86C
:103030000001A021094880F828134FF48070074947
:10304000091D086001200249087000BFB5E70000B3
:10305000B80000203438024006E400E000E100E05F
:1030600000B52B48008800283CDD29480088401E18
:1030700027490880FFF798FF2648D0ED080A264820
:1030800090ED001A70EEC10A9FED241AC0EE811A6D
:10309000B0EE610A1F48D0ED080A1F48C0ED000AD3
:1030A0001F48D0ED000A30EE601AD0ED000ADFEDC7
:1030B0001D1A41EE210AC0ED000A02211A4880F8CB
:1030C00042101748D0ED000A1848C0ED100A144805
:1030D000D0ED000ABFEE001A60EE810A1248C0ED82
:1030E0000F0A14E012480088002810DD10480088FC
:1030F000401E0F490880FFF751FF01210A4880F860
:1031000042100C4890ED000A074880ED0B0A00BD04
:103110005A020020389A0020640200206F12833B7C
:10312000680200203333B33EEC9900207C9A0020E3
:103130005C020020600200200FB410B50446162285
:1031400003A90548FDF7CBF900F0CEF802498861E4
:1031500010BC5DF814FB00007499002000B5034614
:103160000A4602214220C15492ED100A384890EDDF
:10317000001A30EE411A90ED000ADFED361A01EE2A
:10318000210A80ED000A90ED000A9FED331A31EE1E
:10319000400A83ED0F0A00F071F89FED301AB4EE8B
:1031A000C10AF1EE10FA18D22D480078401C2C49C3
:1031B0000870084600780A2812DD002008702948A7
:1031C000007820F00800274908700846007820F0B1
:1031D00004000870FFF7E2FE02E0002020490870BA
:1031E000D2ED140A204890ED000AB4EEE00AF1EEA8
:1031F00010FA01DDC0ED000A1C4890ED000AB4EEA3
:10320000E00AF1EE10FA01D2C0ED000A164890ED86
:10321000000A9FED171AB4EEC10AF1EE10FA16D2A9
:10322000124890ED000A9FED131AB4EEC10AF1EEB8
:1032300010FA0CDD0B48007820F0080009490870EE
:103240000846007820F004000870FFF7A7FE00BDD4
:1032500094020020CDCCCC3D00008CC200409C46A6
:1032600090020020D1010020C8010020CC010020E4
:103270000000A0C20000A04370470000014890ED8C
:10328000000A7047C00100200248007800F00300E7
:1032900070470000D101002002480078C0F3800090
:1032A00070470000D101002002480078C0F3C00040
:1032B00070470000D10100200148007870470000ED
:1032C000FC0100200246002107E0064850F82100DA
:1032D000904201D108467047491C0629F5D34FF0AA
:1032E000FF30F8E78801002010B505F027FB012822
:1032F00002D005F033FB10BD01480068FBE7000079
:103300000001002070B505464248008840F48070F6
:10331000404E30804FF47A7304E0581E80B2031E92
:1033200000D170BD3B481430008800F00100002837
:10333000F3D00879012606EB4000364E1036308077
:103340004FF47A731AE0581E80B2031E00D1E8E7EA
:1033500030481430008800F4806078B12D48143073
:10336000008820F480602B4E143630802948008875
:1033700040F40070274E30800020D2E725481430FA
:10338000008800F002000028DDD00868012806D17E
:103390002048008820F480601E4E308005E01D48E3
:1033A000008840F480601B4E30801A481830048832
:1033B000002229E00868401E904205D11548008887
:1033C00020F48060134E30800868401E904205D182
:1033D0001048008840F400700E4E30804FF47A732D
:1033E00004E0581E80B2031E00D19AE70948143049
:1033F000008800F040000028F3D006481030008814
:103400000E69B054501C82B208689042D2D8012094
:1034100087E700000054004070B505465348008817
:1034200040F48070514E30804FF47A7204E0501EA8
:1034300080B2021E00D170BD4C481430008800F0EC
:1034400001000028F3D008794000484E1036308043
:103450004FF47A721AE0501E80B2021E00D1EAE7E1
:1034600042481430008800F4806078B13F4814303E
:10347000008820F480603D4E143630803B48008840
:1034800040F40070394E30800020D4E737481430C3
:10349000008800F002000028DDD03448183004888D
:1034A000C8894FF6FF76B0422CD0087B98B1C88906
:1034B000000A2E4E103630804FF47A7204E0501E0F
:1034C00080B2021E00D1B6E728481430008800F010
:1034D00080000028F3D0887B244E103630804FF4D3
:1034E0007A7204E0501E80B2021E00D1A3E71F488A
:1034F0001430008800F080000028F3D0887901287B
:1035000000D198E78879D0B9002315E00869C05C3C
:10351000164E103630804FF47A7204E0501E80B29E
:10352000021E00D187E711481430008800F08000A7
:103530000028F3D0581C83B208689842E6D84FF4AC
:103540007A7204E0501E80B2021E00D173E7074871
:103550001430008800F004000028F3D003480088ED
:1035600040F40070014E3080012064E700540040B8
:1035700010B50446204600F0B8F8012010BD2DE932
:10358000F04188B006460F4614461D46DDF83880E7
:1035900001202346002239468DE8210103A800F0CE
:1035A00096F803A9304600F0FFF908B0BDE8F081B5
:1035B000F8B505460E4617461C4601233A463146E5
:1035C00028460094FFF7DBFFF8BD2DE9F04188B0F5
:1035D00006460F4614461D46DDF838800020234677
:1035E000024639468DE8210103A800F070F803A9CE
:1035F000304600F0D9F908B0BDE8F0812DE9F84374
:1036000005460E4617461C46DDF820806B463A46B6
:1036100031462846FFF7CCFFB8F1000F05D0012056
:10362000A0409DF80010084305E00120A0409DF84F
:10363000001021EA0000C0B200909DF800303A4628
:103640003146284600F034F8BDE8F8832DE9F84FFC
:103650008046894692461C46DDE90A566B4652462C
:1036600049464046FFF7A4FFB0F1000B1DD00120F2
:10367000A840401E611B491C8840C7B2601B401C0B
:1036800006FA00F0C6B23E409DF80000B843009034
:103690009DF80000304300909DF8003052464946A6
:1036A000404600F005F8834600BF5846BDE8F88F55
:1036B0007FB582B004460D46164605A80123324662
:1036C000294600902046FFF780FF06B070BDF0B598
:1036D00005AC70CC017184710273C3810560002751
:1036E000C771066102274771F0BD10B50446204638
:1036F00000F002F810BD000070B50446A54800684F
:1037000040F00200A34908600846006840F002004B
:103710000860A0481030006840F400109D49103146
:1037200008609D48006820F440309B4908600846C6
:10373000006840F48030086097480830006820F442
:1037400040309549083108600846006840F4003070
:103750000860081F006820F48070091F0860084690
:10376000006840F4807008608B480C30006820F4DA
:10377000403089490C310860084600680860864876
:10378000006820F44020844908600846006840F43E
:103790008020086080480830006820F440207E497E
:1037A000083108600846006840F400200860081FDF
:1037B000006820F40070091F08600846006840F4A3
:1037C0000070086074480C30006820F44020724992
:1037D0000C3108600846006808602568AD8DABB202
:1037E0002568AD8BAAB22568A96AA86900F030F9EE
:1037F0006948006820F4403067490860084600685E
:1038000040F40030086064480830006820F440301C
:103810006149083108600846006840F400300860DB
:10382000081F006820F48070091F086008460068BF
:1038300040F48070086058480C30006820F4403034
:1038400055490C3108600846006808605248006815
:1038500020F44020504908600846006840F40020E9
:1038600008604D480830006820F440204A4908317B
:1038700008600846006840F400200860081F0068DF
:1038800020F40070091F08600846006840F40070CA
:10389000086041480C30006820F440203E490C315B
:1038A00008600846006808603B48406A20F00F0145
:1038B00039484162406A40F0040137484162406A39
:1038C00020F0F00134484162406A40F04001324843
:1038D000416230481038006840F400102D4910391A
:1038E00008600846006820F4001008602B48008833
:1038F00020F03F00294908800846008840F0080071
:103900000880081F008820F00100091F088048F285
:1039100007002249183108800320091D08801F482C
:10392000001F008840F001001C49091F088008465C
:1039300000884FF6F53108401849091F08800846ED
:10394000008840F48060088044F230001349091D6B
:103950000880081F008840F48070091F08807021CB
:103960000F480170C0070F49086070210D4880F8AA
:1039700049134FF400704FF0E021C1F80801032211
:103980000021012004F03FFD2062012004F02AFD07
:10399000606270BD303802400004024004540040B0
:1039A0001FE400E000E100E02DE9F04106460C468E
:1039B0000025677900235A1E1946706A04F040FDFD
:1039C00020E0A07920B1E0894FF6FF7188420ED047
:1039D00021463046FFF720FD05466DB1A07901284C
:1039E0000AD121463046FFF78DFC054604E021460A
:1039F0003046FFF787FC054605B105E07F1E6420D1
:103A000000F010F8002FDCDA00BF15B9304600F0E6
:103A100018F800231A461946706A04F0FFFD28467C
:103A2000BDE8F08108B500210091009102E0009905
:103A3000491C009100EB80014900009A9142F6D8A0
:103A400008BD10B504462046FFF756FE10BD000025
:103A50002DE9F04104460E4615461F46378314E013
:103A600025831D4800BF2169294019B9011EA0F115
:103A70000100F8D16420FFF7D5FF65836420FFF7CC
:103A8000D1FF25836420FFF7CDFF3069384000283F
:103A9000E6D025836420FFF7C5FF77836420FFF716
:103AA000C1FF77836420FFF7BDFF378325830A4872
:103AB00000BF2169294019B9011EA0F10100F8D108
:103AC000054800BF3169394019B9011EA0F1010054
:103AD000F8D1BDE8F0810000A08601005948D0ED82
:103AE000004A64EEA44AB0EE640A5748D0ED004A9A
:103AF00064EEA44AF0EE640A5448D0ED004A64EE45
:103B0000A44AB0EE641A5248D0ED004A4D4890EDF8
:103B1000005A64EE854AF0EE641A4D48D0ED004A32
:103B2000494890ED005A64EE854AB0EE642A484850
:103B3000D0ED004A454890ED005A64EE854AF0EE1B
:103B4000642A4048D0ED004A3F4890ED005A64EEA8
:103B5000854AB0EE643A3B48D0ED004A3B4890EDD0
:103B6000005A64EE854AF0EE643A3748D0ED004AD8
:103B7000364890ED005A64EE854AB0EE644AF7EE9E
:103B8000004AB0EE005A45EE604AB0EE005A45EEEB
:103B9000414A3048C0ED004AF1EE624A73EE244AD1
:103BA000B0EE005A64EE854AC0ED014AF1EE424A99
:103BB00073EEE44AB0EE005A64EE854AC0ED024A64
:103BC000F1EE624A73EE644AB0EE005A64EE854A42
:103BD000C0ED034AF7EE004AB0EE005A45EE404A07
:103BE000B0EE005A45EE414AC0ED044AF1EE614A9A
:103BF00074EE244AB0EE005A64EE854AC0ED054AE0
:103C0000F1EE424A73EEA44AB0EE005A64EE854AE1
:103C1000C0ED064AF1EE614A74EE644AB0EE005A15
:103C200064EE854AC0ED074AF7EE004AB0EE005A4E
:103C300045EE404AB0EE005A45EE604AC0ED084AF3
:103C400070470000EC010020F0010020F40100208A
:103C5000E8010020C899002010B52DED088B04461E
:103C60003A4890ED000AD4ED000A20EE200AD0ED8B
:103C7000010A94ED011A00EE810AD0ED020A94EDDA
:103C8000021A00EE810AB0EE408A90ED030AD4EDEC
:103C9000000A20EE200AD0ED040A94ED011A00EE8D
:103CA000810AD0ED050A94ED021A00EE810AF0EEC9
:103CB000408A90ED060AD4ED000A20EE200AD0EDED
:103CC000070A94ED011A00EE810AD0ED080A94ED7E
:103CD000021A00EE810AB0EE40AA90ED001AF0EE52
:103CE000410A90ED031AB0EE410AFDF72BF8F0EE11
:103CF00040AAB0EE6A0AFDF77BF9B0EE409AB0EE4A
:103D00006A0AFDF759FDF0EE409A28EE090A08EE1E
:103D1000A90AB0EE40BA28EE890A08EE690AF0EE68
:103D200040BA84ED00BAB1EE6B0A84ED010A08488E
:103D3000D0ED020A9FED071AB0EE4A0A00EEC10A62
:103D400084ED020ABDEC088B10BD0000C89900206C
:103D50000002002000007544D0ED011AF1EE611A56
:103D6000C0ED011A2149D1ED001A90ED002A61EE53
:103D7000821A91ED032AD0ED012A42EE221A91ED2A
:103D8000062AD0ED022A42EE221AB0EE610AD1EDE7
:103D9000011A90ED002A61EE821A91ED042AD0ED0D
:103DA000012A42EE221A91ED072AD0ED022A42EEB4
:103DB000221AF0EE610AD1ED021A90ED002A61EEAE
:103DC000821A91ED052AD0ED012A42EE221A91EDD8
:103DD000082AD0ED022A42EE221AB0EE611A80EDD6
:103DE000000AC0ED010A80ED021A7047C899002050
:103DF00011B52DED080B2DED0A8B87B00446F0EEC2
:103E0000438AB6EE000A28EE800AB0EE409A0020FF
:103E100004900590069011A807C801AB07C39DED5B
:103E2000140ADFEDDE0A20EE200A8DED140A9DED66
:103E3000150ADFEDDA0A20EE200A8DED150A9DED58
:103E4000160ADFEDD60A20EE200A8DED160A9DED4A
:103E5000110AB5EEC00AF1EE10FA0DD19DED120A6D
:103E6000B5EEC00AF1EE10FA06D19DED130AB5EEDB
:103E7000C00AF1EE10FA7DD0DDED110A60EEA00A65
:103E80009DED121ADDED121A41EE210A9DED131A75
:103E9000DDED131A41EE210AB0EE600A00F0E8F9F8
:103EA000B0EE408ADDED110AB0EE480A20EE800A3D
:103EB0008DED110ADDED120AB0EE480A20EE800AFF
:103EC0008DED120ADDED130AB0EE480A20EE800AED
:103ED0008DED130A9DED120AB148D0ED080A20EECF
:103EE000200ADDED130A90ED071AF0EE40BA40EE1D
:103EF000C1BA9DED130AD0ED060A20EE200ADDEDD1
:103F0000110A90ED081AB0EE40CA00EEC1CA9DED4C
:103F1000110AD0ED070A20EE200ADDED120A90ED1D
:103F2000061AF0EE40CA40EEC1CA9E4890ED000A63
:103F300060EE2B0A9C4890ED000A00EEA80A80ED86
:103F4000000A984890ED000A60EE0C0A974890ED40
:103F5000000A00EEA80A80ED000A924890ED000ADF
:103F600060EE2C0A924890ED000A00EEA80A80ED5F
:103F7000000A00E029E0DDED140A8B4890ED000A0C
:103F80008C4890ED001A01EE2B0A30EE800A8DED80
:103F9000140ADDED150A854890ED000A854890ED7C
:103FA000001A01EE0C0A30EE800A8DED150ADDEDE7
:103FB000160A7F4890ED000A7E4890ED001A01EE47
:103FC0002C0A30EE800A8DED160A7B48D0ED009A5F
:103FD0007A4890ED00AA7A48D0ED00AA794890ED91
:103FE00000BA9DED140AF1EE4A0A20EE200ADDED3A
:103FF000150A0AEEE00ADDED160A0BEE600A6E48BD
:10400000D0ED000A40EE090AC0ED000A9DED140A49
:1040100020EE290ADDED160A0AEEA00ADDED150AEA
:104020000BEE600A6548D0ED000A40EE090AC0EDCB
:10403000000A9DED150A20EE290ADDED160A0AEEAA
:10404000600ADDED140A0BEE200A5D48D0ED000A8F
:1040500040EE090AC0ED000A9DED160A20EE290A7D
:10406000DDED150A0AEE200ADDED140A0AEEE00A7B
:104070005448D0ED000A40EE090AC0ED000A4E484F
:10408000D0ED000A60EEA00A4C4890ED001AD0ED89
:10409000001A41EE210A4A4890ED001AD0ED001AAC
:1040A00041EE210A474890ED001AD0ED001A41EE8A
:1040B000210AB0EE600A00F0DBF8B0EE408A3E481C
:1040C00090ED000A20EE080A80ED000A3B4890EDD2
:1040D000000A20EE080A80ED000A394890ED000A37
:1040E00020EE080A80ED000A364890ED000A20EE26
:1040F000080A80ED000AFFF7F1FC2948D0ED060A16
:10410000B0EE600AFCF788FDB1EE400ADFED2E0A42
:1041100020EE200A84ED020A214890ED081AF0EE04
:10412000410A90ED071AB0EE410AFCF70BFEDFEDF5
:10413000260A20EE200A84ED010A194890ED001AA3
:10414000F0EE410A90ED031AB0EE410AFCF7FAFDD9
:10415000DFED1D0A20EE200A84ED030A1B480078DB
:10416000B8B99DED010A0E48D0ED060A20EE200AEE
:10417000DDED020A90ED071A00EE810ADDED030A7B
:1041800090ED081A00EE810A8DED060A04A8FEF7EC
:10419000F1FA07B0BDEC0A8B09B010BD35FA8E3CC0
:1041A000C8990020D8010020DC010020E001002097
:1041B000E4010020D4010020E8010020EC010020EF
:1041C000F0010020F4010020E12E6542FC010020F6
:1041D00020EE812A22EE002AF0EE421A0D4901EB70
:1041E000800191ED002A32EE212A0A4901EB80017B
:1041F00081ED002A07490C3901EB800191ED002A7D
:1042000001EE212A03490C3901EB800181ED002ADE
:10421000704700004C02002020EE801A61EE001A68
:10422000B0EE002A81EE821A104901EB8001D1ED37
:10423000001A01EE801A0D490C3101EB8001D1ED1D
:10424000001A31EE211A09490C3101EB800181ED90
:10425000001A064901EB800191ED001A00EE801A68
:10426000024901EB800181ED001A704740020020F5
:10427000F0EE400AF6EE001A60EEA11AB0EE611AF6
:10428000B0EE600A10EE100A0749A1EB600000EEE4
:10429000100A21EE002AF7EE081A42EE401A61EEEB
:1042A000801AB0EE610A7047DF59375F10B50024FD
:1042B00005E00021204600F091F8601CC4B2052CF6
:1042C000F7DB10BD70B506460C4615460121304699
:1042D00000F084F82046FEF7A1FD0021304600F0F2
:1042E0007DF82846FEF79AFD70BD000000B53648FF
:1042F000007800B100BD3548006840F00100334946
:1043000008600846006840F002000860084600683F
:1043100040F0040008602E48006820F470402C49EA
:1043200008600846006840F4A040086008464068FD
:1043300020F0C00048600846806820F47040886023
:104340000846806840F4A04088602248006820F059
:104350004070204908600846006840F0807008609E
:10436000081D006820F48050091D0860081D0068C1
:1043700020F04070091D08600846006840F0807019
:1043800008601548006820F070501349086008461E
:10439000006840F0A0500860081D006820F4C0408C
:1043A000091D0860081D006820F07050091D086094
:1043B0000846006840F0A0500860FFF777FF012032
:1043C0000149087000BF95E7BC000020303802406A
:1043D00000000240000402400008024010B5052819
:1043E00000DD10BD00EB4002114B03EB820292682E
:1043F000012A01D181F0010161B100EB40020C4BB7
:1044000003EB8202928800EB4003094C54F82330FE
:104410001A830BE000EB4002054B03EB820292880B
:1044200000EB4003024C54F823305A8300BFD8E716
:10443000C000002038B52248007800B138BDFFF731
:1044400055FF002413E04FF0FF301E4941F82400CF
:10445000002509E04FF0FF3004EB44011A4A02EB5B
:10446000C10141F825006D1C062DF3D3641C052CF9
:10447000E9DB00240CE01548234600224FF47A7152
:10448000009013A004F0F4FB144941F82400641CCC
:10449000052CF0DB03220021012003F0B4FF1049BA
:1044A00008600846006830B100231A4619460C48D7
:1044B000006804F0B3F801200149087000BFBDE7AF
:1044C000A0010020C07C0020D47C0020616C00088A
:1044D0006C656473657154696D6572004C7D002074
:1044E000A401002070B504460E463046FEF7EAFEF1
:1044F0000546002D00DA70BD00235A1E19461148EA
:10450000006803F09DFF002004EB44010E4A02EB1B
:10451000C10141F82500204603F02EFB00231A4676
:1045200019460848006804F079F8084850F8240053
:10453000A84204D1064951F8240002F091FB00BFC3
:10454000D9E70000A4010020D47C0020C07C00201A
:104550004C7D00200146B1F5803F02DB4FF6FF7134
:1045600002E0002900DA002188B27047B0EE401A5C
:1045700090ED052AD0ED002AF0EE411A42EE621AC3
:1045800090ED062AD0ED012A42EE621AF0EE610AA1
:1045900010EE901AC1F3C752FF2A01D0012200E0A9
:1045A00000220AB9F0EE410AD0ED051A90ED032A77
:1045B00061EE821A90ED022A40EE821A90ED062AF0
:1045C000D0ED042AB0EE610A02EE220AD0ED051AFF
:1045D000C0ED061AC0ED050A704710B52DED028B2F
:1045E0000446F0EE408AB0EE608A24B1B5EEC08A8F
:1045F000F1EE10FA02D8BDEC028B10BDF0EE480AC5
:10460000B0EE680A204600F003F800BFF3E70000B0
:1046100010B52DED068B0446B0EE409AF0EE609A90
:1046200089EE290AB0EE40AA9FED2B0AC0EE0A0AD5
:10463000F0EE60AAB0EE6A0AFDF7A4F9B0EE408A87
:104640009FED260AFCF7D4FCF0EE000A60EE200A8B
:10465000B7EE000A00EE880A08EE080AF0EE408A7B
:1046600028EE080AC0EE280AC4ED020A94ED020AF8
:10467000F0EE000A20EE200A84ED030A94ED020A0F
:1046800084ED040AB7EE000A18EE080AF0EE000AFC
:1046900020EE200AC0EE280AC4ED000A9FED0F0AA2
:1046A000FCF7A6FCF0EE000A60EE200AB7EE000A66
:1046B00000EEC80A08EE080AC0EE280AC4ED010A96
:1046C0009FED070A84ED050A9FED050A84ED060AB1
:1046D000BDEC068B10BD0000DB0F4940DB0F493FEE
:1046E000000000001CB503F089F8074802210023F0
:1046F0004FF49672CDE9001004A1074804F0EEF8DB
:1047000003F0AEFC00BFFEE704000020535441520A
:10471000545F5441534B000071750008B84800685D
:1047200040F00300B6490860B5481030006840F01A
:104730000500B349103108600020B2490880B14932
:1047400020310880AF4918310880091D0880AD4923
:1047500024310860AB492C310860091F0880C90664
:1047600008800884088388834862C8620885A64850
:10477000006820F44040A44908600846006840F4FE
:1047800000400860081D006820F08000091D0860D6
:10479000081D006840F44040091D0860081D0068BD
:1047A00020F44040091D08600846006840F480403D
:1047B000086095482030006820F070409249203110
:1047C00008600846006840F0005008608E480068A5
:1047D00020F440508C4908600846006840F40050BE
:1047E0000860081D006820F04000091D0860081DD1
:1047F000006840F44050091D0860081D006820F45E
:104800004050091D08600846006840F48050086068
:104810007D482030006820F070607B4920310860BE
:104820000846006840F0007008607748006820F48F
:104830004010754908600846006840F400100860A0
:10484000081D006820F48060091D0860081D0068CC
:1048500040F44010091D0860081D006820F4401055
:10486000091D08600846006840F48010086066482A
:10487000406A20F4706164484162406A40F480718B
:10488000614841626148006820F440605F49086007
:104890000846006840F4006008600846406820F060
:1048A000200048600846806840F440608860084600
:1048B000C06820F44060C8600846C06840F480606A
:1048C000C8600846006A20F4700008620846006A62
:1048D00040F48010086200204A4928310880FF20F7
:1048E000091D086000204FF080410885FF20C86244
:1048F00044481830008820F0700042491831088080
:104900000846008840F0600008800846008840F0B3
:10491000080008803B482030008840F001003949F9
:10492000203108800020374934310860354818307C
:10493000008820F4E0403349183108800846008898
:1049400040F4C04008800846008840F400600880B9
:104950002C482030008840F010002A49203108807F
:1049600000202849383108604FF08040808B20F0CB
:1049700070004FF0804188830846808B40F06000D3
:1049800088830846808B40F0080088830846008CA6
:1049900040F4807008840020C8630846008B20F033
:1049A000700008830846008B40F0600008830846CA
:1049B000008B40F0080008830846008C40F001009E
:1049C0000884002048630F48008840F080000D49AB
:1049D0000880C804008840F08000C90408800948A5
:1049E000008840F0010007490880C804008840F0B2
:1049F0000100C904088001200549087070470000C3
:104A0000303802400008004000040240000002402C
:104A1000FC0000202DE9F0412DED048B07460D46EA
:104A20003148007800285AD02E4600EE105AF8EE91
:104A3000400A9FED2E1A80EE810ADFED2D0A20EE4E
:104A4000200AB0EE408A9FED2B0A28EE000A20EEE5
:104A5000080ADFED290A00EE880AB0EE409A9FEDC1
:104A6000270AF0EE409A89EE290AF0EE408AB7EE66
:104A7000000AF4EEC08AF1EE10FA02DDB7EE000A89
:104A800001E0B0EE680AF0EE408A9FED1D0A28EEC4
:104A9000800ABCEEC00A10EE100A86B2194840F82F
:104AA0002760304602F020F8044637B1012F07D0C6
:104AB000022F09D0032F0FD10AE0134804600CE045
:104AC0001148001F046008E04FF08040C46304E018
:104AD0004FF08040446300E000BF00BF00BFBDEC6A
:104AE000048BBDE8F0810000FC000020000080473E
:104AF00000007042388D23BA5839B43DCDCC6C409B
:104B000000FF7F470C030020380800400649097861
:104B100001B17047054908606921054A11700121FA
:104B2000014A117000BFF4E7D4020020D002002037
:104B3000CC02002008B5012007236B220090034817
:104B4000017803480068FEF759FD08BDCC0200203B
:104B5000D00200201CB50446022000231D22CDE90E
:104B600000040348017803480068FEF76FFD1CBD90
:104B7000CC020020D00200201CB5044603200223F2
:104B80006B22CDE900040348017803480068FEF772
:104B90005DFD1CBDCC020020D00200201CB50446E7
:104BA000032002231A22CDE90004034801780348B8
:104BB0000068FEF74BFD1CBDCC020020D002002097
:104BC0001CB50446022004231C22CDE9000403483E
:104BD000017803480068FEF739FD1CBDCC020020B7
:104BE000D00200201CB50446022004231B22CDE97C
:104BF00000040348017803480068FEF727FD1CBD48
:104C0000CC020020D002002038B504460123372210
:104C100003480094017803480068FEF7EFFC38BDB4
:104C2000CC020020D002002038B5044605236A22B9
:104C300003480094017803480068FEF7DFFC38BDA4
:104C4000CC020020D002002038B5044600233822D0
:104C500003480094017803480068FEF7CFFC38BD94
:104C6000CC020020D002002010B504462346382292
:104C70000348017803480068FEF71AFD10BD0000E4
:104C8000CC020020D002002038B50446062337228B
:104C900003480094017803480068FEF7AFFC38BD74
:104CA000CC020020D002002038B50446052337226C
:104CB00003480094017803480068FEF79FFC38BD64
:104CC000CC020020D002002038B50446042337224D
:104CD00003480094017803480068FEF78FFC38BD54
:104CE000CC020020D002002038B50446072337222A
:104CF00003480094017803480068FEF77FFC38BD44
:104D0000CC020020D00200201CB50446042003235E
:104D10002422CDE900040348017803480068FEF727
:104D200095FC1CBDCC020020D002002010B504462A
:104D3000234619220348017803480068FEF7B8FCAF
:104D400010BD0000CC020020D00200201CB504469B
:104D5000052004233422CDE90004034801780348E8
:104D60000068FEF773FC1CBDCC020020D0020020BE
:104D700070B504460D46032C00DD70BD04EB440005
:104D80002530C2B22B460448017804480068FEF77B
:104D90008FFC00BFF1E70000CC020020D002002011
:104DA0007CB504460D46032C00DD7CBD0420CDE916
:104DB000000504EB44002730C2B203230348017806
:104DC00003480068FEF742FC00BFEEE7CC0200207B
:104DD000D002002038B504460D4623466722044819
:104DE0000095017803480068FEF708FC38BD000014
:104DF000CC020020D002002038B504460D46032C1A
:104E000000DD38BD04EB44002730C2B2072304485C
:104E10000095017803480068FEF7F0FB00BFF0E75B
:104E2000CC020020D002002038B5044604232422FE
:104E300003480094017803480068FEF7DFFB38BDA3
:104E4000CC020020D002002070B504460D46032C91
:104E500000DD70BD04EB44002630C2B22B4604488E
:104E6000017804480068FEF723FC00BFF1E700006A
:104E7000CC020020D002002038B5044606236B2265
:104E800003480094017803480068FEF7B7FB38BD7B
:104E9000CC020020D002002038B5044684F0010086
:104EA00003236B2200900348017803480068FEF753
:104EB000A5FB38BDCC020020D002002038B5044646
:104EC0000623242203480094017803480068FEF773
:104ED00095FB38BDCC020020D00200204FF00060CE
:104EE000024908600248091D0860704708ED00E0AB
:104EF0000003FA0501B52DED060BDFED150AC0ED37
:104F0000010ADFED130AC0ED020ADFED110AC0ED60
:104F1000030ADFED0F0AC0ED040A80ED000ADDEDA3
:104F2000010AC0ED050ADDED020AC0ED060ADDED5D
:104F3000030AC0ED070ADFED070AC0ED0B0ADFED3B
:104F4000040AC0ED0C0A80ED0D2A07B000BD000078
:104F5000000000000000FA43DFED0C0AB4EEE00AA6
:104F6000F1EE10FA02DD47F6FF707047DFED080A38
:104F7000B4EEE00AF1EE10FA01D20648F5E7FDEED4
:104F8000C00A10EE900A00B2EFE7000000FEFF46F4
:104F900000FEFFC60180FFFF9FED080A80ED010AB9
:104FA0009FED060A80ED020A9FED040A80ED030AD8
:104FB0009FED020A80ED040A704700000000000027
:104FC00080ED0B0A704780ED0C0A7047F0EE400A46
:104FD000C0ED010A90ED031AD0ED011A90ED0D2AF3
:104FE00001EE821A80ED031A90ED031AD0ED0B1A30
:104FF000B4EEE11AF1EE10FA04DD90ED0B1A80ED3B
:10500000031A10E090ED031AD0ED0B1AF1EE611ABD
:10501000B4EEE11AF1EE10FA05D290ED0B1AB1EEF2
:10502000411A80ED031A90ED011AD0ED021A31EE0B
:10503000611AD0ED0D1A81EE212A80ED042A90ED3F
:10504000051AD0ED011A21EE211A80ED081A90ED13
:10505000061AD0ED031A21EE211A80ED091A90EDFF
:10506000071AD0ED041A21EE211A80ED0A1A90EDEC
:10507000081AD0ED091A31EE211AD0ED0A1A31EED4
:10508000210A90ED0C1AB5EEC01AF1EE10FA1AD002
:1050900090ED0C1AB4EEC01AF1EE10FA04D290EDB5
:1050A0000C1AB0EE410A0EE090ED0C1AB1EE411A66
:1050B000B4EEC01AF1EE10FA05DD90ED0C1AB1EE67
:1050C000411AB0EE410A90ED011A80ED021A80ED0E
:1050D0000E0A704700B5F0EE402AB0EE603AB0EE2E
:1050E000622A3848D0ED141A90ED131AD0ED120A46
:1050F0009FED350A3548FFF7FDFEB0EE622A3148D4
:10510000D0ED171A90ED161AD0ED150A9FED2E0A64
:105110002F48FFF7EFFEB0EE622A2A48D0ED1A1AA8
:1051200090ED191AD0ED180A9FED270A2948FFF7CC
:10513000E1FE9FED290A2548FFF745FF9FED260A6E
:105140002348FFF740FF9FED250A2248FFF73BFF6A
:10515000B0EE432A1B48D0ED1D1A90ED1C1AD0ED7D
:105160001B0A9FED190A1E48FFF7C4FEB0EE432A42
:105170001448D0ED201A90ED1F1AD0ED1E0A9FEDB5
:10518000120A1848FFF7B6FEB0EE432A0D48D0EDDC
:10519000231A90ED221AD0ED210A9FED0B0A124836
:1051A000FFF7A8FE9FED110A0D48FFF70CFF9FEDDA
:1051B0000F0A0C48FFF707FF9FED070A0A48FFF7A1
:1051C00002FF00BD1C000020000000000C98002021
:1051D00048980020849800200000F04200401C47BE
:1051E000C0980020FC9800203899002000009644C8
:1051F0002DE9F0412DED028B06460F4614461D4663
:10520000B0EE408A94F84000012803D04120005DB0
:10521000012821D1D4ED090A95ED0A1A70EEC10AD0
:10522000B0EE600A1A48FFF7D1FEDFED1A0A20EE51
:10523000200A84ED0D0AD4ED0A0A95ED0B1A70EEE2
:10524000C10AB0EE600A1448FFF7C0FEDFED110A94
:1052500020EE200A84ED0E0A4220005D01280CD1C8
:10526000D4ED0B0A95ED0C1A70EEC10AB0EE600A8F
:105270000A48FFF7ABFE84ED0F0A2B46224639465B
:10528000304602F05DFFBDEC028BBDE8F08100000E
:10529000C0980020CDCCCC3DFC980020389900204F
:1052A00010B52DED048B0446207812287ED1A1780C
:1052B000090209B2E27841EA020003F0B0FD41ECD4
:1052C000190B9FED870B53EC102B03F00FFE41ECF5
:1052D000180B03F039FD844948612179090209B2AC
:1052E000627941EA020003F09AFD41EC190B9FED4F
:1052F0007C0B53EC102B03F0F9FD41EC180B03F081
:1053000023FD79498861A179090209B2E27941EA6C
:10531000020003F084FD41EC190B9FED710B53EC7F
:10532000102B03F0E3FD41EC180B03F00DFD6E496B
:10533000C861217A090209B2627A41EA020003F0E7
:105340006EFD41EC190B9FED660B53EC102B03F037
:10535000CDFD41EC180B03F0F7FC64494861A17ADC
:10536000090209B2E27A41EA020003F058FD41EC79
:10537000190B9FED5B0B53EC102B03F0B7FD41ECC9
:10538000180B03F0E1FC59498861217B090209B23D
:10539000627B41EA020003F042FD41EC190B9FEDF4
:1053A000500B53EC102B03F0A1FD00E04CE041EC5E
:1053B000180B03F0C9FC4D49C861A17B090209B271
:1053C000E27B41EA020003F02AFD41EC190B9FED5C
:1053D000440B53EC102B03F089FD41EC180B03F048
:1053E000B3FC43494861217C090209B2627C41EA6D
:1053F000020003F014FD41EC190B9FED390B53EC47
:10540000102B03F073FD41EC180B03F09DFC3849A1
:105410008861A17C090209B2E27C41EA020003F042
:10542000FEFC41EC190B9FED2E0B53EC102B03F0FF
:105430005DFD41EC180B03F087FC2D49C8613C224F
:105440002C48FBF74CF848E02078132845D1A17888
:10545000090209B2E27841EA020003F0E0FC41EC03
:10546000190B9FED1F0B53EC102B03F03FFD41EC8C
:10547000180B03F069FC204948612179090209B23F
:10548000627941EA020003F0CAFC41EC190B9FED7E
:10549000140B53EC102B03F029FD41EC180B03F017
:1054A00053FC15498861A179090209B2E27941EA00
:1054B000020003F0B4FC41EC190B9FED090B53EC17
:1054C000102B03F013FD41EC180B03F03DFC0A49CF
:1054D000C8613C220948FBF702F8BDEC048B10BD03
:1054E0009A9999999999B93F849800203899002000
:1054F0000C98002048980020C0980020FC980020BC
:1055000070B52DED068B86B005460C46B0EE408A90
:10551000F94890ED000AF0EE409A95ED080AF74838
:10552000D0ED000A30EE600AB0EE40AAF44880EDFB
:1055300000AA90ED000AF348D0ED000A70EE600A70
:1055400090ED000A9FEDF01A00EE810A80ED000A4E
:10555000EE48007890B10020EC4908709FEDEC0A0D
:10556000F0EE409A95ED080AE44880ED000AE44820
:1055700090ED000AE74880ED0C0A24E0E648007848
:1055800008B30020E44908709FEDE40AE44880ED88
:10559000020A9FEDE20ADA4880ED000A9FEDDF0A79
:1055A000D84880ED000A95ED080AD44880ED000A3D
:1055B0009FEDDA0AD74880ED090AD14890ED000A3C
:1055C000D44880ED0C0AD34890ED010AD5ED000ACD
:1055D0009FEDD41A10EE810A8DED030A90ED020AB8
:1055E000D5ED010A9FEDCF1A10EE810A8DED040A68
:1055F00090ED030AD5ED020A9FEDCA1A10EE810A5A
:105600008DED050A03A8FEF727FBC24890ED001AAE
:10561000F0EE410A9DED031AB0EE410AFCF7C2FB21
:10562000BC4880ED040A90ED001AF0EE410A9DEDB1
:10563000041AB0EE410AFCF7B5FBB64880ED050A46
:1056400090ED001AF0EE410A9DED051AB0EE410A08
:10565000FCF7A8FBAF4880ED060A00201CE0AD492E
:10566000103101EB800191ED000AAD4901EB8001A1
:10567000D1ED000A70EE600AA94901EB800191EDBD
:10568000000A9FEDA11A00EE810AA54901EB8001F5
:1056900081ED000A411CC8B20328E0DBFDF7FCFDE8
:1056A00010B9FDF701FE08B1012000E00020064618
:1056B000012E27D19A48D0ED000AB0EE600A9FED86
:1056C0009A1ADFED9A0AFDF7A1FA84ED120A9448BE
:1056D000D0ED010AB0EE600A9FED931ADFED930A58
:1056E000FDF794FA84ED130A8D48D0ED020AB0EE6E
:1056F000600A9FED8D1ADFED8D0AFDF787FA84EDC4
:10570000140A26E08348D0ED040AB0EE600A9FED4B
:10571000881ADFED880AFDF779FA84ED120A7D48D0
:10572000D0ED050AB0EE600A9FED811ADFED810A27
:10573000FDF76CFA84ED130A7648D0ED060AB0EE58
:10574000600A9FED7B1ADFED7B0AFDF75FFA84EDBF
:10575000140A704890ED0C0A6948D0ED000A70EE0A
:10576000C08A6C4890ED060AF0EE400AB0EE480A96
:105770000220FEF751FDB0EE691AF0EE680AB0EEB5
:10578000480A0220FEF724FD0020009001900290BC
:105790009DED020A5848D0ED000A60EEA00A08EE1E
:1057A000E00A8DED020A9DED000A20EE000ADDED13
:1057B000010A9DED011A00EE810ADDED020A9DED60
:1057C000021AB0EE409A00EE819A9FED5B0AB4EEA9
:1057D000C09AF1EE10FA2DD26846FEF7BDFA4D4898
:1057E00090ED010ADDED000A544890ED001A60EEDC
:1057F000810A00EE880A474880ED010A90ED020A0E
:10580000DDED010A4D4890ED001A60EE810A00EED0
:10581000880A404880ED020A90ED030ADDED020A95
:10582000464890ED001A60EE810A00EE880A394879
:1058300080ED030A012E27D13648D0ED070AB0EEDD
:10584000600A9FED3F1ADFED3F0AFDF7DFF984EDB7
:105850000E0A3048D0ED080AB0EE600A9FED381A03
:10586000DFED380AFDF7D2F984ED0F0A2948D0EDB3
:10587000090AB0EE600A9FED321ADFED320AFDF739
:10588000C5F984ED100A26E02248D0ED070AB0EEF3
:10589000600A9FED2D1ADFED2D0AFDF7B7F984EDB3
:1058A0000E0A1C48D0ED080AB0EE600A9FED261AD9
:1058B000DFED260AFDF7AAF984ED0F0A1548D0EDB1
:1058C000090AB0EE600A9FED201ADFED200AFDF70D
:1058D0009DF984ED100A0F4890ED0A0A84ED0A0A3A
:1058E00090ED0B0A84ED0B0A90ED0C0A84ED0C0A86
:1058F00006B0BDEC068B70BD0C020020200200201B
:10590000180200201C020020CDCCCC3D1402002047
:105910003333733F240200201502002000000000F2
:10592000FC9A00200000754400007A4400007AC40C
:105930000000E1440000E1C400796A471002002041
:1059400000000243000002C30000FA430000FAC353
:1059500000B50948FFF720FB0848FFF71DFB084882
:10596000FFF71AFB0748FFF717FB0748FFF714FB81
:105970000648FFF711FB00BD0C9800204898002056
:1059800084980020C0980020FC98002038990020BE
:1059900070B52DED028B0446B4F9000000EE100A3C
:1059A000B8EEC00AF0EE000A80EE201ABDEEC10A81
:1059B00010EE100A00B208EE100AB4F9020000EE70
:1059C000100AB8EEC00AF0EE000A80EE201ABDEE12
:1059D000C10A10EE100A00B208EE900A94ED020A15
:1059E000F8EEC80A30EE600AF8EEE80A70EE600AD7
:1059F000B4F9041000EE101AB8EEC00A30EE800AB6
:105A0000BDEEC00A10EE100AFEF7A4FD3B49086087
:105A100094ED020AF8EEC80A30EE600AF8EEE80AE1
:105A200070EE200AB4F9041000EE101AB8EEC00AA5
:105A300030EEC00ABDEEC00A10EE100AFEF78AFD75
:105A40002E49486094ED020AF8EEC80A30EE200AAA
:105A5000F8EEE80A70EE200AB4F9041000EE101A0D
:105A6000B8EEC00A30EE800ABDEEC00A10EE100A91
:105A7000FEF770FD2149886094ED020AF8EEC80A2D
:105A800030EE200AF8EEE80A70EE600AB4F904106D
:105A900000EE101AB8EEC00A30EEC00ABDEEC00A21
:105AA00010EE100AFEF756FD1449C860144800783D
:105AB00048B10846134BD3E901521968DB68C0E9C5
:105AC0000152C36001600D48008881B20020FEF7DA
:105AD000A1FF0A48808881B20120FEF79BFF07489A
