:020000040800F2
:10240000A83F00209D250008754800088D4600085B
:1024100093460008E5320008594D0008000000000E
:10242000000000000000000000000000052500087A
:102430001B3400080000000049250008F54C000886
:10244000B7250008B7250008B7250008B7250008FC
:10245000B7250008B7250008B7250008B7250008EC
:10246000B7250008B7250008B7250008B7250008DC
:10247000B7250008B7250008B7250008B7250008CC
:10248000B7250008B7250008B7250008B7250008BC
:10249000B7250008B7250008B7250008B7250008AC
:1024A000B7250008B7250008B7250008B72500089C
:1024B000B7250008B7250008B7250008B72500088C
:1024C000B7250008B7250008B7250008B72500087C
:1024D000B7250008B7250008B7250008B72500086C
:1024E000C5340008B7250008B7250008DFF810D06C
:1024F00000F0D4FC004800470D6C0008AFF30080EA
:10250000A83F0020224B19680868B0E8F00F80F35C
:102510000988BFF36F8F4FF0000080F311884EF0F1
:102520000D0E70470000000006480068006880F348
:10253000088862B661B6BFF34F8FBFF36F8F00DFBD
:1025400000BF00BF08ED00E0EFF30980BFF36F8F1D
:102550000F4B1A6820E9F00F106008B54FF05000DB
:1025600080F31188BFF34F8FBFF36F8F07F064FACA
:102570004FF0000080F31188BDE808401968086832
:10258000B0E8F00F80F30988BFF36F8F704700BF8A
:1025900064040020EFF30580704700000648804780
:1025A00006480047FEE7FEE7FEE7FEE7FEE7FEE738
:1025B000FEE7FEE7FEE7FEE7094D0008ED24000810
:1025C00040EA01039B0703D009E008C9121F08C0B5
:1025D000042AFAD203E011F8013B00F8013B521E35
:1025E000F9D27047D2B201E000F8012B491EFBD2AC
:1025F00070470022F6E710B513460A46044619460E
:10260000FFF7F0FF204610BD421C10F8011B002907
:10261000FBD1801A7047F0B480EA0102D40F420067
:10262000B2EB410F02D20246084611464A0042D0A0
:10263000C30DDDB2C1F3C752AD1A202D35DAC1F397
:10264000160141F4000204B15242C5F1200602FA1B
:1026500006F12A411044B3EBD05F23D0C4B1012D61
:10266000A0EBC35009DCF0BC4FF0004202EAC352B9
:10267000DBB200F5000000F06EBB400000F180709E
:1026800000EBC350A0F1807040EAD170490009E02E
:10269000490841EAC071A0EBC35000F500004008B2
:1026A00000EBC350F0BC00F04DBB6142012202EBD5
:1026B0004101001BF6E7F0BC704781F00041AAE73A
:1026C00080F00040A7E780EA010210B502F0004365
:1026D000400022D04A001FD0010E01EB1261C0F36E
:1026E0005600C2F3560240F4000042F40002A0FB80
:1026F000022000047F39140400D0401C50EA12402C
:1027000001D44000491EC2B20C0604EBD010401C9C
:102710004008802A02D003E0002010BD20F0010014
:10272000002900DA0020184310BD30B480EA01020D
:1027300002F0004530F0004221F0004013D090B18B
:10274000C30DD40DC2F31601C0F31600E41A41F410
:10275000000140F400027D34914201D3641C00E08A
:102760004900002C02DA30BC002070474FF4000012
:102770000023914201D3891A034340084FEA4101E3
:10278000F7D151B1914202D14FF0004105E002D2A0
:102790004FF0010101E06FF0010103EBC450284448
:1027A00030BC00F0CFBA2DE9FE4F804681EA03002D
:1027B000C00F0C46009021F0004123F00045B8EB1B
:1027C0000200A94105D24046214690461C460B46D0
:1027D000024623F00040104347D0270DC7F30A00FC
:1027E000C3F30A510290401A019040286BDAC3F3F8
:1027F000130040F4801B0098924620B10023D2EBD6
:10280000030A63EB0B0B01985946C0F14002504696
:1028100000F077FA06460D4650465946019A00F0F8
:102820007FFA10EB08006141002487EA115284EA24
:10283000E7731A4340D0009A62B3019A012A4FEA23
:10284000075215DC001B61EB02014FF0004202EA67
:102850000752CDE90042001C41F5801132462B465B
:1028600000F0B6FA03B0BDE8F08F40462146F9E724
:10287000001B61EB0201001C41F5801300185B4155
:102880002018A2F5001747EB030140EAD570B619EE
:102890006D4111E06D084FEA360645EAC0754FEA12
:1028A0000752001B61EB0201001C41F58011490831
:1028B0004FEA30000019514132462B4603B0BDE8C3
:1028C000F04F00F076BA0098012240000023D0EBD0
:1028D000020263EBE073009821464FEAE074B8EB24
:1028E000000061EB0401E9E783F000435BE781F05E
:1028F000004158E72DE9FE4F81EA030404F000444B
:1029000021F0004100944FF0000B23F0004350EA07
:1029100001045ED052EA03045BD0C3F30A54C1F34E
:102920000A552C44A4F2F3340194A0FB0254C1F3E1
:10293000130141F48011C3F3130343F4801301FB2B
:10294000024400FB034E840A970A44EA815447EA92
:102950008357A4FB076802958D0A05FB07854FEA9C
:10296000932C04FB0C542705029D4FEA065847EAB6
:102970001637B5EB08056EEB070C870E920E47EA8B
:10298000811742EA8312A7FB0201B6EB0B0164EB4D
:1029900000042B0D43EA0C335E1844EB1C50DA465E
:1029A0005146E7FB0201C5F313044FEA0B3343EA38
:1029B00014534FEA0432019C43EA0603A4F10C04C9
:1029C0000294009CCDE900B400F002FA03B0BDE827
:1029D000F08F00200146F9E72DE9F04D81EA03046C
:1029E00004F0004B21F0004514464FF0000A23F09C
:1029F000004150EA050220D054EA01021DD0C5F37F
:102A00000A570246C5F31303C1F31300C1F30A5674
:102A100040F4801543F48013A7EB0608101BD6463C
:102A200008F2FD3873EB050002D308F1010801E05C
:102A300092185B41B8F1000F03DA00200146BDE8AF
:102A4000F08D00204FF48011064684460EE0171BDF
:102A500073EB050705D3121B63EB050306434CEA32
:102A6000010C49084FEA300092185B4150EA010717
:102A7000EDD152EA030012D082EA040083EA050194
:102A8000084305D0101BAB4106D20122002306E00B
:102A900000224FF0004302E06FF0010253101AEBE6
:102AA00006004CEB085110EB0A0041EB0B01BDE8AE
:102AB000F04D00F07EB970B521F0004303430CD017
:102AC000C1F30A550024D5EB040564EB0403D617C3
:102AD000AD1AB34102DB0020014670BD201841EB66
:102AE000025170BDC10F80EAE0700844CA07962306
:102AF000002100F030B90EB5C10F80EAE070084443
:102B0000CA07002140F233438DE80E000A460B4607
:102B100000F05EF903B000BD0EB540F23341029102
:102B20000021CDE900110A460B4600F051F903B02F
:102B300000BD00F0004220F00040C10DC0F31600BF
:102B400040F400007F2901DA00207047962903DC59
:102B5000C1F19601C84001E096398840002AF4D0BE
:102B60004042704720F00040C10DC0F3160040F411
:102B700000007F2901DA00207047962903DCC1F1AB
:102B80009601C840704796398840704700F000426F
:102B900030F000400AD0C10D01F56071C0F316009D
:102BA00042EA0151C2084007114370470020014624
:102BB0007047000030B5041E71F1000404DB4FF0D3
:102BC0000044404264EB0101141E73F1000405DB74
:102BD0001C464FF00043524263EB04038B4208BF94
:102BE000824230BD30B5041E71F1000404DB4FF0A9
:102BF0000044404264EB0101141E73F1000405DB44
:102C00001C464FF00043524263EB0403994208BF55
:102C1000904230BD01F0004330B421F0004150EA51
:102C2000010206D00A0DA2F56072C1F31301002A59
:102C300002DC30BC00207047440F44EAC104C100EC
:102C4000E01830BC00EBC25000F07CB8002801DB7B
:102C5000C0F10040002901DBC1F100418142704711
:102C6000002801DBC0F10040002901DBC1F1004177
:102C70008842704730B50B460146002020220124CF
:102C800009E021FA02F59D4205D303FA02F5491B3A
:102C900004FA02F52844151EA2F10102F1DC30BD50
:102CA0002DE9F05F0546002092469B468846064681
:102CB000814640241BE0284641464746224600F014
:102CC000FFF853465A46C01A914110D31146184690
:102CD000224600F016F82D1A67EB01084F462246EF
:102CE0000120002100F00DF817EB00094E41201ED5
:102CF000A4F10104DFDC484631462A464346BDE8DC
:102D0000F09F202A04DB203A00FA02F100207047ED
:102D10009140C2F1200320FA03F319439040704719
:102D2000202A06DBCB17203A41FA02F043EAE0738F
:102D300006E041FA02F3D040C2F12002914008437C
:102D4000194670470029A8BF7047401C490008BFBA
:102D500020F00100704710B4B0FA80FC00FA0CF0CB
:102D600050EA010404BF10BC704749B1CCF1200403
:102D700021FA04F411FA0CF118BF01212143084390
:102D8000A3EB0C01CB1D4FEA00614FEA102042BFBC
:102D9000002010BC704700EBC35010440029A4BFB2
:102DA00010BC7047401C490008BF20F0010010BC57
:102DB000704710B5141E73F1000408DA401C41F18D
:102DC000000192185B411A4301D120F0010010BDAF
:102DD0002DE9F04D92469B4611B1B1FA81F202E025
:102DE000B0FA80F220329046FFF78BFF04460F4680
:102DF00040EA0A0041EA0B0153465A46084313D001
:102E0000114653EA010019D0C8F14002504600F0C3
:102E100057F805460E46504659464246FFF771FFA1
:102E2000084305D0012004E020463946BDE8F08D76
:102E30000020054346EAE0762C4337430A986305B1
:102E4000E40AA0EB08000022FD0A44EA47540A30D5
:102E500002D500200146E9E7010510196941DDE9C5
:102E6000084500196941BDE8F04DA2E7C1F30A52D7
:102E7000C1F3130140F2FF3341F480119A4202DAA8
:102E800000200146704740F233439A42A2F2334297
:102E900002DC524200F014B8FFF733BF064C074D76
:102EA00006E0E06840F0010394E80700984710341A
:102EB000AC42F6D3FFF71EFBD0DF0008F0DF0008BE
:102EC000202A04DB203A21FA02F00021704721FA7F
:102ED00002F3D040C2F120029140084319467047E6
:102EE00070B58C1810F8015B15F0070301D110F8CC
:102EF000013B2A1106D110F8012B03E010F8016BF9
:102F000001F8016B5B1EF9D12B0705D40023521E7B
:102F10000DD401F8013BFAE710F8013BCB1A921CE3
:102F200003E013F8015B01F8015B521EF9D5A142E1
:102F3000D8D3002070BD0029816802D041F0010182
:102F400001E021F00101816070470029816802D011
:102F500041F4807101E021F48071816070470000CC
:102F60000D4910B5884202D1012144150AE00B49F0
:102F7000884202D10121041504E0094988420AD19E
:102F80000121CC03204601F063FD2046BDE810403E
:102F9000002101F05DBD10BD00240140002801406A
:102FA000003C0140014600208968490700D5012006
:102FB0007047014600208968090700D50120704745
:102FC00010B542680E4B0C791A400B6842EA042295
:102FD0001343436082680B4B1A40D1E902432343F9
:102FE0004C7942EA440213438360C26A097C22F4AA
:102FF0007002491EC9B242EA0151C16210BD00000F
:10300000FFFEF0FFFDF7F1FF70B5072609290AD989
:10301000C568A1F10A0404EB4404A640B543A340EB
:103020001D43C56007E0056901EB4104A640B543B7
:10303000A3401D4305611F23072A09D2446B521E7A
:1030400002EB820293409C4391400C43446370BD69
:103050000D2A09D2046BD21F02EB820293409C43DB
:1030600091400C43046370BDC46A0D3A02EB8202C6
:1030700093409C4391400C43C46270BD816841F011
:103080000801816070470029816802D041F4A001E5
:1030900001E021F4A00181607047816841F00401E2
:1030A000816070472DE9F0410446042003F00CF9DB
:1030B0003C4E71684988401A00B2962102F044FDE6
:1030C00005B27068002D02DBB0F9000001E0B0F934
:1030D0000400A038FFF706FD07462846FFF702FD6B
:1030E0003946FFF722FBE060012003F0EDF871683C
:1030F0000989401A00B2962102F026FD05B27068D7
:10310000002D02DBB0F9060001E0B0F90A00A0389A
:10311000FFF7E8FC07462846FFF7E4FC3946FFF7CF
:1031200004FB2060022003F0CFF87168C989401ABF
:1031300000B2962102F008FD05B27068002D02DB96
:10314000B0F90C0001E0B0F91000A038FFF7CAFC9C
:1031500007462846FFF7C6FC3946FFF7E6FA6060E7
:10316000032003F0B1F87168898A401A00B24FF465
:10317000967102F0E9FC05B27068002D02DBB0F92F
:10318000120001E0B0F91600A0F59B70FFF7AAFC51
:1031900006462846FFF7A6FC3146FFF7C6FAA060B0
:1031A000BDE8F0818400002030B591B001210C20F1
:1031B00001F042FC0121480201F03EFC01210846D9
:1031C00001F022FC0720ADF8400000248DF84340B8
:1031D00010A93F4800F05EFA0320ADF8400010A9A6
:1031E0003C4800F057FA3C4D284600F087F83B4831
:1031F00000903B48CDE901043220CDE90304802052
:103200000590400006908000079020200890000262
:10321000CDE909046946284600F0E2F80121284674
:1032200000F061F82D4D4C3D2846FFF799FE012135
:103230008DF830108DF831100B944FF46020CDE9EB
:103240000D0405208DF83C000BA92846FFF7B8FEB9
:1032500001212846FFF76FFE01212846FFF775FE82
:103260004FF4004001F0C6FB07230122002128464D
:10327000FFF7CAFE0723022201212846FFF7C4FEFA
:103280000723032202212846FFF7BEFE072304225C
:1032900008212846FFF7B8FE072305220921284602
:1032A000FFF7B2FE2846FFF7E9FE2846FFF781FE4A
:1032B0000028FAD12846FFF7F0FE2846FFF772FEF5
:1032C0000028FAD101212846FFF7DDFE11B030BDFC
:1032D00000080140000C0140080002404C2401405D
:1032E000D8090020FEE70029016802D041F0010161
:1032F00002E04FF6FE7211400160704701684FF620
:10330000FE72114001600021016041608160C16076
:103310003149314A0839904203D1486840F00F00E2
:1033200006E02D4A1432904204D1486840F0F00083
:1033300048607047284A2832904203D1486840F4D8
:103340007060F5E7244A3C32904203D1486840F46B
:103350007040EDE7204A5032904203D1486840F473
:103360007020E5E71C4A6432904203D1486840F47B
:103370007000DDE7184A7832904203D1486840F087
:103380007060D5E7154A111F904203D1086840F0DC
:103390000F0006E0114A1432904204D1086840F050
:1033A000F000086070470D4A2832904203D1086847
:1033B00040F47060F5E7094A3C32904203D1086856
:1033C00040F47040EDE7054A50329042EAD1086877
:1033D00040F47020E5E700000800024008040240C5
:1033E00030B5026847F6F0739A430C6A8B68234342
:1033F000D1E904452C4323438C692343CC692343FF
:103400004C6A23438C6A234313430360CA684260B7
:103410000A6882604968C16030BD70472DE9F04795
:10342000274C05462078002848D0284603F04CF861
:103430006061A06195F900104FF00008814201DD44
:1034400085F800802978A1461D4C401A1C34C6B26C
:1034500068782169884200D80026194866611C30C6
:1034600001F0BEF81648383086616978016101F0D4
:1034700025F820696978C7B2814200D20F4600243E
:103480000BE03019C0EBC00005EB8002C4EB041167
:103490001420133100F088FE641CBC42F1DBD9F823
:1034A00018000121C0EBC00005EB8000C9F8100036
:1034B0004C46817001F000F884F80080BDE8F08788
:1034C0007801002010B54FF40054204600F014F8A5
:1034D000012808D10448016801B188472046BDE8A9
:1034E000104000F003B810BD180400200149086026
:1034F0007047000014040140064A0146002012688B
:10350000044B0A4014331B680B4202D0002A00D03F
:10351000012070470004014030B51A4A83790168E0
:1035200053B313688B431360111D0B680468A343E6
:103530000B60017911440B68046823430B60114B45
:10354000083319680468A14319601C1D21680568C7
:10355000A94321604179102905D011440A68006807
:1035600002430A6030BD196802681143196021687E
:1035700000680143216030BD0079104402688A432D
:10358000026030BD0004014070B505464FF430269E
:10359000304600F059F8042811D1094C206940F058
:1035A000020020616561206940F0400020613046E2
:1035B00000F04AF8216941F6FD721140216170BDA9
:1035C0000020024008490420CA68D20701D0012027
:1035D0007047CA68520701D502207047C968C906FA
:1035E000FBD503207047000000200240024801691B
:1035F00041F080010161704700200240F0B50646AD
:103600004FF400570D46384600F01EF804280CD140
:10361000064C206940F0010020613580384600F0FA
:1036200013F82169BA1E11402161F0BD002002404B
:1036300003480249416003494160704723016745DF
:1036400000200240AB89EFCD00B50346FFF7BAFF7B
:1036500002E0FFF7B7FF5B1E012803D0002B00D16B
:10366000052000BD002BF4D1FAE7000010B58A0751
:1036700021F003040649120F21440F238C68934064
:103680009C438C608B68904003438B6010BD0000AE
:1036900000000140F0B5CC78002204F00F03E406EE
:1036A00001D58C7823430C784FF00F0C14F0FF0FEA
:1036B0004FF0010E1BD005680E880EFA02F426406A
:1036C000A64210D196000CFA06F725EA070703FA7E
:1036D00006F5CE783D43282E02D0482E02D002E0D7
:1036E000446100E00461521C082AE5D305600A88A1
:1036F000FF2A1CD94468002202F108060EFA06F5DA
:103700000E882E40AE420ED196000CFA06F7BC434E
:1037100003FA06F7CE783C43282E00D14561CE78D7
:10372000482E00D10561521C082AE5D34460F0BD43
:10373000F0B5144C002801DAE36900E06368450D38
:103740002E0185B2C0F30157B540C0F30342032FE9
:1037500005D0C6020AD503269640B34307E023F0FE
:103760007062636823F07063636002E0AB4343F010
:10377000706201B12A43002801DAE261F0BD6260A3
:10378000F0BD0000000001400246002092680A429D
:1037900000D00120704741617047016170472DE9F9
:1037A000F0471400DDF820907DD0650065430719CF
:1037B000012B45D0A0EB0408022B7ED0032B74D044
:1037C000042B70D1B8460E460027F1B21FFA88F0DC
:1037D0004A4600F0C3FD60007F1C6043790001FB96
:1037E0000700401B614200EB4100401C761E002890
:1037F00002DDA8F10108641EA742E6DBF1B21FFA60
:1038000088F04A4600F0AAFD20464000641E801E53
:103810006043790001FB0700401B00EB4700401CA0
:10382000A8F10108002801DC761E7F1C002CE5DCD5
:10383000F1B21FFA88F04A46BDE8F04700F08EBDAD
:103840008846002608F0FF01B8B24A4600F086FD1F
:103850006000761C6043710001FB0600401B614262
:1038600000EB4100401C08F10108002801DD641E46
:103870007F1EA642E6DB08F0FF01B8B24A4600F020
:103880006DFD20464000641E801E6043710001FBF8
:103890000600401B00EB4600401C7F1E002806DC93
:1038A00008F1010802E075E007E03DE0761C002C1D
:1038B000E1DC08F0FF01B8B2BDE70F460026F9B21F
:1038C0001FFA88F04A4600F049FD6000761C60430C
:1038D000710001FB0600401B614200EB41007F1CB0
:1038E000401C002802DD641E08F10108A642E6DB48
:1038F000F9B21FFA88F04A4600F030FD2046400039
:10390000641E801E6043710001FB0600401B00EB3B
:103910004600401C08F10108002801DC7F1C761CD1
:10392000002CE5DCF9B284E70E460027F1B21FFA5D
:1039300088F04A4600F012FD60007F1C6043790069
:1039400001FB0700401B614200EB4100401C761E5A
:10395000002802DD08F10108641EA742E6DBF1B28F
:103960001FFA88F04A4600F0F9FC20464000641E29
:10397000801E6043790001FB0700401B00EB4700FD
:10398000401C08F10108002801DC761E7F1C002C79
:10399000E5DC4DE7BDE8F0877CB50446C0680D4620
:1039A0000E287DD3A0681E287AD3206902F0A2FCDD
:1039B000A168884274D82575D4E900010C268DB120
:1039C00001220830083100F00CFA206902F092FC64
:1039D000A168081A218801EB50000021CDE900619F
:1039E00080B26CE000220830083100F0FAF90125BD
:1039F0000095D4E900010323082208300831FFF7BD
:103A0000CEFE0095A16820684218616808300B4618
:103A1000093A00F065FB0095A1682068042308447A
:103A20006168082209380831FFF7B9FE0095E1689E
:103A30006068A268014420684B1E02440830491E99
:103A4000093A00F04DFB0095E1686068A268014406
:103A5000206801231044082209380939FFF79FFE26
:103A600000956168E0680B18206808310246093B40
:103A700000F036FB0095E16860680223014420688D
:103A8000082208300939FFF78AFE00956168E0686E
:103A9000A2680B1820681044421E401E083100E046
:103AA00017E0093B00F01CFB206902F023FCA16831
:103AB000081A2188CDE9006501EB500080B2E16869
:103AC000A2880C3902EB510189B20C23226905F05E
:103AD00057F97CBD2DE9FF4F8BB004460D988A46FF
:103AE00000287DD00D9900940AEB010701940A97F4
:103AF000402F04DAF9B2A0B20E9A00F02FFC039422
:103B00000D990294BAEB0106099604D4F1B2A0B261
:103B10000E9A00F023FC0D98D3462518CDE907A591
:103B2000802D05DA0BF0FF01A8B20E9A00F016FC0A
:103B30000D98241ACDE905A405D40AF0FF01A0B21E
:103B40000E9A00F00BFC0D98012849D04042032149
:103B500001EB40080D984FF00009049094E0B8F193
:103B6000000F04DA08EB890000F1060818E0A9EB61
:103B7000010108EB810000F10A080498641C401E52
:103B800004900A986D1E401E0A900998761C401CED
:103B900009900898401E08900698401C7F1E0690C9
:103BA000019809F10109401C019000980BF1010BEB
:103BB000401E009003980AF1010A401C03900298ED
:103BC000401E02900798401E07900598401E0590E1
:103BD0000198802808DC002F06DBF9B280B200E0F3
:103BE00056E00E9A00F0BAFB0098002808DB0A980D
:103BF000002805DBC1B200980E9A80B200F0AEFB3F
:103C00000398802806DC402E04DCF1B280B20E9AC4
:103C100000F0A4FB0298002808DB0998402805DC86
:103C2000C1B202980E9A80B200F098FB802D08DC99
:103C3000BBF1000F05DB0BF0FF01A8B20E9A00F0FC
:103C40008DFB002C08DBBAF1000F05DB0AF0FF0149
:103C5000A0B20E9A00F082FB0898802808DC079832
:103C6000402805DCC1B208980E9A80B200F076FBBD
:103C70000698002808DB0598402805DCC1B20698A4
:103C80000E9A80B200F06AFB04998945FFF667AF8F
:103C90000FB0BDE8F08F03F04DBD38B51446C9B282
:103CA00080B26A4600F097FB9DF800100120614049
:103CB000884338BD7CB50446C0680E287AD3A06816
:103CC0001E2877D3206902F015FBA168884271D8BD
:103CD00001250095D4E900010323082208300831AA
:103CE000FFF75DFD0095A168206842186168083003
:103CF0000B46093A00F0F4F90095A1682068042306
:103D000008446168082209380831FFF748FD00952A
:103D1000E1686068A268014420684B1E02440830D4
:103D2000491E093A00F0DCF90095E1686068A26874
:103D30000144206801231044082209380939FFF79B
:103D40002EFD00956168E0680B1820680831024676
:103D5000093B00F0C5F90095E16860680223014461
:103D60002068082208300939FFF719FD00956168BD
:103D7000E068A2680B18206808311044421E401EFB
:103D8000093B00F0ADF9207D0C26A0B1D4E900017B
:103D900001220830083100F024F8206902F0AAFA64
:103DA000A168081A218801EB50000021CDE90061CB
:103DB00080B20BE014E0206902F09CFAA168081AB6
:103DC0002188CDE9006501EB500080B2E168A2884E
:103DD0000C3902EB510189B20C23226904F0D0FFA7
:103DE0007CBD2DE9F74FD6B00C460546802870D231
:103DF000402C6ED2E1B2A8B26A4600F0ECFA9DF80F
:103E00000020589802F0010100F00100814260D0CA
:103E100021462846539400F0B9FA064654909DF87E
:103E200000202146284600F0DEFA52903044400837
:103E3000CDE92904CDE901040124254601E0002D46
:103E400073D029A800EBC5006D1E50F8081D5191D4
:103E50004668EDB29DF800203146519800F096FA80
:103E600082469DF800203146519800F0BCFA804609
:103E7000761C9DF8002031465198FFF70EFF20B1C7
:103E80009DF800203146519812E0574607E09DF812
:103E9000002031463846FFF700FF10B97F1C474528
:103EA000F5D94745CBD851979DF800203146384683
:103EB00000F099FA80469DF800203146519800F0B4
:103EC00065FA8246142C1DD28146A0F1010B57469B
:103ED00016E079E09DF80020711E3846FFF7DDFE00
:103EE00020B34946CB4508D001A88B4640F8347032
:103EF00000EBC400641CE4B24660142C02D27F1CA8
:103F00004745E7D908EB0A00400851901FFA88F2AC
:103F1000F1B21FFA8AF0589B00F0CCF8142DA7D20A
:103F2000D146AAF1010B574618E01CE0B946E4E778
:103F30009DF80020711C3846FFF7AFFE88B1494656
:103F4000CB4508D029A88B4640F8357000EBC5005A
:103F50006D1CEDB24660142D8AD27F1C474587D870
:103F6000E6E7B946F7E71CB301A800EBC400641EFE
:103F700050F8081D51914668E4B29DF80020314682
:103F8000519800F003FA82469DF80020314651987E
:103F900000F029FA0746761E9DF800203146519818
:103FA000FFF77BFE98B19DF800203146519824E040
:103FB000002D7FF444AF5298589B82B25398C1B2FF
:103FC000549880B200F076F859B0BDE8F08F5046B2
:103FD000D04608E09DF800203146FFF75EFE20B98C
:103FE00008F101008046B845F4D94046B845BAD832
:103FF000CDF844819DF80020314600F0F4F90746E1
:104000009DF800203146519800F0C0F98246142DE9
:104010001ED2D146AAF1010B5046C84616E09DF8C3
:104020000020711CFFF739FE28B34946CB4508D064
:1040300029A88B4640F8358000EBC5006D1CEDB219
:104040004660142D04D208F101008046B845E6D937
:1040500007EB0A0040085190BAB2F1B21FFA8AF099
:10406000589B00F027F8142C95D2D146AAF1010BE9
:104070005046C84618E0C146E3E79DF80020711E8F
:10408000FFF70BFEA0B14946CB4508D001A88B46EF
:1040900040F8348000EBC400641CE4B24660142C89
:1040A000E2D208F101008046B8453FF674AFE4E77C
:1040B000C146F4E72DE9F04115461E460F46044679
:1040C000A84202D9D0B22546044632463946204697
:1040D00000F044F9641CA4B2A542F6D2BDE8F08118
:1040E0002DE9FF5F05460C4603989346511B021BC2
:1040F0004FF0FF37002902DD4FF0010801E005DA3B
:10410000B846002A0BDD4FF0010713E00E9BC2B248
:1041100004B0E1B2A8B2BDE8F05F00F022B909DB5B
:104120000E9B04B01FFA8BF2E1B2A8B2BDE8F05FBB
:10413000FFF7C0BF08FB01F007FB02F14FEA400A9E
:104140004FEA4109884213DBA9EB0006A9EB0A0AF2
:104150000BE0E1B2A8B20E9A00F000F94544002E3F
:1041600001DA4E4401E056443C445D45F1D113E090
:10417000AAEB0106AAEB09090BE0E1B2A8B20E9A7C
:1041800000F0ECF83C44002E01DA564401E04E44C5
:10419000454403988442F0D10E9A04B0E1B2A8B22B
:1041A000BDE8F05F00F0DAB82DE9FC4114460D4699
:1041B0000646802805D8402D03D8022D01D3122EA3
:1041C00002D20020BDE8FC81E0680028FAD0A27885
:1041D0001023A91EA6F112000C278AB1626822B131
:1041E000C9B2C0B2009303F0C7FB0020CDE9007054
:1041F000A9B2B0B20C23E26804F0C2FD0120E1E7ED
:10420000A2682AB10093C9B2C0B2102303F0B4FB74
:104210000120EBE710B511B10121002401E00021DC
:1042200001240548FFF7B8FB21460348BDE81040CC
:104230001830FFF7B1BB00002C040020FEB58168E8
:10424000044614293CD3E068142839D325686A1839
:10425000802A35D861680B18402B31D800272846B2
:10426000521E5B1E009700F0F8F80125009561686A
:10427000E068A2680B1820685B1E0244521E00F022
:10428000CAF820882189304B0144491E8AB221791D
:1042900080B20E31C9B21B78FFF70CFF0095A16800
:1042A000206842186168521E01F10D0300F0D5F834
:1042B000206902F018F90146A068821E914201D9D6
:1042C0000020FEBD0C2680B20096CDE90170A088CA
:1042D0003346401C81B22088226980B204F0A6FDDA
:1042E0001A480775A16901612168491D0160E268EA
:1042F00061681144C268891A091F4160FFF7DAFC3E
:10430000124818300575E1690161A26821681144FD
:104310008268891A891F0160E26861681144C26875
:10432000891A091F4160FFF7C5FCCDE90065A08827
:104330000C23113081B220886269801D80B204F0A4
:104340001FFD0120FEBD0000280400202C040020D9
:104350000148007D704700002C040020C0B203F02B
:10436000FFB92DE9F04115461E4607460C46A94205
:1043700001D90D461446324621463846FFF7EEFF76
:10438000641CE4B2A542F6D2BDE8F081F8B5401E47
:104390000E46040002F001050ED0F1B2A0B26A464A
:1043A00000F019F89DF8000000F00100A84201D0CB
:1043B000601CF8BD641EF0D1F1B200206A4600F026
:1043C0000AF89DF8000000F00100A84201D0012089
:1043D000F8BD0020F8BD10B51446C0B203F0F8F9DE
:1043E0002070002010BDF8B50E46441C02F00105F7
:1043F0000DE0F1B2A0B26A46FFF7EDFF9DF80000B4
:1044000000F00100A84201D0601EF8BD641C802CA1
:10441000EFD38020F8BD2DE9F0411C46DDF818806F
:1044200015460E46074692B2C9B280B24346FFF720
:1044300041FEAAB2E1B2B8B24346FFF73BFEE2B298
:10444000F1B2B8B24346FFF78CFFE2B2F1B2A8B2C4
:104450004346BDE8F041FFF784BF2DE9F041174620
:10446000DDF818801E460C460546B84201D91546AF
:104470000746B44201D91C460E46B44207D1BAB22F
:10448000E1B2A8B24346BDE8F041FFF713BEBD421A
:104490000ED1F2B2E1B2A8B24346BDE8F041FFF757
:1044A00060BFBAB2E1B2A8B24346FFF703FE641C94
:1044B000B442F6D9BDE8F08103F09EB9F8B5040026
:1044C00054D0A2680A2A51D3E06814284ED301259B
:1044D000009561680B1820685B1E0244521EFFF7AE
:1044E0009AFF0826009620892178083801EB5000B1
:1044F0002179C0B2491CC9B233461D4A03F03CFAC7
:1045000000962079217B227808440938C1B220899D
:104510000823083802EB5000154AC0B2083203F0F5
:104520002BFA0095A168206842186168521E093173
:104530000B46FFF7D5FD0095E1686068A26801446D
:1045400020680A3902440B46521EFFF7C9FDD4E920
:104550000421E0681438914202D24143B1FBF2F0E9
:10456000E0612046BDE8F84000F004B8F8BD000066
:1045700046D300082DE9F84304468189808B091A47
:1045800014398EB22188721E491C1FFA81F8A18845
:1045900010440A318DB2218980B2C91E89B200222D
:1045A00008EB01072B1800923A4629464046FFF7D0
:1045B00054FFD4E90401884201D8002005E0A16934
:1045C0007143401EB1FBF0F080B201210091291827
:1045D000E269404653183A46FFF73FFFBDE8F883CB
:1045E000FEB58168044614293CD3E068142839D309
:1045F00026687218802A35D861680B18402B31D88C
:1046000000253046521E5B1E0095FFF726FF01264F
:1046100000966168E068A2680B1820685B1E02447F
:10462000521EFFF7F8FE20882189174B0144491ECE
:104630008AB2217980B20E31C9B21B78FFF73AFDF8
:104640000096A168206842186168521E01F10D03AE
:10465000FFF703FFA06901F05DFF0146A068821E1D
:10466000914201D90020FEBD0C2180B20091CDE91C
:104670000150A0880C23401C81B22088A26980B21E
:1046800004F0D4FB0120FEBD28040020FEE772B632
:104690007047FEE72DE9F84F754D6868FEF7BEFEDE
:1046A000002001F0AFFE002600B1EE60DFF8C0A1EF
:1046B0004FF001080AF1380AAAF11C04012863D05E
:1046C000022804D003287DD004285CD1A9E03E2331
:1046D0007522122101200096FFF7BFFEA8696A68C3
:1046E000C0EBC00102EB810129618E70401CA86102
:1046F0006A685178491E814200DCA961A869A44614
:10470000C0EBC00002EB8000286180F8028069687D
:104710000878401C43B20B7048782269904205D853
:104720000746834211DB401E08700EE0D7B2521ECE
:1047300093420AD90A70DCF81010411ADCF8140010
:10474000814202D9401CCCF814000024E14611E05B
:10475000D9F814006968C0EBC00001EB8000C4EB1D
:10476000C40100EB8102C4EB041114201331FFF7E4
:104770001BFD641CBC42EBDB3D48A9693830CAF81C
:104780001810FFF7F7FE51E03E2375221221012099
:104790000096FFF762FEA8696A68C0EBC00102EBF1
:1047A00081012961401E8E70A861002800DCAE6185
:1047B000A8696968C0EBC00001EB8000286180F83F
:1047C000028000E030E0686822460178491E49B264
:1047D0000170477823699F4203D8002909DA0670DF
:1047E00007E0DFB2002904DA0670506908B1401E04
:1047F00050610024914611E0D9F814006968C0EBBB
:10480000C00001EB8000C4EBC40100EB8102C4EBEB
:10481000041114201331FFF7C7FC641CBC42EBDB0E
:10482000AAE701F0BBFE01E001F088FE01F044FEC2
:10483000072803D12869006900B18047E868411C56
:10484000E960642811DDEE602869416949B186702C
:1048500068696968C0EBC00001EB8000286180F8DE
:104860000280BDE8F84F01F023BBBDE8F88F0000DF
:10487000780100207047000070B58AB00121142033
:1048800000F0DAF80121080300F0D6F8E020ADF8D6
:10489000140003208DF816002F4D18248DF81740B2
:1048A00005A92846FEF7F6FEADF8144010268DF84F
:1048B000176005A92846FEF7EDFE6C14ADF814400C
:1048C00048208DF8170005A92448FEF7E3FE0D21C6
:1048D0000220FEF7CBFE069400248DF81C400C202D
:1048E0008DF81D0001258DF81E5006A8FEF714FE58
:1048F00028208DF8200006208DF821008DF8224018
:104900008DF8235008A800F02FF8ADF800404FF4C0
:104910008270ADF80200ADF808406802ADF80A00F8
:10492000ADF80C6007200E4EADF80440ADF8100055
:10493000ADF80640ADF80E406946304600F0A9F8E3
:104940000121304600F090F80648C0F89051C0F8B8
:104950008C410AB070BD0000000801400010014009
:10496000003001400000214230B50F23C2780178A9
:104970000125F2B1144A126801F1E02102F4E0626B
:10498000C2F5E062120AC2F10404D3404278A240A8
:1049900084781C401443220181F80024007800F040
:1049A0001F018D404009800000F1E020C0F8005157
:1049B00030BD01F01F0085404809800000F1E02073
:1049C000C0F8805130BD00000CED00E00249084302
:1049D00002490860704700000000FA050CED00E095
:1049E000024A1140014302480160704780FFFF1FE7
:1049F00008ED00E0034A516821F440410143516051
:104A00007047000000100240044A0029516901D09B
:104A1000014300E0814351617047000000100240F3
:104A2000044A0029D16901D0014300E08143D161EA
:104A30007047000000100240044A0029916901D02B
:104A4000014300E081439161704700000010024083
:104A5000044A0029D16801D0014300E08143D160BC
:104A600070470000001002400029018802D041F088
:104A7000400101E021F04001018070470246002022
:104A800012890A4200D001207047808970478181D5
:104A9000704730B502884C8802F441530A88CD88AB
:104AA00022438C882C4322430C8922434C89224385
:104AB0008C892243CC8922431A430280828B22F4C0
:104AC00000628283098A018230BD10B50446FFF777
:104AD000DEFF02212046FFF7D1FF0028F9D0012197
:104AE0002046FFF7CBFF0028F9D02046FFF7CDFF87
:104AF000C0B210BD10B500214FF6FE730C4A03E0A2
:104B0000491C89B299420BD21488A407F8D50849E8
:104B1000091D0880002005E0401C80B2984201D3A6
:104B2000002010BD1488E407F6D00888C0B210BD7C
:104B30000838004010B5002305E030F8024B21F89A
:104B400013405B1C9BB29342F7D310BD2DE9F05F7D
:104B5000A0F10064154688468246B4F5003F51D264
:104B6000FEF766FDA70AC4F34806C6F50074A54221
:104B700000D82C46DFF890B04FF0006000EB8720A3
:104B800081464FF400722049FFF7D4FF00204FF612
:104B9000FF7206E033183BF81310914203D1401C1A
:104BA00080B2A042F6D3A04224D24846FEF7ECFCE5
:104BB00000205A4606E038F810108319401C22F8ED
:104BC000131080B2A042F6D348464FF400720E494B
:104BD00000F01CF8A54211D0281B08EB44080AEB92
:104BE000440A002685B24FF400747F1CA542C3D846
:104BF0002C46C1E7224641465046E9E7BDE8F05F52
:104C0000FEF7F4BCBDE8F09F3C0E00202DE9F0411A
:104C100016460F460546002407E037F814102846CC
:104C2000FEF7ECFC641CA4B2AD1CB442F5D3BDE8A5
:104C3000F08100000CB50022264800920192016824
:104C400041F4803101604FF4A063016801F4003148
:104C500001910099491C0091019911B9009999425B
:104C6000F3D10168890333D5012101911A490A68FA
:104C700042F010020A600A6822F003020A600A6821
:104C800042F002020A604168416041684160416847
:104C900041F480614160416821F47C1141604168C8
:104CA00041F4E8114160016841F0807101600168E0
:104CB0008901FCD5416821F003014160416841F060
:104CC000020141604168C1F381010229FAD10CBDA2
:104CD00001920CBD00100240002002404FF0E02184
:104CE0000428086903D020F004000861704740F0F0
:104CF0000400FAE710B505F02FFB012803D0BDE84A
:104D0000104004F0A5BF10BD0F4810B5016841F078
:104D10000101016041680D4A1140416001680C4A7F
:104D200011400160016821F480210160416821F493
:104D3000FE0141604FF41F018160FFF77BFF0549D1
:104D40004FF00060086010BD001002400000FFF846
:104D5000FFFFF6FE08ED00E0FEE700000FB4084B91
:104D600010B504A902AA039800F0DEF8044602A9CF
:104D7000002000F05CFC204610BC5DF814FB000035
:104D80002F56000802E008C8121F08C1002AFAD1F5
:104D900070477047002001E001C1121F002AFBD1BB
:104DA000704700002DE9FF5F82B00021DDE904308B
:104DB000020DDDF840B0034318D044F61050A2F2C3
:104DC000FF3242431514119801281FD0A5EB0B00A8
:104DD000401C5FEA000A4FF000064E4FDFF83891A2
:104DE000B046504615D5CAF1000413E011980124CD
:104DF0004AA3012801D16FEA0B010298119AC0E978
:104E00000031C0E9024206B0BDE8F09FCBF10000DE
:104E1000DFE704460021404A491842EB0450CDE93F
:104E2000001012E0E00707D032463B4640464946B4
:104E3000FDF760FD8046894632463B4610461946DE
:104E4000FDF758FD06460F466410002CEAD1DDE957
:104E50000401DDE90023BAF1000F06DAFDF74AFD8F
:104E600042464B46FDF746FD05E0FDF7B5FD4246DF
:104E70004B46FDF7B1FD04460E460022284BFDF7D8
:104E8000B1FE03D84FF0FF30014607E00022254B6A
:104E900020463146FDF787FCFDF7E8FF102409E0C6
:104EA000002C0ADB0A220023FDF7FAFE039B3032B6
:104EB0001A55641E50EA0102F2D1641C039AC4F12F
:104EC00011031444119A012A03D0012208430DD181
:104ED0000AE0084304D000204FF0110B119072E754
:104EE000A3EB0B056D1E0DE05B4504DD4FF00002EA
:104EF00005F1010504E003DA4FF00002A5F1010518
:104F0000002AECD002981199C0E90231C0E90045AD
:104F100079E70000000014400000F03F300000007E
:104F20000000F0430000E03F2DE9FF4F95B09A46A6
:104F3000884606460025EEE1252877D1002427463D
:104F4000F94A0121039400E0044316F8013F203B95
:104F500001FA03F01042F7D130782A2811D06FF00F
:104F60002F033078A0F13002092A16D8039A44F0B2
:104F7000020402EB820203EB42021044761C03900F
:104F8000EFE758F8042B0392002A03DA504244F466
:104F90000054039044F00204761C30782E2816D179
:104FA00016F8010F44F004042A280DD06FF02F02E8
:104FB0003078A0F13003092B09D807EB870302EB07
:104FC0004303C718761CF3E758F8047B761C307847
:104FD0006C280FD006DC4C2817D068280DD06A2822
:104FE00014D104E0742810D07A280FD10DE044F4D5
:104FF00000140AE044F4801401E044F44014727890
:10500000824202D104F58014761C761C3078662822
:105010000BD013DC582877D009DC002875D0452840
:10502000F6D04628F4D047281AD193E118E0632837
:1050300035D0642879D0652812D18BE1702873D0DF
:1050400008DC6728F1D069286FD06E280DD06F2852
:1050500006D1ACE073282CD0752874D0782853D0B2
:105060005246179990476D1C54E1C4F30250022830
:1050700009D003280DD0D8F8001004280DD00D60F9
:1050800008F1040846E1D8F80010EA17C1E9005217
:10509000F6E7D8F800100D80F2E70D70F0E718F889
:1050A000041B8DF8001000208DF80100EB46012054
:1050B00003E058F804BB4FF0FF3061074FF00001E8
:1050C00002D40DE009F101018946B9420FDA8145A8
:1050D000F8DB1BF809100029F4D108E009F10101FF
:1050E00089468142FADB1BF809100029F6D10398A2
:1050F0005346A0EB090721463846179A00F080FA7C
:10510000284400EB090507E044E008E10DE01BF846
:10511000010B524617999047B9F10109F7D253464E
:1051200021463846179AF2E039E00A21C4F30252C8
:105130004FF0000B0091022A06D058F8040BC1175B
:10514000032A09D00AE023E008F1070020F0070253
:10515000F2E80201904605E000B2C117042A01D12D
:1051600040B2C117002906DA0A460021404261EB2D
:1051700002012D2202E0220504D52B228DF8042005
:10518000012203E0E20701D02022F7E7914657E031
:105190000A2100E010214FF0000B00910BE01021DC
:1051A0004FF0000B44F004040827009103E00820AE
:1051B0004FF0000B0090C4F30252022A05D058F8B9
:1051C000040B0021032A08D008E008F1070020F0B2
:1051D0000702F2E80201904603E080B2042A00D1FF
:1051E000C0B24FF0000922072AD53278702A07D0C2
:1051F000DDF800C08CF0100C5CEA0B0C05D00EE062
:1052000040228DF80420012208E050EA010306D074
:1052100030238DF804308DF8052002229146009B42
:1052200083F0080353EA0B030AD150EA010201D1CB
:10523000620705D530228DF804204FF001097F1E4A
:105240003278582A04D039A20C920CAA02920BE0B0
:105250003BA2F9E75B46009AFDF722FD0C9B9B5CA5
:10526000029A521E0292137050EA0102F2D1029881
:1052700004A9081A00F1200B600702D524F4803439
:1052800000E001275F4502DDA7EB0B0000E00020F6
:1052900000EB0B01009003984944401A0390E0038F
:1052A00006D453462146179A039800F0A9F90544FD
:1052B000002706E001A85246C05D179990476D1C73
:1052C0007F1C4F45F6DBE0030CD553462146179A69
:1052D000039800F095F9054404E0302052461799F0
:1052E00090476D1C0099481E00900029F5DC08E0ED
:1052F0000298029952460078491C029117999047EA
:105300006D1CBBF10001ABF1010BF1DC5BE100F0C6
:1053100065F90544761C307800287FF40DAE19B08D
:105320002846BDE8F08F00000928010030313233F3
:1053300034353637383961626364656600000000D1
:1053400030313233343536373839414243444546BB
:1053500000000000600700D4062708F1070020F0D5
:105360000700F0E80223804603F0004C5FEA0C00DF
:1053700001D097A009E0200501D596A005E0E0073F
:1053800001D095A001E0AFF24C001390307823F0EB
:10539000004365280CD006DC452809D046281DD0DE
:1053A00047287FD13BE0662818D067287AD136E0BD
:1053B0000021112F01DB112000E0781CCDE9000154
:1053C00004A90CA8FFF7EEFCDDE90D010C9A4FF0E3
:1053D000000B07F10109109200914EE04FF00040E0
:1053E0000097CDE9011004A90CA8FFF7DBFCDDE96B
:1053F0000D020C9B0F994FF0000B914610930092F9
:1054000011B9791C00EB0109B7EB090003D4C0F115
:10541000FF3B07F10109A9EB0700019042E0012FD2
:1054200000DA01270021112F01DD112000E03846AC
:10543000CDE9000104A90CA8FFF7B4FCDDE90D01DA
:105440000C9A00914FF0000BB946109221070FD42F
:10545000009A4A4503DA914601E0A9F10109B9F140
:10546000010F05DD109AA9F10101515C3029F4D03A
:10547000B84202DA10F1040F03DA0121CDE901107C
:1054800010E0002803DC8344A9EB000102E0411C8A
:10549000494500DD8946A0EB0B00401C01904FF010
:1054A00000400290200705D40198484502DB4FF0E8
:1054B000FF30019000208DF84B0002980DF14B0752
:1054C000B0F1004F25D002200C902B200D900298B7
:1054D00000280CDA404202902D200D9007E00A21AE
:1054E0000298FDF7C7FB3031029007F8011D0C99B7
:1054F000481E0C900029F2DC02980028EFD1791E9A
:105500000D980870307800F0200040F0450007F852
:10551000020D11A8C01BC01D02901398007800B1A5
:10552000012000EB0901019801EBE07102980144B0
:105530000398401A401E0390E00306D453462146C8
:10554000179A039800F05CF805441398007818B196
:105550005246179990476D1CE00323D553462146C8
:10556000179A039800F04CF805441BE0BBF1000FBC
:1055700007DB0098584504DD1098179910F80B00C8
:1055800001E0179930205246904701980BF1010B2A
:10559000401E05F10105019004D12E2052461799B5
:1055A00090476D1CB9F10001A9F10109DEDC05E0AD
:1055B00017F8010B5246179990476D1C0299481E27
:1055C00002900029F4DC53462146179A03989EE680
:1055D0002D0000002B000000200000002DE9F0410C
:1055E000044600251E461746880404D405E03946C3
:1055F0002020B0476D1C641EF9D52846BDE8F08117
:105600002DE9F041044600251E469046C80301D509
:10561000302700E02027880404D505E041463846BD
:10562000B0476D1C641EF9D52846BDE8F0810A68B4
:10563000531C0B6010707047FEE70000FEB5044677
:105640000078294D294E012815D0052835D050283D
:105650003FD040280ED1A078012842D0022809D19D
:1056600054F8030F009060680190A06802906846AB
:1056700003F0E0FAFEBDA078E178000200B2084332
:10568000FDF730FA3146FDF750F8A86020796179CE
:10569000000200B20843FDF725FA3146FDF745F850
:1056A000E860A079E179000200B20843FDF71AFA38
:1056B0003146FDF73AF86860FEBDA078E178000257
:1056C00000B20843FDF70EFA3146FDF72EF82861C7
:1056D000FEBDA0780128FBD12046BDE8FE4001F0C8
:1056E0000FBDE0782870FEBD580000200000C842C1
:1056F000F8B5144C2078002822D101211020FFF7A2
:105700009BF94FF48045ADF8005010208DF8030050
:1057100003200D4E8DF8020069463046FDF7BAFFB2
:1057200029463046FEF737F808480090002301224A
:105730004FF47A7106A004F0CFFF60600120207062
:10574000F8BD00006C000020001001402D89000809
:105750006265657054696D657200000010B50023C4
:1057600001461A4611F8014B521C2344DBB2382A79
:10577000F8D390F83400181AC0B210BDF0B516482E
:105780000021164B4078114EDFF844C0DFF844E0AA
:10579000134C0A46022703EBC005C1EBC10006EB20
:1057A000800047708270C0E901CE55F82130C0E911
:1057B0000332C0E90542491C0229EEDB0120B0702A
:1057C000084830610848F062F0BD00006809002018
:1057D00068A8000888A80008D80400208C030020CE
:1057E000180800204D910008299100087F4E804C38
:1057F000DFF80092DFF800A28EB04FF0010B002717
:105800000A2003F091FE99F812004D4620B10128BC
:1058100004D0022805D103E0754C02E0774C00E08B
:10582000774C08A8FDF73EFC287CA946F0B3022877
:1058300047D03046FDF7AAF90022724BFDF754F825
:10584000054688460B98FDF7A1F92A464346FDF721
:1058500051F8FDF7DFF9DFF8B08155464146FCF716
:10586000DAFE32464146E86001F0BEF9E8602146C2
:105870000898FCF728FF554684F000412246CAF8F4
:10588000000001F0B1F9286021460998FCF71BFFE0
:1058900084F000412246686001F0A6F9DFF86C81CF
:1058A000686041460A98FCF70EFF00E009E04246B6
:1058B0005749A86001F098F9A86000F01FFE70B188
:1058C00051E0DFF850810B984146FCF7FCFE55464D
:1058D0004146FCF7A0FE504A0021E860C4E702F010
:1058E0002FFE78B300F02EFD60B399F8110010B1CF
:1058F000012805D102E08DF819B001E08DF819708A
:1059000099F81000C84620B1012805D0022809D115
:1059100005E08DF818B005E08DF8187002E003205E
:105920008DF818003849E868884202DC9DF81810A4
:1059300031B1039000F0E8FD28B10197009706E02F
:105940000397F7E70FE06868019028680090A8685F
:105950000290D8F82C100491D8F8300005901B2143
:10596000684603F033F802F0EBFD00283FF448AF3F
:105970001F49E868FCF7A7FE2849FCF74CFEFDF735
:10598000F1F8274DADF8360029460998FCF79BFE43
:10599000DFF890804146FCF73EFEFDF7E3F8ADF8F6
:1059A000320029460898FCF78EFE4146FCF733FE8C
:1059B000FDF7D8F8ADF8300029460A98FCF783FEC9
:1059C0004146FCF728FEFDF7CDF8ADF83400032082
:1059D0008DF8000008228DF801200CA90DF10200BD
:1059E000FCF7EEFD684602F043FE09E70000BE4208
:1059F00000002041D8040020300500200000904124
:105A00000000F041000039400000C8410000484358
:105A1000000048C3000048420000C84200007A4429
:105A20000000FA430080BB442DE9F041114C60783E
:105A3000002812D11C2210491048FFF77BF80E4DA8
:105A40000026012728780D2809D12846FFF786FE71
:105A500095F83410814202D1A770BDE8F081054964
:105A6000A6703822091D0448FCF7AAFD04F084F84A
:105A7000F2E700001C000020D804002000FC010810
:105A800010B50B4986B018220C466846FCF798FD05
:105A90000748382207491438FCF792FD1822694656
:105AA0002046FCF78DFD04F067F806B010BD00003D
:105AB000EC040020200000202DE9F0431B4E0021C3
:105AC000DFF864C070781A4ADFF8689000EB400095
:105AD000194D0B4603270CF1200802EB8004C1EBA3
:105AE000C10005EB800047708370C0E901C854F81D
:105AF0002120C260C0E90593491C0329EFDB0F4850
:105B000028610F48E8620F48A864307C012138B151
:105B1000012807D0022801D185F83A10BDE8F083AA
:105B2000A970FBE7A977F9E768A80008D804002066
:105B3000480200205C05002074060020198A000835
:105B40002D8A0008058A0008002801DB024600E0D3
:105B500042428A4201DA00207047002802DDA0EBB1
:105B600001007047FDDA0844704700002DE9F0435A
:105B70008DB008A800F0CAFBDDE909408046182175
:105B800002A80B9F089EFCF734FD02F0DFFC0246E2
:105B900058A102A8FFF7E2F84FF00C0900210623F4
:105BA00002AA0846CDF8009001F040FF182102A893
:105BB000FCF71FFD2046FCF7E9FF04460D4638467A
:105BC000FCF7E4FF02460B4650A102A8CDE90045D0
:105BD000FFF7C4F80827062302AA0D21002000972A
:105BE00001F024FF182102A8FCF703FD3046FCF762
:105BF000CDFF04460D464046FCF7C8FF02460B4663
:105C000048A102A8CDE90045FFF7A8F8062302AA9B
:105C100016210020009701F009FF182102A8FCF7C7
:105C2000E8FC464846A1027802A8FFF797F8062349
:105C300002AA22210020CDF8009001F0F7FE1821E1
:105C400002A8FCF7D6FC44480068FCF79FFF044616
:105C500042480D460068FCF799FF02460B4640A1FA
:105C600002A8CDE90045FFF779F802A8FCF7CCFCC3
:105C70000026152801D98DF81D60062302AA2F21C0
:105C80000020009701F0D2FE182102A8FCF7B1FC19
:105C900039480068FCF77AFF044638480D4600682A
:105CA000FCF774FF02460B461EA102A8CDE9004591
:105CB000FFF754F802A8FCF7A7FC152801D98DF8C6
:105CC0001D60062302AA38210020009701F0AEFED5
:105CD00000F0F2FB012807D0032802D1002002F0D7
:105CE000B5FF0DB0BDE8F0830021042002F054FEA2
:105CF000F7E700002053454E44202D2D2D3E202057
:105D0000464E554D3A253364000000005448523A3F
:105D100025342E3066202020205049543A25352E37
:105D2000316600005941573A25342E306620202034
:105D300020524F4C3A25352E316600005800002085
:105D4000204241434B203C2D2D2D202052535349BE
:105D50003A25336400000000640000206800002041
:105D60004241543A25342E32662020202050495496
:105D70003A25352E31660000600000205C000020CE
:105D800010B50420FEF7AAFF0C480D490D4A006823
:105D9000B0FBF1F3B0FBF1F14FF47A7041431370B3
:105DA000012050804FF0E020026942F002020261BF
:105DB0004161016941F00101016110BD0400002051
:105DC00040420F001800002070B5044604F0C4FAE9
:105DD00001280CD0094D6888844203D3B4FBF0F04D
:105DE00003F0A2FB6888B4FBF0F100FB11444FF410
:105DF0007A706043BDE8704000F002B818000020DF
:105E000070B54FF0E02500216C69094AAB69127842
:105E10005043AA699A42FCD002D2A3EB020302E0EB
:105E2000A4EB02063344194413468142F1D370BDFA
:105E30001800002010B500F01DFF00F007FAFFF772
:105E40003BFE00F003FE00F0B7F900F077F900F038
:105E500041F800F06BFEFFF791FCBDE8104003F045
:105E60002FBE0000114C322003F05EFB2078072883
:105E700019D2DFE800F004070A0D1013160000F035
:105E800063FF10E003F080F80DE0FEF703FC0AE08A
:105E9000FFF76CFE07E000F0AFFB04E001F048F80C
:105EA00001E002F0E3FCFEF707FBDCE7B0000020B6
:105EB00010B5074C054804F11C016060A0688861BA
:105EC000002002F0C3FE0120207010BD5C05002000
:105ED00078010020F0B516480021164A4078124B90
:105EE000124E154F0C46012502EB0012C1EBC1000A
:105EF00003EB800045708570C0E9016452F821C051
:105F0000C0F80CC0C0E90447491C84610429EDDBDA
:105F10000A4858630A480B49D862196598640A49C7
:105F2000D9665866F0BD0000E007002048A80008C8
:105F3000D8040020E40200205C0500205008002066
:105F40009D65000868090020A00900200A4938B1B1
:105F5000012808D002280BD0032808D1074804E004
:105F60000648543801E005483838C1F888007047C1
:105F700002481C38F9E700005C05002034080020C6
:105F80002DE9FC4100253F237F221821284600955A
:105F900001F004FC012000F0DBF9644C052805D178
:105FA000012000F02FFA062800D12570012000F012
:105FB000CFF90126062805D1012000F023FA052893
:105FC00000D12670012310222B211420FDF782FD21
:105FD000012311222B211420FDF77CFDDFF85081D5
:105FE000182198F81000E8B301284FF00C0341D0B5
:105FF0005422CDE900161E210E2001F021FC1E279F
:10600000009720784B49C0EB001001EBC0023B46E3
:106010001C21312001F0B0FC009798F8110046498E
:10602000C0EB001001EBC00247461E231C215E207E
:1060300001F0A2FC012310222B216D20FDF74AFD67
:10604000012311222B216D20FDF744FD00F034FACD
:10605000052811D001281AD007281DD0042825D0E2
:10606000032800E003E023D008283AD03EE00C23C8
:106070004822BEE74D22BCE7207A2178884335D0FC
:10608000387C08B1022831D10021032001E0002131
:10609000042002F081FC29E0207A2178884325D071
:1060A0006670002002F026FC01201DE003201BE0AA
:1060B000207A21788843A179884317D0F87CA8B941
:1060C000387C022812D0A07890F00100A0702573CF
:1060D0004FF0010002D002F00DFC07E002F032FFA9
:1060E00004E0207810B1022002F0B0FDA078002872
:1060F00019D0002000F086F9060009D0A570012013
:1061000002F020FF3146BDE8FC41052002F044BC0E
:10611000207B401CC0B220731E2804D9A57001202A
:1061200002F010FF2573BDE8FC810000F80000209C
:10613000D804002006D10008F6D100082DE9F0436C
:10614000174E0021DFF854C0164A7078DFF85890D7
:10615000164D0B4602270CF1200802EBC004C1EBE0
:10616000C10005EB800047708370C0E901C854F896
:106170002120C260C0E90593491C0229EFDB0C48CD
:1061800028610C48E862F07C012120B1012800D18F
:10619000A977BDE8F083A970FBE7000068A80008B4
:1061A000D8040020A80200205C050020540700202D
:1061B000918A00087D8A00082DE9F0431C4E0021D9
:1061C000DFF868C070781B4BDFF86C9000EB400084
:1061D0001A4D0A4603270CF1200803EB8004C1EB9B
:1061E000C10005EB800047708270C0E901C854F817
:1061F0002130C0E90332C0E90592491C0329EEDBD6
:106200000F4828610F48E8620F48A864B07C01215C
:1062100038B1012807D0022801D185F83A10BDE82D
:10622000F083A970FBE7A977F9E7000068A80008E8
:10623000D8040020840200205C0500200007002014
:10624000558A0008698A0008418A00082DE9F04350
:10625000174E0021DFF854C0164B7078DFF85890C5
:10626000164D0A4602270CF1200803EBC004C1EBCF
:10627000C10005EB800047708270C0E901C854F886
:106280002130C0E90332C0E90592491C0229EEDB46
:106290000B4828610B48E862707C012120B101287D
:1062A00000D1A977BDE8F083A970FBE768A80008D2
:1062B000D80400206C0200205C050020C8060020E5
:1062C000A58A0008B98A000810B50022084B1146BB
:1062D00001EB81040444491C33F81440C9B2224440
:1062E0000A29F5D30A20B2FBF0F080B210BD0000FD
:1062F000D809002010B5FCF787F980B200EB400008
:106300004FF6FF7101EA400010BD0000024910B5D0
:106310001EC980E81E0010BD3005002010B50446DF
:106320000420FFF7D1FFE0800120FFF7CDFF2080A0
:106330000220FFF7C9FF60800320FFF7C5FFA080A0
:1063400010BD00000148007A70470000F8000020EE
:106350007CB5064600246846FFF7E0FF284D012380
:106360000EB12B7001E0287878B36868BDF806207C
:10637000418801F54876B24201D9012413E0A1F524
:1063800048718A420FDA818ABDF80420022401F59F
:106390004876B24201D9062413E0A1F548718A4239
:1063A00001DA05240DE0808ABDF8041000F548727A
:1063B000914201D9042404E0A0F54870814200DA3A
:1063C000032400202870C4B118E0FFE76A68BDF814
:1063D00006105088A0F54876B1420FDB00F54870F2
:1063E00081420BD8908ABDF80410A0F54872914202
:1063F00004DB00F54870814200D82B7020467CBD3C
:10640000840000207CB5064600246846FFF786FF1E
:10641000284D01230EB16B7001E0687878B368688D
:10642000BDF80220C18901F54876B24201D90124A4
:1064300013E0A1F548718A420FDA0189BDF8002006
:10644000022401F54876B24201D9062413E0A1F5F1
:1064500048718A4201DA05240DE00089BDF8001078
:1064600000F54872914201D9042404E0A0F5487077
:10647000814200DA032400206870C4B118E0FFE70D
:106480006A68BDF80210D089A0F54876B1420FDBEA
:1064900000F5487081420BD81089BDF80010A0F5B6
:1064A0004872914204DB00F54870814200D86B705D
:1064B00020467CBD840000200249002208790A7130
:1064C000704700008C0000200021427807E0C1EBFB
:1064D000C10300EB83039B78012B02D0491C8A4245
:1064E000F5DCC8B2704710B5FCF78EF880B200EB4F
:1064F00040004FF6FF7101EA400010BD01480078EE
:1065000070470000F8000020014840787047000004
:10651000F800002010B5FCF777F880B200EB4000DF
:106520004FF6FF7101EA400010BD10B5FFF7C0FC47
:10653000BDE81040042002F089BB0000114830B4CF
:1065400001694A69D2B100228A7041694268C1EB8F
:10655000C10102EB8101012401618C7001690A4DC6
:1065600000F11C034A694260AA4201D1816801E03E
:10657000C968891C9961047030BC704730BCFFF752
:1065800097BC0000780100205C05002010B5FFF7E3
:106590008FFCBDE81040052002F058BB094A106985
:1065A000816941B15160C06802F11C01801C8861A1
:1065B00001201070704701690029FBD04069002854
:1065C000F8D108477801002010B5FFF771FCBDE84D
:1065D0001040062002F03ABB05488168122905D117
:1065E000C0680449884201D10120704700207047EB
:1065F000D80400209A7856342DE9F04F93B010A8B3
:10660000FFF78CFEDFF838A20026DFF838B29AF8E0
:1066100000000AF102044FF00C0904F108050028FB
:106620005ED1002126237F220846009601F0B6F8AD
:106630009BF801000E27012800D11A274FF001080E
:106640007F49CDE9009814310C2351F82020002116
:10665000084602F095FBCDE9009879499BF80100C6
:1066600020310C2351F820203946002002F088FB0D
:10667000B4F90010BDF84000814200DA01462180E3
:10668000B5F90010814200DC08462880B4F90210F8
:10669000BDF84200814200DA01466180B5F902107E
:1066A000814200DC08466880B4F90410BDF844005B
:1066B000814200DA0146A180B5F90410814200DC74
:1066C0000846A880B4F90610BDF84600814200DAF9
:1066D0000146E180B5F90610814200DC0846E880F9
:1066E0009AF80000D046012856D1002126237F22A7
:1066F0000846009601F052F89BF801000E27012889
:1067000000D11A274FF0010A4D49CDE9009A2C31EA
:106710000C2351F820200021084602F031FBCDE97E
:10672000009A47499BF8010038310C2351F820208A
:106730003946002002F024FBBDF84000ADF83000DF
:10674000BDF84420BDF84230ADF83C20BDF84610FD
:10675000ADF83630ADF82A1027883F1AADF82E7004
:106760002F88C01BADF832006088C01AADF8340025
:106770006888181AADF83800A088801AADF83A0079
:10678000A888101AADF83E00E088401AADF828003D
:10679000E888081AADF82C00162102A8FBF729FF9B
:1067A000BDF84230BDF8462027A102A8FEF7D6FA70
:1067B0000827062302AA2C210020009701F036F9B1
:1067C000162102A8FBF715FFBDF84030BDF84420A4
:1067D00022A102A8FEF7C2FA062302AA362100204F
:1067E000009701F023F9FFF767FE032804D0012882
:1067F00022D188F800601CE098F80000401CC0B26C
:1068000088F80000022817D10E4888F80060182286
:106810000AA91430FBF7D4FE03F0AEF900204FF4C0
:106820007A7125F8101024F81010401CC0B204280A
:10683000F7D3002002F00AFA13B0BDE8F08F000091
:10684000B4000020D80400205448523A2534642073
:106850002020205049543A25346400005941573AC9
:1068600025346420202020524F4C3A253464000007
:1068700010B5054CA078002805D1FCF795FC03481D
:1068800060600120A07010BD84000020EC04002096
:1068900008B501211C20FEF7CFF84FF48070ADF849
:1068A000000048208DF8030069460A48FCF7F2FE14
:1068B0004FF44060ADF8000069460748FCF7EAFE77
:1068C0004FF40040ADF8000069460448FCF7E2FED2
:1068D00008BD000000080140000C0140001001400C
:1068E0000125DFF85881564C4FF4006B00264FF419
:1068F000FA77142002F018FE207840B95946404635
:10690000FCF742FF18B9257003F034FDA0606078F1
:1069100048B94FF400414B48FCF736FF18B9657091
:1069200003F028FDA060A07848B94FF4806140468C
:10693000FCF72AFF18B9A57003F01CFDA060E078F1
:1069400048B94FF480714048FCF71EFF18B9E57054
:1069500003F010FDA0602078B8B1D94659464046F2
:10696000FCF712FF012800D1267003F003FDA16897
:10697000401AB84202D90220207106E0494640463A
:10698000FCF702FF012800D125716078D0B1DFF853
:10699000B4A04FF4004949465046FCF7F5FE0128E3
:1069A00000D1667003F0E6FCA168401AB84201D934
:1069B000042006E049465046FCF7E6FE012801D1D6
:1069C00003202071A078C0B14FF480694946404649
:1069D000FCF7DAFE012800D1A67003F0CBFCA16819
:1069E000401AB84201D9062006E049464046FCF765
:1069F000CBFE012801D105202071E07800283FF46A
:106A000078AFDFF844A04FF4807949465046FCF750
:106A1000BBFE012800D1E67003F0ACFCA168401A6F
:106A2000B84201D9082007E049465046FCF7ACFEC1
:106A300001287FF45EAF072020715AE7000C014067
:106A40008C00002000100140000801402DE9F043B7
:106A50001B480021DFF864C044781A4ADFF86890C8
:106A600004EB4400194E0B4603270CF1200802EBFF
:106A70008005C1EBC10006EB800047708370C0E960
:106A800001C855F82120C260C0E90593491C0329BB
:106A9000EFDB0F4830610F48F0620F48B06401200F
:106AA0003CB1012C07D0022C01D186F83A00BDE898
:106AB000F083B070FBE7B077F9E7000068A8000842
:106AC000D8040020C00200205C0500208C070020B4
:106AD000458B0008098B0008CD8A000838B50121D4
:106AE0000846FDF7A9FF01210E48FCF721FE012110
:106AF0000820FDF7A1FF8820ADF8000010208DF8D8
:106B000003000320084C8DF8020069462046FCF77C
:106B1000C1FD08212046FCF740FE80212046FCF7FD
:106B20003CFE38BD00023000000C0140F0B52148A9
:106B30000021214A40781C4EDFF870C0DFF870E079
:106B40001E4C00EB80000B460A2702EBC005C1EB90
:106B5000C10006EB800047708370C0E901CE55F894
:106B60002120C260C0E90543491C0A29EFDB01204E
:106B7000B070134830611348F0621348B064134892
:106B800070661348C6F880001248C6F89C00124888
:106B9000C6F8B8001148C6F8D4001148C6F8F0008D
:106BA0001048C6F80C01F0BD5008002068A8000885
:106BB00088A80008D804002014030020FC07002047
:106BC000818B0008938B0008A58B0008B78B000809
:106BD000C98B0008DB8B0008ED8B0008FF8B0008D9
:106BE000118C0008238C000870B50E46154604462B
:106BF0001146FCF735F801D22C4605E03146204617
:106C0000FCF724F800D23446204670BD1CB50021A4
:106C10001248FDF7E5FE4FF44070FDF7D7FEFFF791
:106C2000AFF8FEF701FFFFF759FF00F0BFFCFEF7DA
:106C30005FFDFFF72DFEFFF71BFE01F0A5FCFFF740
:106C4000F9F807490220CDE900010023642205A1DB
:106C5000074803F055FB02F01DFEFEE70024000884
:106C60000000002053544152545F5441534B0000E4
:106C7000798E0008F0B527480021274C4078234A38
:106C8000234E00EB80000B460A2504EBC004C1EB49
:106C9000C10002EB800045708370C0E9016354F8C5
:106CA0002170C0E903734361491C83610A29EEDB4B
:106CB0000120907019481A4910619161D0621949F8
:106CC000516390641849116550661849D166C2F83D
:106CD00080001749C2F888101649C2F8A430C2F8DB
:106CE0009C101549C2F8C030C2F8B810C2F8D400E0
:106CF0001248C2F8DC001248C2F8F830C2F8F000BE
:106D00001048C2F81431C2F80C01F0BD5C05002037
:106D100048A80008D8040020D00100209D65000884
:106D200074060020C8060020000700205407002039
:106D3000E00700202B6500088D6500088C07002007
:106D4000C9650008B15E00082DE9FC4703F012FB9D
:106D50006B4C6C4E012561694FF0000801F57A71AA
:106D600088421BD303F006FB60610020FFF7ACFAFA
:106D7000FBF7D2FE0022644BFBF72EFE0022634B92
:106D8000FBF7B8FD0122FBF796FEFBF743FF2061FE
:106D9000B04201DA257101E084F8048020785C4F6C
:106DA000DFF87091314608B1206901E05A48006867
:106DB000FBF783FC3946FBF7B8FC4946FBF783FC3D
:106DC000FBF7B7FE607340B2FBF78CFE534A00211D
:106DD000FFF70AFFFBF7ADFE6073514800785028BB
:106DE00001D205260CE0552801D2042608E05A28D5
:106DF00001D2032604E05F2801D2022600E001262A
:106E000001F09EFB00B90026464906EBC60001EBE7
:106E1000C0021627002118230846009700F0ACFD99
:106E20005023414A00211820009700F0A5FD94F955
:106E30000D00632100EB4000800090FBF1F03B4926
:106E400000EB800001EB8002102000900A23042157
:106E50006A2000F091FD0826CDE900650623252271
:106E60000D21772000F0ECFC0620CDE9000602237E
:106E700094F90D200421742000F046FDFFF780F8FE
:106E800020796179884203D1A179E27991420DD0CC
:106E9000A17908434FF0020002D001F02BFD01E080
:106EA00002F050F820796071A079E071A07920B1EA
:106EB00001F046FB08B984F80680207A617A88429E
:106EC00005D010B1032001F015FD207A607203F0A7
:106ED00051FAA16901F5FA71884206D303F04AFA22
:106EE000A0610021012001F057FD01F029FB0028DD
:106EF00003D1BDE8FC47FFF729B8BDE8FC870000D7
:106F0000F80000200000504000FEAF4000000840A4
:106F10006866663F0000C842680000200000C64264
:106F20005800002052CE000862CD000802D00008B0
:106F30002DE9F04F89B06E4E01251824CDE90045AA
:106F400070786C49234651F820200021084601F052
:106F500017FF2023684A00213020009400F00CFD28
:106F6000CDE90045634970780C31182351F8202091
:106F700000214E2001F004FF5E4CDFF88091241FB9
:106F80000C2720784FF0020B4FF0400A4FF000081A
:106F900005281AD2DFE800F003283958670001F00D
:106FA000CFFA544A1832C0B1FFF716FBCDE900758D
:106FB0000028707802EB001008D042680C231C21D6
:106FC000002001F0DDFE2570A57068E002680C234A
:106FD0001C21002001F0D4FE61E0CDE9007570783D
:106FE00002EB00108268F2E7607820B184F801803B
:106FF00084F800B053E08DF800A08DF801508DF8B2
:107000000250684601F034FB49E0002001F0B0FA7C
:107010008DF800A00D208DF801008DF802B0D9F890
:107020000010CDF80310D9F80410CDF80710D9F8E6
:107030000800CDF80B000F21684600F015FA01207A
:1070400001F096FA03200CE099F8000000F049FAEC
:1070500099F8010000F04CFAD9E9011000F012FA99
:10706000042020701BE001F06BFAC0B184F80280AC
:10707000D9E90012D9F808007160C6E9022002F0CF
:107080007BFD80200097CDE901501A487178483087
:107090000C2350F831203321002001F0C7FEE078A6
:1070A000401CC0B2E070A17891B10A2810D984F8D0
:1070B000028080200097CDE901500E487178483059
:1070C00000EBC1000C2342683321002001F0AEFE2A
:1070D000E0781E2809D984F8008084F8038009B07C
:1070E0000020BDE8F04F01F0B1BD09B0BDE8F08F60
:1070F000D804002018010020E6D200085005002026
:1071000070B5C11C0E221348FBF75AFA114D124CF0
:1071100001206978B9B1A978A9B1E0702072287905
:10712000A0716879A072FEF711FF207A70B1E07A41
:10713000002807D0401EE072084855F8061F01637A
:107140006968C16270BD0021E170E7E70320E07269
:1071500070BD000040050020F8000020D804002089
:1071600010B50D4C2078002815D10C4804F12802E8
:10717000A2F12001407852F8203002EB80000B6130
:10718000C2684A6182698A61406AC8610846FDF73F
:1071900055F80120207010BDBC030020D804002049
:1071A0002DE9F05F4FF0C04704460D461F4B3A46AD
:1071B000FBF7A0FB894680460022DFF874A01D4E35
:1071C0004FF0404B134620462946FBF7F3FC3A4666
:1071D00040464946534602D2FBF7E5FA01E0FBF789
:1071E00086FB22462B46FBF785FB002204460D4614
:1071F0001346FBF7DFFC4FF00002334620462946DA
:1072000004D2FBF7D0FA5A460B4B03E0FBF76CFBBA
:107210005A460A4BFBF76EFB00223346FBF7C3FAD4
:1072200022462B46BDE8F05FFBF764BB2FF0D93F49
:10723000305FF43F0000F03FCCCCCCBFCCCCCC3F97
:107240002DE9F041144FDFF8548001263A46144BE3
:10725000FBF7A9FA04460D463A464346FBF7C2FC43
:1072600008D8B61E3A46434620462946FBF73CFB63
:1072700004460D463046FBF73EFC06460F462046C8
:10728000294600F00FF832463B46FBF733FBBDE8DA
:10729000F041FBF7BFBC0000F1D4C853FB2109400B
:1072A000FB21F93F2DE9F04104461148114F80467A
:1072B00002460D4601263B462046FBF793FC08D8C4
:1072C00042463B4620462946FBF70EFB04460D4648
:1072D000B61E3046FBF70FFC06460F4620462946F1
:1072E000FFF75EFF32463B46BDE8F041FBF702BBCD
:1072F000F1D4C853FB2109400346012000E0584364
:10730000491EC9B2FBD2704710B50446FDF7B4FA66
:107310001C49D1E9020100F0B5F8022000F0E1F8C3
:10732000002000F0E5F8032000F000F900F0C5F8B7
:10733000032000F0B3F8012C15D00E21002002F03C
:107340002DFC01211C2002F029FC07211D2002F048
:1073500025FCFF21E12002F021FCFF21BDE81040C7
:10736000E22002F01BBC0F21002002F017FC0121DB
:107370001C2002F013FC06211D2002F00FFC01214D
:107380000846E4E7180400201CB50020CDE9000001
:10739000FDF772FA05220B49302002F0C9FB0522E5
:1073A0006946102001F026FA06480838D0E9021094
:1073B000DDE9002351405840014301D000201CBDAD
:1073C00001201CBD2004002070B5064600240D4697
:1073D0000C70072001F032FAC10605D5FF21E1202B
:1073E00002F0DCFB01240AE0410605D5304600F03E
:1073F0001BF82870032402E0800600D502247021C7
:10740000072002F0CBFB072001F018FA204670BDE0
:1074100008B50020009003486946406902F0B6FEB6
:1074200008BD00009800002070B50546602001F0FE
:1074300005FA0446401E20280DD20A4E0020C6F848
:107440008C0122462946612006F5C67601F0D2F964
:107450000120306000E00024FF21E22002F09EFBCA
:10746000204670BD0000214270B50C46054607203D
:1074700001F0E4F9C007FAD121462846BDE8704082
:1074800000F082B813B5052269462A2002F050FBAD
:1074900005226946302002F04BFB1CBD10B50446A6
:1074A0000F2809D8042001F0C9F940EA0401BDE819
:1074B0001040042002F072BB10BD10B5062001F090
:1074C000BDF90446042001F0B9F9A10602D440F048
:1074D000100101E040F05001BDE81040042002F02E
:1074E0005DBB7D2803D80146052002F057BB7047DD
:1074F00010B50446062001F0A1F920F0280124B1BE
:10750000012C07D0022C05D102E041F0200101E05E
:1075100041F00801BDE81040062002F03FBB00002A
:1075200001490860704700001804002010B50446A7
:10753000062001F083F900F0F80174B1012C04D0A9
:10754000022C05D0032C08D105E041F0020104E033
:1075500041F0040101E041F00701BDE810400620C0
:1075600002F01CBB10B5074C0A460021C4F88C1170
:107570000146A02004F5C67402F0DAFA012020606A
:1075800010BD00000000214210B5074C0A46002142
:10759000C4F88C110146B02004F5C67402F0C8FA94
:1075A0000120206010BD00000000214270B586B0AF
:1075B00001210820FDF740FA01218803FDF730FA88
:1075C00001210820FDF738FA4FF4A040ADF814006F
:1075D00010208DF817000320534C8DF8160005A9D4
:1075E0002046FCF757F84FF42041ADF8141018214D
:1075F0008DF8171005A92046FCF74CF80024ADF8CB
:1076000000404FF48270ADF80200ADF80440022053
:10761000ADF806000126ADF808600002ADF80A00DA
:107620000820ADF80C00414DADF80E40ADF810400B
:1076300069462846FDF72DFA01212846FDF714FA80
:107640003B4DC5F8B061C5F8B841642005F5D87563
:10765000FEF7BAFBAE600021AE2000F013FA002165
:10766000D52000F00FFA0021802000F00BFA002155
:10767000A82000F007FA00213F2000F003FA0021C3
:10768000D32000F0FFF90021084600F0FBF90021AB
:10769000402000F0F7F900218D2000F0F3F90021DF
:1076A000142000F0EFF90021202000F0EBF9002178
:1076B000022000F0E7F90021A12000F0E3F9002109
:1076C000C02000F0DFF90021DA2000F0DBF9002112
:1076D000122000F0D7F90021812000F0D3F9002119
:1076E000EF2000F0CFF90021D92000F0CBF90021E4
:1076F000F12000F0C7F90021DB2000F0C3F90021E0
:10770000302000F0BFF90021A42000F0BBF90021D7
:10771000A62000F0B7F90021AF2000F0B3F900F087
:1077200009F806B070BD0000000C014000380040B0
:107730000080214210B40021084B0A46002003EBD0
:10774000C0046254401CC0B28028F8D3491CC9B29E
:107750000829F3D310BC00F04FB800003C0A002009
:1077600010B57F2816D83F2914D80723A3EBD103DF
:1077700001F00701C1F107040121A140064CDBB271
:1077800004EBC000002AC25CC9B201D00A4300E089
:107790008A43C25410BD00003C0A00202DE9F0438A
:1077A0001E4690460F460546DDF81C900CE03C4610
:1077B00006E04A4621462846FFF7D2FF641CE4B2A1
:1077C000B442F6D96D1CEDB24545F0D9BDE8F08361
:1077D000C1F13F01C9B2CA0801F0070101238B4082
:1077E000D9B2044B03EBC000805C084000D00120FC
:1077F000704700003C0A002070B5104E002505F1CE
:10780000B000C0B2002100F03DF90021084600F0B0
:1078100039F90021102000F035F9002406EBC400EE
:10782000405D012100F02EF9641CE4B2802CF5D3F8
:107830006D1CEDB2082DE2D370BD00003C0A0020A3
:107840002DE9FF4F81B09B460E9F0E468A46780772
:1078500000D0012000EBD70000FB0BF0203AC0B2B3
:1078600002F0FF090025009041E0BBF1060F10D0A7
:10787000BBF10C0F3ED1182F3CD1204909EBC900B8
:1078800001EB80004FF00008445D20060FD50F9AF1
:1078900010E0082F05D00C2F2CD109EB4900184916
:1078A000EEE7184909EB490001EB4000EAE70F98C1
:1078B00090B1002231460198FFF752FF6006761C16
:1078C000040EF6B2A6EB0A00B84207D1019856465C
:1078D000401CC0B2019008E00122EBE708F1010072
:1078E00000F0FF08B8F1080FCFD36D1CEDB200987F
:1078F0008542BAD305B0BDE8F08F000056AF00084E
:10790000E2AA0008A8A800082DE9FF4F82B00026CF
:10791000DDE90F791D469346804634464FF0010A53
:1079200025E0281B401EC1B20A20FFF7E5FCBBFB87
:10793000F0F00A21B0FBF1F201FB120026B9691E3A
:107940008C4201DA38B101263030C2B207FB048024
:10795000C0B23B4604E007FB0480C0B23B46202295
:10796000CDE9009A0399FFF76BFF641CE4B2AC42C7
:10797000D7D306B0BDE8F08F2DE9FF4F83B0834623
:107980000C468A4610980BEB03010093802903D91B
:10799000C3F18001C9B2009121188146402903D961
:1079A000C0F1400101F0FF09410700D0012101EBC6
:1079B000D00002905FEA497000D0012000EBD900AE
:1079C000019000202BE0002723E00299002508FB0E
:1079D00001F005993944465C300601D5012200E0EA
:1079E000002221465846FFF7BBFE641C7006E4B235
:1079F000060EA4EB0A01494505D10BF101005446DE
:107A000000F0FF0B03E06D1CEDB2082DE4D37F1CEA
:107A1000FFB201988742D8D308F10100C0B20099A3
:107A200080468842CFD307B0BDE8F08F2DE9FC4FE8
:107A300098460B9F16460D460446C3F1800AC7F1CF
:107A400040094FF0010B16E0A24502DA0024E819C4
:107A5000C5B2A94503DA00242546FFF76BFECDE940
:107A6000007B3278434629462046FFF7E9FE04EBC7
:107A70000800C4B2761C307820385E28E4D9BDE80E
:107A8000FC8F000010B5054CC4F8B01104F5D87493
:107A9000FDF730F80120206010BD00000080214279
:107AA0002DE9F041184E0F460446F5683068001D78
:107AB00001F05EFB38B9306890F82C100120884046
:107AC000316981433161601C07D137B13168BDE84C
:107AD000F0410E48091D01F08DBB30682C44AC42CA
:107AE0004460316805D2B06BBDE8F041091D01F07A
:107AF00069BB706B091D01F065FBB06A844200D25E
:107B0000B462BDE8F0810000640400206C13002022
:107B10002DE9F041054601F079FB2E4EB068401C7E
:107B2000B06030682C4F10B1706940B32DE0356003
:107B3000B068012829D1002404EB840007EB800001
:107B400001F032FB641C082CF6D32348A03001F06E
:107B50002BFB2148B43001F027FB1F48C83001F04F
:107B600023FB1D48DC3001F01FFB1B48F03001F007
:107B70001BFB1948A03070631430B06305E0306817
:107B8000E96AC06A884200D83560706A0121401CE9
:107B90007062E86A326981401143316100EB800014
:107BA00007EB8000291D01F025FB01F07FFB7069C8
:107BB00000280CD03068E96AC06A884207D20749B9
:107BC0004FF080500860BFF34F8FBFF36F8FBDE859
:107BD000F0810000640400207C12002004ED00E02D
:107BE00010B501F013FB0E4C2068A0B90D4801F050
:107BF000DBFA0C48143001F0D7FA0A48E060143080
:107C0000206100221021052002F038F8206010B118
:107C100005A101F055FCBDE8104001F047BB000094
:107C2000A004002080130020546D72510000000059
:107C300070B5124E124D1CE001F0F6FE306820B116
:107C4000002402F0D3FCA4B901E00124F9E701F01B
:107C5000DDFAF068C468201D01F08AFAA868401EA9
:107C6000A8606868401E686001F020FB204600F0B4
:107C700052F868680028DFD170BD0000581300205A
:107C80006404002030B4026C0B46002A0BD0C1689B
:107C90001144C1604468A14201D30168C16030BC95
:107CA0001846FAF78DBC30BC70472DE9F041856B62
:107CB000174604460026026C82B1C7B1E068FAF7A5
:107CC0007FFCE168206C091AE1602268914202D2CF
:107CD0006168081AE060022F16D017E02068A8B982
:107CE000606802F0CFFB0646002060600EE0A068EE
:107CF000FAF766FC216CA0680844A06061688842BD
:107D000004D32068A06001E005B16D1E6D1CA56361
:107D10003046BDE8F08110B50446006B01F0FAFA78
:107D20002046BDE8104001F0F5BA000010484FF4BD
:107D30002051420706D0C01D0D4920F00700411A0E
:107D4000C1F520510B4A00230144C2E90003083960
:107D5000103A21F0070111604B600B600B1AC0E96B
:107D6000001393604FF000405360D06070470000F4
:107D7000A8130020D0040020FFF75AFF01F00AFAF0
:107D8000FAE700002DE9F0470E46DDE90984824656
:107D90006FF00301206B01EB82010844089D20F085
:107DA00007079946780705D040F22B3219A11E48E3
:107DB000FDF742FC00202218315C82F83410315C5F
:107DC00011B1401C1028F6D3002684F84360082D1A
:107DD00000D30725E562C4E91156201D01F0EFF933
:107DE00004F1180001F0EBF92461C5F108006462A8
:107DF000A061E66484F850604A465146384600F077
:107E000055FB2060B8F1000F01D0C8F80040BDE874
:107E1000F08700002E2E5C4672656552544F535C0D
:107E20007461736B732E63004CDE000830B511492A
:107E300000E011460A688242FBD34B685C1884421A
:107E400003D1406818444860084643681C189442AF
:107E500009D1084C103C2468A24209D052681A4447
:107E600042600A6812680260814200D0086030BD3A
:107E70000460F9E7D004002070B5002441600B4D88
:107E80000061914206D8D11A8269914206D2011D41
:107E9000286907E09A4203D2994201D3012403E002
:107EA000011DE86801F08EF9204670BDA004002095
:107EB00010B5044601F0AAF9A06B20B1002401F02E
:107EC000F5F9204610BD0124F9E700002DE9F34142
:107ED0000F4600980026846C2CB940F6CE1216A1ED
