:020000040800F2
:1000000028F1002059030008DD1400088D020008C3
:10001000851400089D0A0008F12100080000000076
:10002000000000000000000000000000A102000825
:10003000FD0C000800000000F5020008151B000878
:1000400073030008730300087303000873030008B8
:100050007303000873030008070D0008AB0D0008C8
:10006000BB0D0008CB0D0008090E0008F50A0008BA
:1000700073030008050B0008150B00087303000844
:10008000730300087D0B00087303000800000000E4
:100090000000000000000000000000001F0E00082B
:1000A0007303000873030008730300087303000858
:1000B0007303000873030008730300080D1200089F
:1000C000FD110008730300087303000873030008A0
:1000D00073030008F11F000825200008000000003D
:1000E0001F0D0008730300087303000800000000E0
:1000F0000000000000000000000000007303000882
:100100000000000073030008730300087303000875
:1001100000000000000000000000000000000000DF
:1001200073030008730300087303000873030008D7
:100130007303000800000000000000000000000041
:100140000000000000000000000000007303000831
:1001500073030008730300087303000873030008A7
:100160002D1200081D120008000000000000000011
:10017000000000000000000000000000000000007F
:1001800000000000730300080000000000000000F1
:10019000730300087303000800F002F800F067F82A
:1001A0000AA090E8000C82448344AAF10107DA45D2
:1001B00001D100F05CF8AFF2090EBAE80F0013F0BD
:1001C000010F18BFFB1A43F00103184750D300007A
:1001D00070D300000A444FF0000C10F8013B13F0FC
:1001E000070408BF10F8014B1D1108BF10F8015B90
:1001F000641E05D010F8016B641E01F8016BF9D183
:1002000013F0080F1EBF10F8014BAD1C0C1B09D1D9
:100210006D1E58BF01F801CBFAD505E014F8016B4B
:1002200001F8016B6D1EF9D59142D6D370470000DD
:100230000023002400250026103A28BF78C1FBD8EF
:10024000520728BF30C148BF0B607047642900F0D7
:10025000FF80782900F03881732900F0CF830020D7
:1002600070471FB50CF0D5FF1FBD10B510BD00F0D5
:10027000E7FB1146FFF7F5FF07F0C4F800F005FCB7
:1002800003B4FFF7F2FF03BC03F03FF81EF0040FC6
:100290000CBFEFF30880EFF3098008F0CBBA000041
:1002A0002A4B19680868B0E8F04F80F30988BFF35B
:1002B0006F8F4FF0000080F311887047000000003E
:1002C00006480068006880F3088862B661B6BFF32C
:1002D0004F8FBFF36F8F00DF00BF00BF08ED00E05E
:1002E000DFF80C00016841F470010160704700BF45
:1002F00088ED00E0EFF30980BFF36F8F134B1A68AE
:100300001EF0100F08BF20ED108A20E9F04F10609A
:1003100008B44FF0500080F31188BFF34F8FBFF344
:100320006F8F0BF0A7FC4FF0000080F3118808BC22
:1003300019680868B0E8F04F1EF0100F08BFB0EC65
:10034000108A80F30988BFF36F8F7047A0020020E6
:10035000EFF30580704700000948804709480047CF
:10036000FEE7FEE7FEE7FEE7FEE7FEE7FEE7FEE765
:10037000FEE7FEE704480549054A064B70470000C2
:10038000351B00089901000828EB002028F1002007
:1003900028ED002028ED0020704710B54C1084EAAD
:1003A000530404D54042C1F1000138BF491E1B422D
:1003B00004D55242C3F1000338BF5B1E00F018FAA7
:1003C00014F0804F04D04042C1F1000138BF491EF3
:1003D00014F0004F04D05242C3F1000338BF5B1E3B
:1003E00010BD00000FB4044910B503AA029800F034
:1003F00009FB10BC5DF814FB3000002070B50C4602
:100400000546012A05D02878800600D5EA69002330
:1004100002E0012305E05B1C934202D2E05C00286D
:10042000F9D1A869E618C01AA861286A1844286298
:100430002846AFF3008004E0D5E9012114F8010B50
:100440009047B442F8D32846AFF3008070BD000057
:100450002DE9F0410646002410687529314616A59D
:1004600010D0AFF30080002802DA404213A507E065
:1004700031688A0701D512A502E0490704D511A504
:10048000012401E0AFF3008000210A2206F12407D5
:1004900009E0B0FBF2FCB0FBF2F302FB1C003030D1
:1004A00078541846491C0028F3D123462A46304682
:1004B000BDE8F04100F01EBA000000002D00000071
:1004C0002B0000002000000070B504460D462146B8
:1004D0001068AFF300802188090502D50F4A7A44DD
:1004E00002E00E4A7A440E32002104F1240305E0B2
:1004F00000F00F060009965D5E54491C0028F7D1F4
:1005000020780023000704D5702D02D009B1022302
:1005100011322046BDE8704000F0ECB99BCE0000DF
:100520002DE9F05F894604464FF0000ADFF824B158
:10053000FB44C0F820A02046E168884700287DD011
:10054000252806D0D4E901219047206A401C20626A
:10055000F1E700255F462046E168884720280646E7
:1005600007DB312E05D2B81910F8200C08B105436D
:10057000F1E7A80701D525F00405C4F81CA0002761
:10058000C4F818A02A2E09D0304602F0B7FE38B3BE
:1005900004EB8708303EC8F8186019E059F8041BCE
:1005A000204604EB87029161E1688847012F0646E7
:1005B00018D1E069002820DA25F020051DE0D8F8E0
:1005C000180000EB800006EB40003038C8F8180037
:1005D0002046E1688847064602F090FE0028EED1EA
:1005E000012F0AD02E2E08D12046E16888477F1CB3
:1005F0000646022F45F02005C4DBA069002803DA77
:10060000404245F00105A061E80701D025F0100542
:10061000A6B1A6F14100192802D8203645F400659C
:100620004A463146204625604D46FFF70FFE60B131
:10063000012807D0ED1D25F0070000E007E000F1DC
:10064000080978E705F1040975E730467AE7206A7A
:10065000BDE8F09F71CE0000032A40F2308010F018
:10066000030C00F0158011F8013BBCF1020F62444D
:1006700098BF11F801CB00F8013B38BF11F8013BDE
:10068000A2F1040298BF00F801CB38BF00F8013B8B
:1006900011F0030300F02580083AC0F0088051F8FB
:1006A000043B083A51F804CBA0E80810F5E7121D06
:1006B0005CBF51F8043B40F8043BAFF30080D20725
:1006C00024BF11F8013B11F801CB48BF11F8012BF1
:1006D00024BF00F8013B00F801CB48BF00F8012B14
:1006E000704710B5203AC0F00B80B1E81850203A9E
:1006F000A0E81850B1E81850A0E81850BFF4F5AFC2
:100700005FEA027C24BFB1E81850A0E8185044BF4B
:1007100018C918C0BDE810405FEA827C24BF51F8B8
:10072000043B40F8043B08BF7047D20728BF31F8AC
:10073000023B48BF11F8012B28BF20F8023B48BFFD
:1007400000F8012B704702F0FF0343EA032242EA5C
:10075000024200F002B84FF000020429C0F01280FB
:1007600010F0030C00F01B80CCF1040CBCF1020F64
:1007700018BF00F8012BA8BF20F8022BA1EB0C0139
:1007800000F00DB85FEAC17C24BF00F8012B00F82F
:10079000012B48BF00F8012B70474FF0000200B555
:1007A000134694469646203922BFA0E80C50A0E894
:1007B0000C50B1F12001BFF4F7AF090728BFA0E842
:1007C0000C5048BF0CC05DF804EB890028BF40F80E
:1007D000042B08BF704748BF20F8022B11F0804F50
:1007E00018BF00F8012B704770477047704770477B
:1007F00053EA020C00F069802DE9F04B4FF000063F
:10080000002B1FBFB3FA83F503FA05F424FA05F6AB
:100810005E4012BF1643B2FA82F502FA05F4C5F142
:1008200020051EBF22FA05FC44EA0C04203556EAD6
:10083000044C4FEA144418BF641C4FF000084FF0FA
:100840000009904271EB030C39D3002919BFB1FAAA
:1008500081F701FA07F6B0FA80F700FA07F6C7F158
:1008600020071EBF20FA07FC46EA0C062037B6FB1D
:10087000F4FCA7EB0507103F07F01F0BCBF1200698
:100880000CFA0BFB2CFA06F644BFB3460026202FC9
:10089000A4BF5E464FF0000B5BEA060C08BF4FF0AA
:1008A000010B19EB0B09ABFB027C48EB0608C01BE4
:1008B00006FB02CC0BFB03CC71EB0C01C1E70B4632
:1008C000024641464846BDE8F08B13B54FF00000A4
:1008D0004FF00001AFF30080BDE81C40704710B539
:1008E00000F0A2F8006810BD10B5044600F09CF8B6
:1008F000046010BD2DE9F0470D4699469246044626
:1009000000F124080168880604D5E06921F010018F
:10091000216000E00120A84201DD471B00E0002724
:10092000A1697A1902EB0900081AA0612078C006B3
:1009300002D42046AFF30080002608E0D4E901216C
:100940001AF806009047206A401C761C20624E452B
:10095000F4DB2078C0060AD52046AFF3008006E01D
:10096000D4E9012130209047206A401C2062381EC3
:10097000A7F10107F4DC07E0D4E9012118F805002C
:100980009047206A401C2062281EA5F10105F3DC77
:100990002046AFF300802078000602D50220BDE893
:1009A000F0870120FBE7000001694A1C026108781A
:1009B000704700B58FB0CDE901310021059105499F
:1009C0007944CDE9031011466846FFF7A9FD0FB041
:1009D00000BD0000E5FFFFFF10B5436913B1AFF3A1
:1009E000008001E0FFF70AFD012010BD127800F140
:1009F00024010A7000224A700122EDE711684FF0CD
:100A0000FF32E9E7074B70B50D467B44FFF7D1FF96
:100A10000446284600F00CF810B14FF0FF3070BDCE
:100A2000204670BD4B54000000487047C8EA0020C3
:100A3000007B00F08000704700487047C8EA002043
:100A40007546FFF7F9FFAE4605006946534620F0AC
:100A50000700854618B020B5FFF78CFCBDE82040A4
:100A60004FF000064FF000074FF000084FF0000B6A
:100A700021F00701AC46ACE8C009ACE8C009ACE81D
:100A8000C009ACE8C0098D46704710B50446AFF305
:100A900000802046BDE81040FFF7F2BB0021084669
:100AA00006F06CFD0021012006F068FD0021022007
:100AB00006F064FD0021032006F060FD06F046FA12
:100AC0000121022006F0A0FA0121042006F09CFA80
:100AD000C02102A00AF0FEFA00BFFEE72E2E5C48FD
:100AE000415244574152455C7372635C6E76696350
:100AF0002E63000010B5024805F029FB10BD000070
:100B00000C01002010B5024805F021FB10BD0000CB
:100B10007001002008B50020009000221021134829
:100B200000F0A0F84FF0C051104800F045F84FF029
:100B3000C0510E4800F026F8002201210C4800F0B8
:100B40000DFE0021094800F051F869460948006887
:100B50000BF03AFC009838B14FF08050064908601D
:100B6000BFF34F8FBFF36F8F08BD00005860024086
:100B7000003800406402002004ED00E010B50AF0E7
:100B800097FB10BD0246094B9A4201D2084801E08A
:100B90000648103801F000531BB1064B0B40C360F0
:100BA00002E0044B0B408360704700001064024079
:100BB000006002407D0F7D0F0246094B9A4201D230
:100BC000084801E00648103801F000531BB1064BFD
:100BD0000B40C36002E0044B0B4083607047000091
:100BE00010640240006002407D0F7D0F21B1026859
:100BF00042F00102026003E0026822F0010202609A
:100C00007047014600200A6802F001020AB1012083
:100C100000E0002070470146486880B2704700003D
:100C200030B503460A46002000240B4DAB4201D2EA
:100C30000A4901E00849103902F000550DB14C682D
:100C400000E00C68064D2C4004EA02050DB10120BD
:100C500000E0002030BD000010640240006002404F
:100C60007D0F7D0F10B501F080034BB122B14369B8
:100C700043F08003436103E0436923F08003436151
:100C800080290BD02AB1036801F01E0423430360BE
:100C900004E0036801F01E04A343036010BD0000DC
:100CA00010B500220268134B1A40CC680B6823432E
:100CB0004C6923438C692343CC6923430C6A234347
:100CC0004C6A23438C6A23434C6B23438C6B234332
:100CD0001A430260426922F00702D1E90B34234330
:100CE0001A4342610B6943604B6883608B68C36041
:100CF00010BD00003F801CF041607047704710B588
:100D00000AF0E8FC10BD10B5012000F0C5F8FFF7AF
:100D1000F6FF10BD7047704770477047704710B5B9
:100D20004FF4806000F0BEF8012804D1800200F08A
:100D3000B3F8FFF7EFFF4FF4006000F0B3F80128BD
:100D400004D1C00200F0A8F8FFF7E5FF4FF480508F
:100D500000F0A8F8012804D1000300F09DF8FFF787
:100D6000DBFF4FF4005000F09DF8012804D1400350
:100D700000F092F8FFF7D1FF4FF4804000F092F8B6
:100D8000012804D1800300F087F8FFF7C7FF4FF474
:100D9000004000F087F8012804D1C00300F07CF87F
:100DA00000F001F810BD7047704710B5022000F048
:100DB00073F8FFF7F9FF10BD704710B5042000F07D
:100DC0006BF8FFF7F9FF10BD704710B5082000F071
:100DD00063F8FFF7F9FF10BD08B5002000906946E1
:100DE000074800680BF0F0FA009838B14FF08050D7
:100DF00004490860BFF34F8FBFF36F8F08BD000039
:100E00006405002004ED00E010B5102000F044F867
:100E1000FFF7E2FF10BD704770477047704710B58D
:100E2000202000F03FF8012804D1202000F034F801
:100E3000FFF7F1FF402000F035F8012804D14020F1
:100E400000F02AF8FFF7E8FF802000F02BF80128D7
:100E500004D1802000F020F8FFF7DFFF4FF480700E
:100E600000F020F8012804D1000200F015F8FFF787
:100E7000D5FF4FF4007000F015F8012804D14002AE
:100E800000F00AF800F001F810BD70470149086051
:100E900070470000143C01400149086070470000A1
:100EA000143C014001460020034A12680A400AB17E
:100EB000012000E000207047143C0140002123493C
:100EC0008279002A3AD00A46126803689A430B4690
:100ED0001A600A1D126803689A430B1D1A60027992
:100EE00011440A6803681A430A60184A08321268F3
:100EF00003689A43154B08331A601A1D1268036879
:100F00009A43124B0C331A604279102A0ED11A1FE1
:100F1000126803681A430D4B08331A601A1D1268D1
:100F200003681A43094B0C331A600DE007494279F4
:100F300011440A6803681A430A6005E00279114403
:100F40000A6803689A430A6070470000003C014049
:100F500030B10749096841F48061054A116005E034
:100F60000349096821F48061014A1160704700005B
:100F7000003C024070B504460A460026092502B925
:100F800009E0012A01D1160205E0022A01D1160268
:100F900001E04FF4407600F09FF80546092D28D176
:100FA0001548006820F4407013490860084600683E
:100FB000304308600846006820F0F80008600846E2
:100FC000006844F0020108430B49086008460068C5
:100FD00040F48030086000F07FF80546064800685D
:100FE00020F00200044908600846006820F0F8007C
:100FF0000860284670BD0000103C024009201349DB
:10100000096801F48031B1F5803F01D101201CE075
:101010000E49096801F0100109B1062015E00B49DD
:10102000096801F4807109B102200EE007490968DE
:1010300001F0EF0109B1072007E00449096801F058
:10104000020109B1082000E0092070470C3C024071
:101050000348006840F00040014908607047000004
:10106000103C024030B502460C46092500F034F829
:101070000546092D19D10E48006820F440700C492E
:1010800008600846006840F4007008600846006880
:1010900040F001000860146000F01EF805460448A6
:1010A000006820F0010002490860284630BD0000B9
:1010B000103C02400548006800F0004028B1044898
:1010C00002490C390860034808607047103C024030
:1010D00023016745AB89EFCD08B509200090FFF7E4
:1010E0008DFF009002E0FFF789FF00909DF800005F
:1010F0000128F8D09DF8000008BDF0B50A4600218F
:101100000023002400BF3DE0012505FA01F3156826
:1011100005EA03049C4234D105684F000326BE4013
:10112000B543056015794E00B54006683543056046
:101130001579012D02D01579022D16D185684F0041
:101140000326BE40B543856055794E00B54086689C
:1011500035438560456801268E40B5434560456846
:1011600096798E40B6B235434560C5684F00032678
:10117000BE40B543C560D5794E00B540C66835431D
:10118000C560491C1029BFD3F0BDF0B50023002471
:101190004D07ED0E02FA05F3CE1000F1200555F8CB
:1011A00026504E07F70E0F26BE40B543CF1000F174
:1011B000200646F82750CE1000F1200555F826509D
:1011C00045EA0304CE1000F1200545F82640F0BDA5
:1011D0000246002013690B400BB1012000E0002003
:1011E000704741837047018370474FF6FF7101607C
:1011F0000021017141718171C171704710B50248C0
:1012000004F0FEFF10BD00000C01002010B50248E4
:1012100005F040F810BD00000C01002010B5024898
:1012200004F0EEFF10BD00007001002010B5024870
:1012300005F030F810BD00007001002021B10288D7
:1012400042F48062028004E002884FF6FF331A40C5
:1012500002807047002221F07F42D343838270478F
:1012600021B1828842F40062828004E082884FF2D9
:10127000FF731A408280704721B1828842F4805205
:10128000828004E082884EF6FF731A4082807047A5
:1012900010B504461348844209D10121480500F0E5
:1012A0009FF900214FF4001000F09AF918E00E4861
:1012B000844209D10121880500F092F900214FF400
:1012C000800000F08DF90BE00848844208D101212C
:1012D000C80500F085F900214FF4000000F080F906
:1012E00010BD00000054004000580040005C004069
:1012F0000CB50246002000230193009300920B0FCF
:10130000019321F07F41019B1BB1009B143300939B
:1013100003E0090C009B18330093009B1B680B40F3
:101320000BB1012000E000200CBD1AB183880B43F3
:10133000838002E083888B43838070472DE9FF47D9
:1013400004460D460026B1460427DFF8CC80A68867
:101350004FF6C0700640684600F06CF9DDF8088072
:101360002E48B8FBF0F01FFA80F946EA0906A6807D
:1013700020884FF6FE710840208000262849286802
:1013800088420CD828684000B8FBF0F087B2042FE0
:1013900000DA04273E4309F10100208427E0E888B1
:1013A0004BF6FF71884206D1286800EB4000B8FB7D
:1013B000F0F087B209E0286800EBC00101EB0010F3
:1013C000B8FBF0F087B247F48047C7F30B0008B9C9
:1013D00047F0010747F4004006434FF4967009FBBD
:1013E00000F04FF47A7190FBF1F0401C2084A6834A
:1013F000208840F00100208026884FF6F530064016
:10140000A8886989084306432680A8892989084352
:101410002081BDE8FF87000000127A0040420F00E3
:10142000A08601000146088AC0B2704712B141F09F
:10143000010101E001F0FE01018270470182704765
:101440004CF6CC4001490860704700000030004075
:101450004AF6AA20014908607047000000300040A9
:101460000149486070470000003000400149886031
:1014700070470000003000400149086070470000DC
:10148000003000400021084606F078F800210120D5
:1014900006F074F80021022006F070F80021032005
:1014A00006F06CF805F052FD0121022005F0ACFDBC
:1014B0000121042005F0A8FDAC2102A009F00AFEDC
:1014C00000BFFEE72E2E5C48415244574152455C16
:1014D0007372635C6E7669632E6300007047000070
:1014E00070B5002100230F22C4781CB3174C246868
:1014F00004F4E064C4F5E064C4F30721C1F104041A
:10150000E3B20A4144789C40E1B28478144021431C
:101510000C07210E0E4C05786155047804F01F0568
:101520000124AC4005786D11AD0005F1E025C5F84A
:10153000004109E0047804F01F050124AC40054D8A
:101540000678761145F8264070BD00000CED00E0ED
:1015500000E400E080E100E002490143024A11603A
:10156000704700000000FA050CED00E0024A0A4056
:101570000243024B1A60704780FFFF1F08ED00E036
:1015800029B1064A12680243044B1A6004E0034A78
:1015900012688243014B1A607047000030380240E5
:1015A00029B1064A12680243044B1A6004E0034A58
:1015B00012688243014B1A607047000034380240C1
:1015C00029B1064A12680243044B1A6004E0034A38
:1015D00012688243014B1A60704700004038024095
:1015E00029B1064A12680243044B1A6004E0034A18
:1015F00012688243014B1A60704700002038024095
:1016000029B1064A12680243044B1A6004E0034AF7
:1016100012688243014B1A60704700002438024070
:101620000348006840F0807001490860704700007E
:1016300074380240F0B50021002200240225002663
:101640000223324F3F6807F00C0121B1042905D075
:10165000082937D105E02E4F076036E02D4F07608F
:1016600033E02A4F3F1F3F68C7F38056274F3F1F85
:101670003F6807F03F036EB1264FB7FBF3F7DFF883
:101680008CC0ACF1040CDCF800C0CCF3881C07FB68
:101690000CF40CE01E4FB7FBF3F7DFF870C0ACF1B1
:1016A000040CDCF800C0CCF3881C07FB0CF4174FCB
:1016B0003F1F3F68C7F301477F1C7D00B4FBF5F770
:1016C000076002E0124F076000BF00BF0F4F3F6886
:1016D00007F0F0010909104F7A5C0768D7404760AE
:1016E0000A4F3F6807F4E051890A0B4F7A5C47685C
:1016F000D7408760054F3F6807F46041490B064FAC
:101700007A5C4768D740C760F0BD000008380240E7
:101710000024F40000127A009002002010B5014667
:101720000022002300204A11012A02D10A4C23681A
:1017300008E0022A03D1084C7034236802E0064C0A
:101740007434236801F01F02012494401C400CB142
:10175000012000E0002010BD003802401AB183884B
:101760000B43838002E083888B43838070470000B3
:1017700038B50446002000901C48007808B10120CC
:1017800038BD1B48046076201A490870322003F0E7
:1017900013FE6B460D22174801781548006804F0C7
:1017A0001CFC9DF80000102805D19DF8001012A027
:1017B000FEF718FE01E00020E2E709F0B1F806228A
:1017C0000421002009F008FA06220421012009F072
:1017D00003FA07230822074801780548006804F047
:1017E0007CFC01200149087000BFC9E77402002099
:1017F000700200206C02002053504C3036204944C7
:101800002049533A20307825580A000010B52DEDB4
:10181000028BB0EE408AB5EEC08AF1EE10FA16D017
:101820009FED0C0AC0EE080AF0EE608ADFED0A0AAE
:10183000B0EE680A00F0BAFFF7EE000A30EE600A78
:10184000DFED060A20EE200ABDEC028B10BD9FEDF5
:10185000040AF9E7CDEC7D44B1DC423E002A2D4775
:101860000000000001461C48814201D20020704760
:101870001A48814201D20820F9E71948814201D271
:101880001020F4E71748814201D21820EFE71648EC
:10189000814201D22020EAE71448814201D2282067
:1018A000E5E71348814201D23020E0E71148814248
:1018B00001D23820DBE71048814201D24020D6E730
:1018C0000E48814201D24820D1E70D48814201D221
:1018D0005020CCE75820CAE70040000800800008EC
:1018E00000C0000800000108000002080000040811
:1018F000000006080000080800000A0800000C08A4
:1019000000000E0830B503460C461546002206E0DE
:10191000184600F007F844F822001B1D521CAA428A
:10192000F6D330BD01460868704700002DE9F04746
:1019300004460E4617464FF009080025A946B4F1A3
:10194000006F02D304F0030008B1BDE8F087FFF791
:10195000B1FB0020FFF7FCFA254604EB8709184885
:10196000854215D211E02846FFF7DCFF401C58B134
:101970002846FFF777FF82460221FFF7FBFA8046F1
:10198000B8F1090F01D002E02D1D4D45EBD300BF8A
:10199000B8F1090F0CD108E020463168FFF762FB6F
:1019A000092800D003E0241D361D4C45F4D300BFA8
:1019B0000120FFF7CDFAFFF74BFB00BFC5E70000A2
:1019C0000000FF1F30B500228B071C0F0F2303FA06
:1019D00004F20B4B8C1053F824309343084C8D10B9
:1019E00044F8253023468C1053F824308C07240FFC
:1019F00000FA04F42343024C8D1044F8253030BD26
:101A0000083801400CB50020019000903348006870
:101A100040F480303149086000BF3048006800F46D
:101A2000003000900198401C0190009818B901986E
:101A3000B0F5A04FF1D12948006800F4003010B192
:101A40000120009001E0002000900098012844D17E
:101A500022484030006840F0805020494031086002
:101A60001F48006840F440401D4908601B4808308A
:101A700000681A490831086008460068086008468E
:101A8000006840F4805008601648091F0860081F6D
:101A9000006840F08070091F086000BF0F480068B0
:101AA00000F000700028F9D040F202700E49086082
:101AB0000A480830006820F003000849083108602F
:101AC0000846006840F00200086000BF0348083084
:101AD000006800F00C000828F8D10CBD0038024066
:101AE0000070004008304004003C0240042808D147
:101AF0004FF0E021096941F004014FF0E02211614B
:101B000007E04FF0E021096921F004014FF0E022E5
:101B10001161704710B50AF03DFD012802D00AF0AE
:101B200033FA04E002480068401C0149086010BD17
:101B30002402002010B51548006840F470001349D5
:101B400008601348006840F0010011490860002057
:101B50000F49083108600E4800680E4908400C49DA
:101B600008600D48091D0860081F006820F48020E7
:101B7000091F0860002006490C310860FFF742FF8A
:101B80004FF0006001498039086010BD88ED00E029
:101B900000380240FFFFF6FE1030002421B1028819
:101BA00042F08002028004E002884FF67F731A4000
:101BB0000280704721B1028842F00102028004E0F5
:101BC00002884FF6FE731A400280704710B5044633
:101BD0005548844208D101210846FFF711FD002134
:101BE0000120FFF70DFD9DE0B4F1804F08D10121E8
:101BF0000846FFF7F5FC00210120FFF7F1FC91E01A
:101C00004A48844208D101210220FFF7E9FC002163
:101C10000220FFF7E5FC85E04548844208D1012118
:101C20000420FFF7DDFC00210420FFF7D9FC79E058
:101C30004048844208D101210820FFF7D1FC00214F
:101C40000820FFF7CDFC6DE03B48844208D101211C
:101C50001020FFF7C5FC00211020FFF7C1FC61E058
:101C60003648844208D101212020FFF7B9FC002129
:101C70002020FFF7B5FC55E03148844208D101210E
:101C80000220FFF7BDFC00210220FFF7B9FC49E06C
:101C90002C48844209D101210804FFF7B1FC00213E
:101CA0004FF48030FFF7ACFC3CE02748844209D178
:101CB00001214804FFF7A4FC00214FF40030FFF796
:101CC0009FFC2FE02148844209D101218804FFF7BD
:101CD00097FC00214FF48020FFF792FC22E01C4883
:101CE000844208D101214020FFF77AFC00214020E6
:101CF000FFF776FC16E01748844208D101218020C6
:101D0000FFF76EFC00218020FFF76AFC0AE0124812
:101D1000844207D101218015FFF762FC0021A01544
:101D2000FFF75EFC10BD0000000001400004004011
:101D300000080040000C004000100040001400406B
:101D400000040140004001400044014000480140BF
:101D500000180040001C00400020004070B5002426
:101D600000220023058C4FF6FE7635400584028C58
:101D70008388048B4FF68F752C40B51E2C400D8840
:101D80002C43751E2A408D892A434D882A43104DC5
:101D9000A84202D00F4DA84213D14FF6F7752A4042
:101DA000CD892A434FF6FB752A408D882A434FF68A
:101DB000FF652B404FF6FF552B400D8A2B434D8A74
:101DC0002B43838004838D684563028470BD0000CB
:101DD00000000140000401400A460021018B4FF63B
:101DE000F7731940114301837047000070B5002458
:101DF00000220023058C4FF6EF7635400584028CD7
:101E00008388048B48F6FF752C404FF6FF452C4025
:101E10000D884FF6FF7606EA05252C434FF6DF7551
:101E20002A408D8906EA05152A434D8806EA0515DC
:101E30002A43154DA84202D0144DA8421DD14FF699
:101E40007F752A40CD894FF6FF7606EA05152A43AD
:101E50004FF6BF752A408D8806EA05152A434FF6CE
:101E6000FF352B404FF2FF752B400D8A06EA8505A2
:101E70002B434D8A06EA85052B43838004838D68B6
:101E80008563028470BD0000000001400004014031
:101E90000A460021018B4FF2FF7319404FF6FF7382
:101EA00003EA0223194301837047000070B5002440
:101EB00000220023058C4FF6FF6635400584028C16
:101EC0008388848B4FF68F752C404FF6FC752C4021
:101ED0000D882C434FF6FF552A408D894FF6FF762B
:101EE00006EA05252A434D8806EA05252A43154DAD
:101EF000A84202D0144DA8421DD14FF2FF752A40CE
:101F0000CD894FF6FF7606EA05252A434FF6FF35C1
:101F10002A408D8806EA05252A434EF6FF752B4098
:101F20004DF6FF752B400D8A06EA05152B434D8AA9
:101F300006EA05152B43838084838D68C56302847C
:101F400070BD000000000140000401400A4600216D
:101F5000818B4FF6F77319401143818370474163BA
:101F6000704781637047C163704700000022028898
:101F7000184B98420ED0184B98420BD0B0F1804FBE
:101F800008D0164B984205D0154B984202D0154BFD
:101F9000984204D14FF68F731A404B881A43124B64
:101FA000984207D0114B984204D04FF6FF431A4095
:101FB0000B891A4302804B68C3620B880385054B6B
:101FC000984202D0044B984201D18B7A03860123B8
:101FD000838270470000014000040140000400407B
:101FE00000080040000C00400010004000140040B9
:101FF0001CB50020009040F22551084800F034F84C
:1020000058B1064800F0EAF8C0B2019000236A46D1
:1020100001A9034800680AF089F91CBD00100140BD
:102020005002002010B509F05BFA10BD01F40072F7
:10203000B2F5007F00D100BFCA430280704721B1D2
:10204000828942F40052828104E082894DF6FF7356
:102050001A40828170471AB1838A0B43838202E05F
:10206000838A8B438382704770B502460024002325
:102070000025002040F66A16B14200D100BFC1F32E
:10208000421501F01F03012606FA03F3012D02D1C8
:102090009689334006E0022D02D1168A334001E0D2
:1020A000968A33400C12012606FA04F4168834404E
:1020B00013B10CB1012000E0002070BDF0B5034663
:1020C000002400260025002040F66A17B94200D1FE
:1020D00000BF1846C1F3421401F01F06012707FA9A
:1020E00006F5012C01D10C3004E0022C01D1103096
:1020F00000E014301AB107682F43076002E0076858
:10210000AF430760F0BD00002DE9FF4705460E46CE
:102110000024A14600BFA046B08900B100BF2C8AB0
:1021200024F44054F08804432C82AC8941F20C60C2
:102130008443B08831890843718908430443AC81E2
:10214000AC8A24F44074B0890443AC826846FFF73B
:1021500071FA2048854202D01F48854202D1DDF83D
:102160000C9001E0DDF80890A88900F4004040B12F
:1021700009EBC90000EB091031684900B0FBF1F729
:1021800007E009EBC90000EB091031688900B0FBDA
:10219000F1F76420B7FBF0F004012009642101FB92
:1021A0001078A88900F4004040B1322000EBC8004C
:1021B000B0FBF1F000F00700044308E0322000EB30
:1021C00008106421B0FBF1F000F00F0004432C81F3
:1021D000BDE8FF87001001400014014001468888D7
:1021E000C0F308007047C1F3080282807047000006
:1021F0000021084605F0C2F90021012005F0BEF9D2
:102200000021022005F0BAF90021032005F0B6F9FB
:1022100004F09CFE0121022004F0F6FE01210420BE
:1022200004F0F2FED42102A008F054FF00BFFEE744
:102230002E2E5C48415244574152455C7372635C98
:102240006E7669632E6300004100080218BF042007
:102250000A0E18BF40F001004FF07F4232EA010140
:1022600008BF40F00200012808BF052070470000A9
:1022700010B54FF00E402DED028BB0EE408A18EEF7
:10228000104A00EB4400B0F1506F4AD84FF0FC40C8
:10229000B0EB440F22D2B0EEC80AF7EE000A30EEDF
:1022A000C00AF6EE000A60EE208A18EE900A08F0E6
:1022B000F1FC01EE100A14F0004F1DBFDFED2D0AF6
:1022C0009FED2D0AB1EE411ADFED2C0A08BF9FEDFC
:1022D0002C0AF8EE001A21EE218A05E0DFED290A2A
:1022E00068EE088AB0EE600A9FED271ADFED271A24
:1022F00030EE080A48EE811A9FED251A08EEA11A61
:10230000DFED241A48EE811A9FED231A08EEA11A78
:1023100068EE281ABDEC028B01EE810A30EE200A2D
:1023200010BD4FF0E440B0EB440F0CD918EE100A8A
:10233000FFF78AFF042808BF00F02EFFB0EE480A1E
:10234000BDEC028B10BD4FF07F40B0EB440F07D2C5
:10235000B0EE480ABDEC028BBDE8104000F006BFAD
:102360000120FEF7C1FABDEC028BBDE8104000F081
:1023700003BF00000000C9BF22AAFDB90000C93F89
:1023800022AAFD390000000024FE1C3DC78AD83C6B
:102390001E67383D1B93993DAFAA2A3E70B54FF09A
:1023A00068422DED048BF0EE408A18EE900AB0EEF4
:1023B000608A18EE101A02EB4003B3F1654F3CBF80
:1023C00002EB4102B2F1654F7DD200BFC0F3C753AB
:1023D000C1F3C7529A1A1B2A09DD10F0004F14BF2F
:1023E0009FED830A9FED830ABDEC048B70BD12F153
:1023F0001A0F36DA11F0004F09D010F0004F0CBF61
:102400009FED7D0A9FED7D0ABDEC048B70BD88EECB
:10241000889A19EE100AFFF717FF042808BF00F08A
:10242000BBFE18EE900AFFF70FFF054618EE100AE4
:10243000FFF70AFF044619EE100AFFF705FF042D07
:1024400018BF052D08D1042C18BF052C04D1002875
:1024500004BF0220FEF748FAB0EE490ABDEC048B37
:1024600070BD4200B2EB410F3AD910F0004F19BFD6
:10247000DFED630A9FED630ADFED630A9FED630AF8
:10248000B0EE481A0A46B1EE688A80F00041F0EEDC
:10249000418A10460A1A5200B2F1807F34D2484075
:1024A00010F0004FDFED5A1A9FED5A2A1DBFBEEE05
:1024B000001A70EEE10A30EE420AB6EE001A08BFCA
:1024C00070EEA10A00E040E008BF30EE020AB0EE74
:1024D000682A01EE482A08EE818AC2EE081A15E041
:1024E00011F0004F04BF9FED4C0AF0EE400AD1D02E
:1024F00010F0004F19BFDFED490A9FED490ADFEDEB
:10250000490A9FED490AC5E7C8EE881A21EEA11ACB
:102510009FED462ADFED462A41EE022A9FED452A2D
:1025200001EE222ADFED442A41EE022A9FED432AE2
:10253000BDEC048B01EE222A21EE811A01EE020A83
:1025400030EE210A30EE200A70BD4FF07F42B2EB30
:10255000400F28BFB2EB410F09D2F0EE480AB0EEAF
:10256000680ABDEC048BBDE8704000F002BE40EA92
:1025700001035B0008BF41F0FF410BD0B2EB400FFD
:1025800008BFB2EB410F08D120F0804008EE900A5E
:1025900021F0804108EE101A18E7B2EB400F12BF8D
:1025A0005FEA410340F0FF4001F000413FF40EAF0D
:1025B000B2EB410F12BF5FEA400200F0004041F071
:1025C000FF413FF403AF4A0092EA40033FF5FEAEFD
:1025D000002AACBF9FED1A0A9FED1A0A68EE808AA6
:1025E00028EE008A18EE900A18EE101AEEE60000A7
:1025F000DB0FC9BFDB0FC93FDB0F4940DB0F49C011
:102600000000C9BF22AAFDB90000C93F22AAFD39B6
:102610000060ED3EC30ACE3700000000000049C054
:1026200022AA7DBA0000494022AA7D3A2DAD65BD9F
:102630008FB8D53D0FB511BE61C84C3EA8AAAABE41
:102640000000804F0000802F10EE101A08B5444A99
:102650006846B2EB410F28D94FF0E640B0EB410F8E
:1026600094BF00204FF0FF3000900098002861DBFD
:1026700060EE000A10F0010F45D010F0020FDFED00
:10268000391A9FED391A00EEE11ADFED381A40EEE3
:10269000811A21EEA01AF0EE400A40EE010A08BFAE
:1026A000F1EE600AB0EE600A08BD314B21F0004245
:1026B00093423CD911F0004FDFED2E0A20EE201A94
:1026C000DFED2D0A19BF31EE601A71EE200A31EEEE
:1026D000201A71EE600ABDEEE01A11EE100A9FEDAD
:1026E000271A00F0030000EEC10A9FED251A0090A2
:1026F00000EEC10A9FED231A00EEC10A9FED221AD7
:1027000000EEC10AB1E79FED211A9FED210A10F0FA
:10271000020F00EE810A9FED1F1A00EE801AB7EE3D
:10272000000A00EE810A18BFB1EE400A08BD00F0B1
:102730003BFD9AE710EE100A4000B0F17F4F3CBF1E
:10274000B7EE000A08BD07D14FF00100FEF7CCF844
:10275000BDE8084000F010BDBDE8084000F006BD2F
:10276000B61F927E336D4C39DA82083CA0AA2ABE8D
:10277000490E494683F9223F0000004B0000C93F43
:1027800000A0FD390020A2331A61342CB93AB2BA44
:10279000CA9F2A3DDDFFFFBE2DED020B019820F000
:1027A000004001909DED000B02B0704710B510EE97
:1027B000100A2DED068BB7EE001A10EE901AB0EE4F
:1027C000418A0022A0F5000CDFEDFE9A4FF0007365
:1027D000BCF1FE4F4FF07F4403EB410C80F0B4811D
:1027E000BCF1804FC0F02082F74901449FEDF73AD9
:1027F000B1F5005F40F2D48200F58021CB0C03F0EC
:102800000F0101EE901AC3F307137F3BA0EBC350F7
:10281000B8EEE12A00EE100A1A44DFEDED2AF0EEE0
:10282000411A42EE221AF0EE613A70EE232A30EE9F
:10283000632A12EE900A00F500606FF30B0001EEC0
:10284000900A73EEE13A33EE804AC1EE223A22EE6C
:10285000230A10EE100A00F500606FF30B0000EE83
:10286000100A00EE612A00EE442A62EE232A70EE7E
:10287000221A21EEA12ADFEDD73A02EE233A23EE07
:10288000023A20EE012A22EE811A03EE211A32EEDC
:10289000010A10EE100A00F500606FF30B0000EE65
:1028A000100A72EE401A31EE812A9FEDCB1A60EECB
:1028B000011A9FEDCA1A20EE011A9FEDC90A02EE15
:1028C000001A31EE810A10EE100A00F500606FF375
:1028D0000B0000EE100AC34871EEC01A31EE812AD7
:1028E000784400EBC10090ED003AD0ED011A1001E0
:1028F00001EE100AF8EEC12A32EE211A31EE001A6A
:1029000031EE031A31EE221A11EE100A00F50060C2
:102910006FF30B0009EE100A39EE621A31EE431A1A
:1029200031EE400A30EE610A32EE40AA10EE900A13
:10293000002100F500606FF30B0008EE900A0846D6
:1029400070EEE8AA4FF0000029EE280A00F00C0112
:10295000F0EEC00A10EE900AB0F18B4F0DDD10EED4
:10296000900AB4EB400F08D310EE100A4FF08B42E0
:1029700062F31E0008EE900A13E069EE2A0A38EEB0
:10298000AA1A4AEE010A30EE201A11EE100A00F5DA
:1029900000606FF30B0008EE900A30EE680A70EEEC
:1029A000209A0C204FF0000038EEA90AB5EEC00ABC
:1029B000F1EE10FA34BFFEEE000AF6EE000A30EE39
:1029C000800ABDEEC00A10EE100A011100EE101AC6
:1029D000F8EEC00A00EE100AB8EEC00A38EEC00ADF
:1029E00030EE290ADFED801A9FED801A00EE211AE1
:1029F000DFED7F1A7F4900F00F0040EE011A21EE53
:102A0000800A794401EB800191ED001A7A497944FA
:102A100001EB8001D1ED001A784901EE801A79446A
:102A200001EB8000764990ED000A31EE001AB0EE1D
:102A3000E00A10EE100A884215DA10EE100AB4EB24
:102A4000400F10D39FED6F0A30EE800ADFED6E0A63
:102A500020EE200A68EE010ABDEC068BBCEEC00A2F
:102A600020EE200A10BD10EE100A6849884243DAB1
:102A700010EE100AB4EB400F3ED3BDEEE00A68EE54
:102A8000010A10EE100A00EBD0725110C90501F1D5
:102A90007E5100EE101AA0EB6200C00560EE200A25
:102AA00000F17E5000EE100A60EE808A18EE900A67
:102AB000B4EB400F0FD10220FDF716FF00F064FBCE
:102AC00010EE101A18EE100ABDEC068B61F31E0012
:102AD00000EE100A10BD18EE900A400011D018EE5A
:102AE000900AFFF7B1FB042808BF00F055FBB0EED9
:102AF000680ABDEC068B10BDF5EEC00AF1EE10FAC7
:102B00000FD20220FDF7F0FE00F046FB10EE101A87
:102B100018EE100ABDEC068B61F31E0000EE100AE1
:102B200010BD0220FDF7E0FE00F02EFB10EE101AA3
:102B3000B0EE480A10EE100ABDEC068B61F31E00E1
:102B400000EE100A10BD00BFBCF1804F6CD300BF77
:102B500000F1FF43B3F1FE4F24D200BFB0EEC00A34
:102B600010EE100AC1F3C7537F2B0DDB972BBFF676
:102B70003BAEC3F196034FF0010C0CFA03F3A3F143
:102B8000010C1CEA010F08D00120FDF7ADFEBDECE1
:102B9000068BBDE8104000F0EFBA0B4218BFBFEE45
:102BA000008A21E643001CBF4FF08073B3EB400F57
:102BB00034D96FF01A02DFED161A20EE210A10EE5A
:102BC000100A27E000000000001080C0ABAAAA3E57
:102BD0000000803D7EE24C3E00B03842D49AB8BB43
:102BE0003BAA3842D4AA0000FC596337C9FF753AA2
:102BF0001872313D72AA0000A6AA000016AA0000B1
:102C00000000FC420000FE420000004B0000404378
:102C10000000004D10F0004FA0D1E5E5A0F5000345
:102C2000B3F1FE4F21D2DFE503EB4103B3F1007FA7
:102C300011D3F5EEC00AF1EE10FA05D1430018BF2A
:102C4000B4EB400F76D883E701F0004141F0FC512E
:102C500000EE901A7CE7B3F1807F06D210EE903A36
:102C6000A3F5000300EE903A72E720F000426FF007
:102C7000FF4C604C02EB0C03A34210D321F0004345
:102C80009C44A4450BD3B0F17E5F18BF5FEA410CB2
:102C900050D0B2F1FF4F98BFB3F1FF4F05D9BDEC53
:102CA000068BBDE8104000F064BAB0F1FF4F0FD0C2
:102CB000C1F3C7527F2A09DB972A11DAC2F19602C3
:102CC000012303FA02F2531E0B4205D0002208E052
:102CD00011F0004F55D128E00A4218BF012200D15F
:102CE000022210F5000F13D028B3B0F1004F26D008
:102CF00010F1814F4FD04FF0FE42B2EB400F94BF26
:102D000001200020012202EBE171884239D10CE060
:102D100011F0004F02D0012A38D032E0012A02BF60
:102D20009FED350ABDEC068B10BD9FED340ABDEC5E
:102D3000068B10BD2FE011F0004F0CD121E0B1F156
:102D4000FF4F1ED011F5000F05D011F0004F15D028
:102D50000AB1012A08D00220FDF7C6FDBDEC068BA2
:102D6000BDE8104000F0F8B90220FDF7BDFD00F00D
:102D7000F3F9BDEC068BB1EE400A10BD0AB1012A91
:102D800004D0B0EE690ABDEC068B10BDBDEC068B1D
:102D90009FED1B0A10BDBDEC068BB7EE000A10BDFF
:102DA00030EE410AB5EE001A9FED172A00EE413AC7
:102DB000B6EE001A60EE001A00EE431A61EEC11A78
:102DC0009FED101A20EE011A20EE020A9FED0F2A45
:102DD00001EE820A71EE001A11EE900A00F5006011
:102DE0006FF30B0009EE100A31EE491A31EE00AA1A
:102DF0009CE50000FFFF3F00000080FF0000807F97
:102E00000000008000B0B841D49A38BB3BAAB8415A
:102E100000B510EE101A2DED028B81B0524A6846B3
:102E2000B2EB410F2ED94FF0E640B0EB410F94BF0B
:102E300000204FF0FF3000900098B0EE408A00284C
:102E40006ADB10F0010F4BD068EE080A9FED471ABD
:102E50009FED470A00EE810A9FED461A10F0020F1F
:102E600000EE801AB7EE000A00EE810A02BF01B040
:102E7000BDEC028B00BD00BF01B0B1EE400ABDEC5D
:102E8000028B00BD3C4B21F00042934241D911F02E
:102E9000004FDFED3A0A20EE201ADFED390A19BFA4
:102EA00031EE601A71EE200A31EE201A71EE600ADE
:102EB000BDEEE01A11EE100A9FED321A00F0030089
:102EC00000EEC10A9FED301A009000EEC10A9FED9E
:102ED0002F1A00EEC10A9FED2E1A00EEC10AABE7D1
:102EE00028EE080A9FED2B1ADFED2B0A10F0020FD7
:102EF00040EE410A9FED291A00EE201A61EE000A09
:102F0000B0EE480A08EE200AB6D101B0BDEC028B43
:102F100000BD00F049F98FE718EE100A4000B0F14B
:102F20007F4F0DD218EE100AFFF78EF9042808BF64
:102F300000F032F9B0EE480A01B0BDEC028B00BDE2
:102F400009D10120FDF7D0FC01B0BDEC028B5DF88A
:102F500004EB00F011B901B0B0EE480ABDEC028BF1
:102F60005DF804EB00F002B9B61F927EB93AB2BA2E
:102F7000CA9F2A3DDDFFFFBE490E494683F9223F25
:102F80000000004B0000C93F00A0FD390020A23323
:102F90001A61342C336D4C39DA82083CA0AA2ABE5F
:102FA00010B52DED028BB1EEC08A18EE100A20F09C
:102FB0000040C0F1FF40C00F0AD010EE100A20F010
:102FC0000040C0F1FF40C00F04BF0120FDF78CFCA2
:102FD000B0EE480ABDEC028B10BD000000B510EE4B
:102FE000101A2DED028B81B04D4A6846B2EB410FAD
:102FF0003CD94FF0E640B0EB410F94BF00204FF0BA
:10300000FF3000900098B0EE408A00285FDB28EE89
:10301000080ADFED440A9FED441A00EE201ADFEDA6
:10302000430A40EE010A9FED421A00EE201ADFED3E
:10303000410A10F0010F40EE010A9FED3F1A00EE29
:10304000201A61EE000AB0EE480A08EE200A02BF1C
:1030500001B0BDEC028B00BDBFEE001A01B0C1EEA5
:10306000000ABDEC028BB0EE600A00BD334B21F0CC
:103070000042934228D911F0004FDFED310A20EED3
:10308000201ADFED300A19BF31EE601A71EE200A06
:1030900031EE201A71EE600ABDEEE01A11EE100A50
:1030A0009FED291A00F0030000EEC10A9FED271AD8
:1030B000009000EEC10A9FED261A00EEC10A9FEDB6
:1030C000251A00EEC10A9DE700F06EF89AE718EEA7
:1030D000100A4000B0F17F4F0DD218EE100AFFF732
:1030E000B3F8042808BF00F057F8B0EE480A01B062
:1030F000BDEC028B00BD09D10120FDF7F5FB01B04D
:10310000BDEC028B5DF804EB00F036B801B0B0EE18
:10311000480ABDEC028B5DF804EB00F027B8000014
:10312000B61F927EBBE9223C0C6D063B8A76CE3CF4
:10313000ACB5593D35A1083E29AAAA3E490E4946DB
:1031400083F9223F0000004B0000C93F00A0FD3979
:103150000020A2331A61342CDFED030AB7EE001A07
:1031600081EE200A704700000000000030EE000AE7
:10317000704730EE200A7047DFED020A80EEA00AA9
:1031800070470000000000009FED020A20EE000AD8
:1031900070470000000000709FED020A20EE000A58
:1031A00070470000000000102DE9F0014FF07F4251
:1031B000B2EB410F9FBF4FF0FF310160BDE8F0015E
:1031C00070474FF0004242EA0123C1F3C752783AF8
:1031D000551112F01F0C434CCCF120067C44C1F376
:1031E000C752A2F178024FEA621204EB820254F84D
:1031F000254008BFD2E9015612D0556804FA0CF4F4
:1032000025FA06F73C43976805FA0CF527FA06F805
:10321000D26807FA0CFCF24045EA08054CEA0206BF
:10322000A4FB034CA5FB0352A6FB03631D449D4274
:1032300034BF012600261319334416B1934202D934
:1032400003E0934201D2012200E00022624402F135
:10325000200C9206DC0C42EA443200EE102A5B039A
:10326000DFED210AF8EEC01A00EE103A4FEA9C1C7E
:1032700011F0004FB8EE400AC0F800C020EE201A4E
:1032800000EE105ADFED190AB8EE400A20EE200ACF
:1032900071EE810A70EE800A10EE902A02F500624B
:1032A0006FF30B0200EE902A70EEE11A31EEC11AB4
:1032B000DFED101A30EE411A9FED0D0A20EE800A64
:1032C00001EE210A9FED0C1A00EE810A04BFBDE851
:1032D000F0017047CCF180510160BDE8F001B1EE22
:1032E000400A704718A30000000000360000802C40
:1032F00022AAFD29DB0FC92F0000C92F30380A2868
:1033000001D2012070470020704700BF70470000C5
:1033100070B52DED028B04460D461646307B30B15C
:103320004FF47A7029490880BDEC028B70BD95F886
:10333000540090BB02F0A6FD78BB02F09BFD00F0AC
:10334000010050B394ED000A20EE000AD4ED010A0A
:1033500094ED011A00EE810AD4ED020A94ED021AEE
:1033600000EE810AB0EE408A95ED140ADFED180AEE
:1033700080EE201AF0EE418AF0EE480AB0EE680ABC
:1033800002F06CF840B1012007F066FA9FED110AD7
:103390000A21232007F086FA00BF0C480088002885
:1033A00004DD0A480088401E084908800748008854
:1033B00048B9284602F0A8F828B1002007F04CFAD6
:1033C000002007F065FA00BFAEE70000040400200B
:1033D000000075440000000070B506460D4600244C
:1033E00011E005EB8401D1ED000AB0EE600AC4EBF8
:1033F000C40106EB810003F049FF05EB840080ED7A
:10340000000A601CC4B2032CEBDB70BDB5EEC00A31
:10341000F1EE10FA02D2B1EE401A01E0B0EE401A1D
:10342000B4EEE01AF1EE10FA04D29FED0C1AB0EEF1
:10343000410A12E0B5EEC00AF1EE10FA04DD30EEFA
:10344000601AB0EE410A08E0B5EEC00AF1EE10FADB
:1034500003D230EE201AB0EE410A7047000000009F
:103460000C46154600BF502080F31188BFF34F8FE4
:10347000BFF36F8F00BF2946204607F02BFE2A4678
:1034800021460FA0FCF7AEFF0021084604F076F8B5
:103490000021012004F072F80021022004F06EF8EF
:1034A0000021032004F06AF803F050FD01210220FE
:1034B00003F0AAFD0121042003F0A6FD00BFFEE7F2
:1034C000417373657274206661696C65642025734D
:1034D0003A25640A000000000146AA2000F1AF026C
:1034E000D0B20A780244D0B24A780244D0B2002264
:1034F00004E08B1C9B5C0344D8B2521C4B78934273
:10350000F7DC704710B50C48007800B110BD002200
:1035100020210A2008F063FD084908600846006879
:1035200028B940F2722206A10CA0FFF799FF0120F2
:103530000149087000BFE9E71503002020030020BF
:103540002E2E5C434F4D4D554E49434154455C73BF
:1035500072635C61746B702E630000007278517549
:103560006575650010B50446204600F00DFF207813
:1035700005281CD00E49012003F004FE00231A4642
:103580000C490D48006808F047FD01280FD1094893
:1035900040781E2804DDAC2208A110A0FFF760FFD0
:1035A0000349022003F0EEFD024807F0F3FD10BDD1
:1035B00038D30008D4810020CC0300202E2E5C4399
:1035C0004F4D4D554E49434154455C7372635C7297
:1035D0006164696F6C696E6B2E6300007478506172
:1035E000636B65742E646174614C656E203C3D2094
:1035F00041544B505F4D41585F444154415F5349E2
:103600005A45000001B58AB00A980078012833D1E4
:103610000A988078232822D00EDC05281CD006DCEE
:10362000012816D0022815D0042824D113E021281F
:1036300013D022281FD111E0262813D004DC24281F
:103640000ED0252817D10CE0A0280CD0A12812D12B
:103650000DE010E00FE00EE00DE00CE00BE00AE002
:1036600009E008E007E00020F749087003E00120C6
:10367000F549087000BF62E10A98007802287DD100
:103680000A98807801287AD1F04890ED070A8DEDEC
:10369000090A90ED060A8DED080A90ED050A8DEDF8
:1036A000070AEB4890ED070A8DED060A90ED060A31
:1036B0008DED050A90ED050A8DED040AE54890EDC3
:1036C000070A8DED030A90ED060A8DED020A90EDD2
:1036D000050A8DED010A9DED094ADDED083A9DEDE3
:1036E000073ADDED062A9DED052ADDED041A9DED74
:1036F000031ADDED020A9DED010A012006F05AFCD5
:10370000D54890ED070A8DED090A90ED060A8DED7A
:10371000080A90ED050A8DED070AD04890ED070ADA
:103720008DED060A90ED060A8DED050A90ED050A6D
:103730008DED040ACA4890ED070A8DED030A90ED5D
:10374000060A8DED020A90ED050A8DED010A9DED48
:10375000094ADDED083A9DED073ADDED062A9DEDBB
:10376000052ADDED041A9DED031ADDED020A9DED3B
:10377000010A022006F01EFCBA4801E048E15CE0C4
:1037800090ED070A8DED090A90ED060A8DED080A05
:1037900090ED050A8DED070AB34890ED070A8DED0F
:1037A000060A90ED060A8DED050A90ED050A8DEDED
:1037B000040AAE4890ED070A8DED030A90ED060A63
:1037C0008DED020A90ED050A8DED010A9DED094A85
:1037D000DDED083A9DED073ADDED062A9DED052A5F
:1037E000DDED041A9DED031ADDED020A9DED010ADF
:1037F000032006F0DFFB9E4890ED070A8DED090AD5
:1038000090ED060A8DED080A90ED050A8DED070A88
:103810009FED984ADFED973A9FED963ADFED952AB6
:103820009FED942ADFED931A9DED091ADDED080A4C
:103830009DED070A042006F0BDFB0A988078A128B8
:103840007DD106F069FADFED8C0A9FED8C0A00F05D
:1038500055FEDFED890A9FED880A04F043FB7B48A3
:1038600090ED070A8DED090A90ED060A8DED080A24
:1038700090ED050A8DED070A754890ED070A8DED6C
:10388000060A90ED060A8DED050A90ED050A8DED0C
:10389000040A704890ED070A8DED030A90ED060AC0
:1038A0008DED020A90ED050A8DED010A9DED094AA4
:1038B000DDED083A9DED073ADDED062A9DED052A7E
:1038C000DDED041A9DED031ADDED020A9DED010AFE
:1038D000012006F06FFB604890ED070A8DED090AA4
:1038E00090ED060A8DED080A90ED050A8DED070AA8
:1038F0005A4890ED070A8DED060A90ED060A8DED07
:10390000050A90ED050A8DED040A554890ED070A69
:103910008DED030A90ED060A8DED020A90ED050A81
:103920008DED010A9DED094ADDED083A9DED073A5E
:10393000DDED062A9DED052ADDED041A00E011E318
:103940009DED031ADDED020A9DED010A022006F04D
:1039500031FB444890ED070A8DED090A90ED060A07
:103960008DED080A90ED050A8DED070A3E4890EDB1
:10397000070A8DED060A90ED060A8DED050A90ED19
:10398000050A8DED040A394890ED070A8DED030A0A
:1039900090ED060A8DED020A90ED050A8DED010A03
:1039A0009DED094ADDED083A9DED073ADDED062A69
:1039B0009DED052ADDED041A9DED031ADDED020AE9
:1039C0009DED010A032006F0F5FA294890ED070A5B
:1039D0008DED090A90ED060A8DED080A90ED050AB5
:1039E0008DED070A9FED234ADFED223A9FED213A44
:1039F000DFED202A9FED1F2ADFED1E1A9DED091A2B
:103A0000DDED080A9DED070A042006F0D3FA32E640
:103A10000A980078032807D119490A9850F8022F0C
:103A20000A60406848609DE20A980078052803D142
:103A30000A9804F093F995E20A980078502821D169
:103A40000A9806F0FBF88DE21603002094B50020DA
:103A500058B500201CB50020E0B40020A4B400201C
:103A600068B40020D0B50020FCB6002048B6002085
:103A700084B60020000000006F12833B6F12033BEE
:103A8000180300200A98007810287CD10A988078C2
:103A9000000201B20A98C0780843039009F093F835
:103AA0009FEDFE0B53EC102BCDE904019DED040BB3
:103AB00051EC100B09F0EEF8CDE906019DED060B77
:103AC00051EC100B08F06CFFF64948610A98007938
:103AD000000201B20A9840790843039009F073F894
:103AE0009FEDEE0B53EC102BCDE904019DED040B83
:103AF00051EC100B09F0CEF8CDE906019DED060B57
:103B000051EC100B08F04CFFE64988610A98807967
:103B1000000201B20A98C0790843039009F053F8F3
:103B20009FEDDE0B53EC102BCDE904019DED040B52
:103B300051EC100B09F0AEF8CDE906019DED060B36
:103B400051EC100B08F02CFFD649C8610A98007A96
:103B5000000201B20A98407A0843039009F033F852
:103B60009FEDCE0B53EC102BCDE904019DED040B22
:103B700051EC100B09F08EF8CDE906019DED060B16
:103B800051EC100B00E0AEE008F00AFFC6494861B6
:103B90000A98807A000201B20A98C07A084303901A
:103BA00009F011F89FEDBD0B53EC102BCDE904018A
:103BB0009DED040B51EC100B09F06CF8CDE90601FA
:103BC0009DED060B51EC100B08F0EAFEB64988613A
:103BD0000A98007B000201B20A98407B08430390D8
:103BE00008F0F1FF9FEDAD0B53EC102BCDE9040174
:103BF0009DED040B51EC100B09F04CF8CDE90601DA
:103C00009DED060B51EC100B08F0CAFEA649C861E9
:103C10000A98807B000201B20A98C07B0843039097
:103C200008F0D1FF9FED9D0B53EC102BCDE9040163
:103C30009DED040B51EC100B09F02CF8CDE90601B9
:103C40009DED060B51EC100B08F0AAFE9749486158
:103C50000A98007C000201B20A98407C0843039055
:103C600008F0B1FF9FED8D0B53EC102BCDE9040153
:103C70009DED040B51EC100B09F00CF8CDE9060199
:103C80009DED060B51EC100B08F08AFE8749886108
:103C90000A98807C000201B20A98C07C0843039015
:103CA00008F091FF9FED7D0B53EC102BCDE9040143
:103CB0009DED040B51EC100B08F0ECFFCDE9060173
:103CC0009DED060B51EC100B08F06AFE7749C861B8
:103CD0000A98FFF701FC09900A9800780890099962
:103CE00006F014F94DE30A98007811287ED10A985D
:103CF0008078000201B20A98C0780843039008F067
:103D000062FF9FED660B53EC102BCDE904019DED96
:103D1000040B51EC100B08F0BDFFCDE906019DED41
:103D2000060B51EC100B08F03BFE614948610A9804
:103D30000079000201B20A9840790843039008F024
:103D400042FF9FED560B53EC102BCDE904019DED86
:103D5000040B51EC100B08F09DFFCDE906019DED21
:103D6000060B51EC100B08F01BFE514988610A98B4
:103D70008079000201B20A98C0790843039008F0E4
:103D800022FF9FED460B53EC102BCDE904019DED76
:103D9000040B51EC100B08F07DFFCDE906019DED01
:103DA000060B51EC100B08F0FBFD4149C8610A9865
:103DB000007A000201B20A98407A0843039008F0A2
:103DC00002FF9FED360B53EC102BCDE904019DED66
:103DD000040B51EC100B08F05DFFCDE906019DEDE1
:103DE000060B51EC100B08F0DBFD00E0BBE03149A5
:103DF00048610A98807A000201B20A98C07A0843A2
:103E0000039008F0E0FE9FED250B53EC102BCDE95D
:103E100004019DED040B51EC100B08F03BFFCDE9C4
:103E200006019DED060B51EC100B08F0B9FD214980
:103E300088610A98007B000201B20A98407B08431F
:103E4000039008F0C0FE9FED150B53EC102BCDE94D
:103E500004019DED040B51EC100B08F01BFFCDE9A4
:103E600006019DED060B51EC100B08F099FD114970
:103E7000C8610A98807B000201B20A98C07B08439F
:103E8000039008F0A0FE9FED050B53EC102BCDE93D
:103E900004019DED040B51EC100B0DE09A999999DA
:103EA0009999B93F1CB5002058B5002094B5002061
:103EB00068B40020A4B4002008F0ECFECDE90601AF
:103EC0009DED060B51EC100B08F06AFDFA494861B4
:103ED0000A98007C000201B20A98407C08430390D3
:103EE00008F071FE1FED130B53EC102BCDE904010C
:103EF0009DED040B51EC100B08F0CCFECDE9060152
:103F00009DED060B51EC100B08F04AFDEA49886163
:103F10000A98807C000201B20A98C07C0843039092
:103F200008F051FE1FED230B53EC102BCDE90401DB
:103F30009DED040B51EC100B08F0ACFECDE9060131
:103F40009DED060B51EC100B08F02AFDDA49C86113
:103F50000A98FFF7C1FA09900A9800780890099921
:103F600005F0D4FF0DE20A98007812287ED10A9855
:103F70008078000201B20A98C0780843039008F0E4
:103F800022FE1FED3A0B53EC102BCDE904019DED01
:103F9000040B51EC100B08F07DFECDE906019DED00
:103FA000060B51EC100B08F0FBFCC44948610A9861
:103FB0000079000201B20A9840790843039008F0A2
:103FC00002FE1FED4A0B53EC102BCDE904019DEDD1
:103FD000040B51EC100B08F05DFECDE906019DEDE0
:103FE000060B51EC100B08F0DBFCB44988610A9811
:103FF0008079000201B20A98C0790843039008F062
:10400000E2FD1FED5A0B53EC102BCDE904019DEDA1
:10401000040B51EC100B08F03DFECDE906019DEDBF
:10402000060B51EC100B08F0BBFCA449C8610A98C0
:10403000007A000201B20A98407A0843039008F01F
:10404000C2FD1FED6A0B53EC102BCDE904019DED71
:10405000040B51EC100B08F01DFECDE906019DED9F
:10406000060B51EC100B08F09BFC00E0B0E094490B
:1040700048610A98807A000201B20A98C07A08431F
:10408000039008F0A0FD1FED7B0B53EC102BCDE946
:1040900004019DED040B51EC100B08F0FBFDCDE984
:1040A00006019DED060B51EC100B08F079FC8449DC
:1040B00088610A98007B000201B20A98407B08439D
:1040C000039008F080FD1FED8B0B53EC102BCDE916
:1040D00004019DED040B51EC100B08F0DBFDCDE964
:1040E00006019DED060B51EC100B08F059FC7449CC
:1040F000C8610A98807B000201B20A98C07B08431D
:10410000039008F060FD1FED9B0B53EC102BCDE9E5
:1041100004019DED040B51EC100B08F0BBFDCDE943
:1041200006019DED060B51EC100B08F039FC6549BA
:1041300048610A98007C000201B20A98407C08435A
:10414000039008F040FD1FEDAB0B53EC102BCDE9B5
:1041500004019DED040B51EC100B08F09BFDCDE923
:1041600006019DED060B51EC100B08F019FC5549AA
:1041700088610A98807C000201B20A98C07C0843DA
:10418000039008F020FD1FEDBB0B53EC102BCDE985
:1041900004019DED040B51EC100B08F07BFDCDE903
:1041A00006019DED060B51EC100B08F0F9FB45499B
:1041B000C8613C224448FCF794FA0A98FFF78CF94E
:1041C00009900A9800780890099905F09FFED8E0B8
:1041D0000A98007813287DD10A988078000201B2ED
:1041E0000A98C0780843039008F0EDFC1FEDD50B4A
:1041F00053EC102BCDE904019DED040B51EC100B99
:1042000008F048FDCDE906019DED060B51EC100BC1
:1042100008F0C6FB2D4948610A980079000201B2F6
:104220000A9840790843039008F0CDFC1FEDE50B98
:1042300053EC102BCDE904019DED040B51EC100B58
:1042400008F028FDCDE906019DED060B51EC100BA1
:1042500008F0A6FB1D4988610A988079000201B226
:104260000A98C0790843039008F0ADFC1FEDF50BE8
:1042700053EC102BCDE904019DED040B51EC100B18
:1042800008F008FDCDE906019DED060B51EC100B81
:1042900008F086FB0D49C8613C220D48FCF721FA65
:1042A0000A98FFF719F909900A9800780890099977
:1042B00005F02CFE65E00DE0E0B4002048B60020DB
:1042C000FCB60020D0B500200CB6002084B600203B
:1042D000C0B600200A98007814280AD10A98FFF77F
:1042E000FBF809900A9800780890099905F00EFEED
:1042F00047E00A980078152843D10A98007A00020E
:1043000001B20A98407A084309900A98807A00021C
:1043100001B20A98C07A084308900A98007B00020C
:1043200001B20A98407B084307900A98807B0002FC
:1043300001B20A98C07B084306900A98007C0002EC
:1043400001B20A98407C08430590059800900998AE
:1043500008B1012000E000200390DDE90632089951
:1043600006F0D0FA00F06EF904F0CEF80A98FFF7E4
:10437000B3F804900A9800780390049905F0C6FDFC
:1043800000BF0BB000BD000010B504462CB94FF4BF
:104390001E720CA112A0FFF763F860781E2805DDDD
:1043A00040F2792207A10FA0FFF75AF800235A1E06
:1043B00021461548006807F01DFF08B1012010BD17
:1043C0000020FCE72E2E5C434F4D4D554E49434196
:1043D00054455C7372635C61746B702E6300000003
:1043E00070000000702D3E646174614C656E203C6D
:1043F0003D2041544B505F4D41585F444154415F13
:1044000053495A45000000002003002088B009E00D
:1044100000235A1E69460448006807F0FDFD6846FF
:10442000FFF7F0F8F4E700002003002010B5044681
:10443000204605F0E1FA10BD70B52DED048B044661
:104440000D461646D5ED010A94ED011A70EEC10A2B
:10445000B0EE600A224803F0BBFB86ED010AD5ED01
:10446000020A94ED021A70EEC10AB0EE600A1D480D
:1044700003F0AEFB86ED020A95ED030AD4ED030AC4
:1044800030EE600AB0EE408A9FED170AB4EEC08AA3
:10449000F1EE10FA06DD9FED150A38EE400AB0EE97
:1044A000408A12E018EE100A08F012FE41EC190BD7
:1044B0009FED0F0B53EC102B08F0B0FB05D29FEDD6
:1044C0000B0A38EE000AB0EE408AB0EE480A0A48FD
:1044D00003F07EFB86ED030ABDEC048B70BD00008B
:1044E00068B40020A4B40020000034430000B443AA
:1044F00000000000008066C0E0B4002010B52DED83
:10450000028BB0EE408AF0EE608AB0EE682A39483D
:10451000D0ED031A90ED021AD0ED010A9FED360A94
:10452000364803F0E9FAB0EE682A3248D0ED061AB0
:1045300090ED051AD0ED040A9FED2F0A304803F0E4
:10454000DBFAB0EE682A2B48D0ED091A90ED081A74
:10455000D0ED070A9FED280A2A4803F0CDFAB3EE02
:104560000E0A264803F02EFBB3EE0E0A244803F091
:1045700029FB9FED250A234803F024FBB0EE482ACF
:104580001C48D0ED0C1A90ED0B1AD0ED0A0A9FEDE5
:104590001A0A1E4803F0B0FAB0EE482A1548D0EDCA
:1045A0000F1A90ED0E1AD0ED0D0A9FED130A184860
:1045B00003F0A2FAB0EE482A0E48D0ED121A90EDA0
:1045C000111AD0ED100A9FED0C0A124803F094FA6C
:1045D0009FED110A0D4803F0F5FA9FED0F0A0C4804
:1045E00003F0F0FA9FED0D0A0A4803F0EBFABDEC78
:1045F000028B10BD900500200000000068B4002070
:10460000A4B40020E0B40020000034431CB5002016
:1046100058B5002094B500200000FA43000048423D
:104620000120704710B5024803F0B8FA10BD000031
:10463000A4B4002010B5024803F0B0FA10BD000089
:1046400068B40020364890ED050A364880ED010A2E
:10465000334890ED060A334880ED020A304890ED69
:10466000070A304880ED030A2F4890ED050A2D48CF
:1046700080ED040A2C4890ED060A2A4880ED050AD0
:10468000294890ED070A274880ED060A274890ED53
:10469000050A244880ED070A244890ED060A2148BF
:1046A00080ED080A214890ED070A1E4880ED090AAE
:1046B0001F4890ED050A1B4880ED0A0A1C4890ED42
:1046C000060A184880ED0B0A194890ED070A1548AC
:1046D00080ED0C0A174890ED050A124880ED0D0A8E
:1046E000144890ED060A0F4880ED0E0A114890ED2F
:1046F000070A0C4880ED0F0A0F4890ED050A09489B
:1047000080ED100A0C4890ED060A064880ED110A6B
:10471000094890ED070A034880ED120A704700002F
:1047200068B4002090050020A4B40020E0B400206C
:104730001CB5002058B5002094B5002070B52DEDB3
:10474000028B04460D461646D5ED010A94ED001A7B
:1047500070EEC10AB0EE600A154803F039FAB0EE07
:10476000408A03F0FBF93080D5ED020A94ED011A7E
:1047700070EEC10AB0EE600A0E4803F029FAB0EEFE
:10478000408A03F0EBF97080D5ED030A94ED021A2C
:1047900070EEC10AB0EE600A074803F019FAB0EEF5
:1047A000408A03F0DBF9B080BDEC028B70BD0000E5
:1047B0001CB5002058B5002094B5002010B509485C
:1047C00003F0ECF9084803F0E9F9084803F0E6F9CA
:1047D000074803F0E3F9074803F0E0F9064803F05F
:1047E000DDF910BD68B40020A4B40020E0B40020BE
:1047F0001CB5002058B5002094B500202DE9F14FDC
:1048000082B067488069C1174FF4FA33C41A61F166
:104810000005A4FB041005FB040004FB050260482E
:10482000B0F91000C317A1FB008A02FB00A001FB36
:1048300003095B48B0F90E00C117A0FB042301FB7C
:10484000043100FB0510400440EAD230510411EB62
:10485000080840EB09095248B0F90C0018F10008AB
:1048600049EBC009A4FB041005FB040004FB05028E
:104870004B48B0F90A004FEAE07CA1FB003A02FB8A
:1048800000A001FB0C004FEA132141EA00614FEA4E
:1048900020224348B0F908004FEAE073A446A0FB89
:1048A0000CBE03FB04E300FB05304FEA003040EA96
:1048B0001B504FEA0B33CC1842EB0005221C45F588
:1048C00000403749C9880023A2FB01AC00FB01C0AE
:1048D00002FB03004410C517002184EA010069406F
:1048E000084301D1BDE8FE8F0298C0F58010C717BC
:1048F0000646F80740EA5600F107B1EB080160EB05
:10490000090040F635430022A1FB03CA00FB03A0C7
:1049100001FB020122462B466046CDE900C1FBF7B0
:104920003CFD06460F461E48B0F91600C217710B33
:1049300041EAC74C7B13A0FB0C1A02FB0CA200FB44
:104940000322700B40EAC7404FEA673CA1FB003AE4
:1049500002FB00A001FB0C01580E40EAC1144D16E9
:104960000F48B0F91400C117A0FB062301FB063164
:1049700000FB0711D00C40EA41384FEAE1493119F8
:1049800047EB050011EB080140EB0900090A41EA79
:1049900000610348B0F9120000010E183046A1E78B
:1049A0003006002030B50146CC100F4D2D88A4EB09
:1049B00045040D4DB5F902506C43E2120A4C2488AF
:1049C000C4EB211464432413074DB5F904506C4320
:1049D000A313D418044DAC612C46A46904EB8404E1
:1049E0008034201230BD00003006002038B5044667
:1049F0001F48007808B1012038BD1E4804607620A9
:104A00001D490870322000F01DFD1C4BD0221A48B1
:104A100001781848006801F0E0FA18480078582832
:104A200005D11648017816A0FBF7DCFC01E0002058
:104A3000E2E718481823882200900F4801780D48B3
:104A4000006801F087FA9323F4220B4801780948A3
:104A5000006801F042FB1423F5220748017805485D
:104A6000006801F03AFB01200149087000BFC3E76C
:104A7000ED000020E8000020E4000020EC00002011
:104A8000424D503238302049442049533A20307842
:104A900025580A003006002010B52DED028B044683
:104AA00094ED000AB5EEC00AF1EE10FA18DD94EDAF
:104AB000000ADFED0D0A80EE801AB0EE418ADFEDCC
:104AC0000B0AB0EE480AFDF771FEF7EE000A30EE71
:104AD000600ADFED070A20EE200ABDEC028B10BD54
:104AE0009FED040AF9E70000CDEC7D44B1DC423EC5
:104AF000002A2D470000000010B50446002011E0F8
:104B0000414901EB800191ED000A04EB8001D1EDF8
:104B1000000A30EE200A3C4901EB800181ED000AD9
:104B2000411CC8B20328EBDB94ED020A3748D0EDF4
:104B3000000AB4EEE00AF1EE10FA03D294ED020A94
:104B400080ED000A94ED020A3148D0ED000AB4EE7F
:104B5000E00AF1EE10FA03DD94ED020A80ED000A9E
:104B60002C480088401C80B22A490880B0F5AF7FED
:104B700048DB00200880264890ED000A2348D0ED4D
:104B8000000A30EE600A244880ED000AB7EE080AF9
:104B90001E4880ED000AB6EE000A1D4880ED000AAE
:104BA0001D4890ED000ADFED1D0AB4EEE00AF1EEBB
:104BB00010FA1AD200200FE0134901EB800191EDA9
:104BC000000ADFED170A80EE201A164901EB80017A
:104BD00081ED001A411CC8B20328EDDB0120124907
:104BE00008701249032002F0CDFA002008E09FED82
:104BF000100A054901EB800181ED000A411CC8B291
:104C00000328F4DB10BD00007CB70020A8040020BE
:104C1000AC040020A4040020900400208FC2753C46
:104C20000000AF43980400209404002008D300083B
:104C30000000000010B50548007800B110BD04F078
:104C4000A7FE01200149087000BFF7E726030020F6
:104C500010B50348047800F0B1FA0440204610BDB6
:104C60002603002010B500F05FF900200949888272
:104C700009480078C0F3800058B10748007820F058
:104C800008000830044908700846007820F0040045
:104C9000087010BDFC8000204103002070B52DED90
:104CA000028B04460D4600F0A5FA8D48007885F881
:104CB00054008C48007800F0010000287ED089481C
:104CC0000078C0F3C00020B12946204600F070FDF6
:104CD000DBE084480078C0F3800000286FD09FEDAF
:104CE000820A84ED120A0121422001557F48007892
:104CF000C8B901207D4908707D4908709FED7A0A86
:104D00007C4880ED000A9FED780A7B4880ED000A20
:104D10009FED750A794880ED000A9FED790A01211F
:104D2000002005F0BFFD7748808A00EE100AB8EE3B
:104D3000400ADFED750A30EE600ADFED730A80EE9F
:104D4000208AB5EEC08AF1EE10FA06DD9FED6F0AFB
:104D500028EE000AB0EE408A05E09FED6D0A28EECD
:104D6000000AB0EE408AB0EEC80AF1EE040AB4EED2
:104D7000E00AF1EE10FA3CDD0120664908700221DC
:104D80004220015584ED0F8ABBEE040AB4EEC08ABE
:104D9000F1EE10FA27D260480078012854D195ED41
:104DA000140A5E48D0ED000AB4EEE00AF1EE10FA03
:104DB00003DD95ED140A80ED000A01E05AE044E0BD
:104DC000564890ED000ADFED560AB4EEE00AF1EE27
:104DD00010FA39DD4348007820F00400414908709A
:104DE00000F0F0FB30E09FED400A4C4880ED000AF7
:104DF0002AE04848007801280FD100204549087072
:104E000001214220015595ED0C0A3C48D0ED000AE5
:104E100030EE200A84ED0B0A16E03E48007898B97F
:104E200094ED0B0AD5ED0C0A30EE600A334880EDA4
:104E3000000AB2EE041AFAEE040A90ED000A00F03D
:104E4000C3F92E4880ED000A1FE0002142200155E1
:104E50009FED250A84ED120A9FED230A84ED0F0AC7
:104E60009FED210A84ED0B0A002020490870294992
:104E700008700AE00021422001552248808A00EE95
:104E8000100AB8EE400A84ED120A1E4800686060FD
:104E90001C484068A0601B48806800EE100AB1EE14
:104EA000400A84ED030A002084F8400000214120DC
:104EB000015543200155442001550A480078C0F3AC
:104EC000401038B10120174908702946204604F0E7
:104ED0003DFF02E0002013490870BDEC028B70BD5D
:104EE00030030020410300200000000048030020A0
:104EF0004A0300204C0300205003002054030020EC
:104F00000000A042FC80002000FEFF460000C842D6
:104F100000007042490300202804002064030020A0
:104F200000007A43400300209FED080A10EE100AAB
:104F3000074908609FED050A10EE100A48609FEDD2
:104F4000030A10EE100A886070470000000000009D
:104F5000FC80002070B5014600200B46A0240022F2
:104F600004E013F8016B3518E8B2521CA242F8D3E2
:104F700091F89E50451BE8B270BD000010B50023AB
:104F80001A4619460248006807F034F910BD0000BF
:104F9000E000002010B52A48007800B110BDA02024
:104FA000284908600846007800F0030008B1012095
:104FB00000E000202349096800EB910021490860C6
:104FC0000846214902682148FCF79CFC1E480078ED
:104FD0000D280FD11C48FFF7BDFF1B4991F89E100B
:104FE000884203D101201A49087006E000201849C0
:104FF000087002E00020164908701548007890B942
:10500000A02214491048FBF76CFB0F48FFF7A2FFE2
:105010000D4981F89E000B4802680C48FCF786FC9D
:1050200001200B49087003220021012006F0D7FF60
:105030000949086001200249087000BFAEE700007E
:10504000DC000020D8000020900500200080070828
:10505000DD00002038000020E0000020014800783A
:1050600070470000DC00002010B50F48007800B148
:1050700010BD51200D490870002048700322002106
:10508000012006F0ACFF0A4908600846006830B10C
:1050900000231A4619460648006807F0ABF80120BD
:1050A0000149087000BFE3E78C030020B4810020B1
:1050B0008803002070B505462A480068C0F3080040
:1050C00008B1012000E0002006462748007808B912
:1050D000002070BD1EB1284600F04EF8F9E700230D
:1050E0005A1E19462148006806F096FF012837D15C
:1050F0001F4840781E2808DA1D484278801C8554D5
:10510000801E4078401C1A4948700A2D03D0184868
:1051100040781E281DDB04F031FC012813D1002447
:105120000AE0C4F104001349095C11484078021BED
:105130000F48801C8154641C052C04D20C48407814
:10514000001B0028EDDC0A4804F056FC002008494A
:10515000487000231A4619460448006807F04AF8C8
:10516000E8B2B6E704ED00E08C03002088030020DD
:10517000B481002078D3000838B504466A4600217F
:105180000C48006807F067F9012811D10A484078F7
:105190001E2808DA08484278801C8454801E407813
:1051A000401C0549487069460248006807F00CF940
:1051B000204638BD88030020B481002001480078D3
:1051C000704700008C030020F0EE401AF4EEE01A65
:1051D000F1EE10FA02D2B0EE600A7047F4EEC11A96
:1051E000F1EE10FA02DDB0EE410AF6E7B0EE610A28
:1051F000F3E7000010B586B000F072FE0446574891
:10520000006B201AB0F5FA7F06D2002054490870CE
:1052100052485449086013E05048006B201AB0F51A
:105220007A7F05D24D484F490860FFF77DFE07E0C1
:1052300001204B49087049484A490860FFF712FDB0
:1052400047480078002878D14648006890F82C003C
:1052500000EB400202EBC000424A126802EB400140
:1052600016226846FBF7F8F9BDF814003E49898A12
:10527000401A00EE100AF8EEC00A3B48808A00EEA1
:10528000100AB8EE400A394890ED001A00EE810A83
:10529000BCEEC00A10EE100A33498882DDED010A27
:1052A0000846406800EE100A70EEC00A08464068E2
:1052B00000EE100A2D4890ED001A00EE810A10EE63
:1052C000100A4860DDED000A0846006800EE100A8A
:1052D00070EEC00A0846006800EE100A234890ED00
:1052E000001A00EE810A10EE100A0860DDED020AD5
:1052F0000846806800EE100A70EEC00A0846806812
:1053000000EE100A194890ED001A00EE810A10EE26
:10531000100A88609DED030A154880ED250A9DED71
:10532000040A80ED260A0846808A41F288318842C4
:1053300004DA00200C4988820CE00CE00A48808ADC
:105340004EF66021884201DB084601E00648808A6B
:105350000549888200BF06B010BD0000C88000204B
:105360003003002034030020FC800020580300207C
:105370009005002070B504460420FCF7B7FB0C48EC
:10538000046025464FF47A7045430120094908809E
:105390004FF0E020006940F002004FF0E02108618A
:1053A00008464561006940F00100086170BD0000D9
:1053B000280000202C00002070B5044607F0EAF811
:1053C000012811D00C480088844206DB0A48008876
:1053D00094FBF0F5284606F0C5FA0748008894FBD0
:1053E000F0F100FB114084B24FF47A7104FB01F03C
:1053F00000F004F870BD00002C00002070B50346DA
:1054000000224FF0E02675690D4E366803FB06F466
:105410004FF0E026B16910E04FF0E026B069884215
:105420000BD0884202D20E1A324402E02E1A0E44E9
:1054300032440146A24200D300E0EDE700BF70BD58
:105440002800002030B50446002504E04FF47A70AF
:10545000FFF7D4FF6D1CA542F8D330BD10B52DED7C
:10546000068BB0EE408AF0EE608A18EE900A07F0E4
:105470002FFE41EC1A0BB0EE4A0AF0EE6A0AFDF775
:105480008BF9B0EE409AF0EE609A9FED1C0B53EC56
:10549000102B51EC190B07F0C1FB29D2B7EE000A13
:1054A00038EE000A10EE101A084607F011FE41EC23
:1054B0001A0BB0EE4A0AF0EE6A0AFDF76DF9B0EE8B
:1054C000409AF0EE609A9FED0D0B53EC102B51ECCF
:1054D000190B07F0A3FB0BD20A480088401C80B2CE
:1054E00008490880322806DB0120BDEC068B10BD80
:1054F0000020044908800020F7E70000000000A019
:105500009999A93F0604002010B52DED088B04469B
:1055100094ED010A10EE101A084607F0D9FD41EC8F
:105520001B0BB0EE4B0AF0EE6B0AFDF735F9B0EE4F
:1055300040AAF0EE60AA51EC1A0B07F031FA08EE1F
:10554000100A94ED020A10EE101A084607F0C0FD8A
:1055500041EC1B0BB0EE4B0AF0EE6B0AFDF71CF9A9
:10556000B0EE40AAF0EE60AA51EC1A0B07F018FA60
:1055700008EE900AB4EEE88AF1EE10FA02DBB0EE23
:10558000480A01E0B0EE680AB0EE409A9FED0B0ABF
:10559000B4EEC09AF1EE10FA0BDD09480088401C09
:1055A00080B207490880642806DB0120BDEC088B27
:1055B00010BD0020024908800020F7E7000070427B
:1055C00008040020012001490870704705050020EB
:1055D00001200149087070470405002010B52448D7
:1055E000007800B110BD01218803FBF7D9FF00202E
:1055F000204988700120C870052048700620087076
:105600000846FBF76DFF0C201A4948700720087008
:105610000846FBF765FF0C20164948700820087003
:105620000846FBF75DFF0C201249487009200870FE
:105630000846FBF755FF0C200E4948700A200870F9
:105640000846FBF74DFF0C200A49487017200870E8
:105650000846FBF745FF0A200649487028200870D5
:105660000846FBF73DFF01200149087000BFB9E77C
:10567000040100200501002010B52DED028B2C48FF
:10568000008800283CDD2A480088401E2849088000
:10569000FFF79EFF274890ED0B0A2748D0ED000A40
:1056A00030EE600ADFED250A80EE201AB0EE418A66
:1056B000204890ED0B0A204880ED000A204890ED2C
:1056C000000A78EE400A90ED000A9FED1E1A00EEE7
:1056D000810A80ED000A02211B4880F84210184818
:1056E00090ED000A194880ED100A154890ED000A67
:1056F000FFEE000A20EE200A134880ED0F0A14E0A6
:1057000013480088002810DD11480088401E104909
:105710000880FFF757FF01210B4880F842100D4821
:1057200090ED000A084880ED0B0ABDEC028B10BD1D
:10573000D2040020ECD00020DC0400206F12833B58
:10574000E00400203333B33EA0D000201CD1002061
:10575000D4040020D80400200FB410B5044604BBC4
:10576000124991F82C1009B9012100E0002101EB48
:10577000410202EBC1010D4A02EB4100162203A9CE
:10578000FAF76AFF094890F82C0008B9012000E0F8
:105790000020064981F82C0000F0A2FB03490863B1
:1057A00000E000BF00BF10BC5DF814FBC880002003
:1057B00070B505460C4602214220415594ED100A71
:1057C0003C48D0ED000A70EE600A90ED000A9FEDB3
:1057D0003A1A00EE810A80ED000A90ED000ADFED32
:1057E000370A30EEC00A85ED0F0A00F03DFBDFED11
:1057F000340AB4EEE00AF1EE10FA18D2314800781B
:10580000401C30490870084600780A2812DD002044
:1058100008702D48007820F008002B4908700846D1
:10582000007820F004000870FFF7CCFE02E00020B2
:105830002449087025480078012818D1D4ED140AAD
:10584000B0EE600A2248D0ED000AF4EEC00AF1EE94
:1058500010FA01DD80ED000A1E48D0ED000AF4EEDA
:10586000C00AF1EE10FA01D280ED000A00BF18481C
:1058700090ED000ADFED180AB4EEE00AF1EE10FA3E
:1058800016D2144890ED000ADFED140AB4EEE00AD7
:10589000F1EE10FA0CDD0C48007820F008000A49FF
:1058A00008700846007820F004000870FFF78AFEB0
:1058B00070BD000060030020CDCCCC3D00008CC248
:1058C00000409C465C030020410300202804002087
:1058D000380300203C0300200000A0C20000A043C9
:1058E00070B504460E461546F9480078F949087027
:1058F000F748007808287DD2DFE800F0043997DA0D
:10590000FCFBFAF9F448007800B396ED020ADFEDEB
:10591000F30AB4EEE00AF1EE10FA13DD95ED100A89
:10592000FBEE040AB4EEE00AF1EE10FA0ADD012003
:10593000E74908704FF4FA70E94908800020E94906
:10594000087013E00020E44908700FE0E548007893
:1059500060B9E3480088002805DDE1480088401E62
:10596000DF49088002E00120DE49087062E29FED15
:10597000DE0ADE4880ED000A0020DD4908809FED48
:10598000DA0ADC4880ED000A0020DB490880D248B2
:1059900000783073D948B0F89C0000EE100AF8EE99
:1059A000400A9FEDD70A9FEDD71A01EE200ABCEE00
:1059B000C00A10EE100AD4490880D048B0F89C0004
:1059C00000EE100AB8EE400ADFEDD00A80EE201A91
:1059D000CF4880ED001AC948B0F89C0044F6206119
:1059E0000844CC490880084600884FF2302188429C
:1059F00004DD00E01DE20846C6490880C248008870
:105A0000C549088095ED010AC44880ED000A95ED6E
:105A1000020AC34880ED000A95ED030AC14880EDF3
:105A2000000A0220AA49087004E295ED100ABE4857
:105A3000D0ED000AB4EEE00AF1EE10FA31D2002106
:105A400042200155B4480088B2490988884210DADA
:105A5000B148008800EE100AB8EE400AAC48D0ED1C
:105A6000000A30EE200ABCEEC00A10EE100AAA4965
:105A70000880A948008800EE100AB8EE400A84EDBC
:105A8000120A9D4801880088401C9B4A1080B1F58D
:105A9000C87F0CDD00201146088003208C49087067
:105AA00005E0002094490880032089490870C1E17D
:105AB000994800889449098888422CDD92480088DA
:105AC00000EE100AF8EE400AB2EE041A80EE810AE7
:105AD000DFED960A70EEC00A8F48008800EE100ACB
