:020000040800F2
:10000000E8A200207D020008D9140008B101000810
:1000100081140008990A0008ED2100080000000082
:10002000000000000000000000000000C501000802
:10003000F90C00080000000019020008111B00085C
:10004000970200089702000897020008970200082C
:100050009702000897020008030D0008A70D00088A
:10006000B70D0008C70D0008050E0008F10A0008CA
:1000700097020008010B0008110B00089702000806
:1000800097020008790B00089702000800000000A2
:100090000000000000000000000000001B0E00082F
:1000A00097020008970200089702000897020008CC
:1000B000970200089702000897020008091200083A
:1000C000F91100089702000897020008970200083B
:1000D00097020008ED1F0008212000080000000022
:1000E0001B0D00089702000897020008000000009E
:1000F000000000000000000000000000970200085F
:10010000000000009702000897020008970200080C
:1001100000000000000000000000000000000000DF
:10012000970200089702000897020008970200084B
:10013000970200080000000000000000000000001E
:10014000000000000000000000000000970200080E
:10015000970200089702000897020008970200081B
:100160002912000819120008000000000000000019
:10017000000000000000000000000000000000007F
:1001800000000000970200080000000000000000CE
:100190009702000897020008DFF810D000F03EFC3C
:1001A000004800478D800008AFF30080E8A20020DF
:1001B0001EF0040F0CBFEFF30880EFF3098009F085
:1001C000D1B800002A4B19680868B0E8F04F80F3F6
:1001D0000988BFF36F8F4FF0000080F311887047DC
:1001E0000000000006480068006880F3088862B6D6
:1001F00061B6BFF34F8FBFF36F8F00DF00BF00BF4B
:1002000008ED00E0DFF80C00016841F470010160C6
:10021000704700BF88ED00E0EFF30980BFF36F8FF8
:10022000134B1A681EF0100F08BF20ED108A20E94A
:10023000F04F106008B44FF0500080F31188BFF306
:100240004F8FBFF36F8F0CF089FE4FF0000080F3EB
:10025000118808BC19680868B0E8F04F1EF0100F4C
:1002600008BFB0EC108A80F30988BFF36F8F704726
:1002700078020020EFF305807047000006488047B1
:1002800006480047FEE7FEE7FEE7FEE7FEE7FEE77B
:10029000FEE7FEE7FEE7FEE7311B000899010008D4
:1002A0002DE9F0410024061B254671F1000605DA10
:1002B00001240027D0EB070067EB0101161E73F144
:1002C000000605DA0027D2EB0702012567EB0303DE
:1002D00000F094FA86460E4617469C46AC4204D07F
:1002E0000025D0EB050E65EB010624B10020D2EB12
:1002F000000760EB030C704631463A466346BDE8A2
:10030000F08110B5431A934209D28318881803E08C
:1003100010F8011D03F8011D521EF9D210BD40EA6C
:1003200001039B0703D009E008C9121F08C0042A73
:10033000FAD203E011F8013B00F8013B521EF9D25A
:1003400010BDD2B201E000F8012B491EFBD270476C
:100350000022F6E710B513460A4604461946FFF791
:10036000F0FF204610BD2DE9FE4F804681EA0300D4
:10037000C00F0C46009021F0004123F00045B8EB7F
:100380000200A94105D24046214690461C460B4634
:10039000024623F00040104347D0270DC7F30A0060
:1003A000C3F30A510290401A019040286BDAC3F35C
:1003B000130040F4801B0098924620B10023D2EB3A
:1003C000030A63EB0B0B01985946C0F140025046FB
:1003D00000F045FA06460D4650465946019A00F08F
:1003E0005DFA10EB08006141002487EA115284EAAB
:1003F000E7731A4340D0009A62B3019A012A4FEA88
:10040000075215DC001B61EB02014FF0004202EACB
:100410000752CDE90042001C41F5801132462B46BF
:1004200000F094FA03B0BDE8F08F40462146F9E7AA
:10043000001B61EB0201001C41F5801300185B41B9
:100440002018A2F5001747EB030140EAD570B61952
:100450006D4111E06D084FEA360645EAC0754FEA76
:100460000752001B61EB0201001C41F58011490895
:100470004FEA30000019514132462B4603B0BDE827
:10048000F04F00F054BA0098012240000023D0EB56
:10049000020263EBE073009821464FEAE074B8EB88
:1004A000000061EB0401E9E783F000435BE781F0C2
:1004B000004158E72DE9FE4F81EA030404F00044AF
:1004C00021F0004100944FF0000B23F0004350EA6C
:1004D00001045ED052EA03045BD0C3F30A54C1F3B3
:1004E0000A552C44A4F2F3340194A0FB0254C1F346
:1004F000130141F48011C3F3130343F4801301FB90
:10050000024400FB034E840A970A44EA815447EAF6
:100510008357A4FB076802958D0A05FB07854FEA00
:10052000932C04FB0C542705029D4FEA065847EA1A
:100530001637B5EB08056EEB070C870E920E47EAEF
:10054000811742EA8312A7FB0201B6EB0B0164EBB1
:1005500000042B0D43EA0C335E1844EB1C50DA46C2
:100560005146E7FB0201C5F313044FEA0B3343EA9C
:1005700014534FEA0432019C43EA0603A4F10C042D
:100580000294009CCDE900B400F0E0F903B0BDE8AE
:10059000F08F00200146F9E72DE9F04D81EA0304D0
:1005A00004F0004B21F0004514464FF0000A23F000
:1005B000004150EA050220D054EA01021DD0C5F3E3
:1005C0000A570246C5F31303C1F31300C1F30A56D9
:1005D00040F4801543F48013A7EB0608101BD646A1
:1005E00008F2FD3873EB050002D308F1010801E0C1
:1005F00092185B41B8F1000F03DA00200146BDE814
:10060000F08D00204FF48011064684460EE0171B43
:1006100073EB050705D3121B63EB050306434CEA96
:10062000010C49084FEA300092185B4150EA01077B
:10063000EDD152EA030012D082EA040083EA0501F8
:10064000084305D0101BAB4106D20122002306E06F
:1006500000224FF0004302E06FF0010253101AEB4A
:1006600006004CEB085110EB0A0041EB0B01BDE812
:10067000F04D00F05CB9F0B4CA17CB0F50405140B8
:10068000C61841F100054FEAC372314628004FF009
:10069000960303D0B623F0BC00F01BB9304600210E
:1006A000F9E70EB5C10F80EAE0700844CA070021DF
:1006B00040F233438DE80E000A460B4600F046F93F
:1006C00003B000BD0EB540F2334102910021CDE9E7
:1006D00000110A460B4600F039F903B000BDC1F322
:1006E0000A5210B5C1F3130140F2FF3341F48011F7
:1006F0009A4201DA002010BD40F233439A42A2F23E
:10070000334203DC524200F0B9F810BD904010BDF6
:1007100000F0004230F000400AD0C10D01F56071D8
:10072000C0F3160042EA0151C20840071143704766
:10073000002001467047000030B5041E71F100042E
:1007400004DB4FF00044404264EB0101141E73F1DE
:10075000000405DB1C464FF00043524263EB0403E8
:100760008B4208BF824230BD30B5041E71F10004D7
:1007700004DB4FF00044404264EB0101141E73F1AE
:10078000000405DB1C464FF00043524263EB0403B8
:10079000994208BF904230BD01F0004330B421F0CF
:1007A000004150EA010206D00A0DA2F56072C1F3C1
:1007B0001301002A02DC30BC00207047440F44EAD9
:1007C000C104C100E01830BC00EBC25000F078B8A2
:1007D00030B50B46014600202022012409E021FA11
:1007E00002F59D4205D303FA02F5491B04FA02F50E
:1007F0002844151EA2F10102F1DC30BD2DE9F05FA5
:100800000546002092469B4688460646814640247F
:100810001BE0284641464746224600F02FF8534643
:100820005A46C01A914110D311461846224600F08C
:1008300016F82D1A67EB01084F46224601200021C9
:1008400000F00DF817EB00094E41201EA4F1010441
:10085000DFDC484631462A464346BDE8F09F202A61
:1008600004DB203A00FA02F1002070479140C2F107
:10087000200320FA03F3194390407047202A04DB39
:10088000203A21FA02F00021704721FA02F3D04009
:10089000C2F120029140084319467047202A06DB26
:1008A000CB17203A41FA02F043EAE07306E041FA3E
:1008B00002F3D040C2F1200291400843194670472C
:1008C0000029A8BF7047401C490008BF20F0010064
:1008D000704710B4B0FA80FC00FA0CF050EA010442
:1008E00004BF10BC704749B1CCF1200421FA04F4D4
:1008F00011FA0CF118BF012121430843A3EB0C01AD
:10090000CB1D4FEA00614FEA102042BF002010BC0F
:10091000704700EBC35010440029A4BF10BC7047BF
:10092000401C490008BF20F0010010BC704710B502
:10093000141E73F1000408DA401C41F10001921802
:100940005B411A4301D120F0010010BD2DE9F04DAB
:1009500092469B4611B1B1FA81F202E0B0FA80F200
:1009600020329046FFF77BFF04460F4640EA0A001C
:1009700041EA0B0153465A46084313D0114653EA45
:10098000010019D0C8F140025046FFF777FF054635
:100990000E46504659464246FFF761FF084305D0D0
:1009A000012004E020463946BDE8F08D00200543D3
:1009B00046EAE0762C4337430A986305E40AA0EB45
:1009C00008000022FD0A44EA47540A3002D50020FC
:1009D0000146E9E7010510196941DDE908450019FB
:1009E0006941BDE8F04DA2E7C1F30A52C1F313011A
:1009F00040F2FF3341F480119A4202DA00200146AE
:100A0000704740F233439A42A2F2334202DC524230
:100A1000FFF734BFFFF723BF00207047064C074D98
:100A200006E0E06840F0010394E8070098471034BE
:100A3000AC42F6D3FFF7B4FB50DF000870DF0008CC
:100A400070B58C1810F8015B15F0070301D110F890
:100A5000013B2A1106D110F8012B03E010F8016BBD
:100A600001F8016B5B1EF9D12B0705D40023521E40
:100A70000DD401F8013BFAE710F8013BCB1A921CA8
:100A800003E013F8015B01F8015B521EF9D5A142A6
:100A9000D8D3002070BD00000021084607F0B2FB4B
:100AA0000021012007F0AEFB0021022007F0AAFB85
:100AB0000021032007F0A6FB07F0BEF80121022069
:100AC00007F018F90121042007F014F9C02102A051
:100AD0000BF074FC00BFFEE72E2E5C4841524457D9
:100AE0004152455C7372635C6E7669632E630000ED
:100AF00010B5024806F0A1F910BD0000EC0000207E
:100B000010B5024806F099F910BD00005001002010
:100B100008B50020009000221021134800F0A0F832
:100B20004FF0C051104800F045F84FF0C0510E484A
:100B300000F026F8002201210C4800F00DFE0021F3
:100B4000094800F051F86946094800680CF0B6FD04
:100B5000009838B14FF0805006490860BFF34F8FBE
:100B6000BFF36F8F08BD000058600240003800409E
:100B70003C02002004ED00E010B50BF00DFD10BDAF
:100B80000246094B9A4201D2084801E00648103853
:100B900001F000531BB1064B0B40C36002E0044B55
:100BA0000B40836070470000106402400060024008
:100BB0007D0F7D0F0246094B9A4201D2084801E0A1
:100BC0000648103801F000531BB1064B0B40C360C0
:100BD00002E0044B0B408360704700001064024049
:100BE000006002407D0F7D0F21B1026842F00102DA
:100BF000026003E0026822F00102026070470146D1
:100C000000200A6802F001020AB1012000E0002081
:100C100070470146486880B27047000030B503460F
:100C20000A46002000240B4DAB4201D20A4901E0E4
:100C30000849103902F000550DB14C6800E00C680D
:100C4000064D2C4004EA02050DB1012000E0002011
:100C500030BD000010640240006002407D0F7D0F37
:100C600010B501F080034BB122B1436943F080031A
:100C7000436103E0436923F08003436180290BD083
:100C80002AB1036801F01E042343036004E00368F3
:100C900001F01E04A343036010BD000010B5002244
:100CA0000268134B1A40CC680B6823434C692343FA
:100CB0008C692343CC6923430C6A23434C6A234346
:100CC0008C6A23434C6B23438C6B23431A4302608F
:100CD000426922F00702D1E90B3423431A434261EF
:100CE0000B6943604B6883608B68C36010BD000074
:100CF0003F801CF041607047704710B50BF05EFEFE
:100D000010BD10B5012000F0C5F8FFF7F6FF10BDCB
:100D10007047704770477047704710B54FF4806058
:100D200000F0BEF8012804D1800200F0B3F8FFF70C
:100D3000EFFF4FF4006000F0B3F8012804D1C002C7
:100D400000F0A8F8FFF7E5FF4FF4805000F0A8F896
:100D5000012804D1000300F09DF8FFF7DBFF4FF4FA
:100D6000005000F09DF8012804D1400300F092F8F3
:100D7000FFF7D1FF4FF4804000F092F8012804D132
:100D8000800300F087F8FFF7C7FF4FF4004000F042
:100D900087F8012804D1C00300F07CF800F001F8C6
:100DA00010BD7047704710B5022000F073F8FFF7D0
:100DB000F9FF10BD704710B5042000F06BF8FFF785
:100DC000F9FF10BD704710B5082000F063F8FFF779
:100DD000F9FF10BD08B5002000906946074800687B
:100DE0000CF06CFC009838B14FF08050044908605A
:100DF000BFF34F8FBFF36F8F08BD00003404002096
:100E000004ED00E010B5102000F044F8FFF7E2FF19
:100E100010BD704770477047704710B5202000F034
:100E20003FF8012804D1202000F034F8FFF7F1FF4B
:100E3000402000F035F8012804D1402000F02AF8C5
:100E4000FFF7E8FF802000F02BF8012804D1802074
:100E500000F020F8FFF7DFFF4FF4807000F020F87B
:100E6000012804D1000200F015F8FFF7D5FF4FF478
:100E7000007000F015F8012804D1400200F00AF8D3
:100E800000F001F810BD704701490860704700008C
:100E9000143C01400149086070470000143C0140C7
:100EA00001460020034A12680A400AB1012000E00E
:100EB00000207047143C0140002123498279002A18
:100EC0003AD00A46126803689A430B461A600A1D14
:100ED000126803689A430B1D1A60027911440A686C
:100EE00003681A430A60184A0832126803689A4372
:100EF000154B08331A601A1D126803689A43124B87
:100F00000C331A604279102A0ED11A1F1268036836
:100F10001A430D4B08331A601A1D126803681A43EE
:100F2000094B0C331A600DE00749427911440A68F5
:100F300003681A430A6005E0027911440A680368ED
:100F40009A430A6070470000003C014030B10749F5
:100F5000096841F48061054A116005E003490968A8
:100F600021F48061014A116070470000003C02409A
:100F700070B504460A460026092502B909E0012A8F
:100F800001D1160205E0022A01D1160201E04FF458
:100F9000407600F09FF80546092D28D115480068D5
:100FA00020F4407013490860084600683043086028
:100FB0000846006820F0F80008600846006844F021
:100FC000020108430B4908600846006840F480307D
:100FD000086000F07FF805460648006820F002002F
:100FE000044908600846006820F0F80008602846B8
:100FF00070BD0000103C024009201349096801F44B
:101000008031B1F5803F01D101201CE00E49096813
:1010100001F0100109B1062015E00B49096801F43F
:10102000807109B102200EE00749096801F0EF0163
:1010300009B1072007E00449096801F0020109B17C
:10104000082000E0092070470C3C0240034800687B
:1010500040F000400149086070470000103C024029
:1010600030B502460C46092500F034F80546092D36
:1010700019D10E48006820F440700C4908600846F9
:10108000006840F4007008600846006840F0010005
:101090000860146000F01EF805460448006820F05F
:1010A000010002490860284630BD0000103C0240A3
:1010B0000548006800F0004028B1044802490C3996
:1010C0000860034808607047103C024023016745F0
:1010D000AB89EFCD08B509200090FFF78DFF009098
:1010E00002E0FFF789FF00909DF800000128F8D08A
:1010F0009DF8000008BDF0B50A4600210023002439
:1011000000BF3DE0012505FA01F3156805EA030477
:101110009C4234D105684F000326BE40B5430560AC
:1011200015794E00B5400668354305601579012DE7
:1011300002D01579022D16D185684F000326BE40D6
:10114000B543856055794E00B54086683543856066
:10115000456801268E40B5434560456896798E40C6
:10116000B6B235434560C5684F000326BE40B5435F
:10117000C560D5794E00B540C6683543C560491C89
:101180001029BFD3F0BDF0B5002300244D07ED0EAC
:1011900002FA05F3CE1000F1200555F826504E074F
:1011A000F70E0F26BE40B543CF1000F1200646F8DB
:1011B0002750CE1000F1200555F8265045EA0304CB
:1011C000CE1000F1200545F82640F0BD0246002073
:1011D00013690B400BB1012000E0002070474183F0
:1011E0007047018370474FF6FF7101600021017164
:1011F00041718171C171704710B5024805F076FEEA
:1012000010BD0000EC00002010B5024805F0B8FE4B
:1012100010BD0000EC00002010B5024805F066FE8D
:1012200010BD00005001002010B5024805F0A8FED6
:1012300010BD00005001002021B1028842F48062FC
:10124000028004E002884FF6FF331A4002807047A4
:10125000002221F07F42D3438382704721B18288EC
:1012600042F40062828004E082884FF2FF731A40E9
:101270008280704721B1828842F48052828004E0EB
:1012800082884EF6FF731A408280704710B504467C
:101290001348844209D10121480500F09FF900213B
:1012A0004FF4001000F09AF918E00E48844209D17A
:1012B0000121880500F092F900214FF4800000F030
:1012C0008DF90BE00848844208D10121C80500F0DF
:1012D00085F900214FF4000000F080F910BD0000F6
:1012E0000054004000580040005C00400CB502462D
:1012F000002000230193009300920B0F019321F033
:101300007F41019B1BB1009B1433009303E0090C48
:10131000009B18330093009B1B680B400BB101200E
:1013200000E000200CBD1AB183880B43838002E0EB
:1013300083888B43838070472DE9FF4704460D4621
:101340000026B1460427DFF8CC80A6884FF6C0708F
:101350000640684600F06CF9DDF808802E48B8FBBE
:10136000F0F01FFA80F946EA0906A68020884FF6B9
:10137000FE710840208000262849286888420CD841
:1013800028684000B8FBF0F087B2042F00DA042789
:101390003E4309F10100208427E0E8884BF6FF7105
:1013A000884206D1286800EB4000B8FBF0F087B215
:1013B00009E0286800EBC00101EB0010B8FBF0F079
:1013C00087B247F48047C7F30B0008B947F001071D
:1013D00047F4004006434FF4967009FB00F04FF4C9
:1013E0007A7190FBF1F0401C2084A683208840F0A5
:1013F0000100208026884FF6F5300640A8886989CC
:10140000084306432680A889298908432081BDE82E
:10141000FF87000000127A0040420F00A086010002
:101420000146088AC0B2704712B141F0010101E0E3
:1014300001F0FE0101827047018270474CF6CC40FA
:101440000149086070470000003000404AF6AA20B9
:1014500001490860704700000030004001494860C1
:10146000704700000030004001498860704700006C
:101470000030004001490860704700000030004023
:101480000021084606F0BEFE0021012006F0BAFE4B
:101490000021022006F0B6FE0021032006F0B2FE75
:1014A00006F0CAFB0121022006F024FC01210420E1
:1014B00006F020FCAC2102A00AF080FF00BFFEE78E
:1014C0002E2E5C48415244574152455C7372635C16
:1014D0006E7669632E6300007047000070B50021CE
:1014E00000230F22C4781CB3174C246804F4E06472
:1014F000C4F5E064C4F30721C1F10404E3B20A4176
:1015000044789C40E1B28478144021430C07210EBA
:101510000E4C05786155047804F01F050124AC4099
:1015200005786D11AD0005F1E025C5F8004109E031
:10153000047804F01F050124AC40054D06787611AF
:1015400045F8264070BD00000CED00E000E400E02E
:1015500080E100E002490143024A11607047000047
:101560000000FA050CED00E0024A0A400243024B7B
:101570001A60704780FFFF1F08ED00E029B1064A9E
:1015800012680243044B1A6004E0034A1268824363
:10159000014B1A60704700003038024029B1064AFA
:1015A00012680243044B1A6004E0034A1268824343
:1015B000014B1A60704700003438024029B1064AD6
:1015C00012680243044B1A6004E0034A1268824323
:1015D000014B1A60704700004038024029B1064AAA
:1015E00012680243044B1A6004E0034A1268824303
:1015F000014B1A60704700002038024029B1064AAA
:1016000012680243044B1A6004E0034A12688243E2
:10161000014B1A60704700002438024003480068FC
:1016200040F0807001490860704700007438024043
:10163000F0B5002100220024022500260223324FAB
:101640003F6807F00C0121B1042905D0082937D1E2
:1016500005E02E4F076036E02D4F076033E02A4F3C
:101660003F1F3F68C7F38056274F3F1F3F6807F073
:101670003F036EB1264FB7FBF3F7DFF88CC0ACF138
:10168000040CDCF800C0CCF3881C07FB0CF40CE065
:101690001E4FB7FBF3F7DFF870C0ACF1040CDCF8B9
:1016A00000C0CCF3881C07FB0CF4174F3F1F3F68AA
:1016B000C7F301477F1C7D00B4FBF5F7076002E02C
:1016C000124F076000BF00BF0F4F3F6807F0F001E7
:1016D0000909104F7A5C0768D74047600A4F3F6896
:1016E00007F4E051890A0B4F7A5C4768D74087605E
:1016F000054F3F6807F46041490B064F7A5C476825
:10170000D740C760F0BD0000083802400024F40054
:1017100000127A006802002010B501460022002362
:1017200000204A11012A02D10A4C236808E0022A4B
:1017300003D1084C7034236802E0064C74342368EB
:1017400001F01F02012494401C400CB1012000E074
:10175000002010BD003802401AB183880B438380FB
:1017600002E083888B4383807047000038B50446CD
:10177000002000901C48007808B1012038BD1B48AB
:10178000046076201A490870322004F0F9FB6B4699
:101790000D22174801781548006805F094FA9DF865
:1017A0000000102805D19DF8001012A000F04AFD9D
:1017B00001E00020E2E70AF009FA062204210020F5
:1017C0000AF060FB0622042101200AF05BFB0723DC
:1017D0000822074801780548006805F0F4FA01205E
:1017E0000149087000BFC9E74C02002048020020F0
:1017F0004402002053504C30362049442049533A8B
:1018000020307825580A000010B52DED028BB0EE7F
:10181000408AB5EEC08AF1EE10FA16D09FED0C0AA0
:10182000C0EE080AF0EE608ADFED0A0AB0EE680A40
:1018300000F0CAFFF7EE000A30EE600ADFED060A9C
:1018400020EE200ABDEC028B10BD9FED040AF9E7E3
:10185000CDEC7D44B1DC423E002A2D470000000063
:1018600001461C48814201D2002070471A4881423B
:1018700001D20820F9E71948814201D21020F4E78B
:101880001748814201D21820EFE71648814201D261
:101890002020EAE71448814201D22820E5E71348D6
:1018A000814201D23020E0E71148814201D2382044
:1018B000DBE71048814201D24020D6E70E48814242
:1018C00001D24820D1E70D48814201D25020CCE717
:1018D0005820CAE7004000080080000800C0000847
:1018E00000000108000002080000040800000608CB
:1018F0000000080800000A0800000C0800000E089C
:1019000030B503460C461546002206E0184600F0A6
:1019100007F844F822001B1D521CAA42F6D330BD22
:1019200001460868704700002DE9F04704460E465E
:1019300017464FF009080025A946B4F1006F02D3FD
:1019400004F0030008B1BDE8F087FFF7B1FB002009
:10195000FFF7FCFA254604EB87091848854215D2A3
:1019600011E02846FFF7DCFF401C58B12846FFF77E
:1019700077FF82460221FFF7FBFA8046B8F1090F94
:1019800001D002E02D1D4D45EBD300BFB8F1090F8A
:101990000CD108E020463168FFF762FB092800D02F
:1019A00003E0241D361D4C45F4D300BF0120FFF792
:1019B000CDFAFFF74BFB00BFC5E700000000FF1F9B
:1019C00030B500228B071C0F0F2303FA04F20B4BD8
:1019D0008C1053F824309343084C8D1044F8253074
:1019E00023468C1053F824308C07240F00FA04F49B
:1019F0002343024C8D1044F8253030BD0838014097
:101A00000CB50020019000903348006840F480300D
:101A10003149086000BF3048006800F40030009091
:101A20000198401C0190009818B90198B0F5A04F9A
:101A3000F1D12948006800F4003010B10120009075
:101A400001E0002000900098012844D12248403055
:101A5000006840F080502049403108601F4800680D
:101A600040F440401D4908601B48083000681A498E
:101A7000083108600846006808600846006840F4BD
:101A8000805008601648091F0860081F006840F071
:101A90008070091F086000BF0F48006800F00070E8
:101AA0000028F9D040F202700E4908600A48083058
:101AB000006820F003000849083108600846006803
:101AC00040F00200086000BF03480830006800F0E2
:101AD0000C000828F8D10CBD00380240007000400E
:101AE00008304004003C0240042808D14FF0E021B7
:101AF000096941F004014FF0E022116107E04FF065
:101B0000E021096921F004014FF0E02211617047E2
:101B100010B50BF0B9FE012802D00BF0AFFB04E0CA
:101B200002480068401C0149086010BD0402002002
:101B300010B51548006840F4700013490860134858
:101B4000006840F001001149086000200F49083189
:101B500008600E4800680E4908400C4908600D48AE
:101B6000091D0860081F006820F48020091F086014
:101B7000002006490C310860FFF742FF4FF000607B
:101B800001498039086010BD88ED00E0003802404E
:101B9000FFFFF6FE1030002421B1028842F08002DF
:101BA000028004E002884FF67F731A40028070477B
:101BB00021B1028842F00102028004E002884FF65F
:101BC000FE731A400280704710B50446554884429F
:101BD00008D101210846FFF711FD00210120FFF780
:101BE0000DFD9DE0B4F1804F08D101210846FFF7BB
:101BF000F5FC00210120FFF7F1FC91E04A48844206
:101C000008D101210220FFF7E9FC00210220FFF7A3
:101C1000E5FC85E04548844208D101210420FFF716
:101C2000DDFC00210420FFF7D9FC79E04048844224
:101C300008D101210820FFF7D1FC00210820FFF77F
:101C4000CDFC6DE03B48844208D101211020FFF714
:101C5000C5FC00211020FFF7C1FC61E0364884423A
:101C600008D101212020FFF7B9FC00212020FFF737
:101C7000B5FC55E03148844208D101210220FFF72C
:101C8000BDFC00210220FFF7B9FC49E02C4884424A
:101C900009D101210804FFF7B1FC00214FF4803085
:101CA000FFF7ACFC3CE02748844209D101214804FD
:101CB000FFF7A4FC00214FF40030FFF79FFC2FE05A
:101CC0002148844209D101218804FFF797FC0021B3
:101CD0004FF48020FFF792FC22E01C48844208D198
:101CE00001214020FFF77AFC00214020FFF776FC1D
:101CF00016E01748844208D101218020FFF76EFCCE
:101D000000218020FFF76AFC0AE01248844207D1D4
:101D100001218015FFF762FC0021A015FFF75EFC92
:101D200010BD000000000140000400400008004019
:101D3000000C00400010004000140040000401406E
:101D400000400140004401400048014000180040AC
:101D5000001C00400020004070B500240022002339
:101D6000058C4FF6FE7635400584028C8388048B03
:101D70004FF68F752C40B51E2C400D882C43751ED8
:101D80002A408D892A434D882A43104DA84202D00B
:101D90000F4DA84213D14FF6F7752A40CD892A433B
:101DA0004FF6FB752A408D882A434FF6FF652B407E
:101DB0004FF6FF552B400D8A2B434D8A2B438380D2
:101DC00004838D684563028470BD000000000140FB
:101DD000000401400A460021018B4FF6F7731940B9
:101DE000114301837047000070B5002400220023D6
:101DF000058C4FF6EF7635400584028C8388048B82
:101E000048F6FF752C404FF6FF452C400D884FF6E5
:101E1000FF7606EA05252C434FF6DF752A408D89AB
:101E200006EA05152A434D8806EA05152A43154D8D
:101E3000A84202D0144DA8421DD14FF67F752A400A
:101E4000CD894FF6FF7606EA05152A434FF6BF7592
:101E50002A408D8806EA05152A434FF6FF352B40A8
:101E60004FF2FF752B400D8A06EA85052B434D8AFC
:101E700006EA85052B43838004838D68856302848D
:101E800070BD000000000140000401400A4600212E
:101E9000018B4FF2FF7319404FF6FF7303EA0223E1
:101EA000194301837047000070B50024002200230D
:101EB000058C4FF6FF6635400584028C8388848B41
:101EC0004FF68F752C404FF6FC752C400D882C4337
:101ED0004FF6FF552A408D894FF6FF7606EA052515
:101EE0002A434D8806EA05252A43154DA84202D00B
:101EF000144DA8421DD14FF2FF752A40CD894FF6EF
:101F0000FF7606EA05252A434FF6FF352A408D88DD
:101F100006EA05252A434EF6FF752B404DF6FF7560
:101F20002B400D8A06EA05152B434D8A06EA051556
:101F30002B43838084838D68C563028470BD000059
:101F400000000140000401400A460021818B4FF649
:101F5000F773194011438183704741637047816370
:101F60007047C1637047000000220288184B9842F6
:101F70000ED0184B98420BD0B0F1804F08D0164BC2
:101F8000984205D0154B984202D0154B984204D187
:101F90004FF68F731A404B881A43124B984207D062
:101FA000114B984204D04FF6FF431A400B891A4355
:101FB00002804B68C3620B880385054B984202D0B0
:101FC000044B984201D18B7A0386012383827047A8
:101FD00000000140000401400004004000080040EF
:101FE000000C004000100040001400401CB5002010
:101FF000009040F22551084800F034F858B10648E6
:1020000000F0EAF8C0B2019000236A4601A9034833
:1020100000680BF005FB1CBD0010014030020020E1
:1020200010B50AF0D1FB10BD01F40072B2F5007FCB
:1020300000D100BFCA430280704721B1828942F4B7
:102040000052828104E082894DF6FF731A4082813A
:1020500070471AB1838A0B43838202E0838A8B43E1
:102060008382704770B502460024002300250020BB
:1020700040F66A16B14200D100BFC1F3421501F02B
:102080001F03012606FA03F3012D02D1968933407E
:1020900006E0022D02D1168A334001E0968A3340D1
:1020A0000C12012606FA04F41688344013B10CB160
:1020B000012000E0002070BDF0B50346002400269A
:1020C0000025002040F66A17B94200D100BF18462B
:1020D000C1F3421401F01F06012707FA06F5012C8F
:1020E00001D10C3004E0022C01D1103000E014309A
:1020F0001AB107682F43076002E00768AF43076023
:10210000F0BD00002DE9FF4705460E460024A1461C
:1021100000BFA046B08900B100BF2C8A24F440540F
:10212000F08804432C82AC8941F20C608443B0886F
:1021300031890843718908430443AC81AC8A24F493
:102140004074B0890443AC826846FFF771FA2048B6
:10215000854202D01F48854202D1DDF80C9001E093
:10216000DDF80890A88900F4004040B109EBC900EF
:1021700000EB091031684900B0FBF1F707E009EB0B
:10218000C90000EB091031688900B0FBF1F7642049
:10219000B7FBF0F004012009642101FB1078A88945
:1021A00000F4004040B1322000EBC800B0FBF1F079
:1021B00000F00700044308E0322000EB081064211F
:1021C000B0FBF1F000F00F0004432C81BDE8FF8765
:1021D000001001400014014001468888C0F3080047
:1021E0007047C1F308028280704700000021084652
:1021F00006F008F80021012006F004F80021022072
:1022000006F000F80021032005F0FCFF05F014FDA6
:102210000121022005F06EFD0121042005F06AFD78
:10222000D42102A00AF0CAF800BFFEE72E2E5C48B7
:10223000415244574152455C7372635C6E766963E8
:102240002E6300000FB4054B10B503A9044A029891
:1022500001F03AF910BC5DF814FB0000216A000897
:10226000100000204100080218BF04200A0E18BF09
:1022700040F001004FF07F4232EA010108BF40F018
:102280000200012808BF05207047000010B54FF07C
:102290000E402DED028BB0EE408A18EE104A00EB96
:1022A0004400B0F1506F4AD84FF0FC40B0EB440FFF
:1022B00022D2B0EEC80AF7EE000A30EEC00AF6EEFF
:1022C000000A60EE208A18EE900A09F039FE01EE4D
:1022D000100A14F0004F1DBFDFED2D0A9FED2D0AEF
:1022E000B1EE411ADFED2C0A08BF9FED2C0AF8EE83
:1022F000001A21EE218A05E0DFED290A68EE088A3E
:10230000B0EE600A9FED271ADFED271A30EE080ABB
:1023100048EE811A9FED251A08EEA11ADFED241A66
:1023200048EE811A9FED231A08EEA11A68EE281ACA
:10233000BDEC028B01EE810A30EE200A10BD4FF099
:10234000E440B0EB440F0CD918EE100AFFF78AFFF7
:10235000042808BF00F02EFFB0EE480ABDEC028B47
:1023600010BD4FF07F40B0EB440F07D2B0EE480AEB
:10237000BDEC028BBDE8104000F006BF012000F06C
:10238000DBFFBDEC028BBDE8104000F003BF000096
:102390000000C9BF22AAFDB90000C93F22AAFD3929
:1023A0000000000024FE1C3DC78AD83C1E67383D53
:1023B0001B93993DAFAA2A3E70B54FF068422DEDB0
:1023C000048BF0EE408A18EE900AB0EE608A18EEA8
:1023D000101A02EB4003B3F1654F3CBF02EB410220
:1023E000B2F1654F7DD200BFC0F3C753C1F3C752EE
:1023F0009A1A1B2A09DD10F0004F14BF9FED830AC3
:102400009FED830ABDEC048B70BD12F11A0F36DA12
:1024100011F0004F09D010F0004F0CBF9FED7D0A66
:102420009FED7D0ABDEC048B70BD88EE889A19EE95
:10243000100AFFF717FF042808BF00F0BBFE18EED4
:10244000900AFFF70FFF054618EE100AFFF70AFF84
:10245000044619EE100AFFF705FF042D18BF052DDD
:1024600008D1042C18BF052C04D1002804BF022079
:1024700000F062FFB0EE490ABDEC048B70BD420073
:10248000B2EB410F3AD910F0004F19BFDFED630AEC
:102490009FED630ADFED630A9FED630AB0EE481A11
:1024A0000A46B1EE688A80F00041F0EE418A10469B
:1024B0000A1A5200B2F1807F34D2484010F0004F27
:1024C000DFED5A1A9FED5A2A1DBFBEEE001A70EEBC
:1024D000E10A30EE420AB6EE001A08BF70EEA10A19
:1024E00000E040E008BF30EE020AB0EE682A01EEDC
:1024F000482A08EE818AC2EE081A15E011F0004F52
:1025000004BF9FED4C0AF0EE400AD1D010F0004F0E
:1025100019BFDFED490A9FED490ADFED490A9FED3A
:10252000490AC5E7C8EE881A21EEA11A9FED462A8E
:10253000DFED462A41EE022A9FED452A01EE222ACE
:10254000DFED442A41EE022A9FED432ABDEC048BC5
:1025500001EE222A21EE811A01EE020A30EE210A52
:1025600030EE200A70BD4FF07F42B2EB400F28BF23
:10257000B2EB410F09D2F0EE480AB0EE680ABDECAA
:10258000048BBDE8704000F002BE40EA01035B002E
:1025900008BF41F0FF410BD0B2EB400F08BFB2EBD8
:1025A000410F08D120F0804008EE900A21F08041D0
:1025B00008EE101A18E7B2EB400F12BF5FEA4103B2
:1025C00040F0FF4001F000413FF40EAFB2EB410F8D
:1025D00012BF5FEA400200F0004041F0FF413FF4CB
:1025E00003AF4A0092EA40033FF5FEAE002AACBFBB
:1025F0009FED1A0A9FED1A0A68EE808A28EE008A7B
:1026000018EE900A18EE101AEEE60000DB0FC9BFB4
:10261000DB0FC93FDB0F4940DB0F49C00000C9BFDA
:1026200022AAFDB90000C93F22AAFD390060ED3E93
:10263000C30ACE3700000000000049C022AA7DBABC
:102640000000494022AA7D3A2DAD65BD8FB8D53D29
:102650000FB511BE61C84C3EA8AAAABE0000804FAB
:102660000000802F10EE101A08B5444A6846B2EBFD
:10267000410F28D94FF0E640B0EB410F94BF002046
:102680004FF0FF3000900098002861DB60EE000AF8
:1026900010F0010F45D010F0020FDFED391A9FED59
:1026A000391A00EEE11ADFED381A40EE811A21EEF8
:1026B000A01AF0EE400A40EE010A08BFF1EE600AEF
:1026C000B0EE600A08BD314B21F0004293423CD984
:1026D00011F0004FDFED2E0A20EE201ADFED2D0A5B
:1026E00019BF31EE601A71EE200A31EE201A71EE38
:1026F000600ABDEEE01A11EE100A9FED271A00F0F5
:10270000030000EEC10A9FED251A009000EEC10AF9
:102710009FED231A00EEC10A9FED221A00EEC10AB6
:10272000B1E79FED211A9FED210A10F0020F00EE94
:10273000810A9FED1F1A00EE801AB7EE000A00EE24
:10274000810A18BFB1EE400A08BD00F03BFD9AE7D0
:1027500010EE100A4000B0F17F4F3CBFB7EE000A08
:1027600008BD07D14FF0010000F0E6FDBDE80840CC
:1027700000F010BDBDE8084000F006BDB61F927E17
:10278000336D4C39DA82083CA0AA2ABE490E49466C
:1027900083F9223F0000004B0000C93F00A0FD3933
:1027A0000020A2331A61342CB93AB2BACA9F2A3D2A
:1027B000DDFFFFBE2DED020B019820F000400190DF
:1027C0009DED000B02B0704710B510EE100A2DED14
:1027D000068BB7EE001A10EE901AB0EE418A002276
:1027E000A0F5000CDFEDFE9A4FF00073BCF1FE4F38
:1027F0004FF07F4403EB410C80F0B481BCF1804F7B
:10280000C0F02082F74901449FEDF73AB1F5005F2F
:1028100040F2D48200F58021CB0C03F00F0101EED1
:10282000901AC3F307137F3BA0EBC350B8EEE12A25
:1028300000EE100A1A44DFEDED2AF0EE411A42EEE6
:10284000221AF0EE613A70EE232A30EE632A12EE7D
:10285000900A00F500606FF30B0001EE900A73EE32
:10286000E13A33EE804AC1EE223A22EE230A10EE1C
:10287000100A00F500606FF30B0000EE100A00EE86
:10288000612A00EE442A62EE232A70EE221A21EE1B
:10289000A12ADFEDD73A02EE233A23EE023A20EEE8
:1028A000012A22EE811A03EE211A32EE010A10EEFD
:1028B000100A00F500606FF30B0000EE100A72EED4
:1028C000401A31EE812A9FEDCB1A60EE011A9FED7E
:1028D000CA1A20EE011A9FEDC90A02EE001A31EE63
:1028E000810A10EE100A00F500606FF30B0000EE95
:1028F000100AC34871EEC01A31EE812A784400EB09
:10290000C10090ED003AD0ED011A100101EE100A5D
:10291000F8EEC12A32EE211A31EE001A31EE031A16
:1029200031EE221A11EE100A00F500606FF30B0071
:1029300009EE100A39EE621A31EE431A31EE400AFE
:1029400030EE610A32EE40AA10EE900A002100F546
:1029500000606FF30B0008EE900A084670EEE8AADC
:10296000FEF75AF829EE280A00F00C01F0EEC00A32
:1029700010EE900AB0F18B4F0DDD10EE900AB4EB23
:10298000400F08D310EE100A4FF08B4262F31E0086
:1029900008EE900A13E069EE2A0A38EEAA1A4AEE07
:1029A000010A30EE201A11EE100A00F500606FF3F4
:1029B0000B0008EE900A30EE680A70EE209A0C20A8
:1029C000FEF72AF838EEA90AB5EEC00AF1EE10FAC1
:1029D00034BFFEEE000AF6EE000A30EE800ABDEECD
:1029E000C00A10EE100A011100EE101AF8EEC00A2B
:1029F00000EE100AB8EEC00A38EEC00A30EE290A1E
:102A0000DFED801A9FED801A00EE211ADFED7F1AAC
:102A10007F4900F00F0040EE011A21EE800A794450
:102A200001EB800191ED001A7A49794401EB8001B4
:102A3000D1ED001A784901EE801A794401EB80004B
:102A4000764990ED000A31EE001AB0EEE00A10EE81
:102A5000100A884215DA10EE100AB4EB400F10D3BA
:102A60009FED6F0A30EE800ADFED6E0A20EE200A3D
:102A700068EE010ABDEC068BBCEEC00A20EE200A0F
:102A800010BD10EE100A6849884243DA10EE100AB1
:102A9000B4EB400F3ED3BDEEE00A68EE010A10EE43
:102AA000100A00EBD0725110C90501F17E5100EE01
:102AB000101AA0EB6200C00560EE200A00F17E5003
:102AC00000EE100A60EE808A18EE900AB4EB400F18
:102AD0000FD1022000F030FC00F064FB10EE101A61
:102AE00018EE100ABDEC068B61F31E0000EE100A12
:102AF00010BD18EE900A400011D018EE900AFFF7B2
:102B0000B1FB042808BF00F055FBB0EE680ABDEC2D
:102B1000068B10BDF5EEC00AF1EE10FA0FD20220BE
:102B200000F00AFC00F046FB10EE101A18EE100A36
:102B3000BDEC068B61F31E0000EE100A10BD0220F2
:102B400000F0FAFB00F02EFB10EE101AB0EE480A6F
:102B500010EE100ABDEC068B61F31E0000EE100AA9
:102B600010BD00BFBCF1804F6CD300BF00F1FF432C
:102B7000B3F1FE4F24D200BFB0EEC00A10EE100A2F
:102B8000C1F3C7537F2B0DDB972BBFF63BAEC3F1D1
:102B900096034FF0010C0CFA03F3A3F1010C1CEAAD
:102BA000010F08D0012000F0C7FBBDEC068BBDE88B
:102BB000104000F0EFBA0B4218BFBFEE008A21E6CA
:102BC00043001CBF4FF08073B3EB400F34D96FF05C
:102BD0001A02DFED161A20EE210A10EE100A27E085
:102BE00000000000001080C0ABAAAA3E0000803D9B
:102BF0007EE24C3E00B03842D49AB8BB3BAA384281
:102C0000ECB40000FC596337C9FF753A1872313DC6
:102C10008AB40000BEB400002EB400000000FC42E4
:102C20000000FE420000004B000040430000004D49
:102C300010F0004FA0D1E5E5A0F50003B3F1FE4F81
:102C400021D2DFE503EB4103B3F1007F11D3F5EEB1
:102C5000C00AF1EE10FA05D1430018BFB4EB400FE3
:102C600076D883E701F0004141F0FC5100EE901A64
:102C70007CE7B3F1807F06D210EE903AA3F5000313
:102C800000EE903A72E720F000426FF0FF4C604C8B
:102C900002EB0C03A34210D321F000439C44A44553
:102CA0000BD3B0F17E5F18BF5FEA410C50D0B2F198
:102CB000FF4F98BFB3F1FF4F05D9BDEC068BBDE8C0
:102CC000104000F064BAB0F1FF4F0FD0C1F3C7520B
:102CD0007F2A09DB972A11DAC2F19602012303FA4F
:102CE00002F2531E0B4205D0002208E011F0004F03
:102CF00055D128E00A4218BF012200D1022210F566
:102D0000000F13D028B3B0F1004F26D010F1814F3F
:102D10004FD04FF0FE42B2EB400F94BF0120002095
:102D2000012202EBE171884239D10CE011F0004F31
:102D300002D0012A38D032E0012A02BF9FED350AC5
:102D4000BDEC068B10BD9FED340ABDEC068B10BDAB
:102D50002FE011F0004F0CD121E0B1F1FF4F1ED058
:102D600011F5000F05D011F0004F15D00AB1012A5E
:102D700008D0022000F0E0FABDEC068BBDE8104060
:102D800000F0F8B9022000F0D7FA00F0F3F9BDEC3A
:102D9000068BB1EE400A10BD0AB1012A04D0B0EE94
:102DA000690ABDEC068B10BDBDEC068B9FED1B0ABE
:102DB00010BDBDEC068BB7EE000A10BD30EE410A27
:102DC000B5EE001A9FED172A00EE413AB6EE001A52
:102DD00060EE001A00EE431A61EEC11A9FED101A60
:102DE00020EE011A20EE020A9FED0F2A01EE820A60
:102DF00071EE001A11EE900A00F500606FF30B00FF
:102E000009EE100A31EE491A31EE00AA9CE50000E5
:102E1000FFFF3F00000080FF0000807F0000008077
:102E200000B0B841D49A38BB3BAAB84100B510EE07
:102E3000101A2DED028B81B0524A6846B2EB410F59
:102E40002ED94FF0E640B0EB410F94BF00204FF079
:102E5000FF3000900098B0EE408A00286ADB10F046
:102E6000010F4BD068EE080A9FED471A9FED470A05
:102E700000EE810A9FED461A10F0020F00EE801A54
:102E8000B7EE000A00EE810A02BF01B0BDEC028B72
:102E900000BD00BF01B0B1EE400ABDEC028B00BD29
:102EA0003C4B21F00042934241D911F0004FDFED3D
:102EB0003A0A20EE201ADFED390A19BF31EE601A06
:102EC00071EE200A31EE201A71EE600ABDEEE01AB2
:102ED00011EE100A9FED321A00F0030000EEC10A55
:102EE0009FED301A009000EEC10A9FED2F1A00EE00
:102EF000C10A9FED2E1A00EEC10AABE728EE080AC0
:102F00009FED2B1ADFED2B0A10F0020F40EE410A65
:102F10009FED291A00EE201A61EE000AB0EE480A71
:102F200008EE200AB6D101B0BDEC028B00BD00F066
:102F300049F98FE718EE100A4000B0F17F4F0DD22B
:102F400018EE100AFFF78EF9042808BF00F032F9D6
:102F5000B0EE480A01B0BDEC028B00BD09D10120E2
:102F600000F0EAF901B0BDEC028B5DF804EB00F073
:102F700011B901B0B0EE480ABDEC028B5DF804EB6C
:102F800000F002B9B61F927EB93AB2BACA9F2A3D82
:102F9000DDFFFFBE490E494683F9223F0000004B8A
:102FA0000000C93F00A0FD390020A2331A61342C73
:102FB000336D4C39DA82083CA0AA2ABE10B52DED3B
:102FC000028BB1EEC08A18EE100A20F00040C0F16A
:102FD000FF40C00F0AD010EE100A20F00040C0F1F0
:102FE000FF40C00F04BF012000F0A6F9B0EE480A70
:102FF000BDEC028B10BD000000B510EE101A2DEDD7
:10300000028B81B04D4A6846B2EB410F3CD94FF07C
:10301000E640B0EB410F94BF00204FF0FF3000902E
:103020000098B0EE408A00285FDB28EE080ADFED4A
:10303000440A9FED441A00EE201ADFED430A40EEE9
:10304000010A9FED421A00EE201ADFED410A10F04E
:10305000010F40EE010A9FED3F1A00EE201A61EECB
:10306000000AB0EE480A08EE200A02BF01B0BDEC2B
:10307000028B00BDBFEE001A01B0C1EE000ABDEC2C
:10308000028BB0EE600A00BD334B21F00042934248
:1030900028D911F0004FDFED310A20EE201ADFEDC4
:1030A000300A19BF31EE601A71EE200A31EE201A93
:1030B00071EE600ABDEEE01A11EE100A9FED291ABA
:1030C00000F0030000EEC10A9FED271A009000EE09
:1030D000C10A9FED261A00EEC10A9FED251A00EEE7
:1030E000C10A9DE700F06EF89AE718EE100A40005A
:1030F000B0F17F4F0DD218EE100AFFF7B3F8042895
:1031000008BF00F057F8B0EE480A01B0BDEC028BE2
:1031100000BD09D1012000F00FF901B0BDEC028B18
:103120005DF804EB00F036B801B0B0EE480ABDEC33
:10313000028B5DF804EB00F027B80000B61F927E0A
:10314000BBE9223C0C6D063B8A76CE3CACB5593DC2
:1031500035A1083E29AAAA3E490E494683F9223FD5
:103160000000004B0000C93F00A0FD390020A23341
:103170001A61342CDFED030AB7EE001A81EE200A43
:10318000704700000000000030EE000A704730EE8B
:10319000200A7047DFED020A80EEA00A70470000A7
:1031A000000000009FED020A20EE000A70470000B8
:1031B000000000709FED020A20EE000A7047000038
:1031C000000000102DE9F0014FF07F42B2EB410FFB
:1031D0009FBF4FF0FF310160BDE8F00170474FF035
:1031E000004242EA0123C1F3C752783A551112F066
:1031F0001F0C434CCCF120067C44C1F3C752A2F112
:1032000078024FEA621204EB820254F8254008BFAC
:10321000D2E9015612D0556804FA0CF425FA06F7E3
:103220003C43976805FA0CF527FA06F8D26807FAC6
:103230000CFCF24045EA08054CEA0206A4FB034CEC
:10324000A5FB0352A6FB03631D449D4234BF012628
:1032500000261319334416B1934202D903E0934276
:1032600001D2012200E00022624402F1200C920609
:10327000DC0C42EA443200EE102A5B03DFED210A47
:10328000F8EEC01A00EE103A4FEA9C1C11F0004F05
:10329000B8EE400AC0F800C020EE201A00EE105A26
:1032A000DFED190AB8EE400A20EE200A71EE810A1D
:1032B00070EE800A10EE902A02F500626FF30B02A6
:1032C00000EE902A70EEE11A31EEC11ADFED101A0D
:1032D00030EE411A9FED0D0A20EE800A01EE210A20
:1032E0009FED0C1A00EE810A04BFBDE8F0017047A3
:1032F000CCF180510160BDE8F001B1EE400A7047A9
:1033000030AD0000000000360000802C22AAFD290C
:10331000DB0FC92F0000C92F02E008C8121F08C127
:10332000002AFAD170477047002001E001C1121F46
:10333000002AFBD170470000014908607047000077
:10334000B00400202DE9FF5F82B00021DDE90430E8
:10335000020DDDF840B0034318D044F61050A2F23D
:10336000FF3242431514119801281FD0A5EB0B0022
:10337000401C5FEA000A4FF000064E4FDFF838911C
:10338000B046504615D5CAF1000413E01198012447
:103390004AA3012801D16FEA0B010298119AC0E9F2
:1033A0000031C0E9024206B0BDE8F09FCBF1000059
:1033B000DFE704460021404A491842EB0450CDE9BA
:1033C000001012E0E00707D032463B46404649462F
:1033D000FDF770F88046894632463B46104619464E
:1033E000FDF768F806460F466410002CEAD1DDE9C7
:1033F0000401DDE90023BAF1000F06DAFDF75AF8FF
:1034000042464B46FDF756F805E0FDF7C5F8424643
:103410004B46FDF7C1F804460E460022284BFDF747
:10342000A3F903D84FF0FF30014607E00022254BF7
:1034300020463146FCF797FFFDF7D6FA102409E045
:10344000002C0ADB0A220023FDF7D8F9039B303257
:103450001A55641E50EA0102F2D1641C039AC4F1A9
:1034600011031444119A012A03D0012208430DD1FB
:103470000AE0084304D000204FF0110B119072E7CE
:10348000A3EB0B056D1E0DE05B4504DD4FF0000264
:1034900005F1010504E003DA4FF00002A5F1010592
:1034A000002AECD002981199C0E90231C0E9004528
:1034B00079E70000000014400000F03F30000000F9
:1034C0000000F0430000E03F2DE9FF4F95B09A4621
:1034D000884606460025EEE1252877D100242746B8
:1034E000F94A0121039400E0044316F8013F203B10
:1034F00001FA03F01042F7D130782A2811D06FF08A
:103500002F033078A0F13002092A16D8039A44F02C
:10351000020402EB820203EB42021044761C039089
:10352000EFE758F8042B0392002A03DA504244F4E0
:103530000054039044F00204761C30782E2816D1F3
:1035400016F8010F44F004042A280DD06FF02F0262
:103550003078A0F13003092B09D807EB870302EB81
:103560004303C718761CF3E758F8047B761C3078C1
:103570006C280FD006DC4C2817D068280DD06A289C
:1035800014D104E0742810D07A280FD10DE044F44F
:1035900000140AE044F4801401E044F4401472780A
:1035A000824202D104F58014761C761C307866289D
:1035B0000BD013DC582877D009DC002875D04528BB
:1035C000F6D04628F4D047281AD193E118E06328B2
:1035D00035D0642879D0652812D18BE1702873D05A
:1035E00008DC6728F1D069286FD06E280DD06F28CD
:1035F00006D1ACE073282CD0752874D0782853D02D
:103600005246179990476D1C54E1C4F302500228AA
:1036100009D003280DD0D8F8001004280DD00D6073
:1036200008F1040846E1D8F80010EA17C1E9005291
:10363000F6E7D8F800100D80F2E70D70F0E718F803
:10364000041B8DF8001000208DF80100EB460120CE
:1036500003E058F804BB4FF0FF3061074FF0000162
:1036600002D40DE009F101018946B9420FDA814522
:10367000F8DB1BF809100029F4D108E009F1010179
:1036800089468142FADB1BF809100029F6D103981C
:103690005346A0EB090721463846179A00F080FAF6
:1036A000284400EB090507E044E008E10DE01BF8C1
:1036B000010B524617999047B9F10109F7D25346C9
:1036C00021463846179AF2E039E00A21C4F3025243
:1036D0004FF0000B0091022A06D058F8040BC117D6
:1036E000032A09D00AE023E008F1070020F00702CE
:1036F000F2E80201904605E000B2C117042A01D1A8
:1037000040B2C117002906DA0A460021404261EBA7
:1037100002012D2202E0220504D52B228DF804207F
:10372000012203E0E20701D02022F7E7914657E0AB
:103730000A2100E010214FF0000B00910BE0102156
:103740004FF0000B44F004040827009103E0082028
:103750004FF0000B0090C4F30252022A05D058F833
:10376000040B0021032A08D008E008F1070020F02C
:103770000702F2E80201904603E080B2042A00D179
:10378000C0B24FF0000922072AD53278702A07D03C
:10379000DDF800C08CF0100C5CEA0B0C05D00EE0DC
:1037A00040228DF80420012208E050EA010306D0EF
:1037B00030238DF804308DF8052002229146009BBD
:1037C00083F0080353EA0B030AD150EA010201D146
:1037D000620705D530228DF804204FF001097F1EC5
:1037E0003278582A04D039A20C920CAA02920BE02B
:1037F0003BA2F9E75B46009AFDF700F80C9B9B5C47
:10380000029A521E0292137050EA0102F2D10298FB
:1038100004A9081A00F1200B600702D524F48034B3
:1038200000E001275F4502DDA7EB0B0000E0002070
:1038300000EB0B01009003984944401A0390E00309
:1038400006D453462146179A039800F0A9F9054477
:10385000002706E001A85246C05D179990476D1CED
:103860007F1C4F45F6DBE0030CD553462146179AE3
:10387000039800F095F9054404E03020524617996A
:1038800090476D1C0099481E00900029F5DC08E067
:103890000298029952460078491C02911799904764
:1038A0006D1CBBF10001ABF1010BF1DC5BE100F041
:1038B00065F90544761C307800287FF40DAE19B008
:1038C0002846BDE8F08F000009280100303132336E
:1038D000343536373839616263646566000000004C
:1038E0003031323334353637383941424344454636
:1038F00000000000600700D4062708F1070020F050
:103900000700F0E80223804603F0004C5FEA0C0059
:1039100001D097A009E0200501D596A005E0E007B9
:1039200001D095A001E0AFF24C001390307823F065
:10393000004365280CD006DC452809D046281DD058
:1039400047287FD13BE0662818D067287AD136E037
:103950000021112F01DB112000E0781CCDE90001CE
:1039600004A90CA8FFF7EEFCDDE90D010C9A4FF05D
:10397000000B07F10109109200914EE04FF000405A
:103980000097CDE9011004A90CA8FFF7DBFCDDE9E5
:103990000D020C9B0F994FF0000B91461093009273
:1039A00011B9791C00EB0109B7EB090003D4C0F190
:1039B000FF3B07F10109A9EB0700019042E0012F4D
:1039C00000DA01270021112F01DD112000E0384627
:1039D000CDE9000104A90CA8FFF7B4FCDDE90D0155
:1039E0000C9A00914FF0000BB946109221070FD4AA
:1039F000009A4A4503DA914601E0A9F10109B9F1BB
:103A0000010F05DD109AA9F10101515C3029F4D0B4
:103A1000B84202DA10F1040F03DA0121CDE90110F6
:103A200010E0002803DC8344A9EB000102E0411C04
:103A3000494500DD8946A0EB0B00401C01904FF08A
:103A400000400290200705D40198484502DB4FF062
:103A5000FF30019000208DF84B0002980DF14B07CC
:103A6000B0F1004F25D002200C902B200D90029831
:103A700000280CDA404202902D200D9007E00A2128
:103A80000298FCF7A5FE3031029007F8011D0C9951
:103A9000481E0C900029F2DC02980028EFD1791E14
:103AA0000D980870307800F0200040F0450007F8CD
:103AB000020D11A8C01BC01D02901398007800B120
:103AC000012000EB0901019801EBE071029801442B
:103AD0000398401A401E0390E00306D45346214643
:103AE000179A039800F05CF805441398007818B111
:103AF0005246179990476D1CE00323D55346214643
:103B0000179A039800F04CF805441BE0BBF1000F36
:103B100007DB0098584504DD1098179910F80B0042
:103B200001E0179930205246904701980BF1010BA4
:103B3000401E05F10105019004D12E20524617992F
:103B400090476D1CB9F10001A9F10109DEDC05E027
:103B500017F8010B5246179990476D1C0299481EA1
:103B600002900029F4DC53462146179A03989EE6FA
:103B70002D0000002B000000200000002DE9F04186
:103B8000044600251E461746880404D405E039463D
:103B90002020B0476D1C641EF9D52846BDE8F08191
:103BA0002DE9F041044600251E469046C80301D584
:103BB000302700E02027880404D505E04146384638
:103BC000B0476D1C641EF9D52846BDE8F0810000A1
:103BD00070B52DED028B04460D461646307B30B194
:103BE0004FF47A7029490880BDEC028B70BD95F8BE
:103BF000540090BB02F044FF78BB02F039FF00F0A4
:103C0000010050B394ED000A20EE000AD4ED010A41
:103C100094ED011A00EE810AD4ED020A94ED021A25
:103C200000EE810AB0EE408A95ED140ADFED180A25
:103C300080EE201AF0EE418AF0EE480AB0EE680AF3
:103C400002F0F0F940B1012007F05CFF9FED110A8E
:103C50000A21232007F07CFF00BF0C4800880028C1
:103C600004DD0A480088401E08490880074800888B
:103C700048B9284602F02CFA28B1002007F042FF8C
:103C8000002007F05BFF00BFAEE700007A030020D2
:103C9000000075440000000070B506460D46002483
:103CA00011E005EB8401D1ED000AB0EE600AC4EB2F
:103CB000C40106EB810004F02DF905EB840080EDD2
:103CC000000A601CC4B2032CEBDB70BDB5EEC00A69
:103CD000F1EE10FA02D2B1EE401A01E0B0EE401A55
:103CE000B4EEE01AF1EE10FA04D29FED0C1AB0EE29
:103CF000410A12E0B5EEC00AF1EE10FA04DD30EE32
:103D0000601AB0EE410A08E0B5EEC00AF1EE10FA12
:103D100003D230EE201AB0EE410A704700000000D6
:103D20000C46154600BF502080F31188BFF34F8F1B
:103D3000BFF36F8F00BF2946204608F03FFB2A469D
:103D400021460FA0FEF77EFA0021084604F05AFA39
:103D50000021012004F056FA0021022004F052FA5A
:103D60000021032004F04EFA03F066FF0121022037
:103D700003F0C0FF0121042003F0BCFF00BFFEE7F9
:103D8000417373657274206661696C656420257384
:103D90003A25640A000000000146AA2000F1AF02A3
:103DA000D0B20A780244D0B24A780244D0B200229B
:103DB00004E08B1C9B5C0344D8B2521C4B789342AA
:103DC000F7DC704710B50C48007800B110BD002238
:103DD00020210A2009F07DFA084908600846006899
:103DE00028B940F2722206A10CA0FFF799FF01202A
:103DF0000149087000BFE9E7E5020020F002002059
:103E00002E2E5C434F4D4D554E49434154455C73F6
:103E100072635C61746B702E630000007278517580
:103E20006575650010B50446204600F00DFF20784A
:103E300005281CD00E49012004F01AF800231A4668
:103E40000C490D48006809F061FA01280FD10948B2
:103E500040781E2804DDAC2208A110A0FFF760FF07
:103E60000349022004F004F8024808F007FB10BDE3
:103E7000A4DD000804810020740300202E2E5C4382
:103E80004F4D4D554E49434154455C7372635C72CE
:103E90006164696F6C696E6B2E63000074785061A9
:103EA000636B65742E646174614C656E203C3D20CB
:103EB00041544B505F4D41585F444154415F534919
:103EC0005A45000001B58AB00A980078012833D11C
:103ED0000A988078232822D00EDC05281CD006DC26
:103EE000012816D0022815D0042824D113E0212857
:103EF00013D022281FD111E0262813D004DC242857
:103F00000ED0252817D10CE0A0280CD0A12812D162
:103F10000DE010E00FE00EE00DE00CE00BE00AE039
:103F200009E008E007E00020F749087003E00120FD
:103F3000F549087000BF62E10A98007802287DD137
:103F40000A98807801287AD1F04890ED070A8DED23
:103F5000090A90ED060A8DED080A90ED050A8DED2F
:103F6000070AEB4890ED070A8DED060A90ED060A68
:103F70008DED050A90ED050A8DED040AE54890EDFA
:103F8000070A8DED030A90ED060A8DED020A90ED09
:103F9000050A8DED010A9DED094ADDED083A9DED1A
:103FA000073ADDED062A9DED052ADDED041A9DEDAB
:103FB000031ADDED020A9DED010A012006F0FEFD67
:103FC000D54890ED070A8DED090A90ED060A8DEDB2
:103FD000080A90ED050A8DED070AD04890ED070A12
:103FE0008DED060A90ED060A8DED050A90ED050AA5
:103FF0008DED040ACA4890ED070A8DED030A90ED95
:10400000060A8DED020A90ED050A8DED010A9DED7F
:10401000094ADDED083A9DED073ADDED062A9DEDF2
:10402000052ADDED041A9DED031ADDED020A9DED72
:10403000010A022006F0C2FDBA4801E048E15CE056
:1040400090ED070A8DED090A90ED060A8DED080A3C
:1040500090ED050A8DED070AB34890ED070A8DED46
:10406000060A90ED060A8DED050A90ED050A8DED24
:10407000040AAE4890ED070A8DED030A90ED060A9A
:104080008DED020A90ED050A8DED010A9DED094ABC
:10409000DDED083A9DED073ADDED062A9DED052A96
:1040A000DDED041A9DED031ADDED020A9DED010A16
:1040B000032006F083FD9E4890ED070A8DED090A66
:1040C00090ED060A8DED080A90ED050A8DED070AC0
:1040D0009FED984ADFED973A9FED963ADFED952AEE
:1040E0009FED942ADFED931A9DED091ADDED080A84
:1040F0009DED070A042006F061FD0A988078A1284A
:104100007DD106F08BFBDFED8C0A9FED8C0A00F071
:10411000D9FFDFED890A9FED880A04F07BFC7B481C
:1041200090ED070A8DED090A90ED060A8DED080A5B
:1041300090ED050A8DED070A754890ED070A8DEDA3
:10414000060A90ED060A8DED050A90ED050A8DED43
:10415000040A704890ED070A8DED030A90ED060AF7
:104160008DED020A90ED050A8DED010A9DED094ADB
:10417000DDED083A9DED073ADDED062A9DED052AB5
:10418000DDED041A9DED031ADDED020A9DED010A35
:10419000012006F013FD604890ED070A8DED090A35
:1041A00090ED060A8DED080A90ED050A8DED070ADF
:1041B0005A4890ED070A8DED060A90ED060A8DED3E
:1041C000050A90ED050A8DED040A554890ED070AA1
:1041D0008DED030A90ED060A8DED020A90ED050AB9
:1041E0008DED010A9DED094ADDED083A9DED073A96
:1041F000DDED062A9DED052ADDED041A00E011E350
:104200009DED031ADDED020A9DED010A022006F084
:10421000D5FC444890ED070A8DED090A90ED060A99
:104220008DED080A90ED050A8DED070A3E4890EDE8
:10423000070A8DED060A90ED060A8DED050A90ED50
:10424000050A8DED040A394890ED070A8DED030A41
:1042500090ED060A8DED020A90ED050A8DED010A3A
:104260009DED094ADDED083A9DED073ADDED062AA0
:104270009DED052ADDED041A9DED031ADDED020A20
:104280009DED010A032006F099FC294890ED070AEC
:104290008DED090A90ED060A8DED080A90ED050AEC
:1042A0008DED070A9FED234ADFED223A9FED213A7B
:1042B000DFED202A9FED1F2ADFED1E1A9DED091A62
:1042C000DDED080A9DED070A042006F077FC32E6D2
:1042D0000A980078032807D119490A9850F8022F44
:1042E0000A60406848609DE20A980078052803D17A
:1042F0000A9804F077FB95E20A980078502821D1BB
:104300000A9806F01DFA8DE2E60200209482002051
:10431000588200201C820020E0810020A48100201F
:1043200068810020D0820020FC8300204883002088
:1043300084830020000000006F12833B6F12033B58
:10434000E80200200A98007810287CD10A9880782A
:10435000000201B20A98C07808430390FCF7A1F963
:104360009FEDFE0B53EC102BCDE904019DED040BEA
:1043700051EC100BFCF79EF8CDE906019DED060B04
:1043800051EC100BFCF708FAF64948610A980079DD
:10439000000201B20A98407908430390FCF781F9C2
:1043A0009FEDEE0B53EC102BCDE904019DED040BBA
:1043B00051EC100BFCF77EF8CDE906019DED060BE4
:1043C00051EC100BFCF7E8F9E64988610A9880790E
:1043D000000201B20A98C07908430390FCF761F922
:1043E0009FEDDE0B53EC102BCDE904019DED040B8A
:1043F00051EC100BFCF75EF8CDE906019DED060BC4
:1044000051EC100BFCF7C8F9D649C8610A98007A3C
:10441000000201B20A98407A08430390FCF741F980
:104420009FEDCE0B53EC102BCDE904019DED040B59
:1044300051EC100BFCF73EF8CDE906019DED060BA3
:1044400051EC100B00E0AEE0FCF7A6F9C64948615C
:104450000A98807A000201B20A98C07A0843039051
:10446000FCF71FF99FEDBD0B53EC102BCDE90401B8
:104470009DED040B51EC100BFCF71CF8CDE9060187
:104480009DED060B51EC100BFCF786F9B6498861DF
:104490000A98007B000201B20A98407B084303900F
:1044A000FCF7FFF89FEDAD0B53EC102BCDE90401A9
:1044B0009DED040B51EC100BFBF7FCFFCDE9060161
:1044C0009DED060B51EC100BFCF766F9A649C8618F
:1044D0000A98807B000201B20A98C07B08430390CF
:1044E000FCF7DFF89FED9D0B53EC102BCDE9040199
:1044F0009DED040B51EC100BFBF7DCFFCDE9060141
:104500009DED060B51EC100BFCF746F997494861FD
:104510000A98007C000201B20A98407C084303908C
:10452000FCF7BFF89FED8D0B53EC102BCDE9040188
:104530009DED040B51EC100BFBF7BCFFCDE9060120
:104540009DED060B51EC100BFCF726F987498861AD
:104550000A98807C000201B20A98C07C084303904C
:10456000FCF79FF89FED7D0B53EC102BCDE9040178
:104570009DED040B51EC100BFBF79CFFCDE9060100
:104580009DED060B51EC100BFCF706F97749C8615D
:104590000A98FFF701FC09900A9800780890099999
:1045A00006F036FA4DE30A98007811287ED10A9871
:1045B0008078000201B20A98C07808430390FCF7A3
:1045C00070F89FED660B53EC102BCDE904019DEDC7
:1045D000040B51EC100BFBF76DFFCDE906019DEDCF
:1045E000060B51EC100BFCF7D7F8614948610A98AB
:1045F0000079000201B20A98407908430390FCF761
:1046000050F89FED560B53EC102BCDE904019DEDB6
:10461000040B51EC100BFBF74DFFCDE906019DEDAE
:10462000060B51EC100BFCF7B7F8514988610A985A
:104630008079000201B20A98C07908430390FCF720
:1046400030F89FED460B53EC102BCDE904019DEDA6
:10465000040B51EC100BFBF72DFFCDE906019DED8E
:10466000060B51EC100BFCF797F84149C8610A980A
:10467000007A000201B20A98407A08430390FCF7DE
:1046800010F89FED360B53EC102BCDE904019DED96
:10469000040B51EC100BFBF70DFFCDE906019DED6E
:1046A000060B51EC100BFCF777F800E0BBE031494A
:1046B00048610A98807A000201B20A98C07A0843D9
:1046C0000390FBF7EEFF9FED250B53EC102BCDE98C
:1046D00004019DED040B51EC100BFBF7EBFECDE953
:1046E00006019DED060B51EC100BFCF755F8214926
:1046F00088610A98007B000201B20A98407B084357
:104700000390FBF7CEFF9FED150B53EC102BCDE97B
:1047100004019DED040B51EC100BFBF7CBFECDE932
:1047200006019DED060B51EC100BFCF735F8114915
:10473000C8610A98807B000201B20A98C07B0843D6
:104740000390FBF7AEFF9FED050B53EC102BCDE96B
:1047500004019DED040B51EC100B0DE09A99999911
:104760009999B93F1C820020588200209482002031
:1047700068810020A4810020FBF79CFECDE90601A2
:104780009DED060B51EC100BFCF706F8FA49486159
:104790000A98007C000201B20A98407C084303900A
:1047A000FBF77FFF1FED130B53EC102BCDE904013A
:1047B0009DED040B51EC100BFBF77CFECDE90601DF
:1047C0009DED060B51EC100BFBF7E6FFEA49886103
:1047D0000A98807C000201B20A98C07C08430390CA
:1047E000FBF75FFF1FED230B53EC102BCDE904010A
:1047F0009DED040B51EC100BFBF75CFECDE90601BF
:104800009DED060B51EC100BFBF7C6FFDA49C861B2
:104810000A98FFF7C1FA09900A9800780890099958
:1048200006F0F6F80DE20A98007812287ED10A9870
:104830008078000201B20A98C07808430390FBF721
:1048400030FF1FED3A0B53EC102BCDE904019DED29
:10485000040B51EC100BFBF72DFECDE906019DED8D
:10486000060B51EC100BFBF797FFC44948610A98FF
:104870000079000201B20A98407908430390FBF7DF
:1048800010FF1FED4A0B53EC102BCDE904019DEDF9
:10489000040B51EC100BFBF70DFECDE906019DED6D
:1048A000060B51EC100BFBF777FFB44988610A98AF
:1048B0008079000201B20A98C07908430390FBF79F
:1048C000F0FE1FED5A0B53EC102BCDE904019DEDCA
:1048D000040B51EC100BFBF7EDFDCDE906019DED4E
:1048E000060B51EC100BFBF757FFA449C8610A985F
:1048F000007A000201B20A98407A08430390FBF75D
:10490000D0FE1FED6A0B53EC102BCDE904019DED99
:10491000040B51EC100BFBF7CDFDCDE906019DED2D
:10492000060B51EC100BFBF737FF00E0B0E09449A9
:1049300048610A98807A000201B20A98C07A084356
:104940000390FBF7AEFE1FED7B0B53EC102BCDE974
:1049500004019DED040B51EC100BFBF7ABFDCDE911
:1049600006019DED060B51EC100BFBF715FF84497A
:1049700088610A98007B000201B20A98407B0843D4
:104980000390FBF78EFE1FED8B0B53EC102BCDE944
:1049900004019DED040B51EC100BFBF78BFDCDE9F1
:1049A00006019DED060B51EC100BFBF7F5FE74496B
:1049B000C8610A98807B000201B20A98C07B084354
:1049C0000390FBF76EFE1FED9B0B53EC102BCDE914
:1049D00004019DED040B51EC100BFBF76BFDCDE9D1
:1049E00006019DED060B51EC100BFBF7D5FE65495A
:1049F00048610A98007C000201B20A98407C084392
:104A00000390FBF74EFE1FEDAB0B53EC102BCDE9E3
:104A100004019DED040B51EC100BFBF74BFDCDE9B0
:104A200006019DED060B51EC100BFBF7B5FE554949
:104A300088610A98807C000201B20A98C07C084311
:104A40000390FBF72EFE1FEDBB0B53EC102BCDE9B3
:104A500004019DED040B51EC100BFBF72BFDCDE990
:104A600006019DED060B51EC100BFBF795FE454939
:104A7000C8613C224448FBF744FC0A98FFF78CF9D4
:104A800009900A9800780890099905F0C1FFD8E0CC
:104A90000A98007813287DD10A988078000201B224
:104AA0000A98C07808430390FBF7FBFD1FEDD50B78
:104AB00053EC102BCDE904019DED040B51EC100BD0
:104AC000FBF7F8FCCDE906019DED060B51EC100B50
:104AD000FBF762FE2D4948610A980079000201B295
:104AE0000A98407908430390FBF7DBFD1FEDE50BC7
:104AF00053EC102BCDE904019DED040B51EC100B90
:104B0000FBF7D8FCCDE906019DED060B51EC100B2F
:104B1000FBF742FE1D4988610A988079000201B2C4
:104B20000A98C07908430390FBF7BBFD1FEDF50B16
:104B300053EC102BCDE904019DED040B51EC100B4F
:104B4000FBF7B8FCCDE906019DED060B51EC100B0F
:104B5000FBF722FE0D49C8613C220D48FBF7D1FB53
:104B60000A98FFF719F909900A98007808900999AE
:104B700005F04EFF65E00DE0E08100204883002055
:104B8000FC830020D08200200C830020848300203E
:104B9000C08300200A98007814280AD10A98FFF7E9
:104BA000FBF809900A9800780890099905F030FF01
:104BB00047E00A980078152843D10A98007A000245
:104BC00001B20A98407A084309900A98807A000254
:104BD00001B20A98C07A084308900A98007B000244
:104BE00001B20A98407B084307900A98807B000234
:104BF00001B20A98C07B084306900A98007C000224
:104C000001B20A98407C08430590059800900998E5
:104C100008B1012000E000200390DDE90632089988
:104C200006F0C6FF00F0F2FA04F006FA0A98FFF761
:104C3000B3F804900A9800780390049905F0E8FE10
:104C400000BF0BB000BD000010B504462CB94FF4F6
:104C50001E720CA112A0FFF763F860781E2805DD14
:104C600040F2792207A10FA0FFF75AF800235A1E3D
:104C700021461548006808F037FC08B1012010BD36
:104C80000020FCE72E2E5C434F4D4D554E494341CD
:104C900054455C7372635C61746B702E630000003A
:104CA00070000000702D3E646174614C656E203CA4
:104CB0003D2041544B505F4D41585F444154415F4A
:104CC00053495A4500000000F002002088B009E076
:104CD00000235A1E69460448006808F017FB68461E
:104CE000FFF7F0F8F4E70000F002002010B50446EA
:104CF000204605F003FC10BDF0B52DED028B8FB002
:104D0000B24800881E2190FBF1F201FB1200D8B9D5
:104D10000BA801F093FE01F0A5FEBDEEC00A10EE57
:104D2000104ADDED0E1AB0EE611ADDED0D1AF0EE4F
:104D3000610ADDED0C1AB0EE610AA5480278002187
:104D4000204606F0DDF900BFA04800880A2190FB4C
:104D5000F1F201FB1200F0B909AA0BA90DA801F0AC
:104D6000D1FEBDF92810BDF92620BDF92400BDF9FA
:104D70003030CDE90130CDE90321BDF92E0000909E
:104D8000BDF92C30BDF93820BDF93610BDF934001D
:104D900006F0D4F800BF8D480088142190FBF1F292
:104DA00001FB1200E8BB8B48B0F89C0000EE100A33
:104DB000B8EE400ADFED880A20EE200AB0EE408A05
:104DC00006AA09A90CA801F0B5FE9DED080ABDEEE2
:104DD000C00A10EE100A02B29DED070ABDEEC00A2D
:104DE00010EE100A00B29DED060ABDEEC00A10EEEC
:104DF000101A09B29DED0B0ABDEEC00A10EE103A72
:104E00001BB2CDE90231CDE904029DED0A0ABDEEE7
:104E1000C00A10EE100A00B29DED090ABDEEC00AEC
:104E200000E01DE010EE101A09B2CDE900109DED72
:104E30000E0ABDEEC00A10EE100A03B29DED0D0A77
:104E4000BDEEC00A10EE100A02B29DED0C0ABDEED6
:104E5000C00A10EE100A01B2012006F0D9F900BF15
:104E60005A480088282190FBF1F201FB120068B932
:104E7000002002900390049005900090574C019000
:104E800063882288A188E08805F0BEFF4F4800882B
:104E9000642190FBF1F201FB120088B903F060FD80
:104EA000B0EE408A9FED4E0A28EE000ABCEEC00A22
:104EB00010EE101A88B24FF4FA7105F082FF00BFAD
:104EC00042480088282190FBF1F201FB1200D0BB80
:104ED0000BA801F0FDFD9DED0B0AB8EE400ADFEDD9
:104EE000410A80EE201A9FED400A21EE000ABCEE36
:104EF000C00A10EE100A84B29DED0C0AF8EE400ACA
:104F00009FED381A80EE810ADFED370A20EE200A85
:104F1000BCEEC00A10EE100A85B29DED0D0AF8EE47
:104F2000400A9FED301A80EE810ADFED2F0A20EE55
:104F3000200ABCEEC00A10EE100A86B29DED0E0AE1
:104F4000F8EE400A00E018E09FED261A80EE810A94
:104F5000DFED250A20EE200ABCEEC00A10EE100A92
:104F600087B200200090019002903B4632462946CD
:104F70000390204605F05FFD00BF144800882821FB
:104F800090FBF1F201FB120070B901F06BFDDFED57
:104F9000140A20EE200ABDEEC00A10EE104A0021CD
:104FA000204606F080F800BF08480088401C80B208
:104FB000064908804FF6FF71884202DB0120034951
:104FC00008800FB0BDEC028BF0BD0000F4020020A1
:104FD000E6020020C0040020CDCCCC3DE802002039
:104FE0000000C84200FF7F4700007A4405F09EFDA4
:104FF00004E0FFF781FE012007F028FEF9E700003A
:1050000070B52DED048B04460D461646D5ED010A0C
:1050100094ED011A70EEC10AB0EE600A224803F066
:105020001BFC86ED010AD5ED020A94ED021A70EE22
:10503000C10AB0EE600A1D4803F00EFC86ED020ABC
:1050400095ED030AD4ED030A30EE600AB0EE408A13
:105050009FED170AB4EEC08AF1EE10FA06DD9FED5F
:10506000150A38EE400AB0EE408A12E018EE100A37
:10507000FBF74EFB41EC190B9FED0F0B53EC102B84
:10508000FBF75AFB05D29FED0B0A38EE000AB0EE93
:10509000408AB0EE480A0A4803F0DEFB86ED030AB8
:1050A000BDEC048B70BD000068810020A48100204D
:1050B000000034430000B44300000000008066C0DC
:1050C000E081002010B52DED028BB0EE408AF0EEAD
:1050D000608AB0EE682A3948D0ED031A90ED021AC2
:1050E000D0ED010A9FED360A364803F049FBB0EED9
:1050F000682A3248D0ED061A90ED051AD0ED040A60
:105100009FED2F0A304803F03BFBB0EE682A2B4896
:10511000D0ED091A90ED081AD0ED070A9FED280A84
:105120002A4803F02DFBB3EE0E0A264803F08EFB4F
:10513000B3EE0E0A244803F089FB9FED250A2348AD
:1051400003F084FBB0EE482A1C48D0ED0C1A90ED19
:105150000B1AD0ED0A0A9FED1A0A1E4803F010FB45
:10516000B0EE482A1548D0ED0F1A90ED0E1AD0ED8A
:105170000D0A9FED130A184803F002FBB0EE482A0F
:105180000E48D0ED121A90ED111AD0ED100A9FEDD5
:105190000C0A124803F0F4FA9FED110A0D4803F0CF
:1051A00055FB9FED0F0A0C4803F050FB9FED0D0AD5
:1051B0000A4803F04BFBBDEC028B10BDC00400207D
:1051C0000000000068810020A4810020E081002010
:1051D000000034431C82002058820020948200206A
:1051E0000000FA43000048420120704710B5024811
:1051F00003F018FB10BD0000A481002010B5024888
:1052000003F010FB10BD000068810020364890EDCF
:10521000050A364880ED010A334890ED060A334806
:1052200080ED020A304890ED070A304880ED030A0D
:105230002F4890ED050A2D4880ED040A2C4890ED8A
:10524000060A2A4880ED050A294890ED070A2748F2
:1052500080ED060A274890ED050A244880ED070AEC
:10526000244890ED060A214880ED080A214890ED77
:10527000070A1E4880ED090A1F4890ED050A1B48E1
:1052800080ED0A0A1C4890ED060A184880ED0B0ACA
:10529000194890ED070A154880ED0C0A174890ED63
:1052A000050A124880ED0D0A144890ED060A0F48D1
:1052B00080ED0E0A114890ED070A0C4880ED0F0AA8
:1052C0000F4890ED050A094880ED100A0C4890ED52
:1052D000060A064880ED110A094890ED070A0348BE
:1052E00080ED120A7047000068810020C004002091
:1052F000A4810020E08100201C8200205882002030
:105300009482002070B52DED028B04460D461646A2
:10531000D5ED010A94ED001A70EEC10AB0EE600AF4
:10532000154803F099FAB0EE408A03F05BFA30803A
:10533000D5ED020A94ED011A70EEC10AB0EE600AD2
:105340000E4803F089FAB0EE408A03F04BFA708001
:10535000D5ED030A94ED021A70EEC10AB0EE600AB0
:10536000074803F079FAB0EE408A03F03BFAB080C8
:10537000BDEC028B70BD00001C8200205882002012
:105380009482002010B5094803F04CFA084803F055
:1053900049FA084803F046FA074803F043FA074879
:1053A00003F040FA064803F03DFA10BD6881002082
:1053B000A4810020E08100201C820020588200206F
:1053C000948200202DE9F14F82B067488069C117AF
:1053D0004FF4FA33C41A61F10005A4FB041005FB75
:1053E000040004FB05026048B0F91000C317A1FBDC
:1053F000008A02FB00A001FB03095B48B0F90E0024
:10540000C117A0FB042301FB043100FB051040047D
:1054100040EAD230510411EB080840EB0909524828
:10542000B0F90C0018F1000849EBC009A4FB041006
:1054300005FB040004FB05024B48B0F90A004FEAE3
:10544000E07CA1FB003A02FB00A001FB0C004FEA4C
:10545000132141EA00614FEA20224348B0F90800D5
:105460004FEAE073A446A0FB0CBE03FB04E300FB81
:1054700005304FEA003040EA1B504FEA0B33CC189E
:1054800042EB0005221C45F500403749C98800233E
:10549000A2FB01AC00FB01C002FB03004410C517D6
:1054A000002184EA01006940084301D1BDE8FE8F74
:1054B0000298C0F58010C7170646F80740EA560064
:1054C000F107B1EB080160EB090040F6354300221B
:1054D000A1FB03CA00FB03A001FB020122462B46ED
:1054E0006046CDE900C1FAF7DBFE06460F461E48CE
:1054F000B0F91600C217710B41EAC74C7B13A0FB31
:105500000C1A02FB0CA200FB0322700B40EAC740FE
:105510004FEA673CA1FB003A02FB00A001FB0C0133
:10552000580E40EAC1144D160F48B0F91400C117C7
:10553000A0FB062301FB063100FB0711D00C40EA5B
:1055400041384FEAE149311947EB050011EB0801F9
:1055500040EB0900090A41EA00610348B0F9120072
:1055600000010E183046A1E76005002030B5014665
:10557000CC100F4D2D88A4EB45040D4DB5F902500C
:105580006C43E2120A4C2488C4EB211464432413B4
:10559000074DB5F904506C43A313D418044DAC6106
:1055A0002C46A46904EB84048034201230BD000032
:1055B0006005002038B504461F48007808B1012076
:1055C00038BD1E48046076201D490870322000F066
:1055D0001DFD1C4BD0221A4801781848006801F0C4
:1055E00072FB18480078582805D11648017816A093
:1055F000FCF728FE01E00020E2E718481823882283
:1056000000900F4801780D48006801F019FB9323C2
:10561000F4220B4801780948006801F0D4FB1423F8
:10562000F522074801780548006801F0CCFB01200D
:105630000149087000BFC3E7CD000020C80000206A
:10564000C4000020CC000020424D503238302049A8
:10565000442049533A20307825580A00600500203C
:1056600010B52DED028B044694ED000AB5EEC00A8C
:10567000F1EE10FA18DD94ED000ADFED0D0A80EE70
:10568000801AB0EE418ADFED0B0AB0EE480AFDF752
:105690009BF8F7EE000A30EE600ADFED070A20EE15
:1056A000200ABDEC028B10BD9FED040AF9E7000053
:1056B000CDEC7D44B1DC423E002A2D4700000000C5
:1056C00010B50446002011E0414901EB800191ED45
:1056D000000A04EB8001D1ED000A30EE200A3C49BB
:1056E00001EB800181ED000A411CC8B20328EBDB0D
:1056F00094ED020A3748D0ED000AB4EEE00AF1EE6C
:1057000010FA03D294ED020A80ED000A94ED020A29
:105710003148D0ED000AB4EEE00AF1EE10FA03DDF4
:1057200094ED020A80ED000A2C480088401C80B2EB
:105730002A490880B0F5AF7F48DB00200880264862
:1057400090ED000A2348D0ED000A30EE600A2448AC
:1057500080ED000AB7EE080A1E4880ED000AB6EE9A
:10576000000A1D4880ED000A1D4890ED000ADFED9B
:105770001D0AB4EEE00AF1EE10FA1AD200200FE092
:10578000134901EB800191ED000ADFED170A80EE6D
:10579000201A164901EB800181ED001A411CC8B2A4
:1057A0000328EDDB0120124908701249032002F0A2
:1057B0005FFB002008E09FED100A054901EB800126
:1057C00081ED000A411CC8B20328F4DB10BD0000C3
:1057D0007C840020F8030020FC030020F403002058
:1057E000E00300208FC2753C0000AF43E8030020B7
:1057F000E403002074DD00080000000010B5054837
:10580000007800B110BD04F045FE01200149087088
:1058100000BFF7E7F602002010B50348047800F057
:10582000B1FA0440204610BDF602002010B500F089
:105830005FF900200949888209480078C0F3800098
:1058400058B10748007820F0080008300449087073
:105850000846007820F00400087010BD2C8000205D
:105860000903002070B52DED028B04460D4600F0B3
:10587000A5FA8D48007885F854008C48007800F02F
:10588000010000287ED089480078C0F3C00020B114
:105890002946204600F070FDDBE084480078C0F324
:1058A000800000286FD09FED820A84ED120A01214A
:1058B000422001557F480078C8B901207D49087011
:1058C0007D4908709FED7A0A7C4880ED000A9FEDC3
:1058D000780A7B4880ED000A9FED750A794880EDD3
:1058E000000A9FED790A0121002006F031F977487E
:1058F000808A00EE100AB8EE400ADFED750A30EE3D
:10590000600ADFED730A80EE208AB5EEC08AF1EE00
:1059100010FA06DD9FED6F0A28EE000AB0EE408A0D
:1059200005E09FED6D0A28EE000AB0EE408AB0EE69
:10593000C80AF1EE040AB4EEE00AF1EE10FA3CDD1A
:1059400001206649087002214220015584ED0F8A2A
:10595000BBEE040AB4EEC08AF1EE10FA27D260481A
:105960000078012854D195ED140A5E48D0ED000A64
:10597000B4EEE00AF1EE10FA03DD95ED140A80EDC5
:10598000000A01E05AE044E0564890ED000ADFEDDD
:10599000560AB4EEE00AF1EE10FA39DD4348007819
:1059A00020F004004149087000F0F0FB30E09FED6A
:1059B000400A4C4880ED000A2AE048480078012857
:1059C0000FD100204549087001214220015595ED75
:1059D0000C0A3C48D0ED000A30EE200A84ED0B0A98
:1059E00016E03E48007898B994ED0B0AD5ED0C0A04
:1059F00030EE600A334880ED000AB2EE041AFAEE87
:105A0000040A90ED000A00F0C3F92E4880ED000A68
:105A10001FE00021422001559FED250A84ED120A66
:105A20009FED230A84ED0F0A9FED210A84ED0B0AF6
:105A3000002020490870294908700AE0002142200E
:105A400001552248808A00EE100AB8EE400A84ED23
:105A5000120A1E48006860601C484068A0601B482D
:105A6000806800EE100AB1EE400A84ED030A0020BF
:105A700084F8400000214120015543200155442075
:105A800001550A480078C0F3401038B10120174989
:105A900008702946204604F0DBFE02E0002013498E
:105AA0000870BDEC028B70BDF802002009030020D5
:105AB0000000000010030020120300201403002047
:105AC000180300201C0300200000A0422C800020AE
:105AD00000FEFF460000C842000070421103002093
