:020000040800F2
:10000000A03F002029890008698900086F8900083D
:1000100071890008738900087589000800000000D4
:100020000000000000000000000000003989000806
:100030006D890008000000006B890008A98900088C
:10004000010400080104000801040008010400087C
:10005000010400080104000801040008010400086C
:10006000010400080104000801040008010400085C
:10007000010400080104000801040008010400084C
:100400002DE9F04FEFF3098001B40B4C4FF00005DC
:1004100025606846EFF30381C1F30801A1F11001E3
:1004200006F018FA044C4FF00505256001BC80F376
:100430000988BDE8F08F000094ED00E0DFF80CD0F3
:1004400000F018F80048004719890008A03F002074
:10045000D2B201E000F8012B491EFBD27047002206
:10046000F6E710B513460A4604461946FFF7F0FFB3
:10047000204610BD064C074D06E0E06840F0010341
:1004800094E8070098471034AC42F6D3FFF7DAFF40
:10049000CC8B0008EC8B0008704700007047000010
:1004A00080B500F0D5F9033818BF012080BD0000E9
:1004B00080B507291AD142F6B000C2F2000082428C
:1004C00008BF80BD48F6433048F62E3248F63A332E
:1004D000C0F60000C0F60002C0F600033B2100F0A9
:1004E00083F806F081F900BFFEE700BF48F643300D
:1004F00048F62E3248F63A33C0F60000C0F6000245
:10050000C0F600033A2100F06FF806F06DF900BF65
:10051000FEE70000F0B581B0D0B100210446B1EB98
:10052000107F1DD100202246B1EB126F1AD1B1EB22
:10053000125F1DD1B1EB124F38D1B2F5805F4FEA97
:10054000024200F10400EFD3411E082832D013E02C
:10055000302007F0E5FD0125284601B0F0BD00BFC1
:1005600008250BE001460130082823D004E000BF35
:10057000411C023008281DD0C1F107056FF00300AF
:1005800000EB85062F4600BF24FA06F000F00F01AD
:1005900001F13700013F0A2938BF01F1300007F0AF
:1005A000BFFD002FA6F10406EED1D5E7811C033074
:1005B0000828E1D10025284601B0F0BD4FF0FF30FA
:1005C0007047000080B508F027FA07F027FA07F017
:1005D000B7FB40F20400C2F200002421FFF73FFF06
:1005E00006F078F9002080BD2DE9F04F81B0074674
:1005F0000D20984691460E4607F092FD0A2007F01E
:100600008FFD2A2007F08CFD2A2007F089FD2A2083
:1006100007F086FD0D2007F083FD0A2007F080FD1E
:100620004B2007F07DFD652007F07AFD722007F072
:1006300077FD6E2007F074FD652007F071FD6C20DA
:1006400007F06EFD202007F06BFD702007F068FDBD
:10065000612007F065FD6E2007F062FD692007F05C
:100660005FFD632007F05CFD202007F059FD2D2081
:1006700007F056FD202007F053FD6E2007F050FDD7
:100680006F2007F04DFD742007F04AFD202007F091
:1006900047FD732007F044FD792007F041FD6E20EF
:1006A00007F03EFD632007F03BFD692007F038FDB1
:1006B0006E2007F035FD672007F032FD202007F09F
:1006C0002FFD3A2007F02CFD0D2007F029FD0A2010
:1006D00007F026FD002400BF385D28B140B207F0C6
:1006E0001FFD0134FF2CF7D1202007F019FD2C202D
:1006F00007F016FD202007F013FD4C2007F010FD39
:10070000692007F00DFD6E2007F00AFD652007F057
:1007100007FD202007F004FD86B1B6F1FF3F03DCA2
:100720002D2007F0FDFC764246F2676B0A2EC6F2DA
:10073000666B4FF0010405D2012048E0302007F03D
:10074000EFFC56E048F21F5144F6D35E48F6AD3C4C
:100750000420C5F2EB11C1F2620EC6F6DB0C42F2C8
:10076000107A324652FB0BF5AB1003EBD57309330D
:10077000132B1FD352FB01F35D1105EBD373093328
:10078000132B1DD352FB0EF39D1105EBD3730933CD
:10079000132B19D352FB0CF2131303EBD27202F199
:1007A000090304FB0AF4132B00F10400DAD2033826
:1007B0000DE000BF04EB84014C00023807E000BFED
:1007C00064214C43013802E04FF47A714C43451CDC
:1007D00096FBF4F707F1300040B207F0A1FC54FBA0
:1007E0000BF007FB14668110013D012D01EBD07465
:1007F000EEDC0D2007F094FC0A2007F091FC0024A9
:1008000019F8040028B140B207F08AFC0134FF2C2B
:10081000F6D1202007F084FC2C2007F081FC20205A
:1008200007F07EFC002400BF18F8040028B140B295
:1008300007F076FC0134FF2CF6D10D2007F070FC98
:100840000A2001B0BDE8F04F07F06ABC7047000015
:1008500003207047B0B50546002400BF285D30B1C5
:1008600040B207F05DFC0134FF2CF7D1FF24204695
:10087000B0BD000080B500F11402002300F11C0C93
:10088000C0E90013C0E90233C0E90432C0E9062C14
:1008900000F1240100F12C0200F1340300F13C0EC0
:1008A000C0E908C1C0E90A12C0E90C23C0E90E3E44
:1008B00000F1440100F14C0200F1540300F15C0C22
:1008C000C0E910E1C0E91212C0E91423C0E9163CE6
:1008D00000F1640100F16C0200F1740300F17C0E80
:1008E000C0E918C1C0E91A12C0E91C23C0E91E3EC4
:1008F00000F1840100F18C0200F1940300F19C0CE2
:10090000C0E920E1C0E92212C0E92423C0E9263C65
:1009100000F1A40100F1AC0200F1B40300F1BC0E3F
:10092000C0E928C1C0E92A12C0E92C23C0E92E3E43
:1009300000F1C40100F1CC0200F1D40300F1DC0CA1
:10094000C0E930E1C0E93212C0E93423C0E9363CE5
:1009500000F1E40100F1EC0200F1F40300F1FC0EFF
:10096000C0E938C1C0E93A12C0E93C2300F5827100
:1009700000F58672C0E93E3EC0E940E1C0E942129E
:10098000C0F8102180BD0000002908BF704780B565
:10099000FFF765FDBDE8804070470000F0B50F0629
:1009A0002AD444698C4240F26581C0684F01C7591E
:1009B00007F47F06B6F5003F00F0608107F07F473F
:1009C000B7F1407F40F05E8100EB41111F0643D438
:1009D0009C4240F24F815F01C75907F47F06B6F58C
:1009E000003F00F04B8107F07F47B7F1407F40F0B8
:1009F000498100EB43105BE04469B4EB112F40F2F6
:100A000039810D0AC0686F01C75907F47F06B6F532
:100A1000003F00F0338107F07F47B7F1407F40F09F
:100A2000318100EB45177E6901F07F01B14280F012
:100A30002181FD684F01EF5907F47F06B6F5003FAD
:100A400000F01C8107F07F47B7F1407F40F01A812A
:100A500005EB41111F06BBD5B4EB132F40F20A8101
:100A60001D0A6F01C75907F47F06B6F5003F00F075
:100A7000058107F07F47B7F1407F40F0038100EB2D
:100A800045177E6903F07F00B04280F0F380FB6879
:100A90004701DF5907F47F06B6F5003F00F0EE800E
:100AA00007F07F47B7F1407F40F0EC8003EB401048
:100AB0000B7ADB0644BF037A5FEA037302D46FF05C
:100AC0000600F0BD4B69934240F2D480059D436916
:100AD000AB4240F2CF80C068CC686901415801F454
:100AE0007F03B3F5003F00F0C980002900F0D280F9
:100AF000DDF818C00B0E012B00EB451E24D0022B95
:100B000036D0042B5AD1754655F8086F4FEA1C5061
:100B1000B0EB165FD3D8CCF30B262F68B0426FF042
:100B20000600C0F0A680C7F30B27BE42C0F0A1802C
:100B30005FFA8CF00028C2D02D686FF0FF0666EADD
:100B40000505284245D0BAE7764656F8085F4FEAD1
:100B50001C40B0EB154FB2D81FFA8CF53668A8428E
:100B60006FF00600C0F08580B6B2B54231D280E0A9
:100B700007984FF6FF716FF03F022CEA010102EA7D
:100B800010400844B0EB0C4F99D9714651F8142F1E
:100B90004FEA0C430F681A44BA4290D30B680F68AF
:100BA0001844B842FFF48BAF086890429EBFDEF84D
:100BB00018006FF00600F0BD81E700BFBCF1000F28
:100BC0003FF47DAFDEF80800C04310EA0C0F7FF45D
:100BD00076AF50012058002858D104EB421002682B
:100BE000002A53D14FF48032026040F23C12C2F22C
:100BF00000021268022B026100F1080212D10023E8
:100C00001360DEF80C20C260DEF814204261DEF8CA
:100C100018208261DEF81C20C2614FF0FF32436170
:100C200082611FE0C2F800C0DEF80C20033BC26006
:100C3000DEF8142013F1030F4261DEF81820826100
:100C4000DEF81C20C2610DD8DEF80020120418BFA7
:100C5000DEF804E0C0F804E04268536801335360F2
:100C600002E000BF00224260012262F3170101602E
:100C70000020F0BD6FF00200F0BD00BF6FF0080073
:100C8000F0BD00BF6FF00100F0BD00BF6FF00400C9
:100C9000F0BD00BF4FF0FF30F0BD0000F0B581B0F7
:100CA0000D46A2F1810111F1800F39D307465101A0
:100CB0002846164601F06CFAC0BB711E06F0030010
:100CC000002203294FF000010CD326F00303A5F105
:100CD00080040021043144F8802F8B422262226478
:100CE0002266F7D158B14B0100220128EA5006D004
:100CF00005EB411102280A621CBF0020086405EBC5
:100D000047107901012200F1040C46614FF0407058
:100D1000FF238CE82C006850384601B0F0BD00BFBE
:100D20006FF00207384601B0F0BD00BF6FF0030757
:100D3000384601B0F0BD00002DE9F041DDF81C801F
:100D4000A8F1810616F1800FC0F0EC800E062BD4BE
:100D500046698E4240F2E680C0684D01455905F46F
:100D60007F04B4F5003F00F0E18005F07F45B5F168
:100D7000407F40F0DF8000EB4111170644D49642DB
:100D800040F2D0805701C65906F47F07B7F5003FFF
:100D900000F0CC8006F07F47B7F1007F40F0CA80BA
:100DA00000EB421259E000BF4669B6EB112F40F24A
:100DB000B9800D0AC0686C01045904F47F07B7F5C7
:100DC000003F00F0B38004F07F47B7F1407F40F070
:100DD000B18000EB45156F6901F07F01B94280F0E9
:100DE000A180ED684F01EC5904F47F07B7F5003F8F
:100DF00000F09C8004F07F47B7F1407F40F09A807C
:100E000005EB41111706BAD5B6EB122F40F28A80D6
:100E1000160A7701C55905F47F07B7F5003F00F0C2
:100E2000858005F07F47B7F1407F40F0838000EB7D
:100E30004616776902F07F00B84273D2F268470124
:100E4000D65906F47F07B7F5003F6FD006F07F470D
:100E5000B7F1007F6ED102EB4012087AC0071CBFC9
:100E6000107A5FEAC07003D16FF00600BDE8F08130
:100E70000698566934186FF0060050D2A6424ED834
:100E800004EB4810A042EFD3926901388242EBD3C1
:100E90004869984246D9C8685901415800294DD13E
:100EA00000EB43164FF48030306040F23C10C2F249
:100EB000000000684FEA48113061204601F068F9EF
:100EC00000283FD4A8F1010108F003000022032903
:100ED0004FF000010CD328F00303A4F1800500219A
:100EE000043145F8802F8B422A622A642A66F7D1A2
:100EF00058B14B0100220128E25006D004EB411109
:100F000002280A621CBF002008640020FF217060D4
:100F1000F460B1604FF04071C6F814803160BDE8F4
:100F2000F08100BF6FF00200BDE8F0816FF00800B3
:100F3000BDE8F0816FF00100BDE8F0816FF00400C2
:100F4000BDE8F0816FF003000021E7E72DE9F047ED
:100F50000B0615D443698B4240F21E81C0684B01D9
:100F6000C35803F47F07B7F5003F00F0198103F081
:100F70007F43B3F1407F40F0178100EB41102DE03B
:100F80004369B3EB112F40F207810B0AC0685F0180
:100F9000C75907F47F06B6F5003F00F0018107F05E
:100FA0007F47B7F1407F40F0FF8000EB43135F695C
:100FB00001F07F00B84280F0EF80D9684301CB5840
:100FC00003F47F07B7F5003F00F0EA8003F07F43AA
:100FD000B3F1407F40F0E88001EB4010017A8907CF
:100FE00040F1E6804169914240F2D680C0685101EB
:100FF000415801F47F03B3F5003F40F0D18001F088
:101000007F43B3F1407F40F0CF8000EB4210426855
:10101000002A8AB240F0D080002A40F0DD800246EB
:10102000034652F80C7F53F8146FF6B1751E07F1A2
:10103000400400BF54F8407C002F40F08B80A5B1E5
:1010400054F8207C002F40F08580012D0DD02768BA
:10105000002F40F07F80022D07D0276A002F79D122
:10106000043D6F1C04F18004E4D117681A6803681A
:101070008B4240F0C58000213B07016078D14DF6DE
:101080003F20CDF6FF70391807EB421201311044B2
:101090001F2240F2040CC1F304134FF0FF36490A3B
:1010A00022EA1012C2F2000C06FA03F926FA02FA3A
:1010B000430A5CF8212099420CEB810006D10AEA30
:1010C000090A02EA0A0151453DD051E002EA09024B
:1010D0004A454DD101F1010EA3F10108C6451AD2CE
:1010E000CE1A002700EB87056A68013240D1F21959
:1010F000D41C10D0AC6801343AD1141D0BD0EC686C
:10110000013435D1053206D02A69013230D1043795
:10111000F2190232E6D15CF8232002EA0A025245B3
:1011200026D102680CEB830522EA0902C64502605B
:1011300008D2591A6FF007020CEB8E0002EB810106
:10114000FFF78DF92846016821EA0A0101600020B5
:10115000BDE8F08702688A4201BF4FF0407101602C
:101160006FF00400BDE8F0876FF00400BDE8F08781
:1011700048F6993048F62E3248F63A33C0F6000069
:10118000C0F60002C0F6000340F61701FFF72CFA84
:1011900005F02AFBFEE700BF6FF00200BDE8F08714
:1011A0006FF00800BDE8F0876FF00100BDE8F08740
:1011B0006FF00600BDE8F0874AB902688A4201BFB5
:1011C0004FF0407101606FF00500BDE8F0876FF0EF
:1011D0000500BDE8F08700BF48F6993048F62E328A
:1011E00048F63A33C0F60000C0F60002C0F600032D
:1011F00040F2F671FFF7F8F905F0F6FAFEE700BFE6
:101200004FF0FF30BDE8F08780B50B0614D443697A
:101210008B4269D9D0F80CC04B015CF8033003F461
:101220007F00B0F5003F63D003F07F40B0F1407F16
:1012300062D10CEB41102EE04369B3EB112F53D96F
:101240004FEA112CD0F80CE04FEA4C135EF8033053
:1012500003F47F00B0F5003F4AD003F07F40B0F1C7
:10126000407F49D10EEB4C13D3F814C001F07F003E
:10127000604539D2D3F80CC043015CF8033003F465
:101280007F01B1F5003F33D003F07F41B1F1407FE2
:1012900032D10CEB4010017A490731D541699142B6
:1012A00022D9C16850010858B0F1807F2CD30304C3
:1012B00001EB421101D14A6852BB00F47F02B2F542
:1012C000003F15D040F23C12C2F2000212680A61DF
:1012D0000A68824201BF022262F3174008600020C0
:1012E00008BF80BD002080BD6FF0020080BD00BF40
:1012F0006FF0080080BD00BF6FF0010080BD00BF2F
:101300006FF0060080BD00BF4FF0FF3080BD00BF12
:101310006FF0050080BD000080B50B0614D4436952
:101320008B426DD9D0F80CC04B015CF8033003F44C
:101330007F00B0F5003F67D003F07F40B0F1407F01
:1013400066D10CEB41102EE04369B3EB112F57D956
:101350004FEA112CD0F80CE04FEA4C135EF8033042
:1013600003F47F00B0F5003F4ED003F07F40B0F1B2
:10137000407F4DD10EEB4C13D3F814C001F07F0029
:1013800060453DD2D3F80CC043015CF8033003F450
:101390007F01B1F5003F37D003F07F41B1F1407FCD
:1013A00036D10CEB4010017A890635D5416991425E
:1013B00026D9C1685001085800F47F03B3F5003FF7
:1013C00022D103042CD06FF0020303EB106313F15E
:1013D000030F01EB421109D84A680B6883420BD115
:1013E0000020086051680139516080BD0A6882425E
:1013F00002BF0020086080BD4FF0FF3080BD00BFFD
:101400006FF0020080BD00BF6FF0080080BD00BF1C
:101410006FF0010080BD00BF6FF0060080BD00BF0F
:101420006FF0090080BD0000F0B581B01C460D468C
:10143000110613D4416991426CD9C06851014158D9
:1014400001F47F03B3F5003F68D001F07F41B1F1B3
:10145000E06F67D100EB421028E000BF4169B1EBBB
:10146000122F57D9110AC0684B01C35803F47F07E4
:10147000B7F5003F52D003F07F43B3F1407F51D125
:1014800000EB41114B6902F07F00984242D2C968DB
:1014900042018A5802F47F03B3F5003F3ED002F0C8
:1014A0007F42B2F1E06F3DD101EB4010017A890734
:1014B0003CD5C668F06848BB40F22800C2F2000084
:1014C0004768F06810BB06F11C002946F76005F07C
:1014D00087FB57F84C0FD6E904124660C6E90007AF
:1014E000B86823460130B86057F8080C3E6020F019
:1014F0000040009506F0ACFEB06880690188C9B96B
:1015000006F00AFE002001B0F0BD00BF6FF4967037
:1015100001B0F0BD6FF0020001B0F0BD6FF0080047
:1015200001B0F0BD6FF0010001B0F0BD6FF006003A
:1015300001B0F0BD48F6993048F62E3248F63A33FD
:10154000C0F60000C0F60002C0F6000341F63161AB
:10155000FFF74AF805F048F9FEE7000070B50E06FF
:1015600042D4D0F814E08E4540F21681C0684E0196
:10157000865906F47F05B5F5003F00F0118106F0AD
:101580007F46B6F1407F40F00F8100EB411C049E86
:1015900031065BD4B64540F2FF807101415801F439
:1015A0007F04B4F5003F00F0FB8001F07F41B1F112
:1015B000A06F40F0F98000EB4615110674D49645F3
:1015C00040F2EA805101415801F47F06B6F5003F30
:1015D00000F0E68001F07F41B1F1007F40F0E4804F
:1015E00000EB421286E000BFD0F814E0BEEB112FF2
:1015F00040F2D2800E0AC0687501455905F47F0497
:10160000B4F5003F00F0CC8005F07F45B5F1407F98
:1016100040F0CA8000EB4616756901F07F01A942CF
:1016200080F0BA80F6684D01755905F47F04B4F571
:10163000003F00F0B58005F07F45B5F1407F40F0F8
:10164000B38006EB411C049E3106A3D5BEEB162FDA
:1016500040F2A280350A6901415801F47F04B4F5D3
:10166000003F00F09D8001F07F41B1F1407F40F0EC
:101670009B8000EB45114C6906F07F06A64280F086
:101680008B80CD687101695801F47F04B4F5003F87
:1016900000F0868001F07F41B1F1A06F40F08480BE
:1016A00005EB461511068AD5BEEB122F74D9160A22
:1016B0007101415801F47F04B4F5003F70D001F08E
:1016C0007F41B1F1407F6FD100EB46114E6902F0CE
:1016D0007F00B04260D2CA684101515801F47F06D0
:1016E000B6F5003F5CD001F07F41B1F1007F5BD1E6
:1016F00002EB40129CF80800C0071CBF287A5FEA82
:10170000C07003D16FF0060070BD00BF107A0007F3
:10171000F8D50598566934184FF0000040F10001E3
:1017200014F1250F6FF0060034D899BBA64288BF8C
:1017300070BD906904F123018842E3D3DCF8140002
:10174000984229D9DCF80C005901415881BB00EBC3
:1017500043164FF48030306040F23C10C2F200007B
:10176000006824213061204600F012FD20BB28884B
:10177000032100284FF0000018BF6D68C4E9025033
:10178000A0617060F460B1606968013169604FF018
:10179000E061316070BD00BF6FF0020070BD00BF3E
:1017A0006FF0080070BD00BF6FF0010070BD00BF9A
:1017B0006FF0040070BD00BF6FF003000021E8E788
:1017C0002DE9F0470B0615D443698B4240F2EE80B9
:1017D000C0684B01C35803F47F07B7F5003F00F022
:1017E000E98003F07F43B3F1407F40F0E78000EBF6
:1017F00041102DE04369B3EB112F40F2D7800B0A63
:10180000C0685F01C75907F47F06B6F5003F00F0D6
:10181000D18007F07F47B7F1407F40F0CF8000EBE9
:1018200043135F6901F07F00B84280F0BF80D96840
:101830004301CB5803F47F07B7F5003F00F0BA80AF
:1018400003F07F43B3F1407F40F0B88001EB4010DC
:10185000017A890740F1B6804169914240F2A68041
:10186000C0685101415801F47F03B3F5003F40F0D7
:10187000A18001F07F43B3F1E06F40F09F8000EB67
:1018800042104268002A8AB240F0A080002A40F04C
:10189000AD80C268D7680368002F40F0BB808B42E0
:1018A00040F0C68000210160906813074168A1F1F3
:1018B0000101416066D1A2F10050A0F51750C0F3BC
:1018C00004114FF0FF3202FA01F9410A23301F23BD
:1018D00040F2040C23EA1013C2F2000C22FA03FABD
:1018E000430A5CF8212099420CEB810006D10AEAF8
:1018F000090A02EA0A0151453DD043E002EA090221
:101900004A453FD101F1010EA3F10108C6451AD2A3
:10191000CE1A002700EB87056A68013232D1F2192E
:10192000D41C10D0AC6801342CD1141D0BD0EC6841
:10193000013427D1053206D02A69013222D1043779
:10194000F2190232E6D15CF8232002EA0A0252457B
:1019500018D102680CEB830522EA0902C645026031
:1019600008D2591A6FF007020CEB8E0002EB8101CE
:10197000FEF775FD2846016821EA0A010160002092
:10198000BDE8F08748F6993048F62E3248F63A33EB
:10199000C0F60000C0F60002C0F6000341F69E51FA
:1019A000FEF722FE04F020FFFEE700BF6FF002000A
:1019B000BDE8F0876FF00800BDE8F0876FF0010028
:1019C000BDE8F0876FF00600BDE8F0874AB902680D
:1019D0008A4201BF4FF0E06101606FF00500BDE891
:1019E000F0876FF00500BDE8F08700BF48F699303A
:1019F00048F62E3248F63A33C0F60000C0F6000230
:101A0000C0F6000341F68451FEF7EEFD04F0ECFE53
:101A1000FEE700BF8B4201BF4FF0E06101606FF451
:101A20009670BDE8F0876FF49670BDE8F08700BF50
:101A30004FF0FF30BDE8F0872DE9F047884640F2CF
:101A40002801C2F200014D684FF6D2662F4657F8C2
:101A50004C4FCFF6FF768146BC42A6F1020044D03F
:101A6000002C42D04FF0000A22B1A0690028304675
:101A700001D13AE00026D4E900016A6D41600860B6
:101A8000501E686504F11C01484605F0A3F848465D
:101A9000414605F0ABF848463146C4F80CA006F0C4
:101AA00063FBE86CB84218BF002817D1E86A806968
:101AB0000188B9B148F6993048F62E3248F63A33E3
:101AC000C0F60000C0F60002C0F6000341F69261C5
:101AD000FEF78AFD04F088FEFEE700BF806880699B
:101AE000018829B906F018FB0020BDE8F08700BF87
:101AF00048F6993048F62E3248F63A33C0F60000E0
:101B0000C0F60002C0F6000341F68961FEF76CFDE5
:101B100004F06AFEFEE7000010B55FEA016C15D420
:101B2000D0F814C08C454BD9D0F80CC048015CF8F3
:101B300000E00EF47F00B0F5003F45D00EF07F408E
:101B4000B0F1E06F44D10CEB41102FE0D0F814C09D
:101B5000BCEB112F34D94FEA112CD0F80CE04FEA2E
:101B60004C105EF8000000F47F04B4F5003F2BD069
:101B700000F07F40B0F1407F2AD10EEB4C1CDCF826
:101B8000144001F07F00A0421AD2DCF80CC04101E1
:101B90005CF8011001F47F04B4F5003F14D001F0AB
:101BA0007F41B1F1E06F13D10CEB4010017AC9070E
:101BB00012D0C0680299026143618161002010BDAA
:101BC0006FF0020010BD00BF6FF0080010BD00BF35
:101BD0006FF0010010BD00BF6FF0060010BD0000E7
:101BE00070B50C460969C9B10546084606F0FCFE09
:101BF00004EBC00046692EB361688E420CD0C86900
:101C000018B9306A0A6A904206D9F06970BB284652
:101C1000324601F0E1FE666070BD00BF48F69930C3
:101C200048F62E3248F63A33C0F60000C0F60002FD
:101C3000C0F6000341F28711FEF7D6FC04F0D4FD94
:101C4000FEE700BF48F6993048F62E3248F63A33A0
:101C5000C0F60000C0F60002C0F6000341F6EE2117
:101C6000FEF7C2FC04F0C0FDFEE700BF48F6993065
:101C700048F62E3248F63A33C0F60000C0F60002AD
:101C8000C0F6000341F61931FEF7AEFC04F0ACFDDE
:101C9000FEE7000070B50E46A1F5803111F5803FDA
:101CA00040D9044640694FF6FE71C3F6FF71884281
:101CB00038D8A569D5B3686940F22801C2F200019D
:101CC000884233D1E169A86C21B1314606F04CFA63
:101CD00009E000BF012106F047FA022E03D3606934
:101CE000304401386061A86930B368690021421C42
:101CF000E96129D0296A103000EBC1029668131DF2
:101D0000956001F01F024909C5E9003635600123DD
:101D100050F8216003FA02F2324340F821200020FB
:101D2000A06170BD6FF4977070BD00BF60693044F2
:101D30006061002070BD00BF0220E861284601F00C
:101D400037FE0020A06170BD48F6993048F62E326B
:101D500048F63A33C0F60000C0F60002C0F60003B1
:101D600041F23C11FEF740FC04F03EFDFEE70000AE
:101D7000B0B582B0140615D44469944254D9D0F851
:101D80000CC054015CF804E00EF47F04B4F5003F8D
:101D90004ED00EF07F44B4F1807F2FD06FF0010C55
:101DA00060E000BF4469B4EB122F45D94FEA122C12
:101DB000D0F80CE04FEA4C145EF8044004F47F05C0
:101DC000B5F5003F3CD004F07F44B4F1407F3BD1F7
:101DD0000EEB4C14656902F07F02AA4238D2D4F8A7
:101DE0000CC055015CF8054004F47F05B5F5003FD3
:101DF00032D004F07F45B5F1807F31D10CEB421237
:101E000092686FF0060CB3EB124F2BD892B29A4245
:101E100028D8DDE906C2089D00921A46634601955E
:101E200004F0E6FE02B0B0BD6FF0020C1AE000BF95
:101E30006FF0080C16E000BF6FF0020C12E000BF5C
:101E40006FF0080C0EE000BF6FF0010C0AE000BF5D
:101E50006FF0020C06E000BF6FF0080C02E000BF5C
:101E60006FF0010C604602B0B0BD000080B50B06FB
:101E700014D443698B4261D9D0F80CC04B015CF893
:101E8000033003F47F00B0F5003F5BD003F07F40E8
:101E9000B0F1407F5AD10CEB41102EE04369B3EB17
:101EA000112F4BD94FEA112CD0F80CE04FEA4C130C
:101EB0005EF8033003F47F00B0F5003F42D003F03A
:101EC0007F40B0F1407F41D10EEB4C13D3F814C0EA
:101ED00001F07F00604531D2D3F80CC043015CF8BB
:101EE000033003F47F01B1F5003F2BD003F07F41B5
:101EF000B1F1407F2AD10CEB4010017AC90729D0FB
:101F0000416991421AD9C0685101415831BB00EB77
:101F100042114FF48030086040F23C10C2F20000E1
:101F2000006800220861012048600020CFF6FF729F
:101F3000C8608A604FF080720A6080BD6FF0020056
:101F400080BD00BF6FF0080080BD00BF6FF00100D2
:101F500080BD00BF6FF0060080BD00BF6FF00400C1
:101F600080BD000010B55FEA016C15D4D0F814C034
:101F70008C4571D9D0F80CC048015CF800E00EF433
:101F80007F00B0F5003F6BD00EF07F40B0F1407F96
:101F90006AD10CEB41102FE0D0F814C0BCEB112F2C
:101FA0005AD94FEA112CD0F80CE04FEA4C105EF8E9
:101FB000000000F47F04B4F5003F51D000F07F40F2
:101FC000B0F1407F50D10EEB4C1CDCF8144001F016
:101FD0007F00A04240D2DCF80CC041015CF8011047
:101FE00001F47F04B4F5003F3AD001F07F41B1F134
:101FF000407F39D10CEB4010017AC90738D04169D4
:10200000914229D9C06851014158A9BB00EB421146
:102010004FF48030086040F23C10DDF80CC0C2F292
:1020200000000068BCF1000F086129D0029803F19C
:102030003F02013020F03F03012022F03F024860C0
:102040000020C860C1F808C04A615A1E8A614FF07A
:1020500000720A6010BD00BF6FF0020010BD00BF2B
:102060006FF0080010BD00BF6FF0010010BD00BF91
:102070006FF0060010BD00BF6FF0040010BD00BF80
:1020800048F6993048F62E3248F63A33C0F600004A
:10209000C0F60002C0F6000341F2B501FEF7A4FA53
:1020A00004F0A2FBFEE700002DE9F047024600071E
:1020B0004FF0FF3066D14DF63F27CDF6FF77D319AD
:1020C0001144013339441F2240F20409C3F30416BA
:1020D0005B0A22EA1112C2F2000920FA02FA490A46
:1020E00059F8232000FA06FC8B4209EB830007D144
:1020F0000AEA0C0A02EA0A0151453ED044E000BF58
:1021000002EA0C0262453FD103F1010EA1F1010880
:10211000C6451AD25E1A002700EB87056A680132AD
:1021200032D1F219D41C10D0AC6801342CD1141D5A
:102130000BD0EC68013427D1053206D02A69013270
:1021400022D10437F2190232E6D159F8212002EAED
:102150000A02524518D1026809EB810522EA0C02F5
:10216000C645026008D2C91A6FF0070209EB8E005B
:1021700002EB8101FEF773F92846016821EA0A01A2
:1021800001600020BDE8F0874FF0FF30BDE8F08728
:102190002DE9F041024600074FF0FF3073D14DF6B4
:1021A0003F23CDF6FF73D7180137114440F20405E1
:1021B0007C0A19441F22C2F20005C7F3041622EA62
:1021C0001113490A55F8242000FA06F88C4220FA27
:1021D00003FE0FD10EEA080002422FD155F8241059
:1021E000914201BF104345F824000020BDE8F08172
:1021F00024E000BF12EA080F20D155F824309342A2
:102200001CD104F1010C42EA08028C45234645F832
:10221000242018D255F82C20234622BB8A1E4FF0CA
:10222000FF36234605EB83077868E0B99A427E6063
:1022300008D0BF680133002FF4D014E04FF0FF3016
:10224000BDE8F081013355F8212012EA0E0F0AD1C2
:1022500055F82100904201BF42EA0E0045F82100E6
:102260000020BDE8F081A34205D9191B05EB8C00C5
:102270008900FEF7F4F855F8240020EA080045F834
:1022800024004FF0FF30BDE8F08100002DE9F04759
:1022900082B0984691460A062CD442698A4240F29E
:1022A000E780C0684B01C35803F47F07B7F5003FD0
:1022B00000F0E48003F07F43B3F1806F40F0E480EE
:1022C00000EB41160A990B0645D48A4240F2D080B1
:1022D0004A01825802F47F03B3F5003F00F0CE803C
:1022E00002F07F42B2F1806F40F0CE8000EB4114EB
:1022F0005AE000BF4269B2EB112F40F2B9800B0ADD
:10230000C0685F01C75907F47F06B6F5003F00F0CB
:10231000B58007F07F47B7F1407F40F0B58000EB14
:1023200043135F6901F07F01B94280F0A180DB684F
:102330004F01DF5907F47F06B6F5003F00F09E809D
:1023400007F07F47B7F1806F40F09E8003EB4116A6
:102350000A990B06B9D5B2EB112F40F289800A0A0F
:102360005301C35803F47F07B7F5003F00F08680A0
:1023700003F07F43B3F1407F40F0868000EB4212D0
:10238000536901F07F00984272D2D16842018A58A5
:1023900002F47F03B3F5003F70D002F07F42B2F148
:1023A000806F71D101EB4014B168880772D5A268C3
:1023B000D0076FD0B9EB115F6FF006004FD8C1F3B3
:1023C0000B2149454BD80B99130D8B4247D3C2F3D0
:1023D0000B228A4243D8756960692F0CB7EB104F06
:1023E00040D8AAB283B229FA02F221FA03F31A43BF
:1023F00038D1DDF830A00022B2EB505F05D1000CDF
:102400000AFA07F232FA00F02CD101AA6B462046F4
:1024100005F098FC002843D401990020B0EB555FEB
:102420000AD1B2690AFA07F0014422F0010009FA60
:1024300007F2104403E000BFB06920F001008142C0
:1024400010D10098C04310EA080F2FD130464A46F9
:10245000434605F099FC6FF0650101EAE07002B0B7
:10246000BDE8F0876FF0640002B0BDE8F08700BF00
:102470006FF0020002B0BDE8F08700BF6FF0080007
:1024800002B0BDE8F08700BF6FF0010002B0BDE808
:10249000F08700BF6FF0060002B0BDE8F08700BF14
:1024A0006FF0660002B0BDE8F08700BF6FF0670014
:1024B00002B0BDE8F087000010B55FEA016C1FD4E0
:1024C000D0F814C08C4577D9D0F80CC048015CF81E
:1024D00000E00EF47F00B0F5003F71D00EF07F40B9
:1024E000B0F1806F70D10CEB4110D0F814C04FEAFE
:1024F0001C4120293AD153EA02043FD058E000BFE2
:10250000D0F814C0BCEB112F56D94FEA112CD0F8DB
:102510000CE04FEA4C105EF8000000F47F04B4F5C4
:10252000003F4DD000F07F40B0F1407F4CD10EEB2A
:102530004C1CDCF8144001F07F00A0423CD2DCF8D7
:102540000CC041015CF8011001F47F04B4F5003FB8
:1025500036D001F07F41B1F1806F35D10CEB4010E6
:10256000D0F814C04FEA1C412029C4D0846924F05B
:10257000010E03FA01F47444944219D11FFA8CF449
:1025800023FA04FCC1F120014FF0FF3424FA01F1D9
:10259000114051EA0C010BD1DDF808C011461A4672
:1025A000634605F0F1FB002818BF6FF0650010BD11
:1025B0006FF0640010BD00BF6FF0020010BD00BFDF
:1025C0006FF0080010BD00BF6FF0010010BD0000EB
:1025D0002DE9F04F81B0DDE90C8909EB0804202CCE
:1025E00056D89A4617460A0616D442698A4240F2DD
:1025F0009380C0684A01825802F47F03B3F5003F1C
:1026000000F0908002F07F42B2F1407F40F0908075
:1026100000EB411628E000BF4269B2EB112F7BD9D5
:102620000A0AC0685301C35803F47F06B6F5003F99
:1026300078D003F07F43B3F1407F79D100EB4212B1
:10264000536901F07F00984266D2D16842018A58EE
:1026500002F47F03B3F5003F64D002F07F42B2F191
:10266000407F65D101EB4016307AC00766D0DDE9C6
:102670000A5B4246284659464B46CDF800A005F075
:10268000F3FA002804BFC4F1200015FA00F005D0C9
:102690006FF0660001B0BDE8F08F00BF7069B8420E
:1026A0003AD9F0687901415800294DD100EB47171C
:1026B0004FF48030386040F23C10C2F200000068F5
:1026C00054213861042000FA09F0BBF1000F08BF63
:1026D0001021441850462146FFF75AFD4FF00001E3
:1026E000C0BBC120CFF6F070C7E901104BEA05006E
:1026F00049EA0842C7E905203846C7F80CA0F96145
:1027000005F0CCFAB0F1FF3F2ADD00204FF08061E8
:10271000396001B0BDE8F08F6FF0020001B0BDE894
:10272000F08F00BF6FF0080001B0BDE8F08F00BF70
:102730006FF0010001B0BDE8F08F00BF6FF0060040
:1027400001B0BDE8F08F00BF6FF0040001B0BDE83C
:10275000F08F00BF6FF00300396001B0BDE8F08F6B
:1027600050462146FFF7A0FC30B96FF0660000210B
:10277000396001B0BDE8F08F48F6993048F62E3246
:1027800048F63A33C0F60000C0F60002C0F6000377
:1027900040F6D821FDF728FF04F026F8FEE70000F8
:1027A000B0B50D062CD4D0F814C08C4540F2DA80B8
:1027B000C0684D01445904F47F05B5F5003F00F0B1
:1027C000D58004F07F45B5F1806F40F0D38000EBF9
:1027D0004114190649D49C4540F2C480590141581E
:1027E00001F47F05B5F5003F00F0C08001F07F41A6
:1027F000B1F1806F40F0BE8000EB43155DE000BF9B
:10280000D0F814C0BCEB112F40F2AC804FEA112E6F
:10281000C0684FEA4E15455905F47F04B4F5003FF2
:1028200000F0A48005F07F44B4F1407F40F0A28026
:1028300000EB4E156C6901F07F01A14280F092809F
:10284000D5F80CE04D015EF8055005F47F04B4F5B1
:10285000003F00F08B8005F07F44B4F1806F40F0C2
:1028600089800EEB41141906B5D5BCEB132F79D92D
:102870004FEA132C4FEA4C15455905F47F01B1F589
:10288000003F73D005F07F41B1F1407F72D100EB82
:102890004C114D6903F07F00A84263D2C96843011F
:1028A000CB5803F47F05B5F5003F5FD003F07F43BD
:1028B000B3F1806F5ED101EB4015A168C80644BF3B
:1028C000287A5FEA007003D46FF00600B0BD00BF45
:1028D000B2EB115F6FF0060043D8C1F30B219142B8
:1028E0003FD8616988B232FA00F047D16869030CB9
:1028F00013FA80F0B0EB114F40D80023B3EB515FD7
:1029000018D1D4F818C00B0CD5F818E02CF0010C35
:1029100002FA03F161442EF0010C8C452ED34FF0E6
:10292000010E0EFA03F3C91804D00EFA00F0604449
:10293000884223D8049B204611462A4605F0F6FA21
:1029400000281FD42088002818BF64686068013000
:1029500060602888002818BF6D686868013068606A
:102960000020B0BD6FF00200B0BD00BF6FF00800E6
:10297000B0BD00BF6FF00100B0BD00BF6FF06400DC
:10298000B0BD00BF6FF06500B0BD00002DE9F04F95
:1029900081B09946DDE90DC303EB0C0EBEF1200FAB
:1029A00000F208810F062BD446698E4240F2EA807D
:1029B000C0684F01C75907F47F05B5F5003F00F027
:1029C000ED8007F07F47B7F1407F40F0ED8000EBEE
:1029D0004118110644D4964240F2D4805101415826
:1029E00001F47F07B7F5003F00F0D88001F07F4188
:1029F000B1F1007F40F0D88000EB421159E000BFF8
:102A00004669B6EB112F40F2BD800F0AC0687D0108
:102A1000455905F47F04B4F5003F00F0BF8005F090
:102A20007F45B5F1407F40F0BF8000EB47177D69DF
:102A300001F07F01A94280F0A580FF684D017D591A
:102A400005F47F04B4F5003F00F0A88005F07F4551
:102A5000B5F1407F40F0A88007EB41181106BAD5C8
:102A6000B6EB122F40F28E80110A4F01C65906F4C0
:102A70007F07B7F5003F00F0918006F07F47B7F180
:102A8000407F40F0918000EB41114F6902F07F00E0
:102A9000B84277D2C96842018A5802F47F07B7F575
:102AA000003F7BD002F07F42B2F1007F7CD101EB8E
:102AB000401198F80800C0076AD0DDF830A0087A05
:102AC0005422BAF1000F08BF1022800760D50A987F
:102AD0004E6937186FF0060050D2BE424ED804201F
:102AE00098408418381953D28969013881424FD3EC
:102AF0000B9D51462846624676469B46009705F058
:102B0000B3F8002856D4C6F1200015FA00F051D1D0
:102B1000D8F81400484535D9D8F80C004FEA4911C7
:102B2000415800294CD100EB49164FF480303060F9
:102B300040F23C10C2F20000006821463061384685
:102B4000FFF726FB00284FF000013FD1FF200D9A30
:102B5000CFF6F070C6E901104AEA05004BEA0242DE
:102B6000C6E905203046F760F16105F097F8B0F14D
:102B7000FF3F2FDD00204FF08061316001B0BDE8E4
:102B8000F08F00BF6FF0020001B0BDE8F08F00BF12
:102B90006FF0060001B0BDE8F08F00BF6FF00800D5
:102BA00001B0BDE8F08F00BF6FF0010001B0BDE8DB
:102BB000F08F00BF6FF0660001B0BDE8F08F00BF7E
:102BC0006FF0040001B0BDE8F08F00BF6FF00300AC
:102BD000D3E700BF38462146FFF766FA20B96FF009
:102BE00066000021C9E700BF48F6993048F62E324A
:102BF00048F63A33C0F60000C0F60002C0F6000303
:102C000040F68941FDF7F0FC03F0EEFDFEE7000021
:102C10002DE9F0470B0615D443698B4240F2FA8048
:102C2000C0684B01C35803F47F07B7F5003F00F0BD
:102C3000F58003F07F43B3F1407F40F0F38000EB79
:102C400041102DE04369B3EB112F40F2E3800B0AF2
:102C5000C0685F01C75907F47F06B6F5003F00F072
:102C6000DD8007F07F47B7F1407F40F0DB8000EB6D
:102C700043135F6901F07F00B84280F0CB80D968D0
:102C80004301CB5803F47F07B7F5003F00F0C6803F
:102C900003F07F43B3F1407F40F0C48001EB40106C
:102CA000017A890740F1C2804169914240F2B280C5
:102CB000C0685101455805F47F01B1F5003F40F06F
:102CC000AD8005F07F41B1F1806F40F0AB8000EB4B
:102CD000421460680028A8B240F0AC80002840F0A0
:102CE000B980204604F0D8FFB0F1FF3F40F3C68022
:102CF000A269E068A18AD20723684FF0540208BF96
:102D00001022AB4240F0C8800023070723606DD13A
:102D1000042303FA01F14DF63F230A44CDF6FF7375
:102D2000C1181044013118441F2240F2040CC1F3B1
:102D300004174FF0FF36490A22EA1012C2F2000CC3
:102D400026FA02FA430A5CF8212006FA07F99942AA
:102D50000CEB810006D10AEA090A02EA0A01514590
:102D60003DD043E002EA09024A453FD101F1010E9C
:102D7000A3F10108C6451AD2CE1A002700EB870539
:102D80006A68013232D1F219D41C10D0AC68013417
:102D90002CD1141D0BD0EC68013427D1053206D09C
:102DA0002A69013222D10437F2190232E6D15CF8E5
:102DB000232002EA0A02524518D102680CEB83056F
:102DC00022EA0902C645026008D2591A6FF00702CA
:102DD0000CEB8E0002EB8101FDF741FB28460168F8
:102DE00021EA0A0101600020BDE8F08748F6993029
:102DF00048F62E3248F63A33C0F60000C0F600021C
:102E0000C0F6000340F6E841FDF7EEFB03F0ECFCF2
:102E1000FEE700BF6FF00200BDE8F0876FF008002A
:102E2000BDE8F0876FF00100BDE8F0876FF00600A5
:102E3000BDE8F08748B92068A84201BF4FF0806024
:102E400020606FF00500BDE8F0876FF00500BDE879
:102E5000F08700BF48F6993048F62E3248F63A33EC
:102E6000C0F60000C0F60002C0F6000340F6C14103
:102E7000FDF7BAFB03F0B8FCFEE700BF2068A842EC
:102E800001BF4FF0806020606FF06600BDE8F08702
:102E90006FF06600BDE8F0874FF0FF30BDE8F087C7
:102EA000B0B50D062CD4D0F814C08C4540F2AE80DD
:102EB000C0684D01445904F47F05B5F5003F00F0AA
:102EC000A98004F07F45B5F1407F40F0A78000EB7A
:102ED0004114190644D49C4540F298805901415848
:102EE00001F47F05B5F5003F00F0948001F07F41CB
:102EF000B1F1407F40F0928000EB431558E000BFF5
:102F0000D0F814C0BCEB112F40F280804FEA112E94
:102F1000C0684FEA4E15455905F47F04B4F5003FEB
:102F200078D005F07F44B4F1407F77D100EB4E15A7
:102F30006C6901F07F01A14268D2D5F80CE04D0127
:102F40005EF8055005F47F04B4F5003F62D005F04B
:102F50007F44B4F1407F61D10EEB41141906BAD51C
:102F6000BCEB132F52D94FEA132C4FEA4C1545599D
:102F700005F47F01B1F5003F4CD005F07F41B1F180
:102F8000407F4BD100EB4C114D6903F07F00A8420C
:102F90003CD2C9684301CB5803F47F05B5F5003F27
:102FA00038D003F07F43B3F1407F37D101EB4015B8
:102FB000A168880644BF287A5FEA007002D46FF0E7
:102FC0000600B0BDB2EB115F6FF006001DD8C1F373
:102FD0000B21914219D8A08A32FA00F022D1204662
:102FE00011462A4605F00CF800281FD42088002836
:102FF00018BF64686068013860602888002818BFBE
:103000006D686868013868600020B0BD6FF002002C
:10301000B0BD00BF6FF00800B0BD00BF6FF0010091
:10302000B0BD00BF6FF06400B0BD00BF6FF06500C1
:10303000B0BD000080B50B0614D443698B4259D94A
:10304000D0F80CC04B015CF8033003F47F00B0F5FE
:10305000003F53D003F07F40B0F1407F52D10CEBE2
:1030600041112EE04369B3EB112F43D94FEA112CE4
:10307000D0F80CE04FEA4C135EF8033003F47F0005
:10308000B0F5003F3AD003F07F40B0F1407F39D136
:103090000EEB4C13D3F814C001F07F00604529D229
:1030A000D3F80CC043015CF8033003F47F01B1F5A1
:1030B000003F23D003F07F41B1F1407F22D10CEBE0
:1030C00040118B68580721D5B2EB135F6FF00600F3
:1030D0000FD8C3F30B2393420BD8888A32FA00F03F
:1030E00018D10846114604F0E3FE6FF0650101EACD
:1030F000E07080BD6FF0020080BD00BF6FF008007F
:1031000080BD00BF6FF0010080BD00BF6FF0060002
:1031100080BD00BF6FF0640080BD000070B50D067B
:1031200042D4D0F814C08C4540F20481C6684801EE
:10313000305800F47F04B4F5003F00F0FF8000F049
:103140007F40B0F1407F40F0FD8006EB411E180645
:103150005DD49C4540F2EE805801305800F47F0168
:10316000B1F5003F00F0EA8000F07F40B0F1407F11
:1031700040F0E88006EB43130499080673D48C45AD
:1031800040F2D8804801305800F47F05B5F5003F83
:1031900000F0D48000F07F40B0F1806F40F0D2802A
:1031A00006EB411087E000BFD0F814C0BCEB112F34
:1031B00040F2C0804FEA112EC6684FEA4E103058D8
:1031C00000F47F04B4F5003F00F0B88000F07F40C9
:1031D000B0F1407F40F0B68006EB4E10446901F03C
:1031E0007F01A14280F0A680C0684C01045904F41C
:1031F0007F05B5F5003F00F0A18004F07F45B5F1F3
:10320000407F40F09F8000EB411E1806A1D5BCEB2B
:10321000132F40F28F80190A4801305800F47F04C0
:10322000B4F5003F00F08A8000F07F40B0F1407FAD
:1032300040F0888006EB4110446903F07F01A14211
:1032400078D2C0684B01C35803F47F04B4F5003F43
:1032500074D003F07F43B3F1407F73D100EB41138F
:10326000049908068BD5BCEB112F63D94FEA112CBA
:103270004FEA4C10305800F47F04B4F5003F5DD0A5
:1032800000F07F40B0F1407F5CD106EB4C156E69D9
:1032900001F07F00B0424DD2E96846018D5905F436
:1032A0007F06B6F5003F49D005F07F46B6F1806F46
:1032B00048D101EB40109EF80810C90706D0197AD2
:1032C000490644BF017A5FEA416103D46FF006000A
:1032D00070BD00BFDEF8141091422BD9DEF80C103F
:1032E00056018E5996BB01EB42114FF480320A60B1
:1032F00040F23C12C2F200021268012600250324AB
:10330000C1E90164C1E903521A88002A18BF5B6849
:103310000288002A18BF4068C1E905305A680132A6
:103320005A604268013242604FF0A060086000209D
:1033300070BD00BF6FF0020070BD00BF6FF00800ED
:1033400070BD00BF6FF0010070BD00BF6FF00400E2
:1033500070BD000010B50B062CD4D0F814C08C45FD
:1033600040F29E80C4684801205800F47F03B3F502
:10337000003F00F0998000F07F40B0F1A06F40F076
:10338000978004EB411E100644D4944540F2888097
:103390005001205800F47F01B1F5003F00F0848017
:1033A00000F07F41B1F1407F40F0828004EB421198
:1033B00056E000BFD0F814C0BCEB112F70D94FEA13
:1033C000112EC4684FEA4E10205800F47F03B3F565
:1033D000003F69D000F07F40B0F1407F68D104EB3E
:1033E0004E13D3F814E001F07F00704558D2D3F8A3
:1033F0000CE041015EF8011001F47F03B3F5003FDA
:1034000052D001F07F41B1F1A06F51D10EEB401EBF
:103410001006BAD5BCEB122F42D9100A41016158EF
:1034200001F47F03B3F5003F3ED001F07F41B1F1DD
:10343000407F3DD104EB4010436902F07F01994287
:103440002ED2C2684801105800F47F03B3F5003F44
:103450002AD000F07F43B3F1407F29D102EB411124
:103460009EF80820520744BF0A7A5FEA026203D43A
:103470006FF0060010BD00BF000418BF4968DEF8F9
:103480001400DEF81420824216D1CEF814104A68D7
:1034900001324A60416801394160002010BD00BF1F
:1034A0006FF0020010BD00BF6FF0080010BD00BF3C
:1034B0006FF0010010BD00BF6FF0C90010BD00002B
:1034C00070B50D0642D4D0F814C08C4540F202818C
:1034D000C6684801305800F47F04B4F5003F00F09E
:1034E000FD8000F07F40B0F1407F40F0FB8006EBB4
:1034F000411E18065DD49C4540F2EC8058013058BE
:1035000000F47F01B1F5003F00F0E88000F07F405B
:10351000B0F1407F40F0E68006EB431304990806C3
:1035200073D48C4540F2D6804801305800F47F05B2
:10353000B5F5003F00F0D28000F07F40B0F1806F21
:1035400040F0D08006EB411087E000BFD0F814C0F7
:10355000BCEB112F40F2BE804FEA112EC6684FEA35
:103560004E10305800F47F04B4F5003F00F0B680F0
:1035700000F07F40B0F1407F40F0B48006EB4E1089
:10358000446901F07F01A14280F0A480C0684C0131
:10359000045904F47F05B5F5003F00F09F8004F066
:1035A0007F45B5F1407F40F09D8000EB411E18063D
:1035B000A1D5BCEB132F40F28D80190A4801305879
:1035C00000F47F04B4F5003F00F0888000F07F40F5
:1035D000B0F1407F40F0868006EB4110446903F073
:1035E0007F01A14276D2C0684B01C35803F47F0427
:1035F000B4F5003F72D003F07F43B3F1407F71D147
:1036000000EB4113049908068BD5BCEB112F61D94F
:103610004FEA112C4FEA4C10305800F47F04B4F5F7
:10362000003F5BD000F07F40B0F1407F5AD106EB05
:103630004C156E6901F07F00B0424BD2E96846013B
:103640008D5905F47F06B6F5003F47D005F07F465B
:10365000B6F1806F46D101EB40109EF80810C90703
:1036600006D0197A490644BF017A5FEA416103D462
:103670006FF0060070BD00BFDEF81410914229D92A
:10368000DEF80C1056018E5986BB01EB42114FF447
:1036900080320A6040F23C12C2F200021268002638
:1036A0000F25C1E90165C1E903621A88002A18BF24
:1036B0005B680288002A18BF4068C1E905305A6873
:1036C00001325A604268013242604FF0A0600860E7
:1036D000002070BD6FF0020070BD00BF6FF00800E9
:1036E00070BD00BF6FF0010070BD00BF6FF004003F
:1036F00070BD000080B50B0614D443698B426BD9B2
:10370000D0F80CC04B015CF8033003F47F00B0F537
:10371000003F65D003F07F40B0F1407F64D10CEBF7
:1037200041102EE04369B3EB112F55D94FEA112C0C
:10373000D0F80CE04FEA4C135EF8033003F47F003E
:10374000B0F5003F4CD003F07F40B0F1407F4BD14B
:103750000EEB4C13D3F814C001F07F0060453BD250
:10376000D3F80CC043015CF8033003F47F01B1F5DA
:10377000003F35D003F07F41B1F1407F34D10CEBF5
:103780004010017A890733D54169914224D9C16833
:103790005001085800F47F03B3F5003F20D100F03A
:1037A0007F43B3F1A06F1FD101EB42114A68002A99
:1037B00082B221D172BBD1E9053C0A6882423DD177
:1037C00000200860596801395960DCF8041001399B
:1037D000CCF8041080BD00BF6FF0020080BD00BFB8
:1037E0006FF0080080BD00BF6FF0010080BD00BF1A
:1037F0006FF0060080BD00BF42B90A68824201BF77
:103800004FF0A06008606FF0050080BD6FF005000C
:1038100080BD00BF48F6993048F62E3248F63A335C
:10382000C0F60000C0F60002C0F6000341F21031FD
:10383000FCF7DAFE02F0D8FFFEE700BF4FF0FF30E2
:1038400080BD000010B50B062CD4D0F814C08C45F8
:1038500040F29E80C4684801205800F47F03B3F50D
:10386000003F00F0998000F07F40B0F1A06F40F081
:10387000978004EB411E100644D4944540F28880A2
:103880005001215801F47F00B0F5003F00F0848022
:1038900001F07F40B0F1806F40F0828004EB421273
:1038A00056E000BFD0F814C0BCEB112F70D94FEA1E
:1038B000112EC4684FEA4E10205800F47F03B3F570
:1038C000003F69D000F07F40B0F1407F68D104EB49
:1038D0004E13D3F814E001F07F00704558D2D3F8AE
:1038E0000CE041015EF8011001F47F03B3F5003FE5
:1038F00052D001F07F41B1F1A06F51D10EEB401ECB
:103900001006BAD5BCEB122F42D9110A4801205833
:1039100000F47F03B3F5003F3ED000F07F40B0F1EC
:10392000407F3DD104EB4110416902F07F028A42A1
:103930002ED2C3685001195801F47F00B0F5003F42
:103940002AD001F07F40B0F1806F29D103EB421201
:103950009EF80800000744BF107A5FEA006003D4B5
:103960006FF0060010BD00BF0804DEF8183018BF65
:103970005268DEF81800984216D1CEF81820506828
:1039800001305060586801385860002010BD00BFF9
:103990006FF0020010BD00BF6FF0080010BD00BF47
:1039A0006FF0010010BD00BF6FF0C90010BD000036
:1039B000014651F8082F8A4207D1426B136C02F17D
:1039C0003C0C1164C0E902C31960806B002814BF6D
:1039D00001217047FEF75EB92DE9F04784B0D1F8B8
:1039E00048A081460D46D2F84880504649461446C4
:1039F00004F01CFCD4E9111202F13003D5E91126C0
:103A000021F0004022F00047D20FC90F3036CDE937
:103A100000724246CDF808A0039604F0C9FB484660
:103A2000414604F003FC55F84C0F411B18BF0146FA
:103A300001F10800002908BFA5F12000006854F832
:103A40004C2F8169131B18BF13460A8803F1080025
:103A5000002B08BFA4F1200082B9006880690288A9
:103A600002BBC968C268914204BF04B0BDE8F087D8
:103A700004B0BDE8F04704F04FBB00BF48F69930F2
:103A800048F62E3248F63A33C0F60000C0F600027F
:103A9000C0F6000341F20C21FCF7A6FD02F0A4FEE3
:103AA000FEE700BF48F6993048F62E3248F63A3322
:103AB000C0F60000C0F60002C0F6000341F20D217E
:103AC000FCF792FD02F090FEFEE7000080B50B06C9
:103AD00014D443698B4263D9D0F80CC04B015CF815
:103AE000033003F47F00B0F5003F5DD003F07F406A
:103AF000B0F1407F5CD10CEB41102EE04369B3EB99
:103B0000112F4DD94FEA112CD0F80CE04FEA4C138D
:103B10005EF8033003F47F00B0F5003F44D003F0BB
:103B20007F40B0F1407F43D10EEB4C13D3F814C06B
:103B300001F07F00604533D2D3F80CC043015CF83C
:103B4000033003F47F01B1F5003F2DD003F07F4136
:103B5000B1F1407F2CD10CEB4010017AC9072BD07A
:103B6000416991421CD9C0685101415841BB00EBE9
:103B700042114FF48030086040F23C10C2F2000065
:103B8000026800204FF0010C3F23C1E903024FF00F
:103B90000062C1E901C3C1E905000A6080BD00BF40
:103BA0006FF0020080BD00BF6FF0080080BD00BF55
:103BB0006FF0010080BD00BF6FF0060080BD00BF48
:103BC0006FF0040080BD000080B50B0614D443697B
:103BD0008B4261D9D0F80CC04B015CF8033003F480
:103BE0007F00B0F5003F5BD003F07F40B0F1407F35
:103BF0005AD10CEB41102EE04369B3EB112F4BD996
:103C00004FEA112CD0F80CE04FEA4C135EF8033069
:103C100003F47F00B0F5003F42D003F07F40B0F1E5
:103C2000407F41D10EEB4C13D3F814C001F07F005C
:103C3000604531D2D3F80CC043015CF8033003F483
:103C40007F01B1F5003F2BD003F07F41B1F1407F00
:103C50002AD10CEB4010017AC90729D04169914261
:103C60001AD9C0685101415831BB00EB42114FF4E1
:103C70008030086040F23C10C2F2000000683F2231
:103C8000086100204860C8608A604FF000624861A7
:103C900088610A6080BD00BF6FF0020080BD00BF78
:103CA0006FF0080080BD00BF6FF0010080BD00BF55
:103CB0006FF0060080BD00BF6FF0040080BD000003
:103CC00010B50B0614D443698B4275D9D0F80CC0DB
:103CD0004B015CF8033003F47F00B0F5003F6FD078
:103CE00003F07F40B0F1407F6ED10CEB41102EE02D
:103CF0004369B3EB112F5FD94FEA112CD0F80CE0D8
:103D00004FEA4C135EF8033003F47F00B0F5003F38
:103D100056D003F07F40B0F1407F55D10EEB4C13ED
:103D2000D3F814C001F07F00604545D2D3F80CC031
:103D300043015CF8033003F47F01B1F5003F3FD04D
:103D400003F07F41B1F1407F3ED10CEB4010017A8E
:103D500089073DD5416991422ED9C068510150F87B
:103D600001E00EF47F01B1F5003F29D10EF07F4153
:103D7000B1F1006F28D100EB421CDCF804000028F0
:103D80001FFA8EF028D188BBDCF818206FF49671EA
:103D90001346002A18BF0123DCF80040104618BF64
:103DA0006FF49670002A08BF4FF0FF31744531D18F
:103DB000DA06CCF8002010BD6FF0020010BD00BF85
:103DC0006FF0080010BD00BF6FF0010010BD00BF14
:103DD0006FF0060010BD00BFF0B9DCF800007045C0
:103DE0006FF00500E7D14FF00062E2E748F6993046
:103DF00048F62E3248F63A33C0F60000C0F600020C
:103E0000C0F6000341F6C521FCF7EEFB02F0ECFC26
:103E1000FEE700BF084610BD6FF0050010BD0000B2
:103E200010B514061AD44469944240F2D780D0F8F1
:103E30000CC054015CF8044004F47F00B0F5003F6E
:103E400000F0D08004F07F40B0F1006F40F0CE80F1
:103E50000CEB4210032B39D9AAE000BF4469B4EB44
:103E6000122F40F2BB804FEA122CD0F80CE04FEA40
:103E70004C145EF8044004F47F00B0F5003F00F0FD
:103E8000B18004F07F40B0F1407F40F0AF800EEB96
:103E90004C14D4F814C002F07F00604580F09E807E
:103EA000D4F80CC044015CF8044004F47F02B2F57D
:103EB000003F00F0978004F07F42B2F1006F40F0C5
:103EC00095800CEB4010032B00F27280DFE803F0CA
:103ED00002080C10027A92070DD46FF0060010BD94
:103EE000027A520707D4F8E7027A120703D4F4E7FC
:103EF000027AD206F1D5220418BF40688269002AEE
:103F000056D140F22802C2F20002D2F804C0DCF816
:103F10001820002A6ED06FF00044A24200F07E808C
:103F200042697AB1D0F814C06FF00204234243D042
:103F3000944577D1002444610846114604F014F9F1
:103F4000204610BD012B41D88269002A6AD1C0F8F1
:103F500018C0DCF814E0C36101221EF10103CCF8A3
:103F60002800CCF81C2061D0DCE90034DCF820C04B
:103F700023600EEBCC0252F8140F5C6090420CD11F
:103F80004FEA5C130EEB83030CF01F0001221C6947
:103F900002FA00F024EA0000186140F22802C2F29E
:103FA000000208461146FDF71BFE002010BD00BFB1
:103FB0006FF4967010BD00BF944533D1013A426151
:103FC0000846012104F0D0F8002010BD0846002169
:103FD000002404F0C9F8204610BD00BF6FF00200B5
:103FE00010BD00BF6FF0080010BD00BF6FF00100F2
:103FF00010BD00BF48F6993048F62E3248F63A33E5
:10400000C0F60000C0F60002C0F6000341F6994178
:10401000FCF7EAFA02F0E8FBFEE700BF6FF49970E4
:1040200010BD00BF6FF4987010BD00BF48F6993006
:1040300048F62E3248F63A33C0F60000C0F60002C9
:10404000C0F6000341F25611FCF7CEFA02F0CCFBA9
:10405000FEE70000F0B581B01D460C46110615D4F0
:104060004169914240F2A880C1685001085800F4AB
:104070007F03B3F5003F00F0A58000F07F43B3F16C
:10408000006F40F0A58001EB42172AE04169B1EBD7
:10409000122F40F29180110AC0684B01C35803F4FB
:1040A0007F07B7F5003F00F08D8003F07F43B3F149
:1040B000407F40F08D8000EB4110436902F07F01AA
:1040C000994279D2C2684801105800F47F03B3F5D1
:1040D000003F77D000F07F43B3F1006F78D102EB5F
:1040E0004117397AC90779D00004A5F5803018BF87
:1040F0007F6810F5803F4DD978694FF6FE71C3F6A1
:10410000FF71884246D8BE69002E49D0706940F2DE
:104110002801C2F20001884242D12046002104F069
:1041200023F8F969B06C19B1294604F01DF808E0CC
:10413000012104F019F8022D03D3786928440138CD
:104140007861B06900284FD070690021421CF1618C
:1041500050D0316A103000EBC1029568131D966093
:1041600001F01F024909C6E900352E60012350F80D
:10417000216003FA02F2324340F8212040F2280184
:10418000C2F200012046FDF72BFD0024BC61204651
:1041900001B0F0BD6FF49774204601B0F0BD00BFD0
:1041A00078690021284478612046002403F0DCFF70
:1041B000204601B0F0BD00BF6FF00204204601B000
:1041C000F0BD00BF6FF00804204601B0F0BD00BF95
:1041D0006FF00104204601B0F0BD00BF6FF006048F
:1041E000204601B0F0BD00BF0220F0613046FFF76D
:1041F000DFFBC3E748F6993048F62E3248F63A33EB
:10420000C0F60000C0F60002C0F6000341F23C1107
:10421000FCF7EAF902F0E8FAFEE700002DE9F041C8
:104220008CB00BA90AAA07AB054603F08FFF0B9CC5
:1042300014F03F010AD1079928460022FDF7FCFB44
:10424000002800F17B810CB0BDE8F08140F228002D
:10425000C2F200004068034653F84C2F9A4200D047
:1042600052B92C300068012940690BD1DDE90723E0
:104270002946FDF7D9F8E3E702F1080000680129B3
:104280004069F3D002391F2900F27880DFE811F08D
:10429000200026002C003C0042004C00680070000A
:1042A0007A0086008C009200A400AA00C000C6001C
:1042B000D400DA00E400EA00F200F800FE00040195
:1042C00018011E012C01300136013C0148014E014C
:1042D000DDE907232946FFF7BDFEB1E7DDE9072346
:1042E0002946FFF79DFDABE70DF11C0C9CE8121071
:1042F0000A9A8BB2090CCDE900142946CDF808C002
:10430000FDF736FD9CE700BF079A294601F020F92A
:1043100096E700BFDDE90731DDE909420091294652
:10432000019400F0CDFD8BE7DDE9071CDDE90942D2
:104330008BB25FFA84FE090CC4F30726CDE900E1D5
:1043400002A91FFA8CF7C4F307484FEA1C4C240E4D
:1043500081E8C0112946069401F0D8F970E700BF42
:1043600007AF8CCF2946009701F034FE68E700BF05
:10437000DDE90723294601F041FC61E74FF0FF31F9
:10438000DDE000BFDDE90737DDE909611A0C9BB20A
:10439000CDE90076FCF7D0FCD0E000BF0A99079A7F
:1043A000FCF7D4FDCAE000BF0A99079AFCF72CFF7E
:1043B000C4E000BF0DF11C0C9CE884100A9E110C97
:1043C00092B23B0CBFB246EA0446CDE9007C0296AD
:1043D000FCF7E4FAB2E000BF0A99079AFCF79CFFE9
:1043E000ACE000BFDDE9077CDDE909613A0CC7F309
:1043F000072326F0010E06F00106FFB2240ACDE9DC
:1044000000CECDE902670494FEF7C0FA96E000BF43
:104410000A99079AFEF7FCFB90E000BFDDE9072749
:10442000099E0A9B110C92B23C0CBFB2CDE9004729
:104430000296FDF72BFF81E0DDE90712FEF7FAFD9A
:104440007CE000BFDDE90732099F190C9BB20097A1
:10445000FEF7A6F972E000BF07AB0ECBFEF720FD1A
:104460006CE000BF07AF0A998CCF0097FFF728F8E0
:1044700064E000BF0A99079AFFF73CF95EE000BFCD
:10448000DDE90712FEF766FF58E000BFDDE907121D
:10449000FFF7D8F952E000BF0DF11C0C9CE8881022
:1044A0000A991A0C9BB23E0C4FEAD41E04F0400449
:1044B000BFB28DE8C050049400F080F93EE000BF28
:1044C0000A99079A00F0F8FA38E000BFDDE90737EB
:1044D000DDE909611A0C9BB23C0CBFB2CDE9004783
:1044E000029600F0C1FE29E0079901F001FB25E0EA
:1044F0000A99079AFFF768FB20E000BF0A99079A1C
:10450000FFF7DEFB1AE000BFDDE90737DDE90961EF
:104510001A0C9BB2CDE90076FDF720F80EE000BF43
:104520000A99079AFDF74CF908E000BFDDE9077228
:10453000099BB9B23F0C0097FDF7EEFA01462846F9
:1045400003F012FE0CB0BDE8F08100002DE9F0414F
:10455000DDF81C80B8F11F0F00F20E810F062BD47E
:1045600047698F4240F2F880C0684E01865906F4D0
:104570007F05B5F5003F00F0F38006F07F46B6F109
:10458000407F40F0F18000EB41111E0644D49F4271
:1045900040F2E2805F01C75907F47F06B6F5003F9D
:1045A00000F0DE8007F07F47B7F1A06F40F0DC80BD
:1045B00000EB43175BE000BF4769B7EB112F40F2F8
:1045C000CB800E0AC0687501455905F47F04B4F527
:1045D000003F00F0C58005F07F45B5F1407F40F019
:1045E000C38000EB4616756901F07F01A94280F097
:1045F000B380F6684D01755905F47F04B4F5003FAA
:1046000000F0AE8005F07F45B5F1407F40F0AC8012
:1046100006EB41111E06BAD5B7EB132F40F29C8072
:104620001F0A7E01865906F47F05B5F5003F00F0AC
:10463000978006F07F46B6F1407F40F0958000EB12
:1046400047177E6903F07F00B04280F08580FB68E9
:104650004701DF5907F47F06B6F5003F00F0808080
:1046600007F07F47B7F1A06F7ED103EB4017087AC0
:10467000C0077DD0387A80077AD5486990426BD9D7
:10468000C8685101415800297AD100EB42164FF415
:104690008030306040F23C10C2F200000068069C9E
:1046A00030610020002503F07DFD00F188012046E7
:1046B000FDF76EFD002867D16FF000402561C4E969
:1046C00006053988002200294FF01F0304F1280154
:1046D000089818BF7F684FF0010CC4E9088381E88F
:1046E000841004F1080304F1580504F14C01C4E9F5
:1046F000023304F13C03C4E91251C4E914124FF42B
:10470000F6716061C4E90E23C4E91032C6E901C143
:10471000F4607968421C01F1010179603AD0216AA4
:1047200000F1100202EBC1039D681F1D9C6001F0A7
:104730001F034909C4E9007552F821700CFA03F30C
:104740002C603B43446000204FF0C06542F82130AC
:104750003560BDE8F08100BF6FF00200BDE8F08178
:104760006FF00800BDE8F0816FF00100BDE8F08156
:104770006FF00600BDE8F0816FF0CC00BDE8F0817D
:104780006FF00400BDE8F0816FF003003560BDE814
:10479000F08100BF48F6993048F62E3248F63A3399
:1047A000C0F60000C0F60002C0F6000341F23C1162
:1047B000FBF71AFF02F018F8FEE700002DE9F04FB2
:1047C00081B0994640F22803C2F200035B68DDF82D
:1047D0002C805B6A4345C0F059810B0640D4436985
:1047E0008B4240F24181C0684F01C75907F47F06F0
:1047F000B6F5003F00F03E8107F07F47B7F1407FFC
:1048000040F03E8100EB4117110659D4934240F22B
:104810002B815101415801F47F06B6F5003F00F0AD
:10482000298101F07F41B1F1007F40F0298100EB47
:1048300042150A990A0672D48B4240F215814A0148
:10484000825802F47F03B3F5003F00F0138102F0B9
:104850007F42B2F1A06F40F0138100EB41148AE077
:104860004369B3EB112F40F2FF800F0AC0687E014D
:10487000865906F47F05B5F5003F00F0FB8006F091
:104880007F46B6F1407F40F0FB8000EB47177E6922
:1048900001F07F01B14280F0E780FF684E01BE5910
:1048A00006F47F05B5F5003F00F0E48006F07F4692
:1048B000B6F1407F40F0E48007EB41171106A5D523
:1048C000B3EB122F40F2D080110A4E01865906F444
:1048D0007F05B5F5003F00F0CD8006F07F46B6F1CC
:1048E000407F40F0CD8000EB4116756902F07F01FA
:1048F000A94280F0B980F2684E01965906F47F050E
:10490000B5F5003F00F0B68006F07F46B6F1007FB7
:1049100040F0B68002EB41150A990A068CD5B3EB3C
:10492000112F40F2A1800A0A5301C35803F47F06F5
:10493000B6F5003F00F09E8003F07F43B3F1407F67
:1049400040F09E8000EB4212536901F07F009842D4
:1049500080F08A80D16842018A5802F47F03B3F55F
:10496000003F00F0878002F07F42B2F1A06F40F07C
:10497000878001EB4014387AC00700F09280207ADB
:10498000800740F18E80DDE90DABBBF1000F40F0F8
:104990008380504603F006FC00F18801287A400726
:1049A00040F17F800C986A6916186FF0060058D2A3
:1049B000B24256D8701874D2AA690138824270D3B4
:1049C0007869484550D9F8684FEA49128258002A58
:1049D0006CD100EB49154FF48030286040F23C1058
:1049E000C2F20000006828613046FDF7D1FB0028C4
:1049F0004FF0000132D402203161C6E90610208850
:104A00004FF0FF31002818BF6468716106F108019A
:104A10000020C6E9021106F13C0106F14C02C6E98C
:104A20000980C6E90B40C6E90E01BBF1000F3164F5
:104A30001ABF4AF0004A002106F158010020C6E9D9
:104A400013222A1DC6E911A1706540F2FF1143C26D
:104A50006168013161604FF0C06101E06FF00300F7
:104A6000296001B0BDE8F08F6FF0020001B0BDE831
:104A7000F08F00BF6FF0080001B0BDE8F08F00BFFD
:104A80006FF0010001B0BDE8F08F00BF6FF0CC0007
:104A900001B0BDE8F08F00BF5821287A40073FF5EC
:104AA00081AF6FF0060001B0BDE8F08F6FF0040039
:104AB00001B0BDE8F08F00002DE9F0470B0615D4DA
:104AC00043698B4240F2A281C0684B01C35803F492
:104AD0007F07B7F5003F00F09D8103F07F43B3F1FE
:104AE000407F40F09B8100EB41102DE04369B3EB28
:104AF000112F40F28B810B0AC0685F01C75907F480
:104B00007F06B6F5003F00F0858107F07F47B7F1DB
:104B1000407F40F0838100EB43135F6901F07F0029
:104B2000B84280F07381D9684301CB5803F47F0702
:104B3000B7F5003F00F06E8103F07F43B3F1407F93
:104B400040F06C8101EB4010017A890740F16A81E5
:104B50004169914240F25A81C0685101415801F4C3
:104B60007F03B3F5003F40F0558101F07F43B3F17F
:104B7000C06F40F0538100EB42104268002A8AB2B5
:104B800040F05481002A40F06181C4686369026882
:104B9000013340F06F818A4240F07A810021016048
:104BA000224652F84C3F9068934227D0D3E90065E3
:104BB000D9602E6017687560974219D0D7E90065F3
:104BC000F9602E6013687560934213D0D3E90065D5
:104BD000D9602E601768756097420DD0D7E90065DF
:104BE00004382E601368F96093427560DED104E0EA
:104BF000013802E0023800E003386065002840F028
:104C00004B81E06A416801394160606C002829D419
:104C100003F0C8FA210740F0D180A4F10051A1F5BA
:104C20001752C2F304114FF0FF33104403FA01F995
:104C3000510A87301F2240F2040C22EA1012C2F2FD
:104C4000000C23FA02FA430A5CF8212099420CEB8B
:104C500081002FD10AEA090A02EA0A01514500F04F
:104C6000A680ABE0200740F0BD80A4F10050A0F585
:104C70001750C0F304114FF0FF3202FA01F9410A54
:104C800057301F2340F2040C23EA1013C2F2000C29
:104C900022FA03FA430A5CF8212099420CEB8100C6
:104CA00048D10AEA090A02EA0A01514500F07F8068
:104CB00098E000BF02EA09024A4540F07F8001F116
:104CC000010EA3F10108C6451BD2CE1A002700BF72
:104CD00000EB87056A68013270D1F219D41C10D03C
:104CE000AC6801346AD1141D0BD0EC68013465D175
:104CF000053206D02A69013260D10437F219023236
:104D0000E6D15CF8232002EA0A02524556D1026835
:104D10000CEB830522EA0902C645026008D2591A43
:104D20006FF007020CEB8E0002EB8101FBF797FBA3
:104D300028463CE002EA09024A4553D101F1010E3E
:104D4000A3F10108C6451AD2CE1A002700EB870549
:104D50006A68013246D1F219D41C10D0AC68013413
:104D600040D1141D0BD0EC6801343BD1053206D084
:104D70002A69013236D10437F2190232E6D15CF8E1
:104D8000232002EA0A0252452CD102680CEB83056B
:104D900022EA0902C645026008D2591A6FF00702DA
:104DA0000CEB8E0002EB8101FBF759FB28460168F2
:104DB00021EA0A0101600020BDE8F08748F6993039
:104DC00048F62E3248F63A33C0F60000C0F600022C
:104DD000C0F6000341F22351FBF706FC01F004FD8D
:104DE000FEE700BF48F6993048F62E3248F63A33CF
:104DF000C0F60000C0F60002C0F6000341F22A51DE
:104E0000FBF7F2FB01F0F0FCFEE700BF6FF00200E1
:104E1000BDE8F0876FF00800BDE8F0876FF0010093
:104E2000BDE8F0876FF00600BDE8F0874AB9026878
:104E30008A4201BF4FF0C06101606FF00500BDE81C
:104E4000F0876FF00500BDE8F08700BF48F69930A5
:104E500048F62E3248F63A33C0F60000C0F600029B
:104E6000C0F6000341F2F741FBF7BEFB01F0BCFCCA
:104E7000FEE700BF8A4201BF4FF0C06101606FF0E2
:104E8000CB00BDE8F0876FF0CB00BDE8F08700BF36
:104E90004FF0FF30BDE8F08748F6993048F62E32E3
:104EA00048F63A33C0F60000C0F60002C0F6000330
:104EB00041F21851FBF798FB01F096FCFEE7000069
:104EC000F0B581B00F46110616D44169914240F207
:104ED000A380C0685101415801F47F06B6F5003F38
:104EE00000F0A08001F07F41B1F1C06F40F0A080E0
:104EF00000EB42102BE000BF4169B1EB122F40F2F2
:104F00008B80110AC0684E01865906F47F05B5F5FD
:104F1000003F00F0878006F07F46B6F1407F40F00A
:104F2000878000EB41114E6902F07F00B04273D2DE
:104F3000C96842018A5802F47F06B6F5003F71D075
:104F400002F07F42B2F1C06F72D101EB4010017AE2
:104F5000C90773D0C66840F228017069C2F2000127
:104F6000884271D19BB1069A8AB1079DD6E9110496
:104F7000194620F000402B46009403F069F9D6E969
:104F8000110120F0004001F1300203F0F5F838463D
:104F90000021002503F0E8F8F069032838D1B06952
:104FA000D0B170690021421CF16153D0316A1030D8
:104FB00000EBC1029568131D9660C6E9003501F04B
:104FC0001F020123490903FA02F250F821302E6032
:104FD0001A4340F8212013E0304650F8081F0222FF
:104FE0008142426107D1716B0B6C01F13C02086494
:104FF000C6E902231860B06B10B10121FCF74AFE2C
:1050000040F22801C2F200013846FCF7E9FD002514
:10501000284601B0F0BD00BF6FF00205284601B080
:10502000F0BD00BF6FF00805284601B0F0BD00BF1D
:105030006FF00105284601B0F0BD00BF6FF0060516
:10504000284601B0F0BD00BF6FF0CB05284601B087
:10505000F0BD00BF48F6993048F62E3248F63A3394
:10506000C0F60000C0F60002C0F6000341F23C1199
:10507000FBF7BAFA01F0B8FBFEE70000F0B581B02B
:10508000002101220746FCF7D7FC00287AD040F225
:105090002800C2F2000040686FF00042816991422E
:1050A00072D1412003F03CF8742003F039F87420E9
:1050B00003F036F8652003F033F86D2003F030F884
:1050C000702003F02DF8742003F02AF8652003F017
:1050D00027F8642003F024F8202003F021F874203E
:1050E00003F01EF86F2003F01BF8202003F018F8DF
:1050F0006B2003F015F8692003F012F86C2003F020
:105100000FF86C2003F00CF8202003F009F8692058
:1051100003F006F86E2003F003F8692003F000F8AE
:10512000742002F0FDFF202002F0FAFF742002F04C
:10513000F7FF682002F0F4FF722002F0F1FF652013
:1051400002F0EEFF612002F0EBFF642002F0E8FFC6
:105150002E2002F0E5FF48F6993048F62E3248F648
:105160003A33C0F60000C0F60002C0F6000341F278
:105170000D11FBF739FA384603F078F801F034FBEB
:10518000FEE700BF01B0F0BDC169B9BB41694A1C6F
:1051900048D0D0E90034026A236001EBC20555F81B
:1051A000146F5C60AE420AD102F01F03520901EB9A
:1051B000820101260A6906FA03F39A430A6101464D
:1051C00051F8082F03238A424B6107D1426B166CBA
:1051D00002F13C031164C0E902363160806B10B10A
:1051E0000121FCF757FD40F22801C2F200013846C8
:1051F00001B0BDE8F040FCF7F3BC00BF48F69930C1
:1052000048F62E3248F63A33C0F60000C0F60002E7
:10521000C0F6000341F21611FBF7E6F901F0E4FADB
:10522000FEE700BF48F6993048F62E3248F63A338A
:10523000C0F60000C0F60002C0F6000341F25611AD
:10524000FBF7D2F901F0D0FAFEE7000050F84C1F4E
:105250000A1A18BF0A4602F10801002A08BFA0F185
:1052600020010868806970472DE9F0470F062BD4AC
:10527000D0F814C08C4540F22B81C0684F01C7594B
:1052800007F47F06B6F5003F00F0268107F07F4760
:10529000B7F1C06F40F0248100EB4111170644D4F0
:1052A000944540F215815701C75907F47F06B6F5BA
:1052B000003F00F0118107F07F47B7F1C06F40F069
:1052C0000F8100EB42125CE0D0F814C0BCEB112F50
:1052D00040F2FE800F0AC0687E01865906F47F0501
:1052E000B5F5003F00F0F88006F07F46B6F1407F4C
:1052F00040F0F68000EB47177E6901F07F01B14274
:1053000080F0E680FF684E01BE5906F47F05B5F5D2
:10531000003F00F0E18006F07F46B6F1C06F40F03C
:10532000DF8007EB41111706BAD5BCEB122F40F214
:10533000CF80170A7E01865906F47F05B5F5003F38
:1053400000F0CA8006F07F46B6F1407F40F0C8808A
:1053500000EB47177E6902F07F02B24280F0B8800E
:10536000FF685601BE5906F47F05B5F5003F00F011
:10537000B38006F07F46B6F1C06F40F0B18007EB16
:1053800042120F7ABF0744BF177A5FEA477703D408
:105390006FF00600BDE8F087B3F5004F02D100249E
:1053A0003FE000BF1F0613D49C4540F291805F018F
:1053B000C75907F47F06B6F5003F00F08D8007F06F
:1053C0007F47B7F1006F40F08B8000EB431425E07E
:1053D000BCEB132F7CD91F0A7E01865906F47F058A
:1053E000B5F5003F78D006F07F46B6F1407F77D123
:1053F00000EB47177E6903F07F00B04268D2FB687C
:105400004701DF5907F47F06B6F5003F64D007F087
:105410007F47B7F1006F63D103EB4014207A800619
:10542000B6D5CD68686901305ED1D76840F22809E9
:105430007869C2F20009484556D1BD4258D0DDF81E
:105440002480686A404557D36E6C26F0004002F015
:105450008DFE00289CD4DDF828A006F00040BAF1AB
:10546000000F01D000284BD1BAF1000F01D0002865
:1054700052D0BAF1000F01D100284DD16869013036
:105480004ED1C5F81490386B089901303863E8693B
:105490006F6320F001000228C5F82080296143D104
:1054A00044B12088002818BF6468AC63606801308C
:1054B000606001E00020A863686CB0F1FF3FC4BFEA
:1054C0000020BDE8F0870020C5F848A0BDE8F087BF
:1054D0006FF00200BDE8F0876FF00800BDE8F087CC
:1054E0006FF00100BDE8F0876FF0CB00BDE8F087FA
:1054F0006FF0CE00BDE8F0876FF0CC00BDE8F0871C
:105500005FEA8A7008D1686C20F0004002F04AFE21
:10551000504430305045B1D86FF0CA00BDE8F08734
:105520006FF0C900BDE8F08748F6993048F62E3292
:1055300048F63A33C0F60000C0F60002C0F6000399
:1055400041F22561FBF750F801F04EF9FEE700004B
:105550002DE9F0418846110616D44169914240F286
:10556000A980C0685101415801F47F03B3F5003FA1
:1055700000F0A48001F07F41B1F1C06F40F0A28043
:1055800000EB42102BE000BF4169B1EB122F40F25B
:105590009180110AC0684B01C35803F47F07B7F527
:1055A000003F00F08B8003F07F43B3F1407F40F079
:1055B000898000EB41114B6902F07F00984279D25B
:1055C000C96842018A5802F47F03B3F5003F75D0E1
:1055D00002F07F42B2F1C06F74D101EB4010017A4A
:1055E000C90673D5C56840F228066869C2F200068C
:1055F000B0426FD1286B002870D1284650F8081FA0
:10560000C26A8142136BA3F10103136304D0EA68F9
:105610004A601160C5E90200A86B10B14168013908
:10562000416040460021002702F09EFDE869012804
:105630001AD028BB6869411C54D0D5E90023296AD7
:105640001A6000EBC10757F8144F5360BC4215D1E4
:1056500001F01F02490900EB81000123016903FAEF
:1056600002F29143016109E0A86C4FF6CE61CFF6DA
:10567000FF7102F079FDA86AAF6287610220E861DC
:1056800070680021A842A96106D04FF0FF30686120
:105690000020BDE8F08100BF40F22801C2F2000105
:1056A0004046FCF79DFA4FF0FF3068610020BDE8EE
:1056B000F08100BF6FF00200BDE8F0816FF00800DC
:1056C000BDE8F0816FF00100BDE8F0816FF00600E9
:1056D000BDE8F0816FF0CB00BDE8F0816FF0CD0048
:1056E000BDE8F08148F6993048F62E3248F63A3354
:1056F000C0F60000C0F60002C0F6000341F25611E9
:10570000FAF772FF01F070F8FEE700002DE9F043B0
:105710008DB08846511F11F1040FC0F0D181DDE931
:1057200014619146DDF868C0DDE918E2DDE9167420
:10573000CDE9093105A981E8C0401906CDE90B4240
:10574000CDF820C016D44169994240F2AD81C168BC
:105750005A018A5802F47F07B7F5003F00F0AA818A
:1057600002F07F42B2F1C06F40F0B08101EB431113
:105770002EE000BF4169B1EB132F40F29581190A69
:10578000C2684F01D65906F47F07B7F5003F00F015
:10579000918106F07F47B7F1407F40F0978102EB9F
:1057A0004112576903F07F01B94280F07D81D268D0
:1057B0004B01D35803F47F07B7F5003F00F07A811F
:1057C00003F07F43B3F1C06F40F0808102EB4111E1
:1057D0000A7A120740F18081CA6840F228015369B1
:1057E000C2F200018B42019240F06A81526A059B2D
:1057F0009A42C0F07781B9F1010F00F0E9800A9A6E
:10580000130605D443699A4280F04E81C3681DE0B7
:105810004369B3EB122F40F24781130AC4685F015A
:10582000E65906F47F07B7F5003F00F0438106F024
:105830007F47B7F1407F40F0498104EB43135F6934
:1058400002F07F02BA4280F02F81DB685701DE59F7
:1058500006F47F07B7F5003F00F02C8106F07F4784
:10586000B7F1C06F40F0328103EB4212137A1B078D
:1058700040F13281D268536902928B4240F020811C
:10588000526A069B9A42C0F02D81B9F1020F00F0D6
:105890009F800B9A130605D443699A4280F00481D5
:1058A000C3681DE04369B3EB122F40F2FD80130A79
:1058B000C4685F01E65906F47F07B7F5003F00F0C2
:1058C000F98006F07F47B7F1407F40F0FF8004EB9E
:1058D00043135F6902F07F02BA4280F0E580DB6823
:1058E0005701DE5906F47F07B7F5003F00F0E2806C
:1058F00006F07F47B7F1C06F40F0E88003EB42123B
:10590000137A1B0740F1E880D268536903928B42F7
:1059100040F0D680526A079B9A42C0F0E380B9F10A
:10592000030F55D00C9A130616D443699A4280F09F
:10593000BB80C0685301C35803F47F07B7F5003F2D
:1059400000F0B88003F07F43B3F1C06F40F0BE8039
:1059500000EB42102EE000BF4369B3EB122F40F280
:10596000A380130AC0685F01C65906F47F07B7F524
:10597000003F00F09F8006F07F47B7F1407F40F086
:10598000A58000EB43135F6902F07F00B84280F00E
:105990008B80DA684301D35803F47F07B7F5003FE3
:1059A00000F0888003F07F43B3F1C06F40F08E8039
:1059B00002EB4010027A120740F18E80C068426903
:1059C00004908A427CD1406A08998842C0F08A805B
:1059D0004046002102F0C8FB05A801A94FF0010CC8
:1059E00009E000BF02681A62B9F1010900F1040080
:1059F00001F1040139D00B68DF69002FF2D15C6935
:105A0000671C3DD0D3E900721E6A7A60176004EB10
:105A1000C60252F8147F97420AD1770904EB870730
:105A200006F01F023E690CFA02F226EA02023A610F
:105A3000026804F110071A6207EBC206B568341D4C
:105A4000B360C3E900452B6002F01F03520957F809
:105A500022600CFA03F3334347F82230B9F101090D
:105A600000F1040001F10401C5D140F22801C2F2A5
:105A700000014046FCF7B4F800200DB0BDE8F0830B
:105A800048F6993048F62E3248F63A33C0F6000010
:105A9000C0F60002C0F6000341F25611FAF7A4FD69
:105AA00000F0A2FEFEE700BF6FF002000DB0BDE8FF
:105AB000F08300BF6FF008000DB0BDE8F08300BFB9
:105AC0006FF0CB000DB0BDE8F08300BF6FF00100B8
:105AD0000DB0BDE8F08300BF6FF006000DB0BDE86B
:105AE000F08300BF6FF0CC000DB0BDE8F083000084
:105AF0000A0613D442698A4268D9C0684A018258AA
:105B000002F47F03B3F5003F64D002F07F42B2F1AC
:105B1000C06F63D100EB41102AE000BF4269B2EBD5
:105B2000112F53D94FEA112CC0684FEA4C13C358B8
:105B300003F47F02B2F5003F4CD003F07F42B2F194
:105B4000407F4BD100EB4C12536901F07F0098422B
:105B50003CD2D16842018A5802F47F03B3F5003F7A
:105B600038D002F07F42B2F1C06F37D101EB401064
:105B7000017A890636D5C16840F228024869C2F226
:105B80000002904232D151F83C0F884232D0416934
:105B9000D0E90023022953601A60006040600BD0F6
:105BA00003290FD102694FF08041002A08BF4FF04E
:105BB000C0418068084370474FF000518068084337
:105BC000704700BF00218068084370476FF00200F3
:105BD000704700BF6FF00800704700BF6FF0010012
:105BE000704700BF6FF00600704700BF6FF0CB003A
:105BF000704700BF6FF0CE00704700002DE9F04302
:105C000081B040F22808C2F20008D8F80450894652
:105C1000B2F5004F18DA110600F1A68041699142F1
:105C200040F25681C0685101415801F47F06B6F533
:105C3000003F00F0538101F07F41B1F1C06F40F0AF
:105C4000538100EB4210BDE0002B41D0A8694FF614
:105C5000FE71C7F6FF7188423AD268690021421C82
:105C6000A96100F08F81D5E90023296A1A6000EB51
:105C7000C10757F8146F5360BE420AD101F01F02EA
:105C8000490900EB81000123016903FA02F2914303
:105C90000161284650F8081F02228142426107D163
:105CA000696B0B6C01F13C020864C5E902231860C2
:105CB000A86B10B10121FBF7EDFFD8F81000002808
:105CC0003ED002F091FE08EBC0004669D8E000BF6C
:105CD000E869002840F02E816869411C00F03E818F
:105CE000D5E90023296A1A6000EBC10757F8146F41
:105CF0005360BE420CD101F01F02490900EB810143
:105D000001230F6903FA02F227EA02020A61296AF3
:105D1000103000EBC1029768131D9560C5E900378C
:105D200001F01F020123490903FA02F250F8213061
:105D30003D601A4340F82120D8F810000028C0D157
:105D400048F6993048F62E3248F63A33C0F600004D
:105D5000C0F60002C0F6000341F28711FAF744FCD6
:105D600000F042FDFEE700BF4169B1EB122F40F2A7
:105D7000AF80110AC0684E01865906F47F07B7F557
:105D8000003F00F0AB8006F07F47B7F1407F40F066
:105D9000AB8000EB41114F6902F07F00B84280F008
:105DA0009780C96842018A5802F47F07B7F5003F1F
:105DB00000F0948002F07F42B2F1C06F40F0948016
:105DC00001EB4010417AC90700F0A880C6687069ED
:105DD000404508D1286A316A884240F0A580F169BF
:105DE0000139032904D26FF0CB0001B0BDE8F08384
:105DF000002B45D0A9694FF6FE72C7F6FF7291429B
:105E00003ED2696900224B1CAA6100F0CF80D5E91F
:105E1000002301EBC0071A6057F8144F5360BC42CF
:105E20000AD100F01F02400901EB80000123016943
:105E300003FA02F291430161284650F8081F02223A
:105E40008142426107D1696B0B6C01F13C0208642D
:105E5000C5E902231860A86B10B10121FBF71AFFF6
